:1000000000040020252C00002F1F00002F1F0000DF
:1000100000000000000000000000000000000000E0
:100020000000000000000000000000002F1F000082
:1000300000000000000000002F1F00002F1F000024
:100040002F1F0000092B00002F1F000000000000E0
:100050002F1F000000000000000000000000000052
:10006000000000002F1F0000000000000000000042
:100070000000000000000000000000002F1F000032
:10008000952A0000000000002F1F00000000000063
:100090000000000000000000000000000000000060
:1000A0002F1F000000000000000000000000000002
:1000B0000000000000000000000000002F1F0000F2
:1000C00000B58FB0012402F058FC62B6CC4800683D
:1000D0001F210140CB4DE960E868012820460FD080
:1000E000E868022820460BD0E8680328204607D09D
:1000F000E8680428204603D0E868411F4842484188
:10010000C14A13214F0621040291C0494968914216
:10011000049400D1044608940EAC00200590A07011
:1001200008202080BA4909AE1422304602F064FD4E
:100130000197781CB7490860102002F049FDB64FBE
:100140003846214602F058FC38463146059E01F0FB
:10015000DBFBB2480168049C21430160B04802996E
:100160000160B049086820430860A8484068A64973
:10017000884202D0A54841600680AB4F01F0B2FA38
:1001800002F0A0FC40200390A849086038680121D3
:100190000791084338606E700898002807D0A4487B
:1001A000007B000610D4A348BC21032223E097481B
:1001B0004078002804D19E483421405C5A28EED172
:1001C0009C48BC21022216E001F0F0FC00280FD070
:1001D0000120687000242C612C708C48447002F05F
:1001E0001FFD9448BC214450049C02F0DFF903E059
:1001F0009048BC21012242508D4F8F4802F0E8FC0C
:100200006878052839D8079981403620014234D0D2
:10021000A8790028204602D1A87102F001FBA7218D
:1002200086480691016000F0B9FE089001F01CFDBF
:1002300000F0AAFBA868642102F0FAF9002962D153
:10024000EE61687805281DD8800002A109587C4815
:100250008F46C046930200006D0200008502000038
:10026000890200008D0200009102000075480078AC
:10027000002875480DD075480BE0A8790028304655
:10028000CAD1CCE7724804E0724802E0724800E04C
:100290007248734FB8477348B847654C207A0126B7
:1002A0003146714DA8477148B847A07A3146A847F2
:1002B0006F48B8476F48006804242146A8476E4835
:1002C000B8477D20C00000F087FF3146059EA84753
:1002D0006A48B8476A4800882146049CA84769488C
:1002E000B847484FF8680221A8473D46F8693E28BC
:1002F00006D8411CE9612818202282540846F6E7F6
:100300005F202E544A4F6048006800097C2800D8BE
:10031000D7E2A868A969411A6878C9087D2926D357
:10032000A968A961042801D0012820D1397B0907D7
:100330001DD52969491C29612978002906D1296917
:10034000524A521C914201D9012129702969504A0F
:1003500091420CD3042801D102F0C4F96E7001203F
:100360002A49487002F05CFC02F0A0FB6878FB218F
:1003700008423AD03F480068F96A88420FD2A8780C
:10038000401CC1B2A87005290AD3AE706E701F4818
:100390000799417002F044FC02F088FB00E0AE7067
:1003A00034480068B96A88420ED2E878401CC2B26C
:1003B000E8706878052A09D3EE7004220243052A02
:1003C00004D10220687003E0EE70687802280CD136
:1003D00028480068643188425CD302F003FC0B4873
:1003E00002F00EFC02F0E2F86878052800D9F8E186
:1003F0007844007940008744794D4D66B88FC046F7
:1004000020020B40280100203CC3A55AB002002066
:10041000902C000000480840004008402850084048
:1004200000E100E0045808400418094090120A4016
:100430007002002000000020C05D0000081108408C
:10044000F52C0000EC010020E02C0000FC2C00004A
:10045000EE2C00000A2D0000032D0000E72C000008
:10046000D1270000232D0000A12100001D2D000038
:10047000282D000090010020D82C00002C2D000019
:10048000E4010020172D00008C0100205F0900000E
:10049000B90B00006E71089804280FD16E70DA480D
:1004A000079941702C713046314602F073FB01F020
:1004B00015FB02F0B5FB02F0F9FA92E101F080F8C9
:1004C00000F046FC8DE10898042869D101F06EFB2C
:1004D000002800D18AE002F085FBCB4802F090FBB7
:1004E000BC20CA490E5002F061F87AE1002630467D
:1004F000314602F04FFB0899012959D1C2480078D2
:10050000002855D1C2480068F96A88427DD2BC20D3
:100510000121BE4A1150FFE0A868BE490968401A8F
:10052000BD49884259D307986870BC480670B868BE
:10053000F5490840B86002F009F902F0B7FAB84A84
:100540001078401CC1B21070032904D3B44806705F
:100550000798B4490870387A4000B349085A00F047
:100560003BFE002102F016FB3BE1EF480068E74943
:10057000884200D035E16820EB4A115C01295ED148
:100580006E24105BF049091A0022EB4802F0ECFAE5
:10059000E548005B049CEC49081AEE49088014E128
:1005A000A8686969401AED49884200D219E1A8E1BA
:1005B000062900D1B7E0052956D0042900D0ABE0C8
:1005C00001F0F4FA002874D002F00CFBD24802F0DB
:1005D00017FBBC20D4490E509CE080B2E04902F0E9
:1005E00027F8C8084B2820D3D74820E0BC2007991B
:1005F000CD4A02F0F2FA01F071FAD14802F0E8FABD
:1006000002F0F5FA01F06AFAEBE00120C249087045
:10061000A86868610320687001F0C2FEBF480399B2
:100620000160C84802F0D4FA76E0C7487738C94973
:10063000088081B20022C04802F096FAD1E0115C35
:10064000022929D16C20105A01F06CFB0446BE48E7
:10065000844200D3BC4C0022B748214602F084FA01
:10066000BC480480049CB0E02C792E7101F098FE07
:1006700001F09CFA002816D0079F6F702E612E7033
:10068000A54802F0BDFABC20A7490E50002C30D17D
:100690003846049CAD4930E0105C0328114617D160
:1006A0006C20085A21E0BC2007999F4A1150049CF5
:1006B00032E0BC2007999C4A02F08FFA01F00EFA52
:1006C0009F4802F085FA02F092FA01F007FA23E05F
:1006D0006B20085C9D4909780143080673D1387A7C
:1006E00040009D49085A00F077FD002102F052FABF
:1006F0006BE0964908787840049C0870894FB96887
:100700008A4A1140C0B200020843B86002F01EF8E5
:1007100002F0CCF901F04AFF2879012804D102F057
:100720006BF8002800D02E7168780028059E59D1FA
:100730002879002863D102F05FF8002851D0387B77
:1007400040064ED401988949086089490860894A61
:1007500010690123D905014311611068202101436B
:100760001160814C226A0893D906081D0243226257
:100770007C4B5A6E804C22405A661A6822401A609E
:100780005A6E0A435A661A680A431A60764A116812
:1007900001431160022479490C605D4804600298AD
:1007A000086066480699016067496A48018000222E
:1007B0006148009202F0D8F9387BC00636D472B690
:1007C00030BF62B657E000F0C3FA0898052808D891
:1007D0000798089988402E21084202D0089800F016
:1007E000EFFE687805280CD0042808D168204E490F
:1007F000095C012905D04C49085C022801D001F0B0
:100800006DF901F08DFEF8E4B00200200000002038
:1008100090010020C400002010270000EC010020FF
:100820000A02002009020020A42C00006879002898
:1008300006D104986871C0203B4A1158491C1150D8
:1008400033480299016033483E494160394A08996A
:10085000D163374F38680426304338601068490543
:100860000143116030BF01F021FF3868B0433860A8
:1008700001F0D6FF059E3B4A506E414B191D0840C2
:1008800050661068084010603749086818400860D2
:100890003C480460BFF34F8FBFF36F8F2748069922
:1008A000016001F0A9FF0028049C1E4F99D101F0BE
:1008B00093FA27480068F96A884292D9009828611B
:1008C0008FE700242046214602F064F901F006F982
:1008D00019481D49224602F047F9114A10680121C2
:1008E000884310600D480399016102F0DFF802208F
:1008F0001049C8630E4A106804210143116030BFDB
:10090000FDE702F087F8C046FFFEFFFF5453455451
:1009100000E100E004580840B002002090120A40B4
:10092000041809407002002000000020FFFEFFFFB5
:1009300010ED00E004010B400000094008110840E0
:10094000009F2400C05D00005F090000EC01002052
:1009500090010020E4010020A42C0000E193040099
:10096000DC0500000C80424028100A40004800408E
:100970000008034090130A40FFFFFFEF80E200E011
:10098000FBFFFFF780E100E0F0B587B0D54C2078A1
:10099000002803D10120207001F0A4FED24E30685F
:1009A000D249884206D1F088B188401A414241417B
:1009B000069101E000200690716F6268CC48806863
:1009C000914202D17067716F6160CA4909687161B3
:1009D000C94D2968B022B150C84909784E22B15496
:1009E000C74909685722B154B821C64A7250706786
:1009F000C0B2B085C4480088F085C44801883186FB
:100A0000C34C2168B1610088C249081A7D22D70011
:100A1000784301F00DFE2268002402F0F7F802F09E
:100A2000F2F8F061B24882693262F06902F0EEF8E1
:100A300002F0E9F870622A68F06902F0E7F80497BA
:100A400002F0E1F8B4217050B3480068B062B348D6
:100A500000687086B24800687063B2480068B0638E
:100A6000B1480068F063B14800683064B04800687D
:100A70007064B0480068B064AF4800784C2170548E
:100A8000AE4800784D217054AD48016801220592AE
:100A9000D2060A40514251414F22B1540068042706
:100AA00038404142414150203154A64800785121FC
:100AB0007054A5480078522170548D4D287B400613
:100AC000C00F5321705402F07DF85421705402F08D
:100AD00067F8552170549D480068B0656868F065F6
:100AE00002F064F8306602F067F8706683480078B8
:100AF0000699C90700D1ABE00146394304294CD01F
:100B00007848059941707D48069707708F480460C2
:100B10008C48047001F0D6FF754B1F46083787CF0D
:100B20009D690195DD6902951D6A03955D6A70678F
:100B3000B167F267802037508420019931508820B6
:100B4000029931508C200399315090203550986A89
:100B5000D96A9422B050982031503120185C9C21E1
:100B600070543220185C9D2170543320185C9E21F3
:100B700070543461F4606820305C00280AD16C2025
:100B8000315A002906D160490988002902D05E49FE
:100B90000988315259480078069F042800D090E017
:100BA000B068002800D187E006976848046065486F
:100BB0000470B76805983061B460B81E052873D812
:100BC000784400794000874445024762564F706F71
:100BD0000590B16FC8B20390F06F02908023F05877
:100BE0000190842570590090882030588C217158CC
:100BF0009022B2583E4B059D9D60039DDD60029D95
:100C00001D61019D5D61009D9D611D461C3507C5EF
:100C100094203058982171589862D9629C21725C56
:100C20001420142A024600D8725C31215A549D22A5
:100C3000B15C1429014600D8B15C322299549E213E
:100C4000725C142A00D8705C3321294A505426E083
:100C5000042836D101F0ECFE01F078FD01F026FF0A
:100C600000281CD104201BE02448047001F06EFD14
:100C700001F01CFF04E021480599017001F096FC89
:100C800018484470346001F029FF02200DE001F0A3
:100C900075FD01F00BFF002801D1069800E002204D
:100CA000306101F0B3FA01E005203061F7601348CC
:100CB00000780428069F04D1049800F08DFA0F48AC
:100CC0000078084A5178012909D13843042806D010
:100CD000547003200949087001F000FFF46007B068
:100CE000F0BDC046F80100200000002054534554D8
:100CF00070020020900100208C01002029010020BA
:100D000034010020C05D0000E2010020E401002069
:100D1000940100205F09000098010020AC01002030
:100D20009C010020A0010020A4010020A8010020B7
:100D30000402002000020020080200200B02002014
:100D400080130A4028010020ED0100203801002016
:100D5000F0B585B081480078002800D0FBE0804CD9
:100D6000804D287800230428194608D17E4A11684E
:100D7000A142194603D16B21515C4A1E91417A4A26
:100D80001668A64204D1D38894881C1B6342634131
:100D900000290CD1754C2478002C17D0441E022C4D
:100DA00005D3041F664266411E40012E0ED1724ECD
:100DB00030686E4B5B68C01A782800D2CBE00029FF
:100DC00016D0146F6D480021017016E0042800D978
:100DD000C1E0012181401620014200D1BBE06448FE
:100DE000007A40006349085A00F0F6F90021B0E0AB
:100DF00001F064F9044601F09DFD5C4B30685860D9
:100E0000601C3ED05E48002505705C4805705D485A
:100E100004609868411C03D0C108E2088018441A95
:100E20009C605948046064212046039101F000FC55
:100E30004F4A3121565C3221515C01913321515C82
:100E400004910121029189070B4689088342FBD84E
:100E50000AE05919421A074600D317466D0888421E
:100E600000D3ED189B083846002BF2D1002E00D19C
:100E7000052603994B20C7000498002816D0484344
:100E800016E03E48022101703D480178491CCAB273
:100E90000170032A5FD300210170287804285AD0FA
:100EA0000520287030683C49086054E03846C83056
:100EB00004900198002801D0484307466E432C4D0A
:100EC000A868FF2213040340029A9204934202D8B6
:100ED000000CC0B200E0022040002C4A105E7043BB
:100EE00001F032FA8019696A884200DC0846284914
:100EF0008C421E4B00D3049F874200DB07467D20B7
:100F0000C000874200DB0746F8178743588821490D
:100F1000884219D000B2391A09B2012905DB192219
:100F20001201904208DB142207E01322D2439142BF
:100F30000ADA1438074607E0052289B2962800DA53
:100F400002228A4200D287185F80B8B200F044F9CA
:100F5000012101F01FFE05B0F0BDC04628010020B0
:100F6000545345542901002000000020EC010020CA
:100F700070020020A42C0000300100200B02002091
:100F8000080200200402002000020020B62C00000D
:100F9000A4420F00FFFF0000C4000020FEB501279F
:100FA000FC068048016821400268042002407E4B14
:100FB0001D687E4EB542019716D1DD889E88B542E8
:100FC00012D156255D5D002D00D00422002D00D0E9
:100FD000214669241D5D0024002D00D021466A258C
:100FE0005B5D002B00D022464B424B4155425541A0
:100FF0006F490A785200D218D4B20A702346FF3BD8
:101000005A425A414B785B005B1926461E40DFB2BC
:101010004B700097FF3F7B427B41FF3E754275411D
:1010200016461E43029601D100264E80002D15D093
:10103000019F8F700020C8600861CC78002C25D0FB
:101040005C4C24684E69A41B5B4E1436B44200D835
:101050008FE00879002849D0002049E0CE79002EA1
:101060001BD0544C24684E69A41B534E1436B44212
:1010700005D94C79002C02D10C79002C4AD0029869
:1010800000280FD00A724B72CD7189E0CF70494CA5
:1010900024684C61888088716BE08878002812D0C1
:1010A000002066E00C790020012C08D14C79002C3E
:1010B00005D18C79002C02D10198887106200A7222
:1010C0004B72CD715BE00E7AFF2C1AD0002E18D037
:1010D000CC68002C25D03B48364E3668341B26465B
:1010E000153E513086421ED2012025E00F710420AA
:1010F000364EB4423DD34C79002C3AD14F71052085
:1011000037E00020FF2C17D1002E15D1294C246880
:10111000CC6011E0294C2478062C2AD22848005DA6
:1011200027E0002008E028482018264CA04201D3E0
:10113000002000E0012040007C427C414F7A002FDB
:1011400000D00194019C002C08D0002F11D1009CEC
:10115000FF2C0ED1174C24680C610AE00C69002C9E
:1011600007D0144E3668341B153C134EB44200D2DF
:1011700003200A724B72CD71029A002A04D1002218
:10118000CA708A808A714A61002809D0104A0021F9
:101190001160104A1378002B01D011700846FEBD73
:1011A0000020FEBD80130A40000000205453455427
:1011B000B401002030010020C705000029010020F3
:1011C000112D0000BB020000DFFCFFFF88130000B0
:1011D0003801002028010020F0B589B006467E4A7B
:1011E000107BC00700D1F4E07C498F68D06A874249
:1011F00007D9059614697A48874205D87C48221891
:101200000CE000264E62E4E076483918764801F09A
:101210000FFA7649884200D3084602196E4D686974
:10122000A969079284180697781A724A00263146EF
:10123000334601F049FB2246334601F06FFC074676
:10124000ED6985422C4600D33C466448079B036108
:10125000C760002F00D1BCE07D20C200002D1046E9
:10126000089206D010466843214601F0E1F9079B39
:10127000089A019503944B21904200D310460290A6
:10128000480104901E2630465843642101F0D0F9ED
:10129000024600243846214601F0C0FC554A234648
:1012A00001F03CFC054638462146079A01F0B6FCA1
:1012B00007900091059A01F0B1FC4F4A234601F0D6
:1012C0002DFC089A401906990B1A10461CD904994E
:1012D0008B42104618D20498431C1E20069999424E
:1012E00012D32F46454BC918A9420DD9C81B424AF3
:1012F00000210B4601F0E8FA079A009B01F00EFC72
:101300001E2800D81E20089A07900198002817462A
:1013100005D03B48039901F08BF9089A074697429C
:10132000069D00D31746039821462A4601F076FC15
:101330004A07C3089A18CB087D3A089AA341144675
:1013400015D30024089A234601F0E8FB05460397CD
:101350000F462148006A2146089A01F05FFC2A46A0
:101360003B46039F069D01F0D9FB089A0446944230
:1013700000D314460498401C8542079B0FD3214894
:1013800085420BD81E3A6A431F481018E121890094
:1013900001F04EF9079B06461E3600E01646029AFB
:1013A0009342184600D310468742394600D301467F
:1013B0008C42204600D30846864200D306460748A2
:1013C00042618361C761046246620598864200D328
:1013D0000646B0B209B0F0BD7002002088010020BE
:1013E0006C07000094F8FFFF80F0FA0290D0030031
:1013F000E093040040420F0000CA9A3BA0F6FFFFB2
:1014000000093D00E30C0000407ADCFFF0B591B02C
:101410000124644E30462030029001F0BFFA0028CB
:1014200000D1A8E003940F2080020B900720C00297
:1014300006900120079040020C905E4C6068401CB2
:101440006060204601F052FAE0635B4845688468BA
:10145000002209920998022800D981E01F2A00D9A8
:101460007EE0641C102C29D30A9253484068069AE7
:10147000811A4C424C4190420B9D00D0069D4A4837
:1014800007990160A7204A49086072B6474F38465D
:1014900029460C9A00F0B6FA40223846294601F057
:1014A000D5FA62B645490868203008602001311835
:1014B000002434504C608C60CC600A9A0B98281A37
:1014C0004142414108013018015D521C0029C1D13F
:1014D000001901900998401C0990A00128180D904E
:1014E000002105950A920494032932D008912E48D0
:1014F00007990160A7242E4804600027402F1CD2C2
:101500002C49C8194068C9590E910F9028480460A9
:1015100072B60D98C619254D284631460C9A00F032
:1015200071FA0EAA2846314601F0A2F962B62349A3
:101530000868801C08600837E0E70D9801F02EFA73
:101540000899491C0028174E059D0A9A049CCBD186
:1015500015E007980199087017484560846079E79D
:1015600015498878401C8870144800680861039801
:101570004870002412E01048002141700EE00D492F
:101580004022029801F038FB0B494D608C6000202E
:1015900048708870094800680861039C204611B0B3
:1015A000F0BDC046C800002048E00C4000D00C4010
:1015B0000811084070020020CC01002030010020FA
:1015C000F8B504464148007804286DD8012739460B
:1015D00081401620014267D0FF2005043C48866800
:1015E000300C00907D20C000FFF7F6FD611E02293F
:1015F0000DD3052C14D0032C1FD137490A78002AAB
:101600002CD03002800E53D1009A521C51E0324946
:101610000A78002A13D02E424AD0009AFF3248E0BE
:101620002C4801782C4C2078002926D0002801D0A5
:101630000020207000F0B4FE3AE0009A32E0F3B2ED
:101640005F00274AD75B874224D9330626D0F3B2FE
:101650005B00D35A834222D9761EF6E7F2B2072AFC
:1016600026D852001E4BD218528882421DD9101A19
:10167000761C32281ADD4F701AE07840207000F096
:101680008FFE2078002813D001F054F91348006829
:1016900060600DE0002B02D0761E00E00026009A6C
:1016A00000204870002C04D1F8BD761C0020487042
:1016B000009A100428400849097809020818F1B274
:1016C00040180349886001F041F8F8BD2901002065
:1016D0007002002009020020EC01002030010020EF
:1016E000A42C0000F0B587B00720C00201900021B3
:1016F00040480490012006900E460591022935D0FD
:1017000002910029019D01D00F2085020027039539
:10171000102F25D02868384988421ED1284601F06C
:10172000E5F8E96B884205D16C680598844205D3D9
:10173000002004E001200499C8550EE00120064273
:10174000069E0AD140222D48294601F055FA2C4820
:10175000039941608760069E05947F1C4035D7E75A
:101760000299491C049810300490C7E7F00702D191
:101770000698234901E022490878204AC50706D087
:101780001020019A4A60886000F0AAFD1AE0906873
:10179000C1B2082901D93020105C1072107BD060D2
:1017A0003120115C002901D1052111543220115C36
:1017B000002901D1062111543320115C002901D1E7
:1017C0000821115400260E4F3E700A4C20340B495C
:1017D0004022204601F010FA7E70002D08D03E46CF
:1017E0004021204601F0D0F90698787001F05EF9AA
:1017F00007B0F0BDC80000205CAA55AA7002002006
:10180000CC010020F0B5394A8218394BC0183A4D46
:101810004C790B79002C22D0466F202B02D0052466
:10182000E70100E0354F2E40002B00D188273E43D2
:101830004667846F2C403C438467446B2D4E344094
:101840004463846B34408463002444658465546835
:101850008F26F643344054609468344094600C689A
:101860008979202B09D006467036002B15D1641ECD
:101870004460C46E2C40882715E0641E4460C46E2A
:101880002C401E4E3443C466046F2C40344304671E
:101890001B4D01246707064607E00527FF01640882
:1018A0004460C46E2C403C43C46634682C403C43C6
:1018B0003460C46A0F4D2C40C462046B2C40046336
:1018C0000024C4640465C46F8F25ED432C40C467B5
:1018D00014682C401460194302680A4B1340BD225F
:1018E0000A40D118891C0160F0BDC0468418000070
:1018F000041800008888FDFF24493E000104000010
:10190000FFFFFFCF4000FFCFB0B53A4A80184A68CA
:1019100042600A78222A56D8930001A4E3589F46D1
:10192000BD190000C7190000BD190000C71900004B
:10193000C7190000C7190000C7190000C719000027
:10194000C7190000C7190000C7190000C719000017
:10195000C7190000C7190000C7190000C719000007
:10196000AD190000C7190000AD190000C71900002B
:10197000C7190000C7190000C7190000C7190000E7
:10198000C7190000C7190000C7190000C7190000D7
:10199000C7190000C7190000C7190000C7190000C7
:1019A000AD190000C7190000AD1900000368032439
:1019B0002407A343012464071B1903E003680324DD
:1019C0002407A34303600B69C360CB68C46A0A4D54
:1019D00025400A4C1C402B19C3620368084C1C406C
:1019E0000460097A114302683F239A431940511851
:1019F0000160B0BD041800008888FDFF7777020001
:101A00007F00FFFFF0B583B002920190304B314D63
:101A100000918C0A28680727384005262E6019682F
:101A200089048A0F2860296839402E601868296067
:101A3000002A214608D028490840511C00F0F8FD32
:101A40000146204600F0F4FD0198204A80180190DC
:101A50002A683A402E601E4803682A602A683A4085
:101A60002E6003682A60012293020298984207D0F0
:101A7000530298420CD10098C30B0BD1019803E09C
:101A80001F210C4001984030A24001689143016041
:101A900003B0F0BDFF290DD82B683B402E600C4CE5
:101AA00024682B60A3049B0F019800D12039CC0837
:101AB000001DE9E71302FF339942E9D2FF23DB431C
:101AC000C918CC0801980830DEE7C046D0110000E4
:101AD0001800C44100134040FF0F000070B52C48AF
:101AE0000678002E07D02B480078002807D02A4916
:101AF0000520C88005E028482A49818043E026481F
:101B0000C088254D2978002927D06988814224D0B2
:101B100022490A68AB68D21A0C2A1FD30968A96047
:101B20006988401A04B2012C09DBA0B20A2100F036
:101B30007FFD0A2C00D80120698808180DE060425A
:101B400080B20A2100F074FD69880922D2439442D0
:101B500001DB093200E04242881868806C88022E5E
:101B60000CD10F48007B800608D50C4800687D2109
:101B7000090100F05DFD322900D2A408204600F0E2
:101B8000D1F80146A8800848002200F0EDFF70BDA2
:101B90002901002028010020E00100203001002060
:101BA000700200205F0900000000094070B5214D5F
:101BB000012426022048214901602148026822436D
:101BC000026020480160204801F002F828680020E7
:101BD000C14329601D490A6822430A604A683243AA
:101BE0004A601B49491C2A46183A1268324201D100
:101BF0000029F7D100291BD01648006881B22A6855
:101C000032432A600004800E00D0890812484843FD
:101C1000124900F00DFD12494860486888604C7018
:101C200088681049C96A6431884200D80024204677
:101C300070BDC04648500040000803400100002627
:101C40000011034000480040C0D401000051004092
:101C5000AF3CFFFF80A2554040164000189C0F008B
:101C60008801002070020020B0B5274C20780028A1
:101C700011D02748012529020246183A1268D205D8
:101C800021D4224A1268A36AD21A0B2A3AD30268D4
:101C90000A43026034E01D480168A26A891A642977
:101CA00030D31B490A680022D2430A6019490A68E6
:101CB00001231A430A604A681D0215434D602370D0
:101CC0000068A062B0BD02680A4302601248006862
:101CD00081B20004800E00D08908104848431049A2
:101CE00000F0A6FC60606178002907D0A168A268B6
:101CF000D208C0080818801AA06001E0A0606570D2
:101D000000202070B0BDC0468801002030010020B6
:101D1000485000400051004080A25540401640000D
:101D2000189C0F00F8B5234F002840D004462248E5
:101D3000866822498D69AE4239D90A6920488642AF
:101D400002D8234810180CE000921E4831181E4893
:101D500000F06EFC1D49884200D3084600994018E7
:101D60001649496908180090701B1A4A0026314626
:101D7000334600F0A9FD009A334600F0CFFE00285C
:101D800015D006460D48C06944437D20C500204655
:101D9000294600F04DFC601A314600F049FCA8428B
:101DA00000D328467843294600F042FC3F1AB8B2D7
:101DB000F8BDC0465F0900008801002070020020C5
:101DC0006C07000094F8FFFF80F0FA0290D0030047
:101DD000E093040040420F0070B5204C012635020C
:101DE0001F482049016020480268324302601F48B2
:101DF00001601F4800F0ECFE20680020C043206016
:101E00001C480168314301604168294341601A4917
:101E10000846214618390968294202D1411C002888
:101E2000F6D1002818D01548006881B222682A43EC
:101E300022600004800E00D08908114848431149EF
:101E400000F0F6FB1049486088688A68D208801A5A
:101E50004A68D2088018886070BDC046485000406B
:101E60000008034001000026001103400048004024
:101E7000C0D4010000510040B03CFFFF80A255409B
:101E800040164000189C0F0088010020F0B58B42DE
:101E900000D1824204D90B0002000021002040E062
:101EA000002B00D1002A0CD10B00020000210020E1
:101EB000002B00D1002A01D0C943C04300F0F5FB3C
:101EC0002FE01C0015000B0002000CB400212600BE
:101ED0002F00FF19764102D2491C4029F9D1002078
:101EE0001E001700FF19764102D2401C4028F9D18C
:101EF0000E1A21002800320000F060FD0C000500E1
:101F00000CBC00200021A34200D1AA4201D3521BE5
:101F1000A341404149416D08E7073D436408761EEF
:101F2000F1D5059F002F01D03A607B60F0BDFEE740
:101F3000F0B585B00190204C01200704C00202904A
:101F40002764002004900820029E002815D07825E0
:101F50000390284600F03CFE2664284600F038FE38
:101F60000498400015490968C903C90F081804906E
:101F7000039826602663401EE7E70198002803D0F7
:101F800027602046303001E020464030264607607A
:101F90000B49782528468847029C3464284608491E
:101FA0008847346034632846054988473764049875
:101FB000C0B205B0F0BDC046A0120A4080130A406E
:101FC000D12B0000FEB502901A4F012002040092AE
:101FD0000826C0020190019C002E19D0029A50B22E
:101FE0000028009B03D43B603846303001E038467F
:101FF00040300360520002927825284600F0E8FD48
:102000003C64284600F0E4FD3C603C63761EE3E758
:1020100000983864084D782420463E46A847019F22
:1020200037642046A8470548006837603763204674
:10203000A847FEBDA0120A40D12B000080130A4021
:10204000F8B5451C00780023082B32D02F78C20742
:102050000CD16A780F241440E41C122C0BD10224FA
:102060002E57F4B2002E08D4EE1C0EE06D1C4A1C54
:102070000F7011461AE0AE1C08E02E1DED78009599
:102080007F252C40009DED012C1912343D011209D1
:102090005219094DAA420ED0D243002C05D08D5CB6
:1020A0004F1C0D70641E3946F7E7354640085B1C2F
:1020B000CAE72846C5E7F8BDFF0F000070B5002548
:1020C000EC4300F051FA154E8820B0472846B0473F
:1020D00000F024FB00F048FA8920B0470120FFF708
:1020E00027FF06462846FFF723FF054600F016FBAC
:1020F000300240190A4988420DD0B10902290AD894
:102100003109084A104088400749884200D30846F0
:10211000064908600446204670BDC046C51F000041
:10212000FFFF0000FF0F0000C4F77F000402002043
:1021300010B51249124800F05BFA12484168124A81
:102140000A4042608168114A0A40911C816010492E
:10215000104A0A60026801210B04134303600E4A0F
:1021600042610E4A136A0C0223431362136823432D
:10217000136002680A43026010BDC046C02C000014
:102180000040004000510040FEFFECFFF8FFE0E09F
:10219000805100400F020000C05D00002850004048
:1021A000FEB50C46002812D005460027002D18D099
:1021B0000A262846314600F03BFA4643A91B302246
:1021C0000A43791C6B46DA5505460F46EEE768462A
:1021D00030210170012704E0781C69463022CA557D
:1021E0000746A742F8D30848C169012F0BDB3E29F7
:1021F00009D87F1E6A46BA5C4B1CC3614118202473
:102200000A551946F1E7FEBD28010020FCB5174824
:1022100007460837FCCF016A0091416A01911449D1
:102220004A678B67CC6780228D5084228E5088222B
:102230008F508C22009B8B509022019B8B50826A86
:10224000C36A94240A5198228B503122825C9C23C9
:10225000CA543222825C9D23CA543322805C9E225F
:102260008854486F03494860FCBDC0467002002096
:1022700000000020F8010020BCB51349134C204693
:1022800000F0BAFB12492046FFF7BCFA114801687A
:10229000114A0A40026000250095204629462A4638
:1022A0002B4600F0DFFB204629462A4600F096FB2D
:1022B0004B20410120462A4600F056FC07480121E8
:1022C00081600160BCBDC046302D000000000940A7
:1022D000C82C0000041809407F00FFFF00110940CE
:1022E000FCB512480021FF22019232220092124CCA
:1022F00025466435AF273F011E222346C8330F4EC3
:102300000662064624361CC60D4A02634163816399
:10231000C1630C4A064B0360416082600199C16051
:102320000099016103491430A2C0FCBD7002002075
:102330005CAA55AA407E050034080000282300004E
:1023400004050608040002001CB5002922D04C0830
:10235000002900D5494242105440002800D540428F
:1023600000230A00904201D95200FBE790425B41F2
:10237000904200D3801A914201D25208F6E7190028
:10238000002C00D54042640000D5494202000800FC
:1023900011001CBD0100002000F001F81CBD7047B9
:1023A000F8B502240E4D0F4E002C17D06920010104
:1023B0000D488180002728463A4600F0D5FB30467C
:1023C00000F006FC09490848818028463A4600F09A
:1023D000CBFB304600F0FCFB641EE5E7F8BDC046D1
:1023E00000000940009F2400E00100205F09000078
:1023F0000D48842101600D4901220A630C4A0260E4
:10240000812282610B4AC266C36EC36682608268A3
:102410008260094A0264036C0364C262C26AC262D7
:10242000402008600863704704804240A0120A40C0
:102430008400000481000E0081000C00B0B50B4840
:102440000B4941600B4A51600B4B59608C1E0B4D80
:102450006C600B4C61600B49016011601960296070
:102460002160102000F0B4FBB0BDC04600080A4057
:10247000030000B100080940004800400008034084
:102480000008084001000026F8B5044605460C3552
:1024900000260F4F6088864217D228460838016808
:1024A000281F03682A68002A03D0184600F0A4FBFE
:1024B00008E00648874205D0481C097889007A5808
:1024C00019469047761C0C35E4E7F8BD982D0000BE
:1024D0008C2D000070B50D48401C02D00B48FFF752
:1024E000D3FF0B480B4C84420CD00B4D0B4EB54226
:1024F00008D02A686968501C12789200A258904748
:102500000835F4E700BF00BF70BDC046C02D000015
:10251000982D00008C2D0000A82D0000C02D00007B
:1025200080B50D484178012915D10C490978012958
:1025300011D18178002905D004290CD808490968EF
:10254000006902E006490968C068081A054988421E
:1025500001D9FEF75BFF80BDCC01002029010020DE
:10256000300100203075000070B50E4D01200404CC
:10257000C6022C642E64782000F02AFB0A4800680A
:10258000C00302D400F0CAF870BD2C602C6378241C
:10259000204600F01DFB2E602E63204600F018FB45
:1025A00070BDC046A0120A4080130A4010B50C4806
:1025B000407A0002FF21C94341184A424A41094C6E
:1025C000227001210902884209D100F0B3F90648BE
:1025D00000680021C9436060A1600448608010BDAC
:1025E00070020020EC01002030010020FFFF0000FD
:1025F000F0B511221302C2180C780B4D46590B4F3F
:10260000374003262640BC19A9263606A419445192
:102610004C68C55807263606B54334402C19C450BB
:1026200048781061F0BDC04608080000FCFFFF00BC
:102630001CB50A0017D000230124E407A04200D2F1
:102640000400944201D95200FBE790425B41904262
:1026500000D3801A914201D25208F6E71900020015
:10266000080011001CBD01000020FFF798FE1CBDF2
:10267000FCB4020C0B0CFF242402FF342040214048
:102680000C00444315005D4306005E430F005743B2
:10269000320C3B0CA818C01832043B040025A118CA
:1026A0006841C9186841FCBC70477047B0B50B4819
:1026B000012251040A4B1C689502AC431C605C6803
:1026C000120594435C6002680A4205D002680A421F
:1026D00002D002680A42F6D1B0BDC04604020B40E7
:1026E00000010B400B49002048700B490860C8806E
:1026F0008860C86068228854692288546A22885495
:102700006B228854562288546C2288526E2288523A
:1027100008677047F801002000000020F8B5012587
:102720002E04084F3E603E637824204606498847C1
:10273000E80238642046044DA8473E642046A84776
:10274000F8BDC046A0120A40D12B000080B5084851
:10275000203000F023F9002805D0064900228A70B5
:10276000054A1268CA60411E88410249487080BD0E
:10277000C8000020CC0100203001002080B50748AF
:1027800000680749884204D1FFF7AAFDFFF7DEFF82
:1027900080BD04480121017080BDC0467002002048
:1027A0005CAA55AACC01002010B50649064C20466B
:1027B00000F0BEF90549204600F0CEF8F02000F008
:1027C00007FA10BD332D000000000340D02C00009C
:1027D000B0B50849CA690378002B09D03E2A07D84A
:1027E000401C541CCC618A18202553552246F2E720
:1027F000B0BDC046280100200748026801680020DB
:10280000120108D5490706D504490A7A002A02D1DF
:10281000497A48424841704780130A40B401002079
:10282000B0B5074C20680125A843206005486060CA
:102830007D20C00000F0CCF9206828432060B0BDA6
:1028400004580840BF5D0000084880F3088800BFB6
:1028500000BF00F0E9F9002801D0FFF73BFE00209F
:10286000FDF72EFC012000F0D4F9C0460004002042
:10287000B0B5074BC4180125C550FF232362E161A1
:102880001168E1625168216300F004F8B0BDC046F0
:102890000411000082B00094014C019410BD00BFEF
:1028A0001102002006480021016006480168032249
:1028B0009143016041680F22914341607047C046D7
:1028C00008030B4000010B4030B514004C432500B9
:1028D0001C0044436419050010002900FFF7C8FEDE
:1028E000001904000D002100280030BD10B50022A1
:1028F0000549064B3C2A04D0845C61405943521C74
:10290000F8E7084610BDC046C59D1C819301000133
:1029100080B5002800D05A20054934228B5C8342C0
:1029200004D08854FFF712FF00F0C0F880BDC04605
:102930007002002010B5FFF717FE064C8820A04754
:102940000120A047C220A0471020A047FFF7E6FEC5
:1029500010BDC046C51F0000B0B511221202831879
:102960000C784D7825434C882C43A4B28450888839
:10297000C988090408189860B0BD80B5FFF75EFDEE
:10298000FFF736FDFFF78EFFFFF776FCFFF7D0FB72
:10299000FFF70AFF00F072F880BD000010B50021BB
:1029A000054B425C5C5CA24203D1491C4029F8D132
:1029B0001446101B10BDC0467002002018B520231D
:1029C0009B1A04D8010000205B42994004E00400F7
:1029D0009140DC402143904018BD000010B59200AA
:1029E0008018044A83580724A404A343214059189B
:1029F000815010BD3018000010B501221203831859
:102A00000C789C604B7883508978014A815010BDC6
:102A10000C110000BFF34F8F034804490160BFF35E
:102A20004F8F00BFFDE7C0460CED00E00400FA0543
:102A3000BFF34F8F034804490160BFF34F8F00BFBE
:102A4000FDE7C0460CED00E00400FA05B0B5044B0C
:102A5000C41802251543C550E161FFF71BFFB0BD47
:102A60000411000010B5029CA40000191143194381
:102A7000014A815010BDC046501800000348044967
:102A800001605F21490641607047C046001108405F
:102A9000430002C903480121016003488168491CC1
:102AA00081607047485008402801002080B50448E4
:102AB0004078012802D1FEF7A9FC80BD012080BD2D
:102AC000CC0100202120C00203490860012002043B
:102AD0000A64C00208647047A0120A406820345497
:102AE000692034546A2034546B20345456203454B2
:102AF000704703228058002805D0401E4A1C00233E
:102B00000B701146F7E7704702480168024A0A4312
:102B10000260704748100A400400000840B584B0C5
:102B200002AE0096FFF7B2F9029A039B04B040BDD3
:102B300010B50122120383180C789C6049788150EB
:102B400010BD10B500239A4203D0CC5CC4545B1C6A
:102B5000F9E710BD80B50B4603214258C11D184648
:102B600000F04AF880BD000092008018014A8150B0
:102B70007047C0461018000000239A4202D0C1548A
:102B80005B1CFAE7704700000A46002180B5FFF79A
:102B9000F3FF80BD014AD08011707047E001002032
:102BA000014880787047C046CC0100200148406849
:102BB0007047C046CC010020014880687047C0467D
:102BC000CC010020014840787047C046CC0100206D
:102BD000811E091F00BFFCD27047115064200024E1
:102BE0002146D7E7079868702E612E7070472046FF
:102BF0002146049CCEE7000080B5FFF7A2FF80BD10
:102C00004670304684E63A46234687E72146234607
:102C10005AE600F001F8FEE700BF7047234653E68E
:102C2000204675E610E6704701207047000000005E
:102C300081B01649411811221202012383500A68FB
:102C4000072002400092009AD2B2032A19D0009ABB
:102C5000D2B2012A15D00A6802400092009AD2B27C
:102C6000032A0ED0009AD2B2012A0AD00A68024082
:102C700000920098C0B2032803D00098C0B2012887
:102C8000DDD10098C0B201B07047C046D01300003B
:102C900022000000BF5D00000000000000000200F4
:102CA0000000000005001400320096002C01C20153
:102CB00058022003E803CEFFE2FF00001E003200AE
:102CC0000104000000000000600900000000000096
:102CD00001800000000000006D56204D61783A0030
:102CE0005B4D414E5D20005B4552525D20005B4CC8
:102CF00056505D20005B4F46465D20005B414C53C3
:102D00005D20005B5453545D20005B464C535D20B6
:102D100000000404000400205273743A00204F663F
:102D2000733A004C766C3A0020563A0020503A0034
:082D3000080000020000000091
:102D380000E5000001010052004F830156342EFFC8
:102D4800332E345F44495245F343540A6F6F128F50
:102D580008496E6974FF69616C697A696E67372E14
:102D68002E2E150F231C0C003318DF0E6BFFFF1AD5
:102D7800FF09381CBF005F09039B01FF00000DCF4E
:102D880002FFF00041200000552B0000F32A00004C
:102D980002000000400000000001000004FFF000F5
:102DA800382D000000000020982D0000700200203F
:082DB800A02D0000B002002074
:102DC0000C000100302C0000100200206000000008
:1037F00056342E332E345F44495245435400000062
:10380000FFFFFFFFFFFFFFFFFFFFFFFFFFFFFFFFC8
:10381000FFFFFFFFFFFFFFFFFFFFFFFFFFFFFFFFB8
:10382000FFFFFFFFFFFFFFFFFFFFFFFFFFFFFFFFA8
:10383000FFFFFFFFFFFFFFFFFFFFFFFFFFFFFFFF98
:040000030000284988
:00000001FF
