:1000000000040020212C00000F1F00000F1F000023
:1000100000000000000000000000000000000000E0
:100020000000000000000000000000000F1F0000A2
:1000300000000000000000000F1F00000F1F000064
:100040000F1F0000052B00000F1F00000000000024
:100050000F1F000000000000000000000000000072
:10006000000000000F1F0000000000000000000062
:100070000000000000000000000000000F1F000052
:10008000912A0000000000000F1F00000000000087
:100090000000000000000000000000000000000060
:1000A0000F1F000000000000000000000000000022
:1000B0000000000000000000000000000F1F000012
:1000C00000B591B0012402F056FC62B6CD4800683C
:1000D0001F210140CC4DE960E868012820460FD07F
:1000E000E868022820460BD0E8680328204607D09D
:1000F000E8680428204603D0E868411F4842484188
:10010000C24A13214F0621040591C1494968914211
:10011000069400D10446099410AC00200A90A07007
:1001200008202080BB490BAE1422304602F062FD4D
:100130000397781CB8490860102002F047FDB74FBC
:100140003846214602F056FC384631460A9E01F0F8
:10015000CBFBB3480168069C21430160B148059977
:100160000160B149086820430860A9484068A74970
:10017000884202D0A64841600680AC4F01F0A2FA46
:1001800002F09EFC40200490A949086038680121D3
:100190000891084338606E700998002807D0A54878
:1001A000007B000610D4A448BC21032223E0984819
:1001B0004078002804D19F483421405C5A28EED171
:1001C0009D48BC21022216E001F0E0FC00280FD07F
:1001D0000120687000242C612C708D48447002F05E
:1001E0001DFD9548BC214450069C02F0F3F903E044
:1001F0009148BC21012242508E4F904802F0E6FC0B
:100200006878052839D8089981403620014234D0D1
:1002100068790028204602D1687102F095F9A7217B
:1002200087480791016000F0C7FF099001F00CFDBD
:1002300000F094FBA868642102F00EFA002962D154
:10024000AE61687805281DD8800002A109587D4854
:100250008F46C046930200006D0200008502000038
:10026000890200008D0200009102000076480078AB
:10027000002876480DD076480BE068790028304693
:10028000CAD1CCE7734804E0734802E0734800E049
:100290007348744FB8477448B847664C207A0126B3
:1002A0003146724DA8477248B847A07A3146A847F0
:1002B0007048B8477048006804242146A8476F4832
:1002C000B8477D20C00000F05DFE31460A9EA84779
:1002D0006B48B8476B4800882146069CA8476A4887
:1002E000B847494FF8680221A8473D46B8693E28FB
:1002F00006D8411CA9612818202202770846F6E793
:100300005B202E544B4F6148006800097C2800D8C0
:10031000B6E2A8687D21C90002F09EF9687800293C
:1003200017D0FB21084260D053480068F96A884220
:1003300035D2A878401CC1B2A870052930D3AE7060
:100340006E7033480899417002F068FC02F0ACFB13
:1003500026E0042801D00128E3D1397B0907E0D544
:100360002969491C29612978002906D12969484A47
:10037000521C914201D9012129702969454A9142B3
:10038000CFD3042801D102F0C1F96E7001202049B9
:10039000487002F043FC02F087FB6878C1E7AE705A
:1003A00035480068B96A88420ED2E878401CC2B26B
:1003B000E8706878052A09D3EE7004220243052A02
:1003C00004D10220687003E0EE70687802280CD136
:1003D00029480068643188425ED302F001FC0C4871
:1003E00002F00CFC02F0F6F86878052800D9F1E17B
:1003F0000A9EC0467844007940008744784D4D6598
:10040000B78EC04620020B40200100203CC3A55AF5
:10041000A8020020882C0000004808400040084046
:100420002850084000E100E0045808400418094042
:1004300090120A406802002000000020C05D000009
:1004400008110840ED2C0000E0010020D82C00002D
:10045000F42C0000E62C0000022D0000FB2C000014
:10046000DF2C0000C52800001B2D000081210000AA
:10047000152D0000202D000084010020D02C00004C
:10048000242D0000D80100200F2D00008001002045
:100490005F090000B90B0000099804280FD16E70A5
:1004A000F648089941702C713046314602F070FBD5
:1004B00001F004FB02F0B2FB02F0F6FA8AE101F06F
:1004C0006FF800F039FC85E10998042868D101F043
:1004D0005DFB002800D188E002F082FBE74802F0D3
:1004E0008DFBBC20F7490E5002F074F872E1002633
:1004F0003046314602F04CFB0999012958D1DF48BA
:100500000078002854D1F0480068F96A88427BD20C
:10051000BC200121F74A1150FEE0A868EB490968A8
:10052000401AEB49884257D308986870EA48067029
:10053000B868F1490840B86002F01CF902F0B4FA5A
:10054000E44A1078401CC1B21070032904D3E1487A
:1005500006700898F7490870387A4000F249085A3E
:1005600000F010FD002102F013FB33E1E1480068C8
:10057000EC49884200D02DE16820DE4A115C012957
:100580005CD16E24105BE34E311A0022DD4802F08C
:10059000E9FAD848005B069C301AE14908800DE171
:1005A000A8686969401AE149884200D212E187E1EE
:1005B000062970D0052956D0042900D0ACE001F0FE
:1005C000E5FA002875D002F00BFBC64802F016FBD6
:1005D000BC20C8490E509DE080B2D54902F03CF8DD
:1005E000C8084B2820D3CB4820E0BC200899C14A3A
:1005F00002F0F1FA01F062FAC44802F0E7FA02F000
:10060000F4FA01F05BFAE5E00120B6490870A86849
:1006100068610320687001F0B3FEB348049901607B
:10062000BB4802F0D3FA77E0BA487738BC49088073
:1006300081B20022B34802F095FACBE0115C0229A6
:100640002BD16C20105A01F05DFB0446B148844266
:1006500000D3B04C0022AB48214602F083FAB048E8
:100660000480069CAAE02C792E7101F089FE01F02D
:100670008DFA002817D0089F6F702E612E70994850
:1006800002F0BCFABC209B490E50002C31D13846F8
:10069000069CA14931E02E713EE0105C032817D181
:1006A0006C20105A21E0BC200899924A1150069CF7
:1006B00032E0BC2008998F4A02F08DFA01F0FEF971
:1006C000924802F083FA02F090FA01F0F7F923E081
:1006D0006B20105C90490978014308066CD1387A88
:1006E00040009149085A00F04DFC002102F050FAF8
:1006F00064E0894908787840069C08707C4FB968A6
:100700007D4A1140C0B200020843B86002F032F8DE
:1007100002F0CAF901F05EFF68780028059E5AD100
:100720002879002864D102F067F8002852D0387B7D
:1007300040064FD403988249086082490860824A83
:1007400010690123D905014311611068202101437B
:1007500011607A4C226A0293D906081D0243226274
:10076000754B5A6E794C22405A661A6822401A60BC
:100770005A6E0A435A661A680A431A606F4A116829
:10078000014311600221724801603C46534F0991B8
:10079000396006605C48079901605E4960480180E5
:1007A00000225848019202F0DDF9207BC00625D4D2
:1007B00072B630BF62B63AE000F0BEFA099805287A
:1007C00008D80898099988402E21084202D0099833
:1007D00000F0E6FE687805280CD0042808D16820CF
:1007E0004449095C012905D04249085C022801D02E
:1007F00001F064F901F084FE0A9EFEE43E60384890
:10080000434941603E4A0299D1633C4E3068042717
:1008100038433060106849050143116030BF01F072
:1008200059FF3068B8433060002001F08DFE424A25
:10083000506E484B191D0840506610680840106003
:100840003E49086818400860434809990160BFF3B1
:100850004F8FBFF36F8F2C480799016001F0CCFFD9
:100860000028069C224FB5D101F0A6FA2B4800685B
:10087000F96A8842AED901982861ABE7A802002046
:1008800000242046214602F083F901F017F91D48A3
:100890002049224602F066F9144A10680121884373
:1008A000106011480499016102F0FEF80220144919
:1008B000C863124A106804210143116030BFFDE78C
:1008C00002F0A6F80000002084010020F4010020BE
:1008D0001027000002020020E001002000E100E0FB
:1008E00004580840A802002090120A400418094049
:1008F0006802002000000020FFFEFFFF10ED00E076
:1009000004010B400000094008110840009F24002A
:10091000C05D00005F090000E001002084010020AC
:10092000D8010020545345549C2C0000E19304004E
:10093000DC050000010200200C80424028100A4023
:10094000004800400008034090130A40FFFFFFEFFB
:1009500080E200E0FBFFFFF780E100E0F0B587B048
:10096000DA4C2078002803D10120207001F0CEFE5F
:10097000D74E3068D749884206D1F088B188401AEE
:1009800041424141069101E000200690716F62688A
:10099000D1488068914202D17067716F6160CF4920
:1009A00009687161CE490968B022B150CD49097812
:1009B0004E22B154CC4909685722B154CB49096839
:1009C0007D22890701D0510100E01102B823F150C6
:1009D0007067C0B2B085C6480088F085C5480188F8
:1009E0003186C54C2168B1610088C449081AD70016
:1009F000784301F031FE2268002402F005F902F08C
:100A000000F9F061B44DAA693262F06902F0FCF8B5
:100A100002F0F7F87062B2480268F06902F0F4F888
:100A2000049702F0EEF8B4217050B5480068B06247
:100A3000B44800687086B44800687063B3480068C2
:100A4000B063B3480068F063B24800683064B248ED
:100A500000687064B1480068B064B14800784C2107
:100A60007054B04800784D217054AF48016801229D
:100A70000592D2060A40514251414F22B1540068BA
:100A8000042528404142414150203154A748007874
:100A900051217054A6480078522170548E4F387BF3
:100AA0004006C00F5321705402F08AF8542170544C
:100AB00002F074F8552170549E480068B06578685B
:100AC000F06502F071F8306602F074F870668548DF
:100AD00000780699C90700D1ADE0014629430429F1
:100AE0004BD07A48059941707E480695057091482B
:100AF00004608E48047001F0E3FF774D2F460837FD
:100B00008FCF0197EF6902972F6A03976F6A70671B
:100B1000B167F267802033508420019931508820DA
:100B2000029931508C200399315090203750A86A97
:100B3000E96A9422B050982031503120285C9C21E1
:100B400070543220285C9D2170543320285C9E21F3
:100B500070543461F4606820305C00280AD16C2045
:100B6000315A002906D162490988002902D060491A
:100B7000098831525B480078069D042800D091E036
:100B8000B068002800D188E06A48046067480470B3
:100B9000B16805983061B460881E052800D991E0DD
:100BA0000391C04678440079400087444602486477
:100BB00057500695706F0590B16FC8B20290F06FF4
:100BC00001908023F0580090842575598820305872
:100BD0008C2171589022B2583F4F059BBB60029BFD
:100BE000FB60019B3B61009B7B61BD613B461C330D
:100BF00007C39420305898217158B862F9629C213B
:100C0000725C1420142A024600D8725C3121324BE7
:100C10005A549D22B15C1429014600D8B15C32229D
:100C200099549E21725C142A069D00D8705C332171
:100C3000294A505427E0042834D101F0F7FE01F08E
:100C400099FD01F031FF00281DD104201CE025484A
:100C5000047001F08FFD01F027FF04E021480599A1
:100C6000017001F0B7FC19484470346001F034FFA2
:100C7000022030610BE001F095FD01F015FF002826
:100C800001D1284600E00220306101F0AFFA03995B
:100C9000F16014480078042804D1049800F072F937
:100CA00010480078094A5178012909D128430428BD
:100CB00006D0547003200B49087001F00DFFF4605A
:100CC00007B0F0BD05203061E2E7C046EC0100202E
:100CD0000000002054534554680200208401002085
:100CE00080010020210100202C01002000010B4088
:100CF000D6010020D8010020880100205F090000F3
:100D00008C010020A001002090010020940100200F
:100D1000980100209C010020FC010020F801002027
:100D2000000200200302002080130A40200100205E
:100D3000E101002030010020F0B585B08148007845
:100D4000002800D0FBE0804C804D28780023042848
:100D5000194608D17E4A1168A142194603D16B2178
:100D6000515C4A1E91417A4A1668A64204D1D38842
:100D700094881C1B6342634100290CD1754C247874
:100D8000002C17D0441E022C05D3041F6642664176
:100D90001E40012E0ED1724E30686E4B5B68C01A39
:100DA000782800D2CBE0002916D0146F6D480021BE
:100DB000017016E0042800D9C1E00121814016200D
:100DC000014200D1BBE06448007A40006349085A00
:100DD00000F0D8F80021B0E001F060F9044601F01D
:100DE000A7FD5C4B30685860601C3ED05E48002513
:100DF00005705C4805705D4804609868411C03D02C
:100E0000C108E2088018441A9C60594804606421B3
:100E10002046039101F020FC4F4A3121565C3221DB
:100E2000515C01913321515C0491012102918907A8
:100E30000B4689088342FBD80AE05919421A074633
:100E400000D317466D08884200D3ED189B0838463A
:100E5000002BF2D1002E00D1052603994B20C700AC
:100E60000498002816D0484316E03E48022101703D
:100E70003D480178491CCAB20170032A5FD30021A2
:100E80000170287804285AD00520287030683C4921
:100E9000086054E03846C83004900198002801D01A
:100EA000484307466E432C4DA868FF2213040340B5
:100EB000029A9204934202D8000CC0B200E00220D1
:100EC00040002C4A105E704301F02EFA8019696AC6
:100ED000884200DC084628498C421E4B00D3049F00
:100EE000874200DB07467D20C000874200DB0746C3
:100EF000F817874358882149884219D000B2391A17
:100F000009B2012905DB19221201904208DB1422E3
:100F100007E01322D24391420ADA1438074607E069
:100F2000052289B2962800DA02228A4200D2871866
:100F30005F80B8B200F026F8012101F029FE05B06B
:100F4000F0BDC0462001002054534554210100202B
:100F500000000020E0010020680200209C2C00001E
:100F6000280100200302002000020020FC010020D4
:100F7000F8010020AE2C0000A4420F00FFFF00008B
:100F8000F4010020F0B589B006467E4A107BC00708
:100F900000D1F4E07C498F68D06A874207D9059672
:100FA00014697A48874205D87C4822180CE000264C
:100FB0004E62E4E076483918764801F04DFB7649F8
:100FC000884200D3084602196E4D6869A9690792E4
:100FD00084180697781A724A00263146334601F083
:100FE0005FFC2246334601F097FD0746ED698542D6
:100FF0002C4600D33C466448079B0361C760002F22
:1010000000D1BCE07D20C200002D1046089206D021
:1010100010466843214601F01FFB079B089A019583
:1010200003944B21904200D3104602904801049053
:101030001E2630465843642101F00EFB0246002470
:101040003846214601F0E8FD554A234601F064FD8B
:10105000054638462146079A01F0DEFD07900091CB
:10106000059A01F0D9FD4F4A234601F055FD089A33
:10107000401906990B1A10461CD904998B42104648
:1010800018D20498431C1E200699994212D32F4669
:10109000454BC918A9420DD9C81B424A00210B462D
:1010A00001F0FEFB079A009B01F036FD1E2800D8D8
:1010B0001E20089A079001980028174605D03B4843
:1010C000039901F0C9FA089A07469742069D00D392
:1010D0001746039821462A4601F09EFD4A07C30899
:1010E0009A18CB087D3A089AA341144615D30024D8
:1010F000089A234601F010FD054603970F46214844
:10110000006A2146089A01F087FD2A463B46039F64
:10111000069D01F001FD089A0446944200D314464E
:101120000498401C8542079B0FD3214885420BD869
:101130001E3A6A431F481018E121890001F08CFA19
:10114000079B06461E3600E01646029A9342184652
:1011500000D310468742394600D301468C422046D0
:1011600000D30846864200D30646074842618361A1
:10117000C761046246620598864200D30646B0B253
:1011800009B0F0BD680200207C0100206C0700005F
:1011900094F8FFFF80F0FA0290D00300E09304007F
:1011A00040420F0000CA9A3BA0F6FFFF00093D0035
:1011B000E30C0000407ADCFFF0B585B0012002901E
:1011C000C4067D48016821400268042002407B4B30
:1011D0001D687B4EB542019016D1DD889E88B542D0
:1011E00012D156255D5D002D00D00422002D00D0C7
:1011F000214669241D5D0024002D00D021466A256A
:101200005B5D002B00D022464B424B41544254417F
:101210006C490A785200D218D6B20A703246FF3AA8
:10122000554255414A785200121933461340D7B2FD
:1012300008464A700097FF3F7C427C41FF3B594281
:10124000594104950394254301D1002343800C4662
:10125000002916D0029D014685700020C8600861F3
:10126000CA78002A2FD0584A12684B69D21A574BB5
:1012700014339A4200D88BE00879002843D000202C
:1012800043E00146C379002B24D04F4B1B684E69C5
:101290009B1B4E4E1436B34205D94B79002B02D11D
:1012A0000B79002B44D00020002D71D10A79012A3E
:1012B0006ED14A79002A6BD18A79002A029A67D1C5
:1012C0008A71062064E0CD703F4A12684A618880C6
:1012D00088715DE08878002801D0002058E00A7A03
:1012E000FF2E1BD0002A19D0CA68002A28D03A48FD
:1012F000354B1B689A1A1346153B06465136B342C6
:1013000021D201201DE00D710420354B9A423FD3BC
:101310004A79002A3CD14D71052039E00020FF2E8A
:101320000FD1002A029D17D1274A1268CA6013E024
:10133000274A1278062A01982AD22648805C27E09C
:101340000020029D08E0254BD2188242029D01D365
:10135000002000E0012040007B427B414A7A002AC5
:1013600000D01D46002D08D0002A11D1009AFF2A76
:101370000ED1154A12680A610AE00A69002A07D0EC
:10138000114B1B689A1A153A104B9A4200D203204F
:10139000049A0A72039A4A72CC71002809D0114A41
:1013A00000211160104A1378002B03D011700846F9
:1013B00000E0002005B0F0BD80130A4000000020CE
:1013C00054534554A801002028010020C7050000FF
:1013D00021010020092D0000BB020000DFFCFFFFFF
:1013E000881300003001002020010020F0B591B0EA
:1013F0000124644E30462030029001F0CDFA0028DE
:1014000000D1A8E003940F2080020B900720C002B7
:1014100006900120079040020C905E4C6068401CD2
:101420006060204601F060FAE0635B4845688468CC
:10143000002209920998022800D981E01F2A00D9C8
:101440007EE0641C102C29D30A9253484068069A07
:10145000811A4C424C4190420B9D00D0069D4A4857
:1014600007990160A7204A49086072B6474F38467D
:1014700029460C9A00F0B6FA40223846294601F077
:10148000E3FA62B645490868203008602001311847
:10149000002434504C608C60CC600A9A0B98281A57
:1014A0004142414108013018015D521C0029C1D15F
:1014B000001901900998401C0990A00128180D906E
:1014C000002105950A920494032932D008912E48F0
:1014D00007990160A7242E4804600027402F1CD2E2
:1014E0002C49C8194068C9590E910F9028480460CA
:1014F00072B60D98C619254D284631460C9A00F053
:1015000071FA0EAA2846314601F09EF962B62349C7
:101510000868801C08600837E0E70D9801F03CFA85
:101520000899491C0028174E059D0A9A049CCBD1A6
:1015300015E007980199087017484560846079E7BD
:1015400015498878401C8870144800680861039821
:101550004870002412E01048002141700EE00D494F
:101560004022029801F046FB0B494D608C60002040
:1015700048708870094800680861039C204611B0D3
:10158000F0BDC046C000002048E00C4000D00C4038
:101590000811084068020020C00100202801002036
:1015A000F8B504464148007804286DD8012739462B
:1015B00081401620014267D0FF2005043C48866820
:1015C000300C00907D20C000FFF7DCFC611E02297A
:1015D0000DD3052C14D0032C1FD137490A78002ACB
:1015E0002CD03002800E53D1009A521C51E0324967
:1015F0000A78002A13D02E424AD0009AFF3248E0DF
:101600002C4801782C4C2078002926D0002801D0C5
:101610000020207000F0B4FE3AE0009A32E0F3B20D
:101620005F00274AD75B874224D9330626D0F3B21E
:101630005B00D35A834222D9761EF6E7F2B2072A1C
:1016400026D852001E4BD218528882421DD9101A39
:10165000761C32281ADD4F701AE07840207000F0B6
:101660008FFE2078002813D001F062F9134800683B
:1016700060600DE0002B02D0761E00E00026009A8C
:1016800000204870002C04D1F8BD761C0020487062
:10169000009A100428400849097809020818F1B294
:1016A00040180349886001F065F8F8BD2101002069
:1016B0006802002001020020E00100202801002033
:1016C0009C2C0000F0B587B00720C00201900021DB
:1016D00040480490012006900E460591022935D01D
:1016E00002910029019D01D00F208502002703955A
:1016F000102F25D02868384988421ED1284601F08D
:10170000F3F8E96B884205D16C680598844205D3EB
:10171000002004E001200499C8550EE00120064293
:10172000069E0AD140222D48294601F063FA2C4832
:10173000039941608760069E05947F1C4035D7E77A
:101740000299491C049810300490C7E7F00702D1B1
:101750000698234901E022490878204AC50706D0A7
:101760001020019A4A60886000F0AAFD1AE0906893
:10177000C1B2082901D93020105C1072107BD060F2
:101780003120115C002901D1052111543220115C56
:10179000002901D1062111543320115C002901D107
:1017A0000821115400260E4F3E700A4C20340B497C
:1017B0004022204601F01EFA7E70002D08D03E46E1
:1017C0004021204601F0DEF90698787001F06CF9AE
:1017D00007B0F0BDC00000205CAA55AA6802002036
:1017E000C0010020F0B5394A8218394BC0183A4D73
:1017F0004C790B79002C22D0466F202B02D0052487
:10180000E70100E0354F2E40002B00D188273E43F2
:101810004667846F2C403C438467446B2D4E3440B4
:101820004463846B34408463002444658465546855
:101830008F26F643344054609468344094600C68BA
:101840008979202B09D006467036002B15D1641EED
:101850004460C46E2C40882715E0641E4460C46E4A
:101860002C401E4E3443C466046F2C40344304673E
:101870001B4D01246707064607E00527FF016408A2
:101880004460C46E2C403C43C46634682C403C43E6
:101890003460C46A0F4D2C40C462046B2C40046356
:1018A0000024C4640465C46F8F25ED432C40C467D5
:1018B00014682C401460194302680A4B1340BD227F
:1018C0000A40D118891C0160F0BDC0468418000090
:1018D000041800008888FDFF24493E000104000030
:1018E000FFFFFFCF4000FFCFB0B53A4A80184A68EB
:1018F00042600A78222A56D8930001A4E3589F46F2
:101900009D190000A71900009D190000A7190000EB
:10191000A7190000A7190000A7190000A7190000C7
:10192000A7190000A7190000A7190000A7190000B7
:10193000A7190000A7190000A7190000A7190000A7
:101940008D190000A71900008D190000A7190000CB
:10195000A7190000A7190000A7190000A719000087
:10196000A7190000A7190000A7190000A719000077
:10197000A7190000A7190000A7190000A719000067
:101980008D190000A71900008D19000003680324B9
:101990002407A343012464071B1903E003680324FD
:1019A0002407A34303600B69C360CB68C46A0A4D74
:1019B00025400A4C1C402B19C3620368084C1C408C
:1019C0000460097A114302683F239A431940511871
:1019D0000160B0BD041800008888FDFF7777020021
:1019E0007F00FFFFF0B583B002920190304B314D84
:1019F00000918C0A28680727384005262E60196850
:101A000089048A0F2860296839402E601868296087
:101A1000002A214608D028490840511C00F01CFE2D
:101A20000146204600F018FE0198204A80180190D7
:101A30002A683A402E601E4803682A602A683A40A5
:101A40002E6003682A60012293020298984207D010
:101A5000530298420CD10098C30B0BD1019803E0BC
:101A60001F210C4001984030A24001689143016061
:101A700003B0F0BDFF290DD82B683B402E600C4C05
:101A800024682B60A3049B0F019800D12039CC0857
:101A9000001DE9E71302FF339942E9D2FF23DB433C
:101AA000C918CC0801980830DEE7C046D011000004
:101AB0001800C44100134040FF0F000070B52C48CF
:101AC0000678002E07D02B480078002807D02A4936
:101AD0000520C88005E028482A49818043E026483F
:101AE000C088254D2978002927D06988814224D0D3
:101AF00022490A68AB68D21A0C2A1FD30968A96068
:101B00006988401A04B2012C09DBA0B20A2100F056
:101B1000A3FD0A2C00D80120698808180DE0604256
:101B200080B20A2100F098FD69880922D2439442CC
:101B300001DB093200E04242881868806C88022E7E
:101B40000CD10F48007B800608D50C4800687D2129
:101B5000090100F081FD322900D2A408204600F0DE
:101B6000D1F80146A8800848002200F0FBFF70BDB4
:101B70002101002020010020D401002028010020A4
:101B8000680200205F0900000000094070B5214D87
:101B9000012426022048214901602148026822438D
:101BA000026020480160204801F010F828680020F9
:101BB000C14329601D490A6822430A604A683243CA
:101BC0004A601B49491C2A46183A1268324201D120
:101BD0000029F7D100291BD01648006881B22A6875
:101BE00032432A600004800E00D08908124848431E
:101BF000124900F031FD12494860486888604C7015
:101C000088681049C96A6431884200D80024204697
:101C100070BDC04648500040000803400100002647
:101C20000011034000480040C0D4010000510040B2
:101C3000AF3CFFFF80A2554040164000189C0F00AB
:101C40007C01002068020020B0B5274C20780028D5
:101C500011D02748012529020246183A1268D205F8
:101C600021D4224A1268A36AD21A0B2A3AD30268F4
:101C70000A43026034E01D480168A26A891A642997
:101C800030D31B490A680022D2430A6019490A6806
:101C900001231A430A604A681D0215434D602370F0
:101CA0000068A062B0BD02680A4302601248006882
:101CB00081B20004800E00D08908104848431049C2
:101CC00000F0CAFC60606178002907D0A168A268B2
:101CD000D208C0080818801AA06001E0A0606570F2
:101CE00000202070B0BDC0467C01002028010020EB
:101CF000485000400051004080A25540401640002E
:101D0000189C0F00F8B5234F002840D00446224805
:101D1000866822498D69AE4239D90A6920488642CF
:101D200002D8234810180CE000921E4831181E48B3
:101D300000F092FC1D49884200D3084600994018E3
:101D40001649496908180090701B1A4A0026314646
:101D5000334600F0A5FD009A334600F0DDFE002872
:101D600015D006460D48C06944437D20C500204675
:101D7000294600F071FC601A314600F06DFCA84263
:101D800000D328467843294600F066FC3F1AB8B2D3
:101D9000F8BDC0465F0900007C01002068020020F9
:101DA0006C07000094F8FFFF80F0FA0290D0030067
:101DB000E093040040420F0070B5204C012635022C
:101DC0001F482049016020480268324302601F48D2
:101DD00001601F4800F0FAFE20680020C043206028
:101DE0001C480168314301604168294341601A4938
:101DF0000846214618390968294202D1411C0028A9
:101E0000F6D1002818D01548006881B222682A430C
:101E100022600004800E00D089081148484311490F
:101E200000F01AFC1049486088688A68D208801A55
:101E30004A68D2088018886070BDC046485000408B
:101E40000008034001000026001103400048004044
:101E5000C0D4010000510040B03CFFFF80A25540BB
:101E600040164000189C0F007C010020F0B58B420A
:101E700000D1824204D90B0002000021002040E082
:101E8000002B00D1002A0CD10B0002000021002001
:101E9000002B00D1002A01D0C943C04300F019FC37
:101EA0002FE01C0015000B0002000CB400212600DE
:101EB0002F00FF19764102D2491C4029F9D1002098
:101EC0001E001700FF19764102D2401C4028F9D1AC
:101ED0000E1A21002800320000F06EFD0C000500F3
:101EE0000CBC00200021A34200D1AA4201D3521B06
:101EF000A341404149416D08E7073D436408761E10
:101F0000F1D5059F002F01D03A607B60F0BDFEE760
:101F1000F0B585B00190204C01200704C00202906A
:101F20002764002004900820029E002815D0782500
:101F30000390284600F04AFE2664284600F046FE3C
:101F40000498400015490968C903C90F081804908E
:101F5000039826602663401EE7E70198002803D017
:101F600027602046303001E020464030264607609A
:101F70000B49782528468847029C3464284608493E
:101F80008847346034632846054988473764049895
:101F9000C0B205B0F0BDC046A0120A4080130A408E
:101FA000CD2B0000FEB502901A4F012002040092D2
:101FB0000826C0020190019C002E19D0029A50B24E
:101FC0000028009B03D43B603846303001E038469F
:101FD00040300360520002927825284600F0F6FD5A
:101FE0003C64284600F0F2FD3C603C63761EE3E76B
:101FF00000983864084D782420463E46A847019F43
:1020000037642046A8470548006837603763204694
:10201000A847FEBDA0120A40CD2B000080130A4045
:10202000F8B5451C00780023082B32D02F78C20762
:102030000CD16A780F241440E41C122C0BD102241A
:102040002E57F4B2002E08D4EE1C0EE06D1C4A1C74
:102050000F7011461AE0AE1C08E02E1DED780095B9
:102060007F252C40009DED012C1912343D011209F1
:102070005219094DAA420ED0D243002C05D08D5CD6
:102080004F1C0D70641E3946F7E7354640085B1C4F
:10209000CAE72846C5E7F8BDFF0F000070B5002568
:1020A000EC4300F075FA154E8820B0472846B0473B
:1020B00000F048FB00F06CFA8920B0470120FFF7E0
:1020C00027FF06462846FFF723FF054600F03AFBA8
:1020D000300240190A4988420DD0B10902290AD8B4
:1020E0003109084A104088400749884200D3084611
:1020F000064908600446204670BDC046A51F000082
:10210000FFFF0000FF0F0000C4F77F00FC0100206C
:1021100010B51249124800F07FFA12484168124A7D
:102120000A4042608168114A0A40911C816010494E
:10213000104A0A60026801210B04134303600E4A2F
:1021400042610E4A136A0C0223431362136823434D
:10215000136002680A43026010BDC046B82C00003C
:102160000040004000510040FEFFECFFF8FFE0E0BF
:10217000805100400F020000C05D00002850004068
:10218000FEB50C46002812D005460027002D18D0B9
:102190000A262846314600F05FFA4643A91B302242
:1021A0000A43791C6B46DA5505460F46EEE768464A
:1021B00030210170012704E0781C69463022CA559D
:1021C0000746A742F8D308488169012F0ADB3E2958
:1021D00008D87F1E6A46BA5C4B1C836141180A7797
:1021E0001946F2E7FEBDC04620010020FCB51748A5
:1021F00007460837FCCF016A0091416A01911449F2
:102200004A678B67CC6780228D5084228E5088224B
:102210008F508C22009B8B509022019B8B50826AA6
:10222000C36A94240A5198228B503122825C9C23E9
:10223000CA543222825C9D23CA543322805C9E227F
:102240008854486F03494860FCBDC04668020020BE
:1022500000000020EC010020BCB51349134C2046BF
:1022600000F0C8FB12492046FFF7BCFA114801688C
:10227000114A0A40026000250095204629462A4658
:102280002B4600F0EDFB204629462A4600F0A4FB31
:102290004B20410120462A4600F064FC07480121FA
:1022A00081600160BCBDC046282D000000000940CF
:1022B000C02C0000041809407F00FFFF00110940F6
:1022C000FCB512480021FF22019232220092124CEA
:1022D00025466435AF273F011E222346C8330F4EE3
:1022E0000662064624361CC60D4A026341638163BA
:1022F000C1630C4A064B0360416082600199C16072
:102300000099016103491430A2C0FCBD680200209D
:102310005CAA55AA9041060034080000282300005A
:1023200004050608040002001CB5002922D04C0850
:10233000002900D5494242105440002800D54042AF
:1023400000230A00904201D95200FBE790425B4112
:10235000904200D3801A914201D25208F6E7190048
:10236000002C00D54042640000D54942020008001C
:1023700011001CBD0100002000F001F81CBD7047D9
:10238000F8B502240E4D0F4E002C17D06920010124
:102390000D488180002728463A4600F0E3FB30468E
:1023A00000F014FC09490848818028463A4600F0AC
:1023B000D9FB304600F00AFC641EE5E7F8BDC046D4
:1023C00000000940009F2400D40100205F090000A4
:1023D0000D48842101600D4901220A630C4A026004
:1023E000812282610B4AC266C36EC36682608268C4
:1023F0008260094A0264036C0364C262C26AC262F8
:10240000402008600863704704804240A0120A40E0
:102410008400000481000E0081000C00B0B50B4860
:102420000B4941600B4A51600B4B59608C1E0B4DA0
:102430006C600B4C61600B49016011601960296090
:102440002160102000F0C2FBB0BDC04600080A4069
:10245000030000B1000809400048004000080340A4
:102460000008084001000026F8B5044605460C3572
:1024700000260F4F6088864217D228460838016828
:10248000281F03682A68002A03D0184600F0B2FB10
:1024900008E00648874205D0481C097889007A5828
:1024A00019469047761C0C35E4E7F8BD902D0000E6
:1024B000842D000070B50D48401C02D00B48FFF77A
:1024C000D3FF0B480B4C84420CD00B4D0B4EB54246
:1024D00008D02A686968501C12789200A258904768
:1024E0000835F4E700BF00BF70BDC046B82D00003E
:1024F000902D0000842D0000A02D0000B82D0000BC
:1025000080B50D484178012915D10C490978012978
:1025100011D18178002905D004290CD8084909680F
:10252000006902E006490968C068081A054988423E
:1025300001D9FEF75BFF80BDC00100202101002012
:102540002801002030750000B0B50D4C2168012530
:10255000A94321600B490A6803239A4303466B4051
:10256000D218002801D1094800E007480A606060DD
:102570007D20C00000F02AFB206828432060B0BD09
:102580000458084000010B40BF5D00009F0F000091
:1025900070B50E4D01200404C6022C642E64782010
:1025A00000F014FB0A480068C00302D400F0CAF827
:1025B00070BD2C602C637824204600F007FB2E6051
:1025C0002E63204600F002FB70BDC046A0120A40F8
:1025D00080130A4010B50C48407A0002FF21C9431D
:1025E00041184A424A41094C22700121090288429D
:1025F00009D100F09DF9064800680021C9436060D8
:10260000A1600448608010BD68020020E001002045
:1026100028010020FFFF0000F0B511221302C218AC
:102620000C780B4D46590B4F374003262640BC19FA
:10263000A9263606A41944514C68C5580726360603
:10264000B54334402C19C45048781061F0BDC046E1
:1026500008080000FCFFFF001CB50A0017D000238B
:102660000124E407A04200D20400944201D95200A0
:10267000FBE790425B41904200D3801A914201D225
:102680005208F6E719000200080011001CBD010005
:102690000020FFF774FE1CBDFCB4020C0B0CFF24E1
:1026A0002402FF34204021400C00444315005D43C8
:1026B00006005E430F005743320C3B0CA818C018AD
:1026C00032043B040025A1186841C9186841FCBCCC
:1026D00070477047B0B50B48012251040A4B1C6883
:1026E0009502AC431C605C68120594435C60026810
:1026F0000A4205D002680A4202D002680A42F6D1B4
:10270000B0BDC04604020B4000010B400B49002045
:1027100048700B490860C8808860C8606822885487
:10272000692288546A2288546B228854562288541D
:102730006C2288526E22885208677047EC01002094
:1027400000000020F8B501252E04084F3E603E63CE
:102750007824204606498847E80238642046044D1C
:10276000A8473E642046A847F8BDC046A0120A40CC
:10277000CD2B000080B50848203000F00DF900286E
:1027800005D0064900228A70054A1268CA60411EB7
:1027900088410249487080BDC0000020C00100206F
:1027A0002801002080B5074800680749884204D105
:1027B000FFF786FDFFF7DEFF80BD044801210170B1
:1027C00080BDC046680200205CAA55AAC001002056
:1027D00010B50649064C204600F0A8F905492046E8
:1027E00000F0B8F8F02000F0F1F910BD2B2D00003A
:1027F00000000340C82C0000074802680168002060
:10280000120108D5490706D504490A7A002A02D1DF
:10281000497A48424841704780130A40A801002085
:10282000084880F3088800BF00BF00F0FBF90028CB
:1028300001D0FFF73FFE0020FDF742FC012000F031
:10284000E6F9C04600040020B0B5074BC4180125C6
:10285000C550FF232362E1611168E1625168216381
:1028600000F004F8B0BDC0460411000082B000942E
:10287000014C019410BD00BF090200200648002150
:1028800001600648016803229143016041680F22FC
:10289000914341607047C04608030B4000010B4064
:1028A00030B514004C4325001C0044436419050056
:1028B00010002900FFF7F0FE001904000D002100B0
:1028C000280030BD10B507498A690378002B08D06D
:1028D0003E2A06D8401C541C8C618A181377224665
:1028E000F3E710BD2001002010B500220549064B7A
:1028F0003C2A04D0845C61405943521CF8E70846E6
:1029000010BDC046C59D1C819301000180B5002803
:1029100000D05A20054934228B5C834204D088546D
:10292000FFF728FF00F0C0F880BDC0466802002015
:1029300010B5FFF72DFE064C8820A0470120A047C8
:10294000C220A0471020A047FFF7FCFE10BDC046E4
:10295000A51F0000B0B51122120283180C784D7823
:1029600025434C882C43A4B284508888C988090424
:1029700008189860B0BD80B5FFF750FDFFF728FD3F
:10298000FFF77CFFFFF768FCFFF7C2FBFFF720FFB4
:1029900000F072F880BD000010B50021054B425CCC
:1029A0005C5CA24203D1491C4029F8D11446101B9B
:1029B00010BDC0466802002018B520239B1A04D819
:1029C000010000205B42994004E004009140DC409B
:1029D0002143904018BD000010B592008018044AB1
:1029E00083580724A404A34321405918815010BDE3
:1029F0003018000010B50122120383180C789C6077
:102A00004B7883508978014A815010BD0C11000029
:102A1000BFF34F8F034804490160BFF34F8F00BFDE
:102A2000FDE7C0460CED00E00400FA05BFF34F8F50
:102A3000034804490160BFF34F8F00BFFDE7C04664
:102A40000CED00E00400FA05B0B5044BC4180225F3
:102A50001543C550E161FFF709FFB0BD0411000047
:102A600010B5029CA400001911431943014A81507A
:102A700010BDC046501800000348044901605F21A2
:102A8000490641607047C04600110840430002C932
:102A900003480121016003488168491C8160704737
:102AA000485008402001002080B5044840780128A3
:102AB00002D1FEF79BFC80BD012080BDC00100203B
:102AC0002120C00203490860012002040A64C002F8
:102AD00008647047A0120A406820345469203454B6
:102AE0006A2034546B2034545620345470470322E7
:102AF0008058002805D0401E4A1C00230B70114648
:102B0000F7E7704702480168024A0A4302607047CB
:102B100048100A400400000840B584B002AE009698
:102B2000FFF7A4F9029A039B04B040BD10B501223F
:102B3000120383180C789C604978815010BD10B541
:102B400000239A4203D0CC5CC4545B1CF9E710BD4F
:102B500080B50B4603214258C11D184600F04AF8C3
:102B600080BD000092008018014A81507047C04625
:102B70001018000000239A4202D0C1545B1CFAE7EF
:102B8000704700000A46002180B5FFF7F3FF80BDC3
:102B9000014AD08011707047D4010020014880782C
:102BA0007047C046C0010020014840687047C046D9
:102BB000C0010020014880687047C046C001002065
:102BC000014840787047C046C0010020811E091F9F
:102BD00000BFFCD270471150642000242146D7E783
:102BE000089868702E612E70704720462146069C1A
:102BF000CEE7000080B5FFF7A2FF80BD46703046EB
:102C000084E63A46234687E72146234648E600F015
:102C100001F8FEE700BF7047234641E6204675E60F
:082C2000FEE57047012070473A
:102C280081B01649411811221202012383500A6803
:102C3800072002400092009AD2B2032A19D0009AC3
:102C4800D2B2012A15D00A6802400092009AD2B284
:102C5800032A0ED0009AD2B2012A0AD00A6802408A
:102C680000920098C0B2032803D00098C0B201288F
:102C7800DDD10098C0B201B07047C046D013000043
:102C880022000000BF5D00000000000000000200FC
:102C98000000000005001400320096002C01C2015B
:102CA80058022003E803CEFFE2FF00001E003200B6
:102CB800010400000000000060090000000000009E
:102CC80001800000000000006D56204D61783A0038
:102CD8005B4D414E5D20005B4552525D20005B4CD0
:102CE80056505D20005B4F46465D20005B414C53CB
:102CF8005D20005B5453545D20005B464C535D20BF
:102D080000000404000400205273743A00204F6647
:102D1800733A004C766C3A0020563A0020503A003C
:082D2800080000020000000099
:102D300000E5000001010052004F830156342EFFD0
:102D4000332E345F42415454FC0A4F6811FF054949
:102D50006E69746961FF6C697A696E672E2ECD2E7B
:102D6000144F231C0C0033181F0EFFFF5A1A3F0983
:102D7000381BFF005F09039BFF0000000DDF06FF0B
:102D8000F000000021200000512B0000EF2A00007D
:102D900002000000400000000001000004FFF000FD
:102DA000302D000000000020902D0000680200205F
:082DB000982D0000A80200208C
:102DB8000C000100282C0000080200206000000020
:1037F00056342E332E345F424154540000000000F2
:10380000FFFFFFFFFFFFFFFFFFFFFFFFFFFFFFFFC8
:10381000FFFFFFFFFFFFFFFFFFFFFFFFFFFFFFFFB8
:10382000FFFFFFFFFFFFFFFFFFFFFFFFFFFFFFFFA8
:10383000FFFFFFFFFFFFFFFFFFFFFFFFFFFFFFFF98
:0400000300002821B0
:00000001FF
