:1000000000040020352C0000FF1E0000FF1E000031
:1000100000000000000000000000000000000000E0
:10002000000000000000000000000000FF1E0000B3
:100030000000000000000000FF1E0000FF1E000086
:10004000FF1E0000192B0000FF1E00000000000032
:10005000FF1E000000000000000000000000000083
:1000600000000000FF1E0000000000000000000073
:10007000000000000000000000000000FF1E000063
:10008000A52A000000000000FF1E00000000000084
:100090000000000000000000000000000000000060
:1000A000FF1E000000000000000000000000000033
:1000B000000000000000000000000000FF1E000023
:1000C00000B58FB0012402F060FC62B6CD48006834
:1000D0001F210140CC4DE960E868012820460FD07F
:1000E000E868022820460BD0E8680328204607D09D
:1000F000E8680428204603D0E868411F4842484188
:10010000C24A13214906019121040291C04949685C
:100110009142049400D1044608940EAC0027A770C5
:1001200008202080BB4909AE1422304602F06CFD45
:100130000198401CB8490860102002F051FDB748F2
:10014000214602F061FCB548314601F0C5FBB448D8
:100150000168049C21430160B24802990160B249E0
:10016000086820430860AA484068A849884202D02D
:10017000A74841600780AD4E01F09CFA02F0AAFC4E
:10018000402003903060AA48016801263143016095
:100190006F700898002807D0A648007B000610D48E
:1001A000A548BC21032223E099484078002804D1C7
:1001B000A0483421405C5A28EED19F48BC2102223D
:1001C00016E001F0DBFC00280FD00120687000244D
:1001D0002C612C708E48447002F02AFD9648BC2198
:1001E0004450049C02F0CAF903E09348BC21012268
:1001F0004250F00600900597079630BF68780528B2
:1002000037D8314681403620014232D0A8790028C3
:10021000204602D1A87102F00BFBA7268748066092
:1002200000F0A4FE089001F007FD00F095FBA8681F
:10023000642102F0E5F9002962D1EF6168780528B0
:100240001CD8800001A109587D488F468B02000010
:10025000650200007D0200008102000085020000AE
:100260008902000077480078002877480DD0774849
:100270000BE0A87900283846CCD1CEE7744804E0DA
:10028000744802E0744800E074480696744EB04723
:100290007448B047674C207A01273946724DA84709
:1002A0007248B047A07A3946A8477148B0477148AC
:1002B000006804242146A8476F48B0477D20C0004D
:1002C00000F072FF3946059FA8476C48B0476C485C
:1002D00000882146049CA8476A48B0474A4EF06807
:1002E0000221A8473546069EE8693E2806D8411CEB
:1002F000E9612818202282540846F6E75F202F542F
:100300006148006800097C2801D802F0D7FBA86882
:100310006969411A6878C9087D2927D3A968696184
:10032000042801D0012821D14249097B09071DD5A4
:100330002969491C29612978002906D12969534A6C
:10034000521C914201D9012129702969504A9142D8
:100350000CD3042801D102F0CDF96F7001202C4993
:10036000487002F065FC02F0A9FB6878FB210842A6
:100370003CD0404800682F49C96A88420FD2A8780B
:10038000401CC1B2A87005290AD3AF706F70204815
:100390000799417002F04CFC02F090FB00E0AF7056
:1003A000344800682349896A88420ED2E878401CA4
:1003B000C2B2E8706878052A09D3EF7004220243BC
:1003C000052A04D10220687003E0EF7068780228E3
:1003D0000CD128480068643188425BD302F00AFCE3
:1003E0000B4802F015FC02F0C9F86878052800D91E
:1003F0005AE2C0467844007940008744774B4B640A
:10040000BC92C04620020B40280100203CC3A55AE4
:10041000B0020020A02C0000004808400040084026
:100420002850084000E100E00458084090120A40BB
:100430000418094070020020000000200811084044
:10044000052D0000EC010020F02C00000C2D000018
:10045000FE2C00001A2D0000132D0000F72C0000C8
:10046000E1270000332D0000712100002D2D000038
:10047000382D000090010020E82C00003C2D0000E9
:10048000E4010020272D00008C0100205F090000FE
:10049000191500006F71089804280FD16F70F64885
:1004A000079941702C713846394602F07BFB01F008
:1004B000FDFA02F0BDFB02F001FBF5E101F068F886
:1004C00000F02EFCF0E1089804286FD101F056FBF3
:1004D000002800D192E002F08DFBE74802F098FB83
:1004E000BC20E6490F5002F049F8DDE1002738460C
:1004F000394602F057FB384602F0A2F80899012964
:100500005CD1F9480078002858D1F2480068F849D1
:10051000C96A884200D380E0BC200121F54A11500D
:100520008AE0A868EC490968401AEC4988425CD323
:10053000079E6E70D2480770ED4A9068EE490840F9
:10054000906002F00BF902F0B9FACE4A1078401C24
:10055000C1B21070032903D3CA480770CA48067095
:10056000E348007A4000F549085A00F01DFE0021DA
:1005700002F018FB98E1DF480068EF49884200D09C
:1005800092E16820DB4E315C012900D0B6E06E2498
:10059000305BE549091A0022E04802F0EDFA305BD1
:1005A000049CE149081AE349088071E1A868A96937
:1005B000401AE349884200D276E189E1062942D017
:1005C000052900D1AFE0042936D101F0D7FA00287F
:1005D00000D1CEE002F00EFBC34802F019FBBC20B4
:1005E000C4490F5001F0CAFF26E080B2D54902F09D
:1005F00007F8C8084B2877D3CB4877E0BC20079989
:10060000BC4A02F0F2FA01F051FAC64802F0E8FAE8
:1006100002F0F5FA01F04AFA46E10120B249087009
:10062000A868A8610320687001F0A2FEAF48039992
:100630000160C54802F0D4FA2879012804D102F0FB
:10064000E3F8002800D02F7168780028059F00D0BB
:100650002BE1069628790028079E00D033E102F0AE
:10066000D3F8002800D11FE10198B8490860B849C3
:100670000860A84A10690124E1050143116110686E
:10068000202101431160A44E316A009F381D0143AF
:1006900031629E4B596E9A4A114059661968114051
:1006A0001960596E394359661968394319603168C0
:1006B00001433160069E022793490F608848076016
:1006C000029808609648066097499A48018000227F
:1006D0009248089202F050FA8548007BC00669D41F
:1006E00072B630BF62B68BE08F4877389149088088
:1006F00081B20022894802F03FFAD5E0315C02293C
:100700002BD16C20305A01F0F5FA04468648844219
:1007100000D3854C00228148214602F02DFA8548FD
:100720000480049CB4E02C792F7101F021FE01F0CB
:1007300025FA002817D00696079E6E702F612F703D
:10074000694802F065FABC206A490F50002C00D0BD
:100750007CE03046049C75497CE0305C032817D16E
:100760006C20305A22E0BC200799624A1150049C48
:1007700062E7BC2007995F4A02F037FA01F096F968
:10078000684802F02DFA02F03AFA01F08FF953E7C7
:100790006B20305C654909780143080676D15448DE
:1007A000007A40006549085A00F0FEFC002102F082
:1007B000F9F96DE06879002806D104986871C020C5
:1007C0004C4A1158491C115046490868A04308601A
:1007D00002984D4908604E4AD4634A490868042685
:1007E00030430860106861050143116030BF01F0BB
:1007F00065FF44490868B043086002F019F8069E96
:10080000424B586E3D4A111D084058661868084012
:10081000186041490868104008604E480760BFF3FF
:100820004F8FBFF36F8F3E48066001F0EDFF002849
:10083000049C059F38D101F0B7FA3D4800682C4967
:10084000C96A884230D9089828612DE0374908786C
:100850007040049C0870264B9968274A1140C0B22A
:1008600000020843986001F079FF02F027F901F0D7
:1008700085FE069EE0E6C046B00200200000002093
:10088000EC0100200A0200200902002000F048FAD2
:100890000898052808D80798089988402E2108420A
:1008A00002D0089800F074FE68780528079E0CD0E6
:1008B000042808D168200F49095C012905D00D4999
:1008C000085C022801D001F0F1F801F011FE94E477
:1008D00002F0A8F890010020C400002010270000BA
:1008E00000E100E004580840B002002090120A40E5
:1008F0007002002000000020FFFEFFFFFBFFFFF75B
:10090000FFFFFFEF10ED00E080E200E00C804240CE
:1009100004010B4090130A4028100A4000000940CF
:1009200008110840009F24005F090000EC0100202E
:1009300090010020E401002054534554B42C0000E1
:10094000E1930400DC050000C05D000000480040A9
:100950000008034080E100E0F0B587B0D54C207876
:10096000002803D10120207001F0C4FED24E30686F
:10097000D249884206D1F088B188401A41424141AB
:10098000069101E000200690716F6268CC48806893
:10099000914202D17067716F6160CA4909687161E3
:1009A000C94D2968B022B150C84909784E22B154C6
:1009B000C74909685722B154B821C64A72507067B6
:1009C000C0B2B085C4480088F085C448018831862B
:1009D000C34C2168B1610088C249081A7D22D70042
:1009E000784301F00DFE2268002402F017F902F0AE
:1009F00012F9F061B24882693262F06902F00EF9D0
:100A000002F009F970622A68F06902F007F90497A8
:100A100002F001F9B4217050B3480068B062B348E5
:100A200000687086B24800687063B2480068B063BE
:100A3000B1480068F063B14800683064B0480068AD
:100A40007064B0480068B064AF4800784C217054BE
:100A5000AE4800784D217054AD48016801220592DE
:100A6000D2060A40514251414F22B1540068042736
:100A700038404142414150203154A648007851212C
:100A80007054A5480078522170548D4D287B400643
:100A9000C00F5321705402F09DF85421705402F09D
:100AA00087F8552170549D480068B0656868F06506
:100AB00002F084F8306602F087F8706683480078A8
:100AC0000699C90700D1ABE00146394304294CD04F
:100AD0007848059941707D48069707708F480460F3
:100AE0008C48047001F0F6FF754B1F46083787CF1E
:100AF0009D690195DD6902951D6A03955D6A7067C0
:100B0000B167F267802037508420019931508820E6
:100B1000029931508C200399315090203550986AB9
:100B2000D96A9422B050982031503120185C9C2111
:100B300070543220185C9D2170543320185C9E2123
:100B400070543461F4606820305C00280AD16C2055
:100B5000315A002906D160490988002902D05E492E
:100B60000988315259480078069F042800D090E047
:100B7000B068002800D187E006976848046065489F
:100B80000470B76805983061B460B81E052873D842
:100B9000784400794000874445024762564F706FA1
:100BA0000590B16FC8B20390F06F02908023F058A7
:100BB0000190842570590090882030588C217158FC
:100BC0009022B2583E4B059D9D60039DDD60029DC5
:100BD0001D61019D5D61009D9D611D461C3507C520
:100BE00094203058982171589862D9629C21725C87
:100BF0001420142A024600D8725C31215A549D22D6
:100C0000B15C1429014600D8B15C322299549E216E
:100C1000725C142A00D8705C3321294A505426E0B3
:100C2000042836D101F00CFF01F098FD01F046FFD9
:100C300000281CD104201BE02448047001F08EFD24
:100C400001F03CFF04E021480599017001F096FC99
:100C500018484470346001F049FF02200DE001F0B3
:100C600095FD01F02BFF002801D1069800E002203D
:100C7000306101F0B3FA01E005203061F7601348FC
:100C800000780428069F04D1049800F08DFA0F48DC
:100C90000078084A5178012909D13843042806D040
:100CA000547003200949087001F020FFF46007B078
:100CB000F0BDC046F8010020000000205453455408
:100CC00070020020900100208C01002029010020EA
:100CD00034010020C05D0000E2010020E40100209A
:100CE000940100205F09000098010020AC01002061
:100CF0009C010020A0010020A4010020A8010020E8
:100D00000402002000020020080200200B02002044
:100D100080130A4028010020ED0100203801002046
:100D2000F0B585B081480078002800D0FBE0804C09
:100D3000804D287800230428194608D17E4A11687E
:100D4000A142194603D16B21515C4A1E91417A4A56
:100D50001668A64204D1D38894881C1B6342634161
:100D600000290CD1754C2478002C17D0441E022C7D
:100D700005D3041F664266411E40012E0ED1724EFD
:100D800030686E4B5B68C01A782800D2CBE000292F
:100D900016D0146F6D480021017016E0042800D9A8
:100DA000C1E0012181401620014200D1BBE064482E
:100DB000007A40006349085A00F0F6F90021B0E0DB
:100DC00001F064F9044601F0BDFD5C4B30685860E9
:100DD000601C3ED05E48002505705C4805705D488B
:100DE00004609868411C03D0C108E2088018441AC6
:100DF0009C605948046064212046039101F000FC86
:100E00004F4A3121565C3221515C01913321515CB2
:100E100004910121029189070B4689088342FBD87E
:100E20000AE05919421A074600D317466D0888424E
:100E300000D3ED189B083846002BF2D1002E00D1CC
:100E4000052603994B20C7000498002816D0484374
:100E500016E03E48022101703D480178491CCAB2A3
:100E60000170032A5FD300210170287804285AD02A
:100E70000520287030683C49086054E03846C83086
:100E800004900198002801D0484307466E432C4D3A
:100E9000A868FF2213040340029A9204934202D8E6
:100EA000000CC0B200E0022040002C4A105E7043EB
:100EB00001F032FA8019696A884200DC0846284944
:100EC0008C421E4B00D3049F874200DB07467D20E7
:100ED000C000874200DB0746F8178743588821493E
:100EE000884219D000B2391A09B2012905DB19224A
:100EF0001201904208DB142207E01322D2439142F0
:100F00000ADA1438074607E0052289B2962800DA83
:100F100002228A4200D287185F80B8B200F044F9FA
:100F2000012101F03FFE05B0F0BDC04628010020C0
:100F3000545345542901002000000020EC010020FA
:100F400070020020B42C0000300100200B020020B1
:100F5000080200200402002000020020C62C00002D
:100F6000A4420F00FFFF0000C4000020FEB50127CF
:100F7000FC068048016821400268042002407E4B44
:100F80001D687E4EB542019716D1DD889E88B54218
:100F900012D156255D5D002D00D00422002D00D019
:100FA000214669241D5D0024002D00D021466A25BC
:100FB0005B5D002B00D022464B424B4155425541D0
:100FC0006F490A785200D218D4B20A702346FF3B08
:100FD0005A425A414B785B005B1926461E40DFB2ED
:100FE0004B700097FF3F7B427B41FF3E754275414E
:100FF00016461E43029601D100264E80002D15D0C4
:10100000019F8F700020C8600861CC78002C25D02B
:101010005C4C24684E69A41B5B4E1436B44200D865
:101020008FE00879002849D0002049E0CE79002ED1
:101030001BD0544C24684E69A41B534E1436B44242
:1010400005D94C79002C02D10C79002C4AD0029899
:1010500000280FD00A724B72CD7189E0CF70494CD5
:1010600024684C61888088716BE08878002812D0F1
:10107000002066E00C790020012C08D14C79002C6E
:1010800005D18C79002C02D10198887106200A7252
:101090004B72CD715BE00E7AFF2C1AD0002E18D067
:1010A000CC68002C25D03B48364E3668341B26468B
:1010B000153E513086421ED2012025E00F710420DA
:1010C000364EB4423DD34C79002C3AD14F710520B5
:1010D00037E00020FF2C17D1002E15D1294C2468B1
:1010E000CC6011E0294C2478062C2AD22848005DD7
:1010F00027E0002008E028482018264CA04201D311
:10110000002000E0012040007C427C414F7A002F0B
:1011100000D00194019C002C08D0002F11D1009C1C
:10112000FF2C0ED1174C24680C610AE00C69002CCE
:1011300007D0144E3668341B153C134EB44200D20F
:1011400003200A724B72CD71029A002A04D1002248
:10115000CA708A808A714A61002809D0104A002129
:101160001160104A1378002B01D011700846FEBDA3
:101170000020FEBD80130A40000000205453455457
:10118000B401002030010020C70500002901002023
:10119000212D0000BB020000DFFCFFFF88130000D0
:1011A0003801002028010020F0B589B006467E4AAB
:1011B000107BC00700D1F4E07C498F68D06A874279
:1011C00007D9059614697A48874205D87C482218C1
:1011D0000CE000264E62E4E076483918764801F0CB
:1011E0000FFA7649884200D3084602196E4D6869A5
:1011F000A969079284180697781A724A0026314620
:10120000334601F069FB2246334601F08FFC074666
:10121000ED6985422C4600D33C466448079B036138
:10122000C760002F00D1BCE07D20C200002D104619
:10123000089206D010466843214601F0E1F9079B69
:10124000089A019503944B21904200D310460290D6
:10125000480104901E2630465843642101F0D0F91D
:10126000024600243846214601F0E0FC554A234658
:1012700001F05CFC054638462146079A01F0D6FC91
:1012800007900091059A01F0D1FC4F4A234601F0E6
:101290004DFC089A401906990B1A10461CD904995E
:1012A0008B42104618D20498431C1E20069999427E
:1012B00012D32F46454BC918A9420DD9C81B424A23
:1012C00000210B4601F008FB079A009B01F02EFC61
:1012D0001E2800D81E20089A07900198002817465B
:1012E00005D03B48039901F08BF9089A07469742CD
:1012F000069D00D31746039821462A4601F096FC26
:101300004A07C3089A18CB087D3A089AA3411446A5
:1013100015D30024089A234601F008FC05460397DC
:101320000F462148006A2146089A01F07FFC2A46B0
:101330003B46039F069D01F0F9FB089A0446944240
:1013400000D314460498401C8542079B0FD32148C4
:1013500085420BD81E3A6A431F481018E1218900C4
:1013600001F04EF9079B06461E3600E01646029A2B
:101370009342184600D310468742394600D30146AF
:101380008C42204600D30846864200D306460748D2
:1013900042618361C761046246620598864200D358
:1013A0000646B0B209B0F0BD7002002088010020EE
:1013B0006C07000094F8FFFF80F0FA0290D0030061
:1013C000E093040040420F0000CA9A3BA0F6FFFFE2
:1013D00000093D00E30C0000407ADCFFF0B591B05D
:1013E0000124644E30462030029001F0DFFA0028DC
:1013F00000D1A8E003940F2080020B900720C002C8
:1014000006900120079040020C905E4C6068401CE2
:101410006060204601F072FAE0635B4845688468CA
:10142000002209920998022800D981E01F2A00D9D8
:101430007EE0641C102C29D30A9253484068069A17
:10144000811A4C424C4190420B9D00D0069D4A4867
:1014500007990160A7204A49086072B6474F38468D
:1014600029460C9A00F0B6FA40223846294601F087
:10147000F5FA62B645490868203008602001311845
:10148000002434504C608C60CC600A9A0B98281A67
:101490004142414108013018015D521C0029C1D16F
:1014A000001901900998401C0990A00128180D907E
:1014B000002105950A920494032932D008912E4800
:1014C00007990160A7242E4804600027402F1CD2F2
:1014D0002C49C8194068C9590E910F9028480460DA
:1014E00072B60D98C619254D284631460C9A00F063
:1014F00071FA0EAA2846314601F0C2F962B62349B4
:101500000868801C08600837E0E70D9801F04EFA83
:101510000899491C0028174E059D0A9A049CCBD1B6
:1015200015E007980199087017484560846079E7CD
:1015300015498878401C8870144800680861039831
:101540004870002412E01048002141700EE00D495F
:101550004022029801F058FB0B494D608C6000203E
:1015600048708870094800680861039C204611B0E3
:10157000F0BDC046C800002048E00C4000D00C4040
:101580000811084070020020CC010020300100202A
:10159000F8B504464148007804286DD8012739463B
:1015A00081401620014267D0FF2005043C48866830
:1015B000300C00907D20C000FFF7F6FD611E02296F
:1015C0000DD3052C14D0032C1FD137490A78002ADB
:1015D0002CD03002800E53D1009A521C51E0324977
:1015E0000A78002A13D02E424AD0009AFF3248E0EF
:1015F0002C4801782C4C2078002926D0002801D0D6
:101600000020207000F0B4FE3AE0009A32E0F3B21D
:101610005F00274AD75B874224D9330626D0F3B22E
:101620005B00D35A834222D9761EF6E7F2B2072A2C
:1016300026D852001E4BD218528882421DD9101A49
:10164000761C32281ADD4F701AE07840207000F0C6
:101650008FFE2078002813D001F074F91348006839
:1016600060600DE0002B02D0761E00E00026009A9C
:1016700000204870002C04D1F8BD761C0020487072
:10168000009A100428400849097809020818F1B2A4
:1016900040180349886001F061F8F8BD2901002075
:1016A0007002002009020020EC010020300100201F
:1016B000B42C0000F0B587B00720C00201900021D3
:1016C00040480490012006900E460591022935D02D
:1016D00002910029019D01D00F208502002703956A
:1016E000102F25D02868384988421ED1284601F09D
:1016F00005F9E96B884205D16C680598844205D3E9
:10170000002004E001200499C8550EE001200642A3
:10171000069E0AD140222D48294601F075FA2C4830
:10172000039941608760069E05947F1C4035D7E78A
:101730000299491C049810300490C7E7F00702D1C1
:101740000698234901E022490878204AC50706D0B7
:101750001020019A4A60886000F0AAFD1AE09068A3
:10176000C1B2082901D93020105C1072107BD06002
:101770003120115C002901D1052111543220115C66
:10178000002901D1062111543320115C002901D117
:101790000821115400260E4F3E700A4C20340B498C
:1017A0004022204601F030FA7E70002D08D03E46DF
:1017B0004021204601F0F0F90698787001F07EF99A
:1017C00007B0F0BDC80000205CAA55AA7002002036
:1017D000CC010020F0B5394A8218394BC0183A4D77
:1017E0004C790B79002C22D0466F202B02D0052497
:1017F000E70100E0354F2E40002B00D188273E4303
:101800004667846F2C403C438467446B2D4E3440C4
:101810004463846B34408463002444658465546865
:101820008F26F643344054609468344094600C68CA
:101830008979202B09D006467036002B15D1641EFD
:101840004460C46E2C40882715E0641E4460C46E5A
:101850002C401E4E3443C466046F2C40344304674E
:101860001B4D01246707064607E00527FF016408B2
:101870004460C46E2C403C43C46634682C403C43F6
:101880003460C46A0F4D2C40C462046B2C40046366
:101890000024C4640465C46F8F25ED432C40C467E5
:1018A00014682C401460194302680A4B1340BD228F
:1018B0000A40D118891C0160F0BDC04684180000A0
:1018C000041800008888FDFF24493E000104000040
:1018D000FFFFFFCF4000FFCFB0B53A4A80184A68FB
:1018E00042600A78222A56D8930001A4E3589F4602
:1018F0008D190000971900008D190000971900003C
:101900009719000097190000971900009719000017
:101910009719000097190000971900009719000007
:1019200097190000971900009719000097190000F7
:101930007D190000971900007D190000971900001B
:1019400097190000971900009719000097190000D7
:1019500097190000971900009719000097190000C7
:1019600097190000971900009719000097190000B7
:101970007D190000971900007D19000003680324F9
:101980002407A343012464071B1903E0036803240D
:101990002407A34303600B69C360CB68C46A0A4D84
:1019A00025400A4C1C402B19C3620368084C1C409C
:1019B0000460097A114302683F239A431940511881
:1019C0000160B0BD041800008888FDFF7777020031
:1019D0007F00FFFFF0B583B002920190304B314D94
:1019E00000918C0A28680727384005262E60196860
:1019F00089048A0F2860296839402E601868296098
:101A0000002A214608D028490840511C00F0F8FD62
:101A10000146204600F0F4FD0198204A801801900C
:101A20002A683A402E601E4803682A602A683A40B5
:101A30002E6003682A60012293020298984207D020
:101A4000530298420CD10098C30B0BD1019803E0CC
:101A50001F210C4001984030A24001689143016071
:101A600003B0F0BDFF290DD82B683B402E600C4C15
:101A700024682B60A3049B0F019800D12039CC0867
:101A8000001DE9E71302FF339942E9D2FF23DB434C
:101A9000C918CC0801980830DEE7C046D011000014
:101AA0001800C44100134040FF0F000070B52C48DF
:101AB0000678002E07D02B480078002807D02A4946
:101AC0000520C88005E028482A49818043E026484F
:101AD000C088254D2978002927D06988814224D0E3
:101AE00022490A68AB68D21A0C2A1FD30968A96078
:101AF0006988401A04B2012C09DBA0B20A2100F067
:101B00007FFD0A2C00D80120698808180DE060428A
:101B100080B20A2100F074FD69880922D243944200
:101B200001DB093200E04242881868806C88022E8E
:101B30000CD10F48007B800608D50C4800687D2139
:101B4000090100F05DFD322900D2A408204600F012
:101B5000D1F80146A8800848002201F00DF870BDB8
:101B60002901002028010020E00100203001002090
:101B7000700200205F0900000000094070B5214D8F
:101B8000012426022048214901602148026822439D
:101B9000026020480160204801F022F828680020F7
:101BA000C14329601D490A6822430A604A683243DA
:101BB0004A601B49491C2A46183A1268324201D130
:101BC0000029F7D100291BD01648006881B22A6885
:101BD00032432A600004800E00D08908124848432E
:101BE000124900F00DFD12494860486888604C7049
:101BF00088681049C96A6431884200D800242046A8
:101C000070BDC04648500040000803400100002657
:101C10000011034000480040C0D4010000510040C2
:101C2000AF3CFFFF80A2554040164000189C0F00BB
:101C30008801002070020020B0B5274C20780028D1
:101C400011D02748012529020246183A1268D20508
:101C500021D4224A1268A36AD21A0B2A3AD3026804
:101C60000A43026034E01D480168A26A891A6429A7
:101C700030D31B490A680022D2430A6019490A6816
:101C800001231A430A604A681D0215434D60237000
:101C90000068A062B0BD02680A4302601248006892
:101CA00081B20004800E00D08908104848431049D2
:101CB00000F0A6FC60606178002907D0A168A268E6
:101CC000D208C0080818801AA06001E0A060657002
:101CD00000202070B0BDC0468801002030010020E7
:101CE000485000400051004080A25540401640003E
:101CF000189C0F00F8B5234F002840D00446224816
:101D0000866822498D69AE4239D90A6920488642DF
:101D100002D8234810180CE000921E4831181E48C3
:101D200000F06EFC1D49884200D308460099401817
:101D30001649496908180090701B1A4A0026314656
:101D4000334600F0C9FD009A334600F0EFFE00284C
:101D500015D006460D48C06944437D20C500204685
:101D6000294600F04DFC601A314600F049FCA842BB
:101D700000D328467843294600F042FC3F1AB8B207
:101D8000F8BDC0465F0900008801002070020020F5
:101D90006C07000094F8FFFF80F0FA0290D0030077
:101DA000E093040040420F0070B5204C012635023C
:101DB0001F482049016020480268324302601F48E2
:101DC00001601F4800F00CFF20680020C043206025
:101DD0001C480168314301604168294341601A4948
:101DE0000846214618390968294202D1411C0028B9
:101DF000F6D1002818D01548006881B222682A431D
:101E000022600004800E00D089081148484311491F
:101E100000F0F6FB1049486088688A68D208801A8A
:101E20004A68D2088018886070BDC046485000409B
:101E30000008034001000026001103400048004054
:101E4000C0D4010000510040B03CFFFF80A25540CB
:101E500040164000189C0F0088010020F0B58B420E
:101E600000D1824204D90B0002000021002040E092
:101E7000002B00D1002A0CD10B0002000021002011
:101E8000002B00D1002A01D0C943C04300F015FC4B
:101E90002FE01C0015000B0002000CB400212600EE
:101EA0002F00FF19764102D2491C4029F9D10020A8
:101EB0001E001700FF19764102D2401C4028F9D1BC
:101EC0000E1A21002800320000F080FD0C000500F1
:101ED0000CBC00200021A34200D1AA4201D3521B16
:101EE000A341404149416D08E7073D436408761E20
:101EF000F1D5059F002F01D03A607B60F0BDFEE771
:101F0000F0B585B00190204C01200704C00202907A
:101F10002764002004900820029E002815D0782510
:101F20000390284600F05CFE2664284600F058FE28
:101F30000498400015490968C903C90F081804909E
:101F4000039826602663401EE7E70198002803D027
:101F500027602046303001E02046403026460760AA
:101F60000B49782528468847029C3464284608494E
:101F700088473460346328460549884737640498A5
:101F8000C0B205B0F0BDC046A0120A4080130A409E
:101F9000E12B0000FEB502901A4F012002040092CE
:101FA0000826C0020190019C002E19D0029A50B25E
:101FB0000028009B03D43B603846303001E03846AF
:101FC00040300360520002927825284600F008FE57
:101FD0003C64284600F004FE3C603C63761EE3E768
:101FE00000983864084D782420463E46A847019F53
:101FF00037642046A84705480068376037632046A5
:10200000A847FEBDA0120A40E12B000080130A4041
:10201000F8B5451C00780023082B32D02F78C20772
:102020000CD16A780F241440E41C122C0BD102242A
:102030002E57F4B2002E08D4EE1C0EE06D1C4A1C84
:102040000F7011461AE0AE1C08E02E1DED780095C9
:102050007F252C40009DED012C1912343D01120901
:102060005219094DAA420ED0D243002C05D08D5CE6
:102070004F1C0D70641E3946F7E7354640085B1C5F
:10208000CAE72846C5E7F8BDFF0F000070B5002578
:10209000EC4300F051FA154E8820B0472846B0476F
:1020A00000F044FB00F048FA8920B0470120FFF718
:1020B00027FF06462846FFF723FF054600F036FBBC
:1020C000300240190A4988420DD0B10902290AD8C4
:1020D0003109084A104088400749884200D3084621
:1020E000064908600446204670BDC046951F0000A2
:1020F000FFFF0000FF0F0000C4F77F000402002074
:1021000010B51249124800F05BFA12484168124AB1
:102110000A4042608168114A0A40911C816010495E
:10212000104A0A60026801210B04134303600E4A3F
:1021300042610E4A136A0C0223431362136823435D
:10214000136002680A43026010BDC046D02C000034
:102150000040004000510040FEFFECFFF8FFE0E0CF
:10216000805100400F020000C05D00002850004078
:10217000FEB50C46002812D005460027002D18D0C9
:102180000A262846314600F03BFA4643A91B302276
:102190000A43791C6B46DA5505460F46EEE768465A
:1021A00030210170012704E0781C69463022CA55AD
:1021B0000746A742F8D30848C169012F0BDB3E2927
:1021C00009D87F1E6A46BA5C4B1CC36141182024A3
:1021D0000A551946F1E7FEBD28010020FCB5174855
:1021E00007460837FCCF016A0091416A0191144902
:1021F0004A678B67CC6780228D5084228E5088225C
:102200008F508C22009B8B509022019B8B50826AB6
:10221000C36A94240A5198228B503122825C9C23F9
:10222000CA543222825C9D23CA543322805C9E228F
:102230008854486F03494860FCBDC04670020020C6
:1022400000000020F8010020BCB51349134C2046C3
:1022500000F0DAFB12492046FFF7BCFA114801688A
:10226000114A0A40026000250095204629462A4668
:102270002B4600F0FFFB204629462A4600F0B6FB1D
:102280004B20410120462A4600F076FC07480121F8
:1022900081600160BCBDC046402D000000000940C7
:1022A000D82C0000041809407F00FFFF00110940EE
:1022B000FCB512480021BF22019232220092124C3A
:1022C00025466435AF273F011E222346C8330F4EF3
:1022D0000662064624361CC60D4A026341638163CA
:1022E000C1630C4A064B0360416082600199C16082
:1022F0000099016103491430A2C0FCBD70020020A6
:102300005CAA55AA407E050034080000282300007E
:1023100004050608040002001CB5002922D04C0860
:10232000002900D5494242105440002800D54042BF
:1023300000230A00904201D95200FBE790425B4122
:10234000904200D3801A914201D25208F6E7190058
:10235000002C00D54042640000D54942020008002C
:1023600011001CBD0100002000F001F81CBD7047E9
:10237000F8B502240E4D0F4E002C17D06920010134
:102380000D488180002728463A4600F0F5FB30468C
:1023900000F026FC09490848818028463A4600F0AA
:1023A000EBFB304600F01CFC641EE5E7F8BDC046C0
:1023B00000000940009F2400E00100205F090000A8
:1023C0000D48842101600D4901220A630C4A026014
:1023D000812282610B4AC266C36EC36682608268D4
:1023E0008260094A0264036C0364C262C26AC26208
:1023F000402008600863704704804240A0120A40F1
:102400008400000481000E0081000C00B0B50B4870
:102410000B4941600B4A51600B4B59608C1E0B4DB0
:102420006C600B4C61600B490160116019602960A0
:102430002160102000F0D4FBB0BDC04600080A4067
:10244000030000B1000809400048004000080340B4
:102450000008084001000026F8B5044605460C3582
:1024600000260F4F6088864217D228460838016838
:10247000281F03682A68002A03D0184600F0C4FB0E
:1024800008E00648874205D0481C097889007A5838
:1024900019469047761C0C35E4E7F8BDA82D0000DE
:1024A0009C2D000070B50D48401C02D00B48FFF772
:1024B000D3FF0B480B4C84420CD00B4D0B4EB54256
:1024C00008D02A686968501C12789200A258904778
:1024D0000835F4E700BF00BF70BDC046D02D000036
:1024E000A82D00009C2D0000B82D0000D02D00006C
:1024F00080B50D484178012915D10C490978012989
:1025000011D18178002905D004290CD8084909681F
:10251000006902E006490968C068081A054988424E
:1025200001D9FEF75BFF80BDCC010020290100200E
:10253000300100203075000070B50E4D01200404FC
:10254000C6022C642E64782000F04AFB0A4800681A
:10255000C00302D400F0EAF870BD2C602C6378242C
:10256000204600F03DFB2E602E63204600F038FB35
:1025700070BDC046A0120A4080130A4010B50C4836
:10258000407A0002FF21C94341184A424A41094C9E
:10259000227001210902884209D100F0D3F90648CE
:1025A00000680021C9436060A1600448608010BDDC
:1025B00070020020EC01002030010020FFFF00002D
:1025C000F0B511221302C2180C780B4D46590B4F6F
:1025D000374003262640BC19A9263606A4194451C3
:1025E0004C68C55807263606B54334402C19C450EC
:1025F00048781061F0BDC04608080000FCFFFF00ED
:102600001CB50A0017D000230124E407A04200D221
:102610000400944201D95200FBE790425B41904292
:1026200000D3801A914201D25208F6E71900020045
:10263000080011001CBD01000020FFF798FE1CBD22
:10264000B0B504460C480178A14213D00470FFF7DE
:1026500073FF0A4D8820A8470120A847002C01D10C
:10266000204600E0C220A847601E84412001A84700
:1026700000F05CF8B0BDC0460C020020951F0000C1
:10268000FCB4020C0B0CFF242402FF342040214038
:102690000C00444315005D4306005E430F005743A2
:1026A000320C3B0CA818C01832043B040025A118BA
:1026B0006841C9186841FCBC70477047B0B50B4809
:1026C000012251040A4B1C689502AC431C605C68F3
:1026D000120594435C6002680A4205D002680A420F
:1026E00002D002680A42F6D1B0BDC04604020B40D7
:1026F00000010B400B49002048700B490860C8805E
:102700008860C86068228854692288546A22885484
:102710006B228854562288546C2288526E2288522A
:1027200008677047F801002000000020F8B5012577
:102730002E04084F3E603E637824204606498847B1
:10274000E80238642046044DA8473E642046A84766
:10275000F8BDC046A0120A40E12B000080B5084831
:10276000203000F023F9002805D0064900228A70A5
:10277000054A1268CA60411E88410249487080BDFE
:10278000C8000020CC0100203001002080B507489F
:1027900000680749884204D1FFF78AFDFFF7DEFF92
:1027A00080BD04480121017080BDC0467002002038
:1027B0005CAA55AACC01002010B50649064C20465B
:1027C00000F0BEF90549204600F0CEF8F02000F0F8
:1027D00007FA10BD432D000000000340E02C00006C
:1027E000B0B50849CA690378002B09D03E2A07D83A
:1027F000401C541CCC618A18202553552246F2E710
:10280000B0BDC046280100200748026801680020CA
:10281000120108D5490706D504490A7A002A02D1CF
:10282000497A48424841704780130A40B401002069
:10283000B0B5074C20680125A843206005486060BA
:102840007D20C00000F0CCF9206828432060B0BD96
:1028500004580840BF5D0000084880F3088800BFA6
:1028600000BF00F0E9F9002801D0FFF71BFE0020AF
:10287000FDF726FC012000F0D4F9C046000400203A
:10288000B0B5074BC4180125C550FF232362E16191
:102890001168E1625168216300F004F8B0BDC046E0
:1028A0000411000082B00094014C019410BD00BFDF
:1028B0001102002006480021016006480168032239
:1028C0009143016041680F22914341607047C046C7
:1028D00008030B4000010B4030B514004C432500A9
:1028E0001C0044436419050010002900FFF7C8FECE
:1028F000001904000D002100280030BD10B5002291
:102900000549064B3C2A04D0845C61405943521C63
:10291000F8E7084610BDC046C59D1C819301000123
:1029200080B5002800D05A20054934228B5C8342B0
:1029300004D08854FFF712FF00F0C0F880BDC046F5
:102940007002002010B5FFF7F7FD064C8820A04765
:102950000120A047C220A0471020A047FFF7E6FEB5
:1029600010BDC046951F0000B0B511221202831899
:102970000C784D7825434C882C43A4B28450888829
:10298000C988090408189860B0BD80B5FFF73EFDFE
:10299000FFF716FDFFF78EFFFFF756FCFFF7B0FBC2
:1029A000FFF70AFF00F072F880BD000010B50021AB
:1029B000054B425C5C5CA24203D1491C4029F8D122
:1029C0001446101B10BDC0467002002018B520230D
:1029D0009B1A04D8010000205B42994004E00400E7
:1029E0009140DC402143904018BD000010B592009A
:1029F0008018044A83580724A404A343214059188B
:102A0000815010BD3018000010B501221203831848
:102A10000C789C604B7883508978014A815010BDB6
:102A20000C110000BFF34F8F034804490160BFF34E
:102A30004F8F00BFFDE7C0460CED00E00400FA0533
:102A4000BFF34F8F034804490160BFF34F8F00BFAE
:102A5000FDE7C0460CED00E00400FA05B0B5044BFC
:102A6000C41802251543C550E161FFF71BFFB0BD37
:102A70000411000010B5029CA40000191143194371
:102A8000014A815010BDC046501800000348044957
:102A900001605F21490641607047C046001108404F
:102AA000430002C903480121016003488168491CB1
:102AB00081607047485008402801002080B50448D4
:102AC0004078012802D1FEF789FC80BD012080BD3D
:102AD000CC0100202120C00203490860012002042B
:102AE0000A64C00208647047A0120A406820345487
:102AF000692034546A2034546B20345456203454A2
:102B0000704703228058002805D0401E4A1C00232D
:102B10000B701146F7E7704702480168024A0A4302
:102B20000260704748100A400400000840B584B0B5
:102B300002AE0096FFF792F9029A039B04B040BDE3
:102B400010B50122120383180C789C6049788150DB
:102B500010BD10B500239A4203D0CC5CC4545B1C5A
:102B6000F9E710BD80B50B4603214258C11D184638
:102B700000F04AF880BD000092008018014A8150A0
:102B80007047C0461018000000239A4202D0C1547A
:102B90005B1CFAE7704700000A46002180B5FFF78A
:102BA000F3FF80BD014AD08011707047E001002022
:102BB000014880787047C046CC0100200148406839
:102BC0007047C046CC010020014880687047C0466D
:102BD000CC010020014840787047C046CC0100205D
:102BE000811E091F00BFFCD27047115064200024D1
:102BF0002146D7E7079868702F612F7070472046ED
:102C00002146049CCEE7000080B5FFF7A2FF80BDFF
:102C10004770384684E63A46234687E721462346EE
:102C20005AE600F001F8FEE700BF7047234653E67E
:102C3000204675E610E6704701207047000000004E
:102C400081B01649411811221202012383500A68EB
:102C5000072002400092009AD2B2032A19D0009AAB
:102C6000D2B2012A15D00A6802400092009AD2B26C
:102C7000032A0ED0009AD2B2012A0AD00A68024072
:102C800000920098C0B2032803D00098C0B2012877
:102C9000DDD10098C0B201B07047C046D01300002B
:102CA00022000000BF5D00000000000000000200E4
:102CB0000000000005001400320096002C01C20143
:102CC00058022003E803CEFFE2FF00001E0032009E
:102CD0000104000000000000600900000000000086
:102CE00001800000000000006D56204D61783A0020
:102CF0005B4D414E5D20005B4552525D20005B4CB8
:102D000056505D20005B4F46465D20005B414C53B2
:102D10005D20005B5453545D20005B464C535D20A6
:102D200000000404000400205273743A00204F662F
:102D3000733A004C766C3A0020563A0020503A0024
:082D4000080000020000000081
:102D480000E5000001010052004F830156342EFFB8
:102D5800332E355F4442474CFC0A4F71128F0849A5
:102D68006E69746961FF6C697A696E672E2ECD2E63
:102D7800150F231C0C003318DF0EFFFF5A1AFF092A
:102D8800381CBF005F09039BFF0000020DCF020142
:102D9800FFF0000011200000652B0000032B00004D
:102DA80002000000400000000001000004FFF000E5
:102DB800482D000000000020A82D0000700200200F
:082DC800B02D0000B002002054
:102DD0000C000100402C00001002002060000000E8
:1037F00056342E332E355F4442474C000000000003
:10380000FFFFFFFFFFFFFFFFFFFFFFFFFFFFFFFFC8
:10381000FFFFFFFFFFFFFFFFFFFFFFFFFFFFFFFFB8
:10382000FFFFFFFFFFFFFFFFFFFFFFFFFFFFFFFFA8
:10383000FFFFFFFFFFFFFFFFFFFFFFFFFFFFFFFF98
:040000030000285978
:00000001FF
