:1000000000040020D5290000331D0000331D00002E
:1000100000000000000000000000000000000000E0
:10002000000000000000000000000000331D000080
:100030000000000000000000331D0000331D000020
:10004000331D0000D9280000331D0000000000000F
:10005000331D000000000000000000000000000050
:1000600000000000331D0000000000000000000040
:10007000000000000000000000000000331D000030
:100080006528000000000000331D00000000000093
:100090000000000000000000000000000000000060
:1000A000331D000000000000000000000000000000
:1000B000000000000000000000000000331D0000F0
:1000C0008CB0012402F041FB62B6D54800681F21C4
:1000D0000140D44FF960F868012820460FD0F86835
:1000E000022820460BD0F8680328204607D0F8687D
:1000F0000428204603D0F868411F48424841CA4AB4
:10010000CA4949689142039400D1044605940BAC56
:100110000026A67008202080C54906AD1422284676
:1001200002F044FCC348C4490160102002F038FCCE
:10013000C248214602F048FBC048294601F040FB76
:10014000BF480168039A114301601004BD4908606B
:10015000BD49086810430860B4484068B249884205
:1001600002D0B24841600680B84C01F017FA02F0A4
:1001700091FB402000902060B54801680122049264
:10018000114301607E700598002807D0B148007BBC
:10019000000610D4B048BC21032221E0A3484078D7
:1001A000002804D1AB483421405C5A28EED1AA483B
:1001B000BC21022214E001F055FC00280DD00120E2
:1001C000787000243C613C70984802F0F3FBA24830
:1001D000BC21445002F0ECF803E09F48BC2101220E
:1001E000425005969B4D9D4E9D48401C029002F04A
:1001F000D7FB7878052846D80499814036200142FB
:1002000041D07879002803980FD178718E4C2068FE
:10021000049DA8432060924860609248401C02F010
:10022000BFFB206828438B4D2060A7208E490860C3
:1002300000F010FE044601F073FC00F0F1FAB8681B
:10024000642102F0F7F8002963D10598F861787805
:1002500005281DD8800002A1095884488F46C04651
:100260009F02000079020000910200009502000048
:10027000990200009D0200007D48007800287D481A
:100280000DD07D480BE0787900280598BDD1CCE7EA
:100290007A4804E07A4802E07A4800E07A487B4FE6
:1002A000B8477B48B847287A019401242146794E03
:1002B000B0477948B847A87A2146B0477748B84749
:1002C0006648006804252946B0477548B8477D2030
:1002D000C00000F0DDFE2146019CB0477148B847E0
:1002E000714800882946B0477048B8474D4FF868B4
:1002F0000221B047F8693E2806D8411CF961381838
:10030000202282540846F6E75F2005993954514D62
:10031000524E6748006800097C2801D802F0AEFA06
:10032000B8687969411A78784E4A914228D9B968F3
:100330007961042801D0012822D1297B09071FD522
:100340003969491C39613978002906D13969594A16
:10035000521C914201D9012139703969564A9142A2
:100360000ED3042801D102F0A3F80598787001207B
:100370002E494870039802F0B3F902F07FFA7878BA
:10038000FB21084241D03068E96A884211D2B8782E
:10039000401CC1B2B87005290DD30598B8707870AB
:1003A000224804994170039802F09AF902F066FA23
:1003B00001E00598B8703068A96A88420FD2F878D1
:1003C000401CC2B2F8707878052A0BD3059AFA70EF
:1003D00004220243052A05D10220787004E0059822
:1003E000F8707878022810D130686431884265D37B
:1003F00004987870059939613970F548417008465C
:1004000002F06EF901F0D4FF7878052800D9C9E12F
:1004100078440079400087448051516BC197C046B1
:1004200020020B40280100203CC3A55AB002002046
:10043000402A000000480840010000260040084013
:100440002850084000E100E00458084090120A409B
:1004500004180940700200200000002090010020D4
:10046000BF5D0000E703000008110840A52A000056
:10047000EC010020902A0000AC2A00009E2A000017
:10048000BA2A0000B32A0000972A0000C9250000FC
:10049000D32A0000A51F0000CD2A0000D82A0000A2
:1004A000882A0000DC2A0000E4010020C72A00009E
:1004B0008C0100205F09000019150000042C11D1E7
:1004C00005997970C248049A4270039C3C710846B1
:1004D00002F048FA01F05EFA204602F001F902F05B
:1004E000CDF95FE1204600F0C7FF00F08DFB59E138
:1004F000042C70D101F0B6FA0028049900D19DE0D7
:100500007970059C3C613C70B14802F053FABC2004
:10051000B2490C5001F04CFF44E100200646014670
:1005200002F020FA2146012C5DD1A948007800286C
:1005300059D1B1480068E96A884200D392E0BC20F2
:100540000121A64A11509CE0B868B0490968401AD8
:10055000AF49884262D3049E7E70059CA548047012
:10056000A8689F490840A86001F0D6FF02F086F90C
:10057000A94A1078401CC1B21070032903D3A648C1
:100580000470A6480670287A40009E49085A00F078
:100590007FFD002102F0E6F9974E03E18F480068E5
:1005A0009749884200D0FDE068208C4A115C0129FF
:1005B00074D101946E24105B8C49091A0022894879
:1005C00002F0BAF98548005B019C8949081A773026
:1005D0008A490880DCE0B868B969401A8A498842CB
:1005E00000D2DFE0F1E0062900D186E0052934469B
:1005F0006AD00429804E46D101F034FA002800D197
:100600008AE0049878703C613C70714802F0D2F93D
:10061000BC2072490C5001F0CBFE34E080B27D4921
:1006200001F008FFC8084B28714900D3773173489F
:10063000018000226B4802F07FF9B3E0BC20674ADA
:10064000115064200024214602F08CF901F0A2F937
:10065000654802F0A5F92046214602F083F901F031
:1006600099F99FE001205A490870B868B8610320E1
:10067000787001F097FD574800990160029802F0E8
:100680008FF934465C4E3879012800D08AE001F0B9
:10069000AFFF002800D185E03C7183E0115C0229A6
:1006A0002DD101946C20105A01F098FA04464F485D
:1006B000844200D34D4C00224A48214602F03CF9C6
:1006C0004E480480019C63E03D793C7101F06AFD75
:1006D00001F0C8F90028484E18D0049E7E703C6195
:1006E0003C703B4802F066F9BC203C490C50002DA0
:1006F00039D13046384D3F4939E03E714CE7105C06
:10070000032811461ED16C20085A28E0BC20049909
:10071000324A1150304DB6E7BC2004992F4A11508F
:1007200064200025294602F01DF901F033F92E4816
:1007300002F036F928462946274D02F013F901F058
:1007400029F9A0E76B20085C2A49097801430806CB
:100750001CD1287A40002B49085A00F099FC00214E
:1007600002F000F914E02349087870401A4D08702F
:10077000A9681B4A1140C0B200020843A86001F0FA
:10078000CBFE02F07BF801F013FE7BE700F03CFAB1
:10079000052C07D80498A0402E21084202D02046FC
:1007A00000F06AFE787805280CD0042808D168206B
:1007B0000A49095C012905D00849085C022801D0D2
:1007C00001F0E8F801F0AEFD0EE502F00BF8C046CE
:1007D000B002002090120A407002002000000020A9
:1007E000FFFEFFFF00000940009F24005F0900009A
:1007F000E8080000EC01002090010020E401002046
:1008000054534554542A0000E1930400C4000020CE
:1008100010270000DC0500000A0200200902002069
:10082000F0B587B0DD4C2078002803D1012020707E
:1008300001F03EFEDA4E3068DA49884206D1F0888F
:10084000B188401A41424141069101E000200690E2
:10085000716F6268D4488068914202D17067716F8D
:100860006160D24909687161D14D2968B022B150E7
:10087000D04909784E22B154CF4909685722B15462
:10088000B821CE4A72507067C0B2B085CC4800889B
:10089000F085CC4801883186CB4C2168B161008855
:1008A000CA49081A7D22D700784301F0C3FD2268A7
:1008B000002402F085F802F080F8F061BA488269FD
:1008C0003262F06902F07CF802F077F870622A6810
:1008D000F06902F075F8049702F06FF8B4217050D7
:1008E000BB480068B062BB4800687086BA480068C0
:1008F0007063BA480068B063B9480068F063B948EB
:1009000000683064B84800687064B8480068B06433
:10091000B74800784C217054B64800784D21705487
:10092000B548016801220592D2060A405142514160
:100930004F22B154006804273840414241415020C1
:100940003154AE48007851217054AD48007852219E
:100950007054954D287B4006C00F5321705402F00F
:1009600019F85421705402F003F855217054A54829
:100970000068B0656868F06502F000F8306602F063
:1009800003F870668B4800780699C90700D1AEE07D
:100990000146394304294CD0804805994170854867
:1009A00006970770974804609448047001F072FF3E
:1009B0007D4B1F46083787CF9D690195DD690295FC
:1009C0001D6A03955D6A7067B167F26780203750D2
:1009D0008420019931508820029931508C2003994C
:1009E000315090203550986AD96A9422B05098209E
:1009F00031503120185C9C2170543220185C9D21AC
:100A000070543320185C9E2170543461F460682067
:100A1000305C00280AD16C20315A002906D168497F
:100A20000988002902D06649098831526148007856
:100A3000069F042800D0A1E0B068002800D198E00B
:100A40000697704804606D480470B7680598306177
:100A5000B460B81E062800D983E0C0467844007907
:100A6000400087444603636054487000706F0590EF
:100A7000B16FC8B20390F06F02908023F0580190DC
:100A8000842570590090882030588C21715890220C
:100A9000B258454B059D9D60039DDD60029D1D6123
:100AA000019D5D61009D9D611D461C3507C594201B
:100AB0003058982171589862D9629C21725C142038
:100AC000142A024600D8725C31215A549D22B15C2E
:100AD0001429014600D8B15C322299549E21725CDF
:100AE000142A00D8705C33212F4A505426E0042881
:100AF00044D101F085FE2F48047001F00DFD01F096
:100B0000BDFE26484470346001F0D0FE2BE0294839
:100B10000599017001F04CFC20484470346001F0EC
:100B2000C5FE02201EE001F00FFD01E001F0F4FC23
:100B300001F0A4FE002801D1042000E00220306171
:100B400001F066FA0FE001F015FD01F097FE0225B5
:100B50000028284600D10698306101F059FA356125
:100B600001E005203061F760124800780428069FF4
:100B700004D1049800F08CFA0E480078074A5178A6
:100B8000012909D13843042806D0547003200949AB
:100B9000087001F08BFEF46007B0F0BDF801002092
:100BA00000000020545345547002002090010020A2
:100BB0008C0100202901002034010020C05D0000CC
:100BC000E2010020E4010020940100205F09000000
:100BD00098010020AC0100209C010020A001002011
:100BE000A4010020A801002004020020000200202F
:100BF000080200200B02002080130A402801002078
:100C0000ED01002038010020F0B585B08148007862
:100C1000002800D0FBE0804C804D28780023042879
:100C2000194608D17E4A1168A142194603D16B21A9
:100C3000515C4A1E91417A4A1668A64204D1D38873
:100C400094881C1B6342634100290CD1754C2478A5
:100C5000002C17D0441E022C05D3041F66426641A7
:100C60001E40012E0ED1724E30686E4B5B68C01A6A
:100C7000782800D2CBE0002916D0146F6D480021EF
:100C8000017016E0042800D9C1E00121814016203E
:100C9000014200D1BBE06448007A40006349085A31
:100CA00000F0F6F90021B0E001F00AF9044601F085
:100CB00029FD5C4B30685860601C3ED05E480025C2
:100CC00005705C4805705D4804609868411C03D05D
:100CD000C108E2088018441A9C60594804606421E5
:100CE0002046039101F0A6FB4F4A3121565C322188
:100CF000515C01913321515C0491012102918907DA
:100D00000B4689088342FBD80AE05919421A074664
:100D100000D317466D08884200D3ED189B0838466B
:100D2000002BF2D1002E00D1052603994B20C700DD
:100D30000498002816D0484316E03E48022101706E
:100D40003D480178491CCAB20170032A5FD30021D3
:100D50000170287804285AD00520287030683C4952
:100D6000086054E03846C83004900198002801D04B
:100D7000484307466E432C4DA868FF2213040340E6
:100D8000029A9204934202D8000CC0B200E0022002
:100D900040002C4A105E704301F0D8F98019696A4E
:100DA000884200DC084628498C421E4B00D3049F31
:100DB000874200DB07467D20C000874200DB0746F4
:100DC000F817874358882149884219D000B2391A48
:100DD00009B2012905DB19221201904208DB142215
:100DE00007E01322D24391420ADA1438074607E09B
:100DF000052289B2962800DA02228A4200D2871898
:100E00005F80B8B200F044F9012101F0ABFD05B0FC
:100E1000F0BDC0462801002054534554290100204C
:100E200000000020EC01002070020020542A000085
:100E3000300100200B0200200802002004020020E4
:100E400000020020662A0000A4420F00FFFF0000FD
:100E5000C4000020FEB50127FC068048016821403F
:100E60000268042002407E4B1D687E4EB542019709
:100E700016D1DD889E88B54212D156255D5D002DC4
:100E800000D00422002D00D0214669241D5D0024DD
:100E9000002D00D021466A255B5D002B00D0224644
:100EA0004B424B41554255416F490A785200D21886
:100EB000D4B20A702346FF3B5A425A414B785B003A
:100EC0005B1926461E40DFB24B700097FF3F7B4206
:100ED0007B41FF3E7542754116461E43029601D185
:100EE00000264E80002D15D0019F8F700020C86015
:100EF0000861CC78002C25D05C4C24684E69A41B7A
:100F00005B4E1436B44200D88FE00879002849D0EF
:100F1000002049E0CE79002E1BD0544C24684E6945
:100F2000A41B534E1436B44205D94C79002C02D17F
:100F30000C79002C4AD0029800280FD00A724B720C
:100F4000CD7189E0CF70494C24684C6188808871EC
:100F50006BE08878002812D0002066E00C79002031
:100F6000012C08D14C79002C05D18C79002C02D1B0
:100F70000198887106200A724B72CD715BE00E7A7F
:100F8000FF2C1AD0002E18D0CC68002C25D03B485E
:100F9000364E3668341B2646153E513086421ED2E8
:100FA000012025E00F710420364EB4423DD34C7928
:100FB000002C3AD14F71052037E00020FF2C17D1CB
:100FC000002E15D1294C2468CC6011E0294C2478DE
:100FD000062C2AD22848005D27E0002008E0284897
:100FE0002018264CA04201D3002000E00120400040
:100FF0007C427C414F7A002F00D00194019C002C50
:1010000008D0002F11D1009CFF2C0ED1174C246862
:101010000C610AE00C69002C07D0144E3668341BB2
:10102000153C134EB44200D203200A724B72CD71AC
:10103000029A002A04D10022CA708A808A714A6109
:10104000002809D0104A00211160104A1378002BA3
:1010500001D011700846FEBD0020FEBD80130A407D
:101060000000002054534554B401002030010020FA
:10107000C705000029010020C12A0000BB020000B2
:10108000DFFCFFFF8813000038010020280100204A
:10109000F0B589B006467E4A107BC00700D1F4E067
:1010A0007C498F68D06A874207D9059614697A48C7
:1010B000874205D87C4822180CE000264E62E4E006
:1010C00076483918764801F0B5F97649884200D358
:1010D000084602196E4D6869A96907928418069737
:1010E000781A724A00263146334601F0D5FA224674
:1010F000334601F0FBFB0746ED6985422C4600D3E1
:101100003C466448079B0361C760002F00D1BCE0E8
:101110007D20C200002D1046089206D0104668437C
:10112000214601F087F9079B089A019503944B210A
:10113000904200D310460290480104901E2630468B
:101140005843642101F076F90246002438462146CE
:1011500001F03EFC554A234601F0C8FB05463846DF
:101160002146079A01F034FC07900091059A01F09E
:101170002FFC4F4A234601F0B9FB089A4019069903
:101180000B1A10461CD904998B42104618D20498A9
:10119000431C1E200699994212D32F46454BC9186D
:1011A000A9420DD9C81B424A00210B4601F074FA2E
:1011B000079A009B01F09AFB1E2800D81E20089A6F
:1011C000079001980028174605D03B48039901F085
:1011D00031F9089A07469742069D00D317460398AF
:1011E00021462A4601F0F4FB4A07C3089A18CB08A7
:1011F0007D3A089AA341144615D30024089A234641
:1012000001F074FB054603970F462148006A21460A
:10121000089A01F0DDFB2A463B46039F069D01F03C
:1012200065FB089A0446944200D314460498401C77
:101230008542079B0FD3214885420BD81E3A6A434B
:101240001F481018E121890001F0F4F8079B0646B9
:101250001E3600E01646029A9342184600D3104606
:101260008742394600D301468C42204600D30846C7
:10127000864200D30646074842618361C761046223
:1012800046620598864200D30646B0B209B0F0BD6A
:1012900070020020880100206C07000094F8FFFF16
:1012A00080F0FA0290D00300E093040040420F0067
:1012B00000CA9A3BA0F6FFFF00093D00E30C0000C6
:1012C000407ADCFFF0B591B00124644E3046203006
:1012D000029001F04BFA002800D1A8E003940F20FF
:1012E00080020B900720C002069001200790400268
:1012F0000C905E4C6068401C6060204601F0DEF996
:10130000E0635B48456884680022099209980228D6
:1013100000D981E01F2A00D97EE0641C102C29D35B
:101320000A9253484068069A811A4C424C419042B6
:101330000B9D00D0069D4A4807990160A7204A49A5
:10134000086072B6474F384629460C9A00F0B6FA44
:1013500040223846294601F061FA62B645490868DC
:101360002030086020013118002434504C608C601B
:10137000CC600A9A0B98281A414241410801301862
:10138000015D521C0029C1D1001901900998401C2F
:101390000990A00128180D90002105950A92049447
:1013A000032932D008912E4807990160A7242E48BE
:1013B00004600027402F1CD22C49C8194068C95925
:1013C0000E910F902848046072B60D98C619254DED
:1013D000284631460C9A00F071FA0EAA284631468A
:1013E00001F02EF962B623490868801C08600837AE
:1013F000E0E70D9801F0BAF90899491C0028174E4A
:10140000059D0A9A049CCBD115E0079801990870B4
:1014100017484560846079E715498878401C8870D2
:1014200014480068086103984870002412E01048CE
:10143000002141700EE00D494022029801F0B6FAF9
:101440000B494D608C600020487088700948006826
:101450000861039C204611B0F0BDC046C8000020C2
:1014600048E00C4000D00C400811084070020020F9
:10147000CC01002030010020F8B504464148007836
:1014800004286DD80127394681401620014267D0D3
:10149000FF2005043C488668300C00907D20C00089
:1014A000FFF7F6FD611E02290DD3052C14D0032C85
:1014B0001FD137490A78002A2CD03002800E53D130
:1014C000009A521C51E032490A78002A13D02E4269
:1014D0004AD0009AFF3248E02C4801782C4C207802
:1014E000002926D0002801D00020207000F05AFEEC
:1014F0003AE0009A32E0F3B25F00274AD75B8742B6
:1015000024D9330626D0F3B25B00D35A834222D9C2
:10151000761EF6E7F2B2072A26D852001E4BD218E2
:10152000528882421DD9101A761C32281ADD4F705B
:101530001AE07840207000F035FE2078002813D0A3
:1015400001F0E0F81348006860600DE0002B02D065
:10155000761E00E00026009A00204870002C04D17E
:10156000F8BD761C00204870009A100428400849F5
:10157000097809020818F1B240180349886000F0A0
:10158000CBFFF8BD290100207002002009020020D5
:10159000EC01002030010020542A0000F0B587B093
:1015A0000720C002019000214048049001200690CD
:1015B0000E460591022935D002910029019D01D0E6
:1015C0000F20850200270395102F25D02868384961
:1015D00088421ED1284601F071F8E96B884205D196
:1015E0006C680598844205D3002004E0012004992A
:1015F000C8550EE001200642069E0AD140222D4821
:10160000294601F0D3F92C48039941608760069E72
:1016100005947F1C4035D7E70299491C0498103087
:101620000490C7E7F00702D10698234901E0224958
:101630000878204AC50706D01020019A4A608860C1
:1016400000F050FD1AE09068C1B2082901D930209D
:10165000105C1072107BD0603120115C002901D128
:10166000052111543220115C002901D106211154A9
:101670003320115C002901D10821115400260E4F9E
:101680003E700A4C20340B494022204601F08EF96E
:101690007E70002D08D03E464021204601F05CF9C6
:1016A0000698787001F0EAF807B0F0BDC800002095
:1016B0005CAA55AA70020020CC010020F0B5394A7E
:1016C0008218394BC0183A4D4C790B79002C22D036
:1016D000466F202B02D00524E70100E0354F2E4055
:1016E000002B00D188273E434667846F2C403C4343
:1016F0008467446B2D4E34404463846B3440846370
:1017000000244465846554688F26F6433440546051
:101710009468344094600C688979202B09D006467F
:101720007036002B15D1641E4460C46E2C4088278F
:1017300015E0641E4460C46E2C401E4E3443C466E3
:10174000046F2C40344304671B4D01246707064691
:1017500007E00527FF0164084460C46E2C403C4349
:10176000C46634682C403C433460C46A0F4D2C403E
:10177000C462046B2C4004630024C4640465C46F19
:101780008F25ED432C40C46714682C401460194326
:1017900002680A4B1340BD220A40D118891C01601F
:1017A000F0BDC04684180000041800008888FDFFC2
:1017B00024493E0001040000FFFFFFCF4000FFCF9F
:1017C000B0B53A4A80184A6842600A78222A56D848
:1017D000930001A4E3589F46751800007F1800008D
:1017E000751800007F1800007F1800007F180000A7
:1017F0007F1800007F1800007F1800007F1800008D
:101800007F1800007F1800007F1800007F1800007C
:101810007F1800007F180000651800007F18000086
:10182000651800007F1800007F1800007F18000076
:101830007F1800007F1800007F1800007F1800004C
:101840007F1800007F1800007F1800007F1800003C
:101850007F1800007F180000651800007F18000046
:1018600065180000036803242407A34301246407C8
:101870001B1903E0036803242407A34303600B69D7
:10188000C360CB68C46A0A4D25400A4C1C402B1922
:10189000C3620368084C1C400460097A1143026863
:1018A0003F239A43194051180160B0BD041800004D
:1018B0008888FDFF777702007F00FFFFF0B583B0D7
:1018C00002920190304B314D00918C0A2868072715
:1018D000384005262E60196889048A0F2860296817
:1018E00039402E6018682960002A214608D028490E
:1018F0000840511C00F09EFD0146204600F09AFD74
:101900000198204A801801902A683A402E601E48AB
:1019100003682A602A683A402E6003682A60012220
:1019200093020298984207D0530298420CD1009833
:10193000C30B0BD1019803E01F210C4001984030EC
:10194000A24001689143016003B0F0BDFF290DD8AA
:101950002B683B402E600C4C24682B60A3049B0F2B
:10196000019800D12039CC08001DE9E71302FF33AC
:101970009942E9D2FF23DB43C918CC08019808300B
:10198000DEE7C046D01100001800C44100134040FB
:10199000FF0F000070B52C480678002E07D02B48AA
:1019A0000078002807D02A490520C88005E028488B
:1019B0002A49818043E02648C088254D297800299E
:1019C00027D06988814224D022490A68AB68D21A9C
:1019D0000C2A1FD30968A9606988401A04B2012C37
:1019E00009DBA0B20A2100F025FD0A2C00D8012055
:1019F000698808180DE0604280B20A2100F01AFDE3
:101A000069880922D243944201DB093200E0424254
:101A1000881868806C88022E0CD10F48007B8006E5
:101A200008D50C4800687D21090100F003FD32292A
:101A300000D2A408204600F0D1F80146A88008484A
:101A4000002200F079FF70BD29010020280100204C
:101A5000E001002030010020700200205F0900003A
:101A60000000094070B5214D01242602204821497B
:101A7000016021480268224302602048016020483A
:101A800000F08EFF28680020C14329601D490A68C4
:101A900022430A604A6832434A601B49491C2A466D
:101AA000183A1268324201D10029F7D100291BD01F
:101AB0001648006881B22A6832432A600004800E0A
:101AC00000D0890812484843124900F0B3FC12497B
:101AD0004860486888604C7088681049C96A6431F9
:101AE000884200D80024204670BDC04648500040BF
:101AF0000008034001000026001103400048004098
:101B0000C0D4010000510040AF3CFFFF80A255400F
:101B100040164000189C0F00880100207002002031
:101B2000B0B5274C2078002811D02748012529027C
:101B30000246183A1268D20521D4224A1268A36AD2
:101B4000D21A0B2A3AD302680A43026034E01D48D5
:101B50000168A26A891A642930D31B490A680022E5
:101B6000D2430A6019490A6801231A430A604A6885
:101B70001D0215434D6023700068A062B0BD02686D
:101B80000A4302601248006881B20004800E00D04F
:101B9000890810484843104900F04CFC60606178A7
:101BA000002907D0A168A268D208C0080818801AC6
:101BB000A06001E0A060657000202070B0BDC0464C
:101BC00088010020300100204850004000510040B2
:101BD00080A2554040164000189C0F00F8B5234FD6
:101BE000002840D004462248866822498D69AE42CA
:101BF00039D90A692048864202D8234810180CE0D7
:101C000000921E4831181E4800F014FC1D498842FD
:101C100000D30846009940181649496908180090F1
:101C2000701B1A4A00263146334600F035FD009AF3
:101C3000334600F05BFE002815D006460D48C0690B
:101C400044437D20C5002046294600F0F3FB601A7E
:101C5000314600F0EFFBA84200D3284678432946DE
:101C600000F0E8FB3F1AB8B2F8BDC0465F090000BB
:101C700088010020700200206C07000094F8FFFF2C
:101C800080F0FA0290D00300E093040040420F007D
:101C9000F0B58B4200D1824204D90B000200002132
:101CA000002040E0002B00D1002A0CD10B000200E4
:101CB00000210020002B00D1002A01D0C943C043DD
:101CC00000F0F5FB2FE01C0015000B0002000CB427
:101CD000002126002F00FF19764102D2491C40291D
:101CE000F9D100201E001700FF19764102D2401CD6
:101CF0004028F9D10E1A21002800320000F046FDDC
:101D00000C0005000CBC00200021A34200D1AA4217
:101D100001D3521BA341404149416D08E7073D43B0
:101D20006408761EF1D5059F002F01D03A607B60D4
:101D3000F0BDFEE7F0B585B00190204C012007040E
:101D4000C00202902764002004900820029E002810
:101D500015D078250390284600F022FE26642846F8
:101D600000F01EFE0498400015490968C903C90F18
:101D700008180490039826602663401EE7E7019840
:101D8000002803D027602046303001E02046403054
:101D9000264607600B49782528468847029C34640C
:101DA00028460849884734603463284605498847EF
:101DB00037640498C0B205B0F0BDC046A0120A4016
:101DC00080130A40A1290000FEB502901A4F01209D
:101DD000020400920826C0020190019C002E19D036
:101DE000029A50B20028009B03D43B603846303042
:101DF00001E03846403003605200029278252846C0
:101E000000F0CEFD3C64284600F0CAFD3C603C6317
:101E1000761EE3E700983864084D782420463E4655
:101E2000A847019F37642046A847054800683760E7
:101E300037632046A847FEBDA0120A40A129000032
:101E400080130A40F8B5451C00780023082B32D0D7
:101E50002F78C2070CD16A780F241440E41C122C8E
:101E60000BD102242E57F4B2002E08D4EE1C0EE043
:101E70006D1C4A1C0F7011461AE0AE1C08E02E1DA6
:101E8000ED7800957F252C40009DED012C19123432
:101E90003D0112095219094DAA420ED0D243002C1D
:101EA00005D08D5C4F1C0D70641E3946F7E7354632
:101EB00040085B1CCAE72846C5E7F8BDFF0F0000D5
:101EC00070B50025EC4300F051FA154E8820B0475C
:101ED0002846B04700F008FB00F048FA8920B047D8
:101EE0000120FFF727FF06462846FFF723FF054698
:101EF00000F0FAFA300240190A4988420DD0B109BF
:101F000002290AD83109084A104088400749884206
:101F100000D30846064908600446204670BDC04606
:101F2000C91D0000FFFF0000FF0F0000C4F77F0085
:101F30000402002010B51249124800F05BFA124862
:101F40004168124A0A4042608168114A0A40911C65
:101F500081601049104A0A60026801210B04134392
:101F600003600E4A42610E4A136A0C022343136255
:101F700013682343136002680A43026010BDC04621
:101F8000702A00000040004000510040FEFFECFFBE
:101F9000F8FFE0E0805100400F020000C05D00004B
:101FA00028500040FEB50C46002812D005460027F8
:101FB000002D18D00A262846314600F03BFA464349
:101FC000A91B30220A43791C6B46DA5505460F4699
:101FD000EEE7684630210170012704E0781C69466D
:101FE0003022CA550746A742F8D30848C169012FD5
:101FF0000BDB3E2909D87F1E6A46BA5C4B1CC361C5
:10200000411820240A551946F1E7FEBD2801002099
:10201000FCB5174807460837FCCF016A0091416AB2
:10202000019114494A678B67CC6780228D508422C6
:102030008E5088228F508C22009B8B509022019BC7
:102040008B50826AC36A94240A5198228B503122A1
:10205000825C9C23CA543222825C9D23CA54332260
:10206000805C9E228854486F03494860FCBDC0468E
:102070007002002000000020F8010020BCB51349C8
:10208000134C204600F0A0FB12492046FFF716FB38
:1020900011480168114A0A40026000250095204657
:1020A00029462A462B4600F0C5FB204629462A46EB
:1020B00000F07CFB4B20410120462A4600F03CFC0E
:1020C0000748012181600160BCBDC046E02A0000D4
:1020D00000000940782A0000041809407F00FFFF33
:1020E00000110940FCB512480021FF220192322262
:1020F0000092124C25466435AF273F011E2223462D
:10210000C8330F4E0662064624361CC60D4A0263CB
:1021100041638163C1630C4A064B03604160826086
:102120000199C1600099016103491430A2C0FCBD4E
:10213000700200205CAA55AA407E05003408000009
:102140002823000004050608040002001CB500292D
:1021500022D04C08002900D54942421054400028A2
:1021600000D5404200230A00904201D95200FBE70B
:1021700090425B41904200D3801A914201D25208B2
:10218000F6E71900002C00D54042640000D5494212
:102190000200080011001CBD0100002000F001F841
:1021A0001CBD7047F8B502240E4D0F4E002C17D001
:1021B000692001010D488180002728463A4600F039
:1021C000BBFB304600F0ECFB0949084881802846FB
:1021D0003A4600F0B1FB304600F0E2FB641EE5E752
:1021E000F8BDC04600000940009F2400E001002027
:1021F0005F0900000D48842101600D4901220A6336
:102200000C4A0260812282610B4AC266C36EC366B9
:10221000826082688260094A0264036C0364C2625D
:10222000C26AC2624020086008637047048042406E
:10223000A0120A408400000481000E0081000C00FE
:10224000B0B50B480B4941600B4A51600B4B5960CC
:102250008C1E0B4D6C600B4C61600B490160116072
:10226000196029602160102000F09AFBB0BDC046C3
:1022700000080A40030000B100080940004800407F
:10228000000803400008084001000026F8B5044695
:1022900005460C3500260F4F6088864217D2284627
:1022A00008380168281F03682A68002A03D01846E6
:1022B00000F07CFB08E00648874205D0481C0978FE
:1022C00089007A5819469047761C0C35E4E7F8BD2A
:1022D000442B0000382B000070B50D48401C02D084
:1022E0000B48FFF7D3FF0B480B4C84420CD00B4D2F
:1022F0000B4EB54208D02A686968501C12789200CB
:10230000A25890470835F4E700BF00BF70BDC04633
:10231000702B0000442B0000382B0000542B0000D1
:102320006C2B000080B50D484178012915D10C496E
:102330000978012911D18178002905D004290CD808
:1023400008490968006902E006490968C068081A76
:102350000549884201D9FEF7B5FF80BDCC010020B8
:1023600029010020300100203075000070B50E4DAD
:1023700001200404C6022C642E64782000F010FBB7
:102380000A480068C00302D400F0AEF870BD2C60AB
:102390002C637824204600F003FB2E602E63204639
:1023A00000F0FEFA70BDC046A0120A4080130A4039
:1023B00010B50C48407A0002FF21C94341184A4237
:1023C0004A41094C227001210902884209D100F0DA
:1023D00099F9064800680021C9436060A16004487B
:1023E000608010BD70020020EC0100203001002050
:1023F000FFFF0000F0B511221302C2180C780B4D3C
:1024000046590B4F374003262640BC19A9263606ED
:10241000A41944514C68C55807263606B5433440C4
:102420002C19C45048781061F0BDC046080800005F
:10243000FCFFFF001CB50A0017D000230124E407AD
:10244000A04200D20400944201D95200FBE790421E
:102450005B41904200D3801A914201D25208F6E7C4
:1024600019000200080011001CBD01000020FFF748
:1024700098FE1CBDFCB4020C0B0CFF242402FF349C
:10248000204021400C00444315005D4306005E439C
:102490000F005743320C3B0CA818C01832043B0401
:1024A0000025A1186841C9186841FCBC70477047F5
:1024B0000B49002048700B490860C8808860C860DC
:1024C00068228854692288546A2288546B2288546E
:1024D000562288546C2288526E22885208677047B0
:1024E000F801002000000020F8B501252E04084F57
:1024F0003E603E637824204606498847E8023864F7
:102500002046044DA8473E642046A847F8BDC04673
:10251000A0120A40A129000080B50848203000F030
:1025200025F9002805D0064900228A70054A12685C
:10253000CA60411E88410249487080BDC800002021
:10254000CC0100203001002080B507480068074911
:10255000884204D1FFF7C6FDFFF7DEFF80BD0448C7
:102560000121017080BDC046700200205CAA55AAFE
:10257000CC01002080B507480168074A914208D184
:102580000649FF228160C260302104224254FFF7D5
:10259000C3FF80BD700200205CAA55AA040002009F
:1025A00010B50649064C204600F0AAF90549204618
:1025B00000F0BAF8F02000F0F3F910BDE32A0000B3
:1025C00000000340802A0000B0B50849CA690378BA
:1025D000002B09D03E2A07D8401C541CCC618A1815
:1025E000202553552246F2E7B0BDC0462801002001
:1025F0000748026801680020120108D5490706D57E
:1026000004490A7A002A02D1497A4842484170476F
:1026100080130A40B4010020084880F3088800BFF6
:1026200000BF00F0D9F9002801D0FFF755FE0020C7
:10263000FDF746FD012000F0C6F9C0460004002069
:10264000B0B5074BC4180125C550FF232362E161D3
:102650001168E1625168216300F004F8B0BDC04622
:102660000411000082B00094014C019410BD00BF21
:10267000110200200648002101600648016803227B
:102680009143016041680F22914341607047C04609
:1026900008030B4000010B4030B514004C432500EB
:1026A0001C0044436419050010002900FFF7E2FEF6
:1026B000001904000D002100280030BD10B50022D3
:1026C0000549064B3C2A04D0845C61405943521CA6
:1026D000F8E7084610BDC046C59D1C819301000166
:1026E00080B5002800D05A20054934228B5C8342F3
:1026F00004D08854FFF710FF00F0C0F880BDC0463A
:102700007002002010B5FFF731FE064C8820A0476C
:102710000120A047C220A0471020A047FFF7E4FEF9
:1027200010BDC046C91D0000B0B5112212028318A9
:102730000C784D7825434C882C43A4B2845088886B
:10274000C988090408189860B0BD80B5FFF778FD06
:10275000FFF750FDFFF78EFFFFF790FCFFF7EAFB56
:10276000FFF71EFF00F072F880BD000010B50021D9
:10277000054B425C5C5CA24203D1491C4029F8D164
:102780001446101B10BDC0467002002018B520234F
:102790009B1A04D8010000205B42994004E0040029
:1027A0009140DC402143904018BD000010B59200DC
:1027B0008018044A83580724A404A34321405918CD
:1027C000815010BD3018000010B50122120383188B
:1027D0000C789C604B7883508978014A815010BDF9
:1027E0000C110000BFF34F8F034804490160BFF391
:1027F0004F8F00BFFDE7C0460CED00E00400FA0576
:10280000BFF34F8F034804490160BFF34F8F00BFF0
:10281000FDE7C0460CED00E00400FA05B0B5044B3E
:10282000C41802251543C550E161FFF71BFFB0BD79
:102830000411000010B5029CA400001911431943B3
:10284000014A815010BDC046501800000348044999
:1028500001605F21490641607047C0460011084091
:10286000430002C903480121016003488168491CF3
:1028700081607047485008402801002080B5044816
:102880004078012802D1FEF71DFD80BD012080BDEA
:10289000CC0100202120C00203490860012002046D
:1028A0000A64C00208647047A0120A4068203454C9
:1028B000692034546A2034546B20345456203454E4
:1028C000704703228058002805D0401E4A1C002370
:1028D0000B701146F7E7704702480168024A0A4345
:1028E0000260704748100A400400000840B584B0F8
:1028F00002AE0096FFF7CCF9029A039B04B040BDEC
:1029000010B50122120383180C789C60497881501D
:1029100010BD10B500239A4203D0CC5CC4545B1C9C
:10292000F9E710BD80B50B4603214258C11D18467A
:1029300000F03CF880BD000092008018014A8150F0
:102940007047C0461018000000239A4202D0C154BC
:102950005B1CFAE7704700000A46002180B5FFF7CC
:10296000F3FF80BD014AD08011707047E001002064
:10297000014880787047C046CC010020014840687B
:102980007047C046CC010020014880687047C046AF
:10299000CC010020014840787047C046CC0100209F
:1029A000811E091F00BFFCD27047000080B5FFF7F1
:1029B000B0FF80BD4470204692E63A46234695E734
:1029C0002146234668E600F001F8FEE700BF7047A5
:1029D000234661E620E670470120704700000000B2
:1029E00081B01649411811221202012383500A684E
:1029F000072002400092009AD2B2032A19D0009A0E
:102A0000D2B2012A15D00A6802400092009AD2B2CE
:102A1000032A0ED0009AD2B2012A0AD00A680240D4
:102A200000920098C0B2032803D00098C0B20128D9
:102A3000DDD10098C0B201B07047C046D01300008D
:102A400022000000BF5D0000000000000000020046
:102A50000000000005001400320096002C01C201A5
:102A600058022003E803CEFFE2FF00001E00320000
:102A700001040000000000006009000000000000E8
:102A800001800000000000006D56204D61783A0082
:102A90005B4D414E5D20005B4552525D20005B4C1A
:102AA00056505D20005B4F46465D20005B414C5315
:102AB0005D20005B5453545D20005B464C535D2009
:102AC00000000404000400205273743A00204F6692
:102AD000733A004C766C3A0020563A0020503A0087
:082AE0000800000200000000E4
:102AE80000E5000001010052004F830156342E7F9B
:102AF800332E365F4442470A3F71FE127F09496E02
:102B0800697469616CFF697A696E672E2E2E661585
:102B18000F231C0C003318DF0EFFFF1AFF092D3896
:102B28001CBF005F09039BFF00000DDF0200FFF0E0
:102B3800451E000025290000C328000002000000EF
:102B4800400000000001000004FFF000E82A000037
:102B580000000020442B0000700200204C2B0000D5
:082B6800B00200200000000093
:102B70000C000100E02900001002002060000000AD
:1037F00056342E332E365F4442470000000000004E
:10380000FFFFFFFFFFFFFFFFFFFFFFFFFFFFFFFFC8
:10381000FFFFFFFFFFFFFFFFFFFFFFFFFFFFFFFFB8
:10382000FFFFFFFFFFFFFFFFFFFFFFFFFFFFFFFFA8
:10383000FFFFFFFFFFFFFFFFFFFFFFFFFFFFFFFF98
:0400000300002619BA
:00000001FF
