:1000000000040020032900006F1C00006F1C00008A
:1000100000000000000000000000000000000000E0
:100020000000000000000000000000006F1C000045
:1000300000000000000000006F1C00006F1C0000AA
:100040006F1C0000F52700006F1C0000000000007E
:100050006F1C000000000000000000000000000015
:10006000000000006F1C0000000000000000000005
:100070000000000000000000000000006F1C0000F5
:1000800081270000000000006F1C0000000000003D
:100090000000000000000000000000000000000060
:1000A0006F1C0000000000000000000000000000C5
:1000B0000000000000000000000000006F1C0000B5
:1000C00090B013204706012006900004049002F02F
:1000D000CAFA62B60FAC0026A670082020809249AA
:1000E0000AAD1422284602F0FBFB0397781C8F49C7
:1000F0000860102002F0E2FB8D4F38462146069C36
:1001000002F0F0FA38462946354601F09DFA894852
:1001100001682143016088480499016087480168AB
:1001200021430160864987484068884202D085485B
:1001300041600570844E01F0E7F802F039FB402081
:10014000059030608148016821430160804E7570E0
:100150008048007B000605D501F0C8FB002801D0CF
:1001600002F0B1FB20070290E00601907A4F09955A
:1001700030BFA72179480791016000F0F9FE08908F
:1001800001F012FC00F0F2FAB068642102F0EAF823
:1001900000295AD175617078052818D8800002A10D
:1001A00009586F488F46C046DD010000C1010000BC
:1001B000CF010000D3010000D7010000DB010000E7
:1001C000684800780028684808D0684806E0684811
:1001D00004E0684802E0684800E06848684FB847B3
:1001E0006848B8475B48007A01252946664CA04715
:1001F0006648B8475748807A2946A0476448B847B8
:1002000055480068042421465F4A90476148B84732
:100210007D20C00000F092FD2946099D5A4A904772
:100220005D48B8475D4800882146069C564A90477D
:1002300070693E2806D8411C716130182022027670
:100240000846F6E757203554434F554800680009E3
:100250007C2809D8B078401CC1B2B070032904D3FF
:10026000B57002F099FA00E0B570B0687D21C90060
:1002700002F078F87078002918D1012816D1354895
:10028000007B000715D5F068401CF060307800282E
:1002900004D1F0684349884200D33470F068424981
:1002A000884206D3757002F077FA7078FB21084215
:1002B0002FD038682749C96A88420AD2F078401C92
:1002C000C1B2F070052905D3F570757002F064FABB
:1002D00000E0F57038681F49896A88420ED230798B
:1002E000401CC2B230717078052A09D335710422DE
:1002F0000243052A04D10220707003E03571707842
:10030000022806D13868643188424FD302F0DBFA04
:100310007078052855D8099D7844007940008744B5
:100320006F454564BC93C0467029000000480840F2
:10033000004008402850084000E100E00458084010
:100340003CC3A55A9002002090120A4004180940AC
:1003500018010020500200207801002008110840F8
:10036000D5290000D0010020C0290000DC290000B0
:10037000CE290000EA290000E3290000C729000077
:10038000D9250000F7290000E11E0000F129000036
:10039000FC290000B8290000002A0000C801002044
:1003A00074010020110E0000691000000898042854
:1003B00003D1757002F0F0F903E001F035F800F0B8
:1003C00097FB707805280CD0042808D16820D849FC
:1003D000095C012905D0D649085C022801D001F04A
:1003E0001DFA01F037FF099DC2E6089804286ED176
:1003F00001F07CFA002800D18DE002F064FAE0E719
:1004000000252846294602F03BFA284601F0CAFF9B
:100410000899012963D1B548007800285FD1386870
:10042000B449C96A884200D2BFE0B0480470B068DD
:1004300030610320707001F04DFEAD4805990160F8
:10044000C54802F03BFAB0E0B068BE490968401AFE
:10045000BD4988424FD37470B2480570A54A906870
:1004600021028843906002F00FF802F095F9B84A33
:100470001078401CC1B21070032903D3B448057032
:10048000B44804709B48007A4000AB49085A00F019
:1004900055FC002102F0F4F993E7A5480068A5494E
:1004A00088428ED16820A24D295C01293FD16E245B
:1004B000285BA249091A0022964802F0CBF9285B72
:1004C000069C9749081A773098490880FAE0B06886
:1004D0003169401A9A49884200D272E701E1052940
:1004E0003AD0042961D101F001FA002852D0747089
:1004F000F560357044E080B2944901F033FFC808DC
:100500004B28874900D377318848018000228148F1
:1005100002F0A0F955E702F0DEF901F07FF97F481B
:1005200002F0CCF902F0D3F901F078F949E7295C3F
:10053000022928D16C20285A01F094FA04467F48F9
:10054000844200D37D4C00227248214602F082F999
:1005500076480480069CB5E001F0BCFD01F0C6F9C8
:10056000002822D07470F56035706E480470614ABE
:10057000906821020143916001F086FF02F00CF9BE
:1005800001F0AEFE11E0285C032800D086E06C206C
:10059000285A91E002F09FF901F040F95F4802F01B
:1005A0008DF902F094F901F039F97078002800D043
:1005B00008E701F0ABFF002800D102E70398674984
:1005C000086067490860514A1069E10501431161FB
:1005D00010682021014311604D4B196A019F381D9D
:1005E00001431962474A516E029C214351661168CA
:1005F00021431160516E39435166116839431160CE
:1006000019680143196002243D490C6036480460B2
:10061000049808604048079F076008385149016006
:100620003448007BC0060CD5069A374FFA63334B2B
:1006300018680421014319603868510588433860FF
:10064000079F72B630BF62B601F0EAFE2B4A10680F
:100650000421884310602B4B586E274A111D084017
:1006600058661868084018602949086810400860F2
:100670003D480460BFF34F8FBFF36F8F02F074F8F3
:100680002548076001F048FA274F38681949C96AB8
:100690008842069C00D894E6F56092E66B20285CC0
:1006A00020490978014308060AD11248007A40001F
:1006B0002149085A00F042FB002102F0E1F801E074
:1006C00000F016FA0898052800D97AE6204608991D
:1006D00088402E21084200D173E6089800F0A4FE5D
:1006E0006FE602F00DF8C04600E100E09002002045
:1006F00090120A4050020020FBFFFFF710ED00E0CF
:1007000080E200E00C80424004010B4090130A405C
:1007100028100A400000094008110840009F2400EA
:10072000E8080000D001002078010020C801002066
:100730000000002054534554842900005F09000044
:10074000E1930400DC01002010270000DC0500001C
:10075000EA010020E9010020C05D000000480040DF
:1007600000080340070002C980E100E0F0B587B04F
:10077000C64E3068C649884206D1F088B188401A12
:1007800041424141059101E0002005900120069081
:10079000C04800687061C0480068B0217050BF4810
:1007A00000784E217054BE4FB8687067C0B2B085F3
:1007B000BC480088F085BC4801883186BB4C216864
:1007C000B1610088BA49081A7D22D500684301F05A
:1007D000C9FD2268002402F08AF802F085F8F06171
:1007E000BA693262F06902F082F802F07DF8706254
:1007F000A9480268F06902F07AF8049502F074F8EA
:10080000B4217050AB480068B062AB480068708695
:10081000AA4800687063AA480068B063A9480068E5
:10082000F063A94800683064A84800687064A8486C
:100830000068B064A74800784C217054A64800783E
:100840004D217054A5480168069AD206934F0A407C
:10085000514251414F22B154006804210391084094
:1008600041424141502031549D48007851217054FB
:100870009C48007852217054894D287B4006C00F57
:100880005321705402F014F85421705401F0FEFF0B
:100890005521705494480068B0656868F06501F0AF
:1008A000FBFF306601F0FEFF70663878059900297D
:1008B00049D0042847D08D4806990170042038702B
:1008C00001F076FF764B1F460837A7CF0097DF6908
:1008D00001971F6A02975F6A05977067B167F267B1
:1008E0008020355084200099315088200199315062
:1008F0006A4F8C2002993150902005993150986AA6
:10090000D96A9422B050982031503120185C9C2133
:1009100070543220185C9D2170543320185C9E2145
:1009200070543461F4606820305C002810D16C2071
:10093000315A00290CD15B490988002908D059494E
:100940000988315204E0002903D1042800D19AE03B
:100950003878042800D087E0B068002800D17BE018
:10096000B56801203061B460A91E05296ED8C04663
:100970007944097949008F448602445C524C706F77
:100980000590B16FC8B20390F06F02908023F058C9
:1009900001908427F0590090882030588C2171589C
:1009A0009022B2583E4B059F9F60039FDF60029FDD
:1009B0001F61019F5F61009F9F611F461C3707C732
:1009C00094203058982171589862D9629C21725CA9
:1009D0001420142A024600D8725C31215A549D22F8
:1009E000B15C1429014600D8B15C322299549E2191
:1009F000725C142A294F00D8705C3321284A505465
:100A00001FE001F041FD01F0C7FE002819D10420CC
:100A100018E03C7001F038FD01F0BEFE02E03870D5
:100A200001F05EFC31480470346001F0CDFE02201C
:100A30000DE001F041FD01F0AFFE002801D1039867
:100A400000E00220306101F0E9FA01E005203061A8
:100A5000F5603878042807D1049800F06FF93878E9
:100A6000011F481E8141069120480178012908D1C3
:100A70000699002905D004700320387001F0A4FE07
:100A8000F46007B0F0BD01F049FEC0460000002050
:100A900054534554780100207401002019010020AE
:100AA00050020020C6010020C80100207C01002067
:100AB0005F090000800100209401002084010020D3
:100AC000880100208C01002090010020E40100201A
:100AD000E0010020E8010020EB01002080130A4023
:100AE00018010020D101002024010020ED01002088
:100AF000F0B585B081480078002800D0FBE0804C3C
:100B0000804D287800230428194608D17E4A1168B0
:100B1000A142194603D16B21515C4A1E91417A4A88
:100B20001668A64204D1D38894881C1B6342634193
:100B300000290CD1754C2478002C17D0441E022CAF
:100B400005D3041F664266411E40012E0ED1724E2F
:100B500030686E4B5B68C01A782800D2CBE0002961
:100B600016D0146F6D480021017016E0042800D9DA
:100B7000C1E0012181401620014200D1BBE0644860
:100B8000007A40006349085A00F0D8F80021B0E02C
:100B900001F034F9044601F043FD5C4B30685860C5
:100BA000601C3ED05E48002505705C4805705D48BD
:100BB00004609868411C03D0C108E2088018441AF8
:100BC0009C605948046064212046039101F0CAFBEF
:100BD0004F4A3121565C3221515C01913321515CE5
:100BE00004910121029189070B4689088342FBD8B1
:100BF0000AE05919421A074600D317466D08884281
:100C000000D3ED189B083846002BF2D1002E00D1FE
:100C1000052603994B20C7000498002816D04843A6
:100C200016E03E48022101703D480178491CCAB2D5
:100C30000170032A5FD300210170287804285AD05C
:100C40000520287030683C49086054E03846C830B8
:100C500004900198002801D0484307466E432C4D6C
:100C6000A868FF2213040340029A9204934202D818
:100C7000000CC0B200E0022040002C4A105E70431D
:100C800001F0FCF98019696A884200DC08462849AD
:100C90008C421E4B00D3049F874200DB07467D2019
:100CA000C000874200DB0746F81787435888214970
:100CB000884219D000B2391A09B2012905DB19227C
:100CC0001201904208DB142207E01322D243914222
:100CD0000ADA1438074607E0052289B2962800DAB6
:100CE00002228A4200D287185F80B8B200F026F84C
:100CF000012101F0C5FD05B0F0BDC046180100207E
:100D0000545345541901002000000020D001002058
:100D1000500200208429000020010020EB01002067
:100D2000E8010020E4010020E001002096290000F5
:100D3000A4420F00FFFF0000DC010020F0B589B0E5
:100D400006467E4A107BC00700D1F4E07C498F68DC
:100D5000D06A874207D9059614697A48874205D830
:100D60007C4822180CE000264E62E4E076483918F0
:100D7000764801F0F7FA7649884200D3084602190E
:100D80006E4D6869A969079284180697781A724AA5
:100D900000263146334601F00DFC2246334601F071
:100DA00033FD0746ED6985422C4600D33C46644836
:100DB000079B0361C760002F00D1BCE07D20C2000B
:100DC000002D1046089206D010466843214601F0D7
:100DD000C9FA079B089A019503944B21904200D3CE
:100DE00010460290480104901E2630465843642164
:100DF00001F0B8FA024600243846214601F07FFD92
:100E0000554A234601F000FD054638462146079A1B
:100E100001F075FD07900091059A01F070FD4F4AB1
:100E2000234601F0F1FC089A401906990B1A104666
:100E30001CD904998B42104618D20498431C1E20DA
:100E40000699994212D32F46454BC918A9420DD98C
:100E5000C81B424A00210B4601F0ACFB079A009BDD
:100E600001F0D2FC1E2800D81E20089A0790019895
:100E70000028174605D03B48039901F073FA089AF9
:100E800007469742069D00D31746039821462A46F7
:100E900001F035FD4A07C3089A18CB087D3A089A35
:100EA000A341144615D30024089A234601F0ACFC54
:100EB000054603970F462148006A2146089A01F02B
:100EC0001EFD2A463B46039F069D01F09DFC089AA5
:100ED0000446944200D314460498401C8542079B64
:100EE0000FD3214885420BD81E3A6A431F48101879
:100EF000E121890001F036FA079B06461E3600E024
:100F00001646029A9342184600D310468742394645
:100F100000D301468C42204600D30846864200D3C7
:100F20000646074842618361C761046246620598CC
:100F3000864200D30646B0B209B0F0BD5002002090
:100F4000700100206C07000094F8FFFF80F0FA02A7
:100F500090D00300E093040040420F0000CA9A3B87
:100F6000A0F6FFFF00093D00E30C0000407ADCFF23
:100F7000FEB50126F3066C4908681840096804228A
:100F800001921140694A1468694DAC42029616D12B
:100F9000D4889588AC4212D15624145D002C00D020
:100FA0000421002C00D018466923D45C0023002CB7
:100FB00000D018466A24125D002A00D01946424229
:100FC0004241484248415B490B785B009A18D5B2D0
:100FD0000A702B46FF3B5A425A414B785B00181867
:100FE0002E460640C7B248700097FF3F7B427B41C8
:100FF000FF3E744274411046184301D100208870AE
:10100000002C14D0029F8F7000208860C860CE78BA
:10101000494D2D68002E1ED00E69AD1B474E14366B
:10102000B54270D90879002831D0002031E0C87865
:10103000002814D0404800680D69451B3F4E143607
:101040000020B5425FD94D79002D5CD10879002888
:1010500008D1019857E00D610020888053E088781E
:10106000002801D000204EE08E79FF2D1AD0002EEE
:1010700018D08E68002E1ED031482F4D2D68AE1B23
:101080003546153D5130854217D201201EE00F71C3
:1010900004202D4EB54236D34D79002D33D14F71FA
:1010A000052030E00020FF2D10D1002E0ED1224D62
:1010B0002D688D600AE0002008E022483018204D9D
:1010C000A84201D3002000E0012040007E427E4182
:1010D000CF79002F00D00296029D002D08D0002F5E
:1010E00011D1009DFF2D0ED1134D2D68CD600AE06A
:1010F000CD68002D07D0104E3668751B153D0F4E7C
:10110000B54200D203208A71CB71CC70002809D07F
:101110000E4A002111600E4A1378002B01D0117085
:101120000846FEBD0020FEBD80130A4000000020DE
:10113000545345549C01002020010020C7050000A5
:10114000BB020000DFFCFFFF881300002401002029
:1011500018010020F0B591B00124644E30462030D3
:10116000029001F091FA002800D1A8E003940F202A
:1011700080020B900720C0020690012007904002D9
:101180000C905E4C6068401C6060204601F036FAAE
:10119000E0635B4845688468002209920998022848
:1011A00000D981E01F2A00D97EE0641C102C29D3CD
:1011B0000A9253484068069A811A4C424C41904228
:1011C0000B9D00D0069D4A4807990160A7204A4917
:1011D000086072B6474F384629460C9A00F0B2FABA
:1011E00040223846294601F0A7FA62B64549086808
:1011F0002030086020013118002434504C608C608D
:10120000CC600A9A0B98281A4142414108013018D3
:10121000015D521C0029C1D1001901900998401CA0
:101220000990A00128180D90002105950A920494B8
:10123000032932D008912E4807990160A7242E482F
:1012400004600027402F1CD22C49C8194068C95996
:101250000E910F902848046072B60D98C619254D5E
:10126000284631460C9A00F06DFA0EAA28463146FF
:1012700001F074F962B623490868801C08600837D9
:10128000E0E70D9801F000FA0899491C0028174E74
:10129000059D0A9A049CCBD115E007980199087026
:1012A00017484560846079E715498878401C887044
:1012B00014480068086103984870002412E0104840
:1012C000002141700EE00D494022029801F008FB18
:1012D0000B494D608C600020487088700948006898
:1012E0000861039C204611B0F0BDC046B800002044
:1012F00048E00C4000D00C4008110840500200208B
:10130000B001002020010020F0B587B00720C00206
:101310000190002140480490012006900E4605915E
:10132000022935D002910029019D01D00F208502AC
:1013300000270395102F25D02868384988421ED1F0
:10134000284601F05BF9E96B884205D16C68059885
:10135000844205D3002004E001200499C8550EE022
:1013600001200642069E0AD140222D48294601F05E
:10137000B7FA2C48039941608760069E05947F1C4C
:101380004035D7E70299491C049810300490C7E70C
:10139000F00702D10698234901E022490878204A43
:1013A000C50706D01020019A4A60886000F002FE4E
:1013B0001AE09068C1B2082901D93020105C10727F
:1013C000107BD0603120115C002901D1052111541E
:1013D0003220115C002901D1062111543320115C07
:1013E000002901D10821115400260E4F3E700A4CED
:1013F00020340B494022204601F072FA7E70002D05
:1014000008D03E464021204601F034FA0698787014
:1014100001F0C2F907B0F0BDB80000205CAA55AADF
:1014200050020020B0010020F8B504463F48007883
:10143000042869D80127394681401620014263D02B
:10144000FF2005043A488668300C00907D20C000DB
:10145000FFF774FC611E02290DD3052C14D0032C58
:1014600019D135490A78002A26D03002800E4FD192
:10147000009A521C4DE030490A78002A0DD02E42C5
:1014800046D0009AFF3244E02A480078002822D053
:1014900000F020FE3CE0009A34E0F3B25F00284AFE
:1014A000D75B874226D9330628D0F3B25B00D35AE4
:1014B000834224D9761EF6E7F2B2072A28D85200D2
:1014C0001F4BD218528882421FD9101A761C32281C
:1014D0001CDD4F701CE0184C20787840207000F024
:1014E000F9FD2078002813D001F09AF8134800681D
:1014F00060600DE0002B02D0761E00E00026009A0E
:1015000000204870002C04D1F8BD761C00204870E3
:10151000009A100428400849097809020818F1B215
:1015200040180349886000F0AFFFF8BD19010020A2
:1015300050020020E9010020D001002020010020FD
:1015400084290000F0B5394A8218394BC0183A4D49
:101550004C790B79002C22D0466F202B02D0052429
:10156000E70100E0354F2E40002B00D188273E4395
:101570004667846F2C403C438467446B2D4E344057
:101580004463846B344084630024446584655468F8
:101590008F26F643344054609468344094600C685D
:1015A0008979202B09D006467036002B15D1641E90
:1015B0004460C46E2C40882715E0641E4460C46EED
:1015C0002C401E4E3443C466046F2C4034430467E1
:1015D0001B4D01246707064607E00527FF01640845
:1015E0004460C46E2C403C43C46634682C403C4389
:1015F0003460C46A0F4D2C40C462046B2C400463F9
:101600000024C4640465C46F8F25ED432C40C46777
:1016100014682C401460194302680A4B1340BD2221
:101620000A40D118891C0160F0BDC0468418000032
:10163000041800008888FDFF24493E0001040000D2
:10164000FFFFFFCF4000FFCFB0B53A4A80184A688D
:1016500042600A78222A56D8930001A4E3589F4694
:10166000FD16000007170000FD1600000717000018
:1016700007170000071700000717000007170000F2
:1016800007170000071700000717000007170000E2
:1016900007170000071700000717000007170000D2
:1016A000ED16000007170000ED16000007170000F8
:1016B00007170000071700000717000007170000B2
:1016C00007170000071700000717000007170000A2
:1016D0000717000007170000071700000717000092
:1016E000ED16000007170000ED1600000368032444
:1016F0002407A343012464071B1903E003680324A0
:101700002407A34303600B69C360CB68C46A0A4D16
:1017100025400A4C1C402B19C3620368084C1C402E
:101720000460097A114302683F239A431940511813
:101730000160B0BD041800008888FDFF77770200C3
:101740007F00FFFFF0B583B002920190304B314D26
:1017500000918C0A28680727384005262E601968F2
:1017600089048A0F2860296839402E60186829602A
:10177000002A214608D028490840511C00F0F2FDFB
:101780000146204600F0EEFD0198204A80180190A5
:101790002A683A402E601E4803682A602A683A4048
:1017A0002E6003682A60012293020298984207D0B3
:1017B000530298420CD10098C30B0BD1019803E05F
:1017C0001F210C4001984030A24001689143016004
:1017D00003B0F0BDFF290DD82B683B402E600C4CA8
:1017E00024682B60A3049B0F019800D12039CC08FA
:1017F000001DE9E71302FF339942E9D2FF23DB43DF
:10180000C918CC0801980830DEE7C046D0110000A6
:101810001800C44100134040FF0F000070B52C4871
:101820000678002E07D02B480078002807D02A49D8
:101830000520C88005E028482A49818043E02648E1
:10184000C088254D2978002927D06988814224D075
:1018500022490A68AB68D21A0C2A1FD30968A9600A
:101860006988401A04B2012C09DBA0B20A2100F0F9
:1018700079FD0A2C00D80120698808180DE0604223
:1018800080B20A2100F06EFD69880922D243944299
:1018900001DB093200E04242881868806C88022E21
:1018A0000CD10F48007B800608D50C4800687D21CC
:1018B000090100F057FD322900D2A408204600F0AB
:1018C000D1F80146A8800848002200F0C3FF70BD8F
:1018D0001901002018010020C4010020200100206F
:1018E000500200205F0900000000094070B5214D42
:1018F0000124260220482149016021480268224330
:10190000026020480160204800F0D8FF28680020CD
:10191000C14329601D490A6822430A604A6832436C
:101920004A601B49491C2A46183A1268324201D1C2
:101930000029F7D100291BD01648006881B22A6817
:1019400032432A600004800E00D0890812484843C0
:10195000124900F007FD12494860486888604C70E1
:1019600088681049C96A6431884200D8002420463A
:1019700070BDC046485000400008034001000026EA
:101980000011034000480040C0D401000051004055
:10199000AF3CFFFF80A2554040164000189C0F004E
:1019A0007001002050020020B0B5274C207800289C
:1019B00011D02748012529020246183A1268D2059B
:1019C00021D4224A1268A36AD21A0B2A3AD3026897
:1019D0000A43026034E01D480168A26A891A64293A
:1019E00030D31B490A680022D2430A6019490A68A9
:1019F00001231A430A604A681D0215434D60237093
:101A00000068A062B0BD02680A4302601248006824
:101A100081B20004800E00D0890810484843104964
:101A200000F0A0FC60606178002907D0A168A2687E
:101A3000D208C0080818801AA06001E0A060657094
:101A400000202070B0BDC0467001002020010020A1
:101A5000485000400051004080A2554040164000D0
:101A6000189C0F00F8B5234F002840D004462248A8
:101A7000866822498D69AE4239D90A692048864272
:101A800002D8234810180CE000921E4831181E4856
:101A900000F068FC1D49884200D3084600994018B0
:101AA0001649496908180090701B1A4A00263146E9
:101AB000334600F07FFD009A334600F0A5FE002873
:101AC00015D006460D48C06944437D20C500204618
:101AD000294600F047FC601A314600F043FCA8425A
:101AE00000D328467843294600F03CFC3F1AB8B2A0
:101AF000F8BDC0465F0900007001002050020020C0
:101B00006C07000094F8FFFF80F0FA0290D0030009
:101B1000E093040040420F0070B5204C01263502CE
:101B20001F482049016020480268324302601F4874
:101B300001601F4800F0C2FE20680020C043206002
:101B40001C480168314301604168294341601A49DA
:101B50000846214618390968294202D1411C00284B
:101B6000F6D1002818D01548006881B222682A43AF
:101B700022600004800E00D08908114848431149B2
:101B800000F0F0FB1049486088688A68D208801A23
:101B90004A68D2088018886070BDC046485000402E
:101BA00000080340010000260011034000480040E7
:101BB000C0D4010000510040B03CFFFF80A255405E
:101BC00040164000189C0F0070010020F0B58B42B9
:101BD00000D1824204D90B0002000021002040E025
:101BE000002B00D1002A0CD10B00020000210020A4
:101BF000002B00D1002A01D0C943C04300F00FFCE4
:101C00002FE01C0015000B0002000CB40021260080
:101C10002F00FF19764102D2491C4029F9D100203A
:101C20001E001700FF19764102D2401C4028F9D14E
:101C30000E1A21002800320000F036FD0C000500CD
:101C40000CBC00200021A34200D1AA4201D3521BA8
:101C5000A341404149416D08E7073D436408761EB2
:101C6000F1D5059F002F01D03A607B60F0BDFEE703
:101C7000F0B585B00190204C01200704C00202900D
:101C80002764002004900820029E002815D07825A3
:101C90000390284600F012FE2664284600F00EFE4F
:101CA0000498400015490968C903C90F0818049031
:101CB000039826602663401EE7E70198002803D0BA
:101CC00027602046303001E020464030264607603D
:101CD0000B49782528468847029C346428460849E1
:101CE0008847346034632846054988473764049838
:101CF000C0B205B0F0BDC046A0120A4080130A4031
:101D0000BD280000FEB502901A4F01200204009287
:101D10000826C0020190019C002E19D0029A50B2F0
:101D20000028009B03D43B603846303001E0384641
:101D300040300360520002927825284600F0BEFD34
:101D40003C64284600F0BAFD3C603C63761EE3E745
:101D500000983864084D782420463E46A847019FE5
:101D600037642046A8470548006837603763204637
:101D7000A847FEBDA0120A40BD28000080130A40FB
:101D8000F8B5451C00780023082B32D02F78C20705
:101D90000CD16A780F241440E41C122C0BD10224BD
:101DA0002E57F4B2002E08D4EE1C0EE06D1C4A1C17
:101DB0000F7011461AE0AE1C08E02E1DED7800955C
:101DC0007F252C40009DED012C1912343D01120994
:101DD0005219094DAA420ED0D243002C05D08D5C79
:101DE0004F1C0D70641E3946F7E7354640085B1CF2
:101DF000CAE72846C5E7F8BDFF0F000070B500250B
:101E0000EC4300F04BFA154E8820B0472846B04707
:101E100000F022FB00F042FA8920B0470120FFF7D2
:101E200027FF06462846FFF723FF054600F014FB70
:101E3000300240190A4988420DD0B10902290AD856
:101E40003109084A104088400749884200D30846B3
:101E5000064908600446204670BDC046051D0000C6
:101E6000FFFF0000FF0F0000C4F77F00E401002027
:101E700010B51249124800F055FA12484168124A4A
:101E80000A4042608168114A0A40911C81601049F1
:101E9000104A0A60026801210B04134303600E4AD2
:101EA00042610E4A136A0C022343136213682343F0
:101EB000136002680A43026010BDC046A0290000FA
:101EC0000040004000510040FEFFECFFF8FFE0E062
:101ED000805100400F020000C05D0000285000400B
:101EE000FEB50C46002812D005460027002D18D05C
:101EF0000A262846314600F035FA4643A91B30220F
:101F00000A43791C6B46DA5505460F46EEE76846EC
:101F100030210170012704E0781C69463022CA553F
:101F20000746A742F8D308484169012F0ADB3E293A
:101F300008D87F1E6A46BA5C4B1C436141180A767A
:101F40001946F2E7FEBDC04618010020BCB5134992
:101F5000134C204600F0C6FB12492046FFF7F2FA68
:101F600011480168114A0A40026000250095204688
:101F700029462A462B4600F0EBFB204629462A46F6
:101F800000F0A2FB4B20410120462A4600F062FCF3
:101F90000748012181600160BCBDC046042A0000E1
:101FA00000000940A8290000041809407F00FFFF35
:101FB00000110940FCB512480021BF2201923222D3
:101FC0000092124C25466435AF273F011E2223465E
:101FD000C8330F4E0662064624361CC60D4A0263FD
:101FE00041638163C1630C4A064B036041608260B8
:101FF0000199C1600099016103491430A2C0FCBD80
:10200000500200205CAA55AA407E0500340800005A
:10201000282300000405060804000200FCB515484A
:1020200007460837FCCF016A0091416A01911249C5
:102030004A678B67CC6780228D5084228E5088221D
:102040008F508C22009B8B509022019B8B50826A78
:10205000C36A94240A5198228B503122825C9C23BB
:10206000CA543222825C9D23CA543322805C9E2251
:102070008854FCBD50020020000000201CB500293F
:1020800022D04C08002900D5494242105440002873
:1020900000D5404200230A00904201D95200FBE7DC
:1020A00090425B41904200D3801A914201D2520883
:1020B000F6E71900002C00D54042640000D54942E3
:1020C0000200080011001CBD0100002000F001F812
:1020D0001CBD7047F8B502240E4D0F4E002C17D0D2
:1020E000692001010D488180002728463A4600F00A
:1020F000B1FB304600F0E2FB0949084881802846E0
:102100003A4600F0A7FB304600F0D8FB641EE5E736
:10211000F8BDC04600000940009F2400C401002013
:102120005F0900000D48842101600D4901220A6306
:102130000C4A0260812282610B4AC266C36EC3668A
:10214000826082688260094A0264036C0364C2622E
:10215000C26AC2624020086008637047048042403F
:10216000A0120A408400000481000E0081000C00CF
:10217000B0B50B480B4941600B4A51600B4B59609D
:102180008C1E0B4D6C600B4C61600B490160116043
:10219000196029602160102000F090FBB0BDC0469E
:1021A00000080A40030000B1000809400048004050
:1021B000000803400008084001000026F8B5044666
:1021C00005460C3500260F4F6088864217D22846F8
:1021D00008380168281F03682A68002A03D01846B7
:1021E00000F07EFB08E00648874205D0481C0978CD
:1021F00089007A5819469047761C0C35E4E7F8BDFB
:102200006C2A0000602A000070B50D48401C02D006
:102210000B48FFF7D3FF0B480B4C84420CD00B4DFF
:102220000B4EB54208D02A686968501C127892009B
:10223000A25890470835F4E700BF00BF70BDC04604
:10224000982A00006C2A0000602A00007C2A000006
:10225000942A000080B50D484178012915D10C4918
:102260000978012911D18178002905D004290CD8D9
:1022700008490968006902E006490968C068081A47
:102280000549884201D9FEF765FF80BDB0010020F5
:1022900019010020200100203075000070B50E4D9E
:1022A00001200404C6022C642E64782000F006FB92
:1022B0000A480068C00302D400F0CEF870BD2C605C
:1022C0002C637824204600F0F9FA2E602E63204615
:1022D00000F0F4FA70BDC046A0120A4080130A4014
:1022E00010B50C48407A0002FF21C94341184A4208
:1022F0004A41094C227001210902884209D100F0AB
:102300008FF9064800680021C9436060A160044855
:10231000608010BD50020020D0010020200100206C
:10232000FFFF0000F0B511221302C2180C780B4D0C
:1023300046590B4F374003262640BC19A9263606BE
:10234000A41944514C68C55807263606B543344095
:102350002C19C45048781061F0BDC0460808000030
:10236000FCFFFF001CB50A0017D000230124E4077E
:10237000A04200D20400944201D95200FBE79042EF
:102380005B41904200D3801A914201D25208F6E795
:1023900019000200080011001CBD01000020FFF719
:1023A00098FE1CBDB0B504460C480178A14213D07C
:1023B0000470FFF773FF0A4D8820A8470120A84743
:1023C000002C01D1204600E0C220A847601E8441B5
:1023D0002001A84700F040F8B0BDC046EC01002045
:1023E000051D0000FCB4020C0B0CFF242402FF347A
:1023F000204021400C00444315005D4306005E432D
:102400000F005743320C3B0CA818C01832043B0491
:102410000025A1186841C9186841FCBC7047704785
:10242000B0B50B48012251040A4B1C689502AC431D
:102430001C605C68120594435C6002680A4205D027
:1024400002680A4202D002680A42F6D1B0BDC04614
:1024500004020B4000010B40F8B501252E04084F83
:102460003E603E637824204606498847E802386487
:102470002046044DA8473E642046A847F8BDC04604
:10248000A0120A40BD28000080B50848203000F0A6
:10249000FBF8002805D0064900228A70054A126818
:1024A000CA60411E88410249487080BDB8000020C2
:1024B000B00100202001002080B5074800680749CE
:1024C000884204D1FFF776FDFFF7DEFF80BD0448A8
:1024D0000121017080BDC046500200205CAA55AAAF
:1024E000B001002010B50649064C204600F096F9D0
:1024F0000549204600F0A6F8F02000F0DFF910BDF5
:10250000072A000000000340B029000007480268C5
:1025100001680020120108D5490706D504498A79C7
:10252000002A02D1C97948424841704780130A40C5
:102530009C010020084880F3088800BF00BF00F01D
:10254000E2F9002801D0FFF75FFE0020FDF7B8FD9B
:10255000012000F0CFF9C04600040020B0B5074BC1
:10256000C4180125C550FF232362E1611168E162AF
:102570005168216300F004F8B0BDC04604110000AA
:1025800082B00094014C019410BD00BFF101002005
:10259000064800210160064801680322914301605A
:1025A00041680F22914341607047C04608030B40C9
:1025B00000010B4030B514004C4325001C0044437F
:1025C0006419050010002900FFF70CFF0019040032
:1025D0000D002100280030BD10B507494A69037875
:1025E000002B08D03E2A06D8401C541C4C618A1887
:1025F00013762246F3E710BD1801002010B5002223
:102600000549064B3C2A04D0845C61405943521C66
:10261000F8E7084610BDC046C59D1C819301000126
:1026200010B5FFF73BFE064C8820A0470120A047CD
:10263000C220A0471020A047FFF70EFF10BDC046E4
:10264000051D0000B0B51122120283180C784D78D8
:1026500025434C882C43A4B284508888C988090437
:1026600008189860B0BD80B5FFF782FDFFF75AFDEE
:10267000FFF78EFFFFF76AFCFFF7FAFBFFF732FF69
:1026800000F072F880BD000010B50021054B425CDF
:102690005C5CA24203D1491C4029F8D11446101BAE
:1026A00010BDC0465002002018B520239B1A04D844
:1026B000010000205B42994004E004009140DC40AE
:1026C0002143904018BD000010B592008018044AC4
:1026D00083580724A404A34321405918815010BDF6
:1026E0003018000010B50122120383180C789C608A
:1026F0004B7883508978014A815010BD0C1100003D
:10270000BFF34F8F034804490160BFF34F8F00BFF1
:10271000FDE7C0460CED00E00400FA05BFF34F8F63
:10272000034804490160BFF34F8F00BFFDE7C04677
:102730000CED00E00400FA05B0B5044BC418022506
:102740001543C550E161FFF71BFFB0BD0411000048
:1027500010B5029CA400001911431943014A81508D
:1027600010BDC046501800000348044901605F21B5
:10277000490641607047C04600110840430002C945
:1027800003480121016003488168491C816070474A
:10279000485008401801002080B5044840780128BE
:1027A00002D1FEF7D7FC80BD012080BDB001002022
:1027B0002120C00203490860012002040A64C0020B
:1027C00008647047A0120A406820345469203454C9
:1027D0006A2034546B2034545620345470470322FA
:1027E0008058002805D0401E4A1C00230B7011465B
:1027F000F7E7704702480168024A0A4302607047DF
:1028000048100A400400000840B584B002AE0096AB
:10281000FFF7DCF9029A039B04B040BD10B501221A
:10282000120383180C789C604978815010BD10B554
:1028300000239A4203D0CC5CC4545B1CF9E710BD62
:1028400080B50B4603214258C11D184600F048F8D8
:1028500080BD000092008018014A81507047C04638
:102860001018000000239A4202D0C1545B1CFAE702
:10287000704700000A46002180B5FFF7F3FF80BDD6
:10288000014AD08011707047C4010020014880784F
:102890007047C046B0010020014840687047C046FC
:1028A000B0010020014880687047C046B001002098
:1028B000014840787047C046B0010020811E091FC2
:1028C00000BFFCD270477470F560357008E5204693
:1028D0002146069CD4E7642000242146D0E700006E
:1028E00080B5FFF7A4FF80BD2A4623468CE721462A
:1028F00023465FE600F001F8FEE700BF704723467D
:1029000058E617E6704701207047000000000000FD
:1029100081B01649411811221202012383500A681E
:10292000072002400092009AD2B2032A19D0009ADE
:10293000D2B2012A15D00A6802400092009AD2B29F
:10294000032A0ED0009AD2B2012A0AD00A680240A5
:1029500000920098C0B2032803D00098C0B20128AA
:10296000DDD10098C0B201B07047C046D01300005E
:1029700022000000BF5D0000000000000000020017
:102980000000000005001400320096002C01C20176
:1029900058022003E803CEFFE2FF00001E003200D1
:1029A00001040000000000006009000000000000B9
:1029B00001800000000000006D56204D61783A0053
:1029C0005B4D414E5D20005B4552525D20005B4CEB
:1029D00056505D20005B4F46465D20005B414C53E6
:1029E0005D20005B5453545D20005B464C535D20DA
:1029F00000204F66733A004C766C3A0020563A003D
:102A000020503A0008000002000000000000000012
:102A100000E5000001010052004F830156342EFFF3
:102A2000332E335F4442474CFE0A4F73496E69743C
:102A300069616CFF697A696E672E2E2E66138F238B
:102A40001C0C0033175F0EFFFF197F052D381AFF8E
:102A5000005F09035BFF00001D5C07010100FFF040
:102A6000811D000041280000DF2700000200000057
:102A7000400000000001000004FFF000102A0000E8
:102A8000000000206C2A000050020020742A000080
:082A900090020020000000008C
:102A98000C00010010290000F00100206000000077
:1037F00056342E332E335F4442474C000000000005
:10380000FFFFFFFFFFFFFFFFFFFFFFFFFFFFFFFFC8
:10381000FFFFFFFFFFFFFFFFFFFFFFFFFFFFFFFFB8
:10382000FFFFFFFFFFFFFFFFFFFFFFFFFFFFFFFFA8
:10383000FFFFFFFFFFFFFFFFFFFFFFFFFFFFFFFF98
:04000003000025359F
:00000001FF
