:10000000000400202F250000371A0000371A0000D6
:1000100000000000000000000000000000000000E0
:10002000000000000000000000000000371A00007F
:100030000000000000000000371A0000371A00001E
:10004000371A000071240000371A00000000000079
:10005000371A00000000000000000000000000004F
:1000600000000000371A000000000000000000003F
:10007000000000000000000000000000371A00002F
:100080001124000000000000371A000000000000EA
:100090000000000000000000000000000000000060
:1000A000371A0000000000000000000000000000FF
:1000B000000000000000000000000000371A0000EF
:1000C0008EB0012402F025F962B69A4800681F211B
:1000D0000140994DE960E868012820460FD0E868A2
:1000E000022820460BD0E8680328204607D0E8689D
:1000F0000428204603D0E868411F484248418F4EFB
:100100008F4A904B132149060291210401918E4997
:100110004968B142069400D104460594029E1E60CF
:1001200016600DAF0024BC7008203880874908A8ED
:100130000790142202F0EEF9701C85490860102027
:1001400002F0E2F9834E3046394602F021F930469A
:10015000079901F03DF980480168069A1143016052
:100160007E48019901607E4908681043086076481E
:1001700040687249884202D0734841600480794ED9
:10018000794F01F013F802F05BF9402003903060E2
:10019000386801210791084338606C700598002881
:1001A00003D169484078002810D17048007B0006D0
:1001B0000CD501F0DDFA002808D00120687000207D
:1001C000286128706049487001F008FF049430BF2E
:1001D00068780528079F09D83946814036200142B2
:1001E00004D0A879002806981ED103E0A879002839
:1001F000204619D0A8715A4A1168B94311605C4968
:10020000096800285B4A00D15B4A03239943784080
:10021000081857490860524E72607D20C00002F0F5
:1002200073F9306838433060A7275448076000F0FE
:1002300037FD064601F04AF902F07BF850480068A5
:1002400000097C2806D8A878401CC1B2A8700329F0
:1002500001D37FE2AC70A8687D21C90001F000FFE6
:10026000687800291DD101281BD14048007B000778
:100270001AD52869401C28612878002806D12869E9
:100280004049491C884201D90120287028693E490B
:10029000884209D36C7001202B49487002F0C4F8E1
:1002A0006878FB2108423BD0384800682F49C96A6A
:1002B00088420DD2E878401CC1B2E870052908D305
:1002C000EC706C7001202049487002F0ADF800E03D
:1002D000EC702E4800682549896A88420ED2287938
:1002E000401CC2B228716878052A09D32C710422F7
:1002F0000243052A04D10220687003E02C7168785B
:1003000002280DD1214800686431884240D3012081
:1003100068702C612C700C48447001F05FFE6878A6
:1003200005284BD878440079400087446A31315A17
:10033000BC92C04620020B40440100203CC3A55A99
:1003400000080340004800405802002098250000A3
:1003500000480840004008402850084000E100E004
:100360000458084090120A4004180940180200205E
:1003700000010B40BF5D00009F0F00000811084006
:100380001C0100205F090000B90B000020010020C3
:10039000042E0ED16C700120ED49487006986871EA
:1003A0002046214602F0AAF801F07AF902F03CF862
:1003B00004E0304600F068FE00F032FA6878052864
:1003C00000D135E1042800D030E16820EF49095C14
:1003D000012900D12CE1ED49085C022800D025E17B
:1003E00026E1042E79D101F0C3F9002800D1A0E064
:1003F000079868702C612C70E848447001F0EEFD9D
:10040000DCE700242046214602F078F805942046D7
:1004100001F046FE012E68D1E0480078002864D142
:10042000EB480068E049C96A8842049C00D2F6E0C3
:100430000120DA490870A86868610320687001F03B
:10044000C7FCD74803990160DE48401C02F05CF805
:10045000E5E0A868E5490968401AE549884258D3AB
:10046000079E6E70DD480470CF4A9068CF490840FF
:10047000906001F087FE01F0D7FFDF4A1078401C42
:10048000C1B21070032903D3DB480470DB48067047
:10049000C548007A4000D249085A00F0E7FA002126
:1004A00002F02CF88AE7CB480068CB49884285D116
:1004B0006820C84A115C01294AD16E27D05BC24925
:1004C000091A0022BC4802F003F8C248C05BBF49C9
:1004D000081A7730C34908802CE1A8686969401A76
:1004E000C149884200D269E74EE1062E59D0052E57
:1004F000049C41D0042E00D091E001F039F900288D
:1005000059D007986870059929612970A3484170EE
:1005100083E080B2B74901F0A3FDC8084B28AB497E
:1005200000D37731AF4801800022A34801F0D0FF0B
:1005300044E76420002601F0F6FF01F0B1F8A0487E
:1005400001F0E2FF304601F0EEFF01F0A9F835E7D7
:10055000115C022929D16C20105A01F067F9074675
:100560009948874200D3984F00229348394601F0BA
:10057000AFFF9C480780DDE06E790598687101F057
:1005800027FC01F0F5F8002849D007996970059A11
:100590002A612A7081484270002E2ED108468F4A67
:1005A0002EE005986871049C39E0105C032811D195
:1005B0006C20105A1DE06420002601F0B4FF01F009
:1005C0006FF87F4801F0A0FF304601F0ACFF01F06A
:1005D00067F824E06B20105C804909780143080625
:1005E00000D0A5E07048007A40007D49085A00F02C
:1005F0003DFA002101F082FF9CE0784A10784840E3
:100600001070694B9968694A1140C0B200020843F2
:10061000986001F0B7FD01F007FF01F0DFFC68789A
:10062000002800D0CBE66879002804D001F038F823
:1006300001F08EFCCBE501F0D1FD002800D1BDE634
:100640005948007B400600D5B8E65348029901603E
:10065000504801606C4801690126F2050A430261B5
:10066000016820220A4302606648036A0096F20687
:10067000111D0B430362624E736E64480340736640
:10068000336803403360736E1343736633681343F8
:1006900033605C4802680A43026002265C480660D8
:1006A0003B490E6001990160444A11460839594896
:1006B000086017603C49097BC9060CD53D4B009882
:1006C00018643B49096804220A4339490A60596899
:1006D00040058143596072B630BF62B601F01EFD1D
:1006E000334A1068042188431060454A506E4A4BD3
:1006F000191D08405066106808401060414908689C
:100700001840086045480660BFF34F8FBFF36F8FF6
:1007100001F072FE2948076001F0E2F82C480068F9
:100720002149C96A884200D848E60598286145E60B
:1007300000F076F8052E00D940E60798B0402E214B
:10074000084200D13AE6304600F09EFC36E6C0464C
:10075000580200200020014601F0D0FE00F0A0FF6A
:10076000104A10680121884310600D480399016107
:1007700001F05AFE02200F4908640D4A1068042156
:100780000143116030BFFDE701F010FE00000020C2
:1007900000E100E00008034000480040580200204B
:1007A00090120A400418094018020020FFFEFFFFC3
:1007B00010ED00E000010B40000009400811084066
:1007C000009F2400BF5D00005F090000E8080000F2
:1007D00020010020000000205453455494010020C3
:1007E000AC2500008C010020E1930400A001002052
:1007F00010270000DC050000AE010020AD01002044
:100800000C80424028100A4090130A40FFFFFFEF7F
:1008100080E200E0070002C9FBFFFFF780E100E093
:10082000F0B585B081480078002800D0FCE0804C0D
:10083000804D287800230428194608D17E4A116883
:10084000A142194603D16B21515C4A1E91417A4A5B
:100850001668A64204D1D38894881C1B6342634166
:1008600000290CD1754C2478002C18D0441E022C81
:1008700005D3041F664266411E40012E0FD1724E01
:1008800030686E4B5B68C01AC0087D2800D2CBE090
:10089000002916D0146F6D480021017016E004285D
:1008A00000D9C1E0012181401620014200D1BBE006
:1008B0006348007A40006349085A00F0D7F80021E5
:1008C000B0E001F07FF9044601F000FD5B4B3068B9
:1008D0005860601C3ED05E48002505705B4805707E
:1008E0005C4804609868411C03D0C108E208801885
:1008F000441A9C605848046064212046039101F02A
:10090000AFFB4F4A3121565C3221515C01913321BA
:10091000515C04910121029189070B4689088342A9
:10092000FBD80AE05919421A074600D317466D084A
:10093000884200D3ED189B083846002BF2D1002ED8
:1009400000D1052603994B20C7000498002816D033
:10095000484316E03D48022101703D480178491C9A
:10096000CAB20170032A5FD30021017028780428DD
:100970005AD00520287030683B49086054E038465A
:10098000C83004900198002801D0484307466E43C0
:100990002B4DA868FF2213040340029A920493424D
:1009A00002D8000CC0B200E0022040002B4A105ECA
:1009B000704301F0E1F98019696A884200DC084659
:1009C00027498C421D4B00D3049F874200DB07461A
:1009D0007D20C000874200DB0746F8178743588810
:1009E0002049884219D000B2391A09B2012905DB21
:1009F00019221201904208DB142207E01322D2438D
:100A000091420ADA1438074607E0052289B296288F
:100A100000DA02228A4200D287185F80B8B200F062
:100A200025F8012101F06AFD05B0F0BD4401002068
:100A3000545345544501002000000020940100203B
:100A400018020020AC2500004C010020AF0100205E
:100A5000AC010020A8010020A4010020BE25000058
:100A6000A4420F00FFFF0000A0010020F0B589B0F4
:100A700006467E4A107BC00700D1F4E07C498F68AF
:100A8000D06A874207D9059614697A48874205D803
:100A90007C4822180CE000264E62E4E076483918C3
:100AA000764801F0DDFA7649884200D308460219FB
:100AB0006E4D6869A969079284180697781A724A78
:100AC00000263146334601F0DDFB2246334601F075
:100AD000D9FC0746ED6985422C4600D33C46644864
:100AE000079B0361C760002F00D1BCE07D20C200DE
:100AF000002D1046089206D010466843214601F0AA
:100B0000AFFA079B089A019503944B21904200D3BA
:100B100010460290480104901E2630465843642136
:100B200001F09EFA024600243846214601F0FDFC01
:100B3000554A234601F0A6FC054638462146079A49
:100B400001F0F3FC07900091059A01F0EEFC4F4A8A
:100B5000234601F097FC089A401906990B1A104693
:100B60001CD904998B42104618D20498431C1E20AD
:100B70000699994212D32F46454BC918A9420DD95F
:100B8000C81B424A00210B4601F07CFB079A009BE0
:100B900001F078FC1E2800D81E20089A07900198C2
:100BA0000028174605D03B48039901F059FA089AE6
:100BB00007469742069D00D31746039821462A46CA
:100BC00001F0B3FC4A07C3089A18CB087D3A089A8B
:100BD000A341144615D30024089A234601F052FC81
:100BE000054603970F462148006A2146089A01F0FE
:100BF0009CFC2A463B46039F069D01F043FC089A55
:100C00000446944200D314460498401C8542079B36
:100C10000FD3214885420BD81E3A6A431F4810184B
:100C2000E121890001F01CFA079B06461E3600E010
:100C30001646029A9342184600D310468742394618
:100C400000D301468C42204600D30846864200D39A
:100C50000646074842618361C7610462466205989F
:100C6000864200D30646B0B209B0F0BD180200209B
:100C7000180100206C07000094F8FFFF80F0FA02D2
:100C800090D00300E093040040420F0000CA9A3B5A
:100C9000A0F6FFFF00093D00E30C0000407ADCFFF6
:100CA000F0B585B001200290C4067D48016821405E
:100CB0000268042002407B4B1D687B4EB5420190C8
:100CC00016D1DD889E88B54212D156255D5D002D76
:100CD00000D00422002D00D0214669241D5D00248F
:100CE000002D00D021466A255B5D002B00D02246F6
:100CF0004B424B41544254416C490A785200D2183D
:100D0000D6B20A703246FF3A554255414A785200EF
:100D1000121933461340D7B208464A700097FF3F76
:100D20007C427C41FF3B5942594104950394254341
:100D300001D1002343800C46002916D0029D0146B4
:100D400085700020C8600861CA78002A2FD0584AF0
:100D500012684B69D21A574B14339A4200D88BE071
:100D60000879002843D0002043E00146C379002BD6
:100D700024D04F4B1B684E699B1B4E4E1436B3421A
:100D800005D94B79002B02D10B79002B44D00020E0
:100D9000002D71D10A79012A6ED14A79002A6BD1CE
:100DA0008A79002A029A67D18A71062064E0CD70A0
:100DB0003F4A12684A61888088715DE0887800281F
:100DC00001D0002058E00A7AFF2E1BD0002A19D04B
:100DD000CA68002A28D03A48354B1B689A1A13462D
:100DE000153B06465136B34221D201201DE00D715C
:100DF0000420354B9A423FD34A79002A3CD14D71A9
:100E0000052039E00020FF2E0FD1002A029D17D1C6
:100E1000274A1268CA6013E0274A1278062A019806
:100E20002AD22648805C27E00020029D08E0254B5E
:100E3000D2188242029D01D3002000E00120400030
:100E40007B427B414A7A002A00D01D46002D08D003
:100E5000002A11D1009AFF2A0ED1154A12680A61A0
:100E60000AE00A69002A07D0114B1B689A1A153A42
:100E7000104B9A4200D20320049A0A72039A4A72D3
:100E8000CC71002809D0114A00211160104A137852
:100E9000002B03D01170084600E0002005B0F0BD23
:100EA00080130A4000000020545345545C01002088
:100EB0004C010020C705000045010020E02500008E
:100EC000BB020000DFFCFFFF88130000540100207C
:100ED00044010020F0B591B00124644E304620302A
:100EE000029001F027FA002800D1A8E003940F2017
:100EF00080020B900720C00206900120079040025C
:100F00000C905E4C6068401C6060204601F0CCF99B
:100F1000E0635B48456884680022099209980228CA
:100F200000D981E01F2A00D97EE0641C102C29D34F
:100F30000A9253484068069A811A4C424C419042AA
:100F40000B9D00D0069D4A4807990160A7204A4999
:100F5000086072B6474F384629460C9A00F034FBB9
:100F600040223846294601F02FFA62B64549086802
:100F70002030086020013118002434504C608C600F
:100F8000CC600A9A0B98281A414241410801301856
:100F9000015D521C0029C1D1001901900998401C23
:100FA0000990A00128180D90002105950A9204943B
:100FB000032932D008912E4807990160A7242E48B2
:100FC00004600027402F1CD22C49C8194068C95919
:100FD0000E910F902848046072B60D98C619254DE1
:100FE000284631460C9A00F0EFFA0EAA2846314600
:100FF00001F01CF962B623490868801C08600837B4
:10100000E0E70D9801F096F90899491C0028174E61
:10101000059D0A9A049CCBD115E0079801990870A8
:1010200017484560846079E715498878401C8870C6
:1010300014480068086103984870002412E01048C2
:10104000002141700EE00D494022029801F062FA41
:101050000B494D608C60002048708870094800681A
:101060000861039C204611B0F0BDC046B8000020C6
:1010700048E00C4000D00C40081108401802002045
:10108000740100204C010020F8B504464148007866
:1010900004286DD80127394681401620014267D0C7
:1010A000FF2005043C488668300C00907D20C0007D
:1010B000FFF7DCFC611E02290DD3052C14D0032C94
:1010C0001FD137490A78002A2CD03002800E53D124
:1010D000009A521C51E032490A78002A13D02E425D
:1010E0004AD0009AFF3248E02C4801782C4C2078F6
:1010F000002926D0002801D00020207000F068FED2
:101100003AE0009A32E0F3B25F00274AD75B8742A9
:1011100024D9330626D0F3B25B00D35A834222D9B6
:10112000761EF6E7F2B2072A26D852001E4BD218D6
:10113000528882421DD9101A761C32281ADD4F704F
:101140001AE07840207000F043FE2078002813D089
:1011500001F0BCF81348006860600DE0002B02D07D
:10116000761E00E00026009A00204870002C04D172
:10117000F8BD761C00204870009A100428400849E9
:10118000097809020818F1B240180349886000F094
:10119000F9FFF8BD4501002018020020AD01002034
:1011A000940100204C010020AC250000F0B587B070
:1011B0000720C002019000214048049001200690C1
:1011C0000E460591022935D002910029019D01D0DA
:1011D0000F20850200270395102F25D02868384955
:1011E00088421ED1284601F05FF8E96B884205D19C
:1011F0006C680598844205D3002004E0012004991E
:10120000C8550EE001200642069E0AD140222D4814
:10121000294601F07FF92C48039941608760069EBA
:1012200005947F1C4035D7E70299491C049810307B
:101230000490C7E7F00702D10698234901E022494C
:101240000878204AC50706D01020019A4A608860B5
:1012500000F05EFD1AE09068C1B2082901D9302083
:10126000105C1072107BD0603120115C002901D11C
:10127000052111543220115C002901D1062111549D
:101280003320115C002901D10821115400260E4F92
:101290003E700A4C20340B494022204601F03AF9B6
:1012A0007E70002D08D03E464021204601F020F9F6
:1012B0000698787001F0B8F807B0F0BDB8000020CB
:1012C0005CAA55AA1802002074010020F0B5394A22
:1012D0008218394BC0183A4D4C790B79002C22D02A
:1012E000466F202B02D00524E70100E0354F2E4049
:1012F000002B00D188273E434667846F2C403C4337
:101300008467446B2D4E34404463846B3440846363
:1013100000244465846554688F26F6433440546045
:101320009468344094600C688979202B09D0064673
:101330007036002B15D1641E4460C46E2C40882783
:1013400015E0641E4460C46E2C401E4E3443C466D7
:10135000046F2C40344304671B4D01246707064685
:1013600007E00527FF0164084460C46E2C403C433D
:10137000C46634682C403C433460C46A0F4D2C4032
:10138000C462046B2C4004630024C4640465C46F0D
:101390008F25ED432C40C46714682C40146019431A
:1013A00002680A4B1340BD220A40D118891C016013
:1013B000F0BDC04684180000041800008888FDFFB6
:1013C00024493E0001040000FFFFFFCF4000FFCF93
:1013D000B0B53A4A80184A6842600A78222A56D83C
:1013E000930001A4E3589F46851400008F14000069
:1013F000851400008F1400008F1400008F1400006B
:101400008F1400008F1400008F1400008F14000050
:101410008F1400008F1400008F1400008F14000040
:101420008F1400008F140000751400008F1400004A
:10143000751400008F1400008F1400008F1400003A
:101440008F1400008F1400008F1400008F14000010
:101450008F1400008F1400008F1400008F14000000
:101460008F1400008F140000751400008F1400000A
:1014700075140000036803242407A34301246407B0
:101480001B1903E0036803242407A34303600B69CB
:10149000C360CB68C46A0A4D25400A4C1C402B1916
:1014A000C3620368084C1C400460097A1143026857
:1014B0003F239A43194051180160B0BD0418000041
:1014C0008888FDFF777702007F00FFFFF8B50124D1
:1014D0002602324D287800280FD0364801461839A8
:1014E000096831422FD12E490968AA6A891A0B2945
:1014F00052D301683143016042E0294F3868A96A3C
:10150000401A3146F331884246D913204006401C28
:101510002449086024490A6822430A602349086074
:10152000234800F0F1FF234801680021C94301600E
:1015300021480168214301604168314341602C70BA
:101540003868A862F8BD0168314301601B48006833
:1015500081B20004800E00D0890819484843194917
:1015600000F07EFD68606978002907D0A968AA6844
:10157000D208C0080818801AA86001E0A8606C7042
:101580000020287008480168A1430160132040062C
:101590000649086003490860F8BDC04618010020EC
:1015A0004C010020000803400011034000480040A7
:1015B000C0D40100485000400051004080A2554076
:1015C00040164000189C0F00F0B583B002920190C5
:1015D000304B314D00918C0A28680727384005268A
:1015E0002E60196889048A0F2860296839402E60A6
:1015F00018682960002A214608D028490840511C53
:1016000000F02EFD0146204600F02AFD0198204AF8
:10161000801801902A683A402E601E4803682A60AC
:101620002A683A402E6003682A60012293020298D9
:10163000984207D0530298420CD10098C30B0BD1AB
:10164000019803E01F210C4001984030A24001683E
:101650009143016003B0F0BDFF290DD82B683B40DA
:101660002E600C4C24682B60A3049B0F019800D1C2
:101670002039CC08001DE9E71302FF339942E9D273
:10168000FF23DB43C918CC0801980830DEE7C046C9
:10169000D01100001800C44100134040FF0F0000AB
:1016A00070B52C480678002E07D02B48007800280B
:1016B00007D02A490520C88005E028482A498180AA
:1016C00043E02648C088254D2978002927D069881D
:1016D000814224D022490A68AB68D21A0C2A1FD34F
:1016E0000968A9606988401A04B2012C09DBA0B21C
:1016F0000A2100F0B5FC0A2C00D8012069880818DE
:101700000DE0604280B20A2100F0AAFC698809223B
:10171000D243944201DB093200E0424288186880DB
:101720006C88022E0CD10F48007B800608D50C482F
:1017300000687D21090100F093FC322900D2A40841
:10174000204600F073F80146A8800848002200F007
:10175000BFFE70BD4501002044010020880100202B
:101760004C010020180200205F0900000000094021
:1017700070B5214D012426022048214901602148ED
:1017800002682243026020480160204800F0BCFE4D
:1017900028680020C14329601D490A6822430A6065
:1017A0004A6832434A601B49491C2A46183A126863
:1017B000324201D10029F7D100291BD01648006818
:1017C00081B22A6832432A600004800E00D0890862
:1017D00012484843124900F043FC124948604868E7
:1017E00088604C7088681049C96A6431884200D8A2
:1017F0000024204670BDC046485000400008034009
:10180000010000260011034000480040C0D4010040
:1018100000510040AF3CFFFF80A255404016400001
:10182000189C0F001801002018020020F8B5234F63
:10183000002840D004462248866822498D69AE427D
:1018400039D90A692048864202D8234810180CE08A
:1018500000921E4831181E4800F002FC1D498842C3
:1018600000D30846009940181649496908180090A5
:10187000701B1A4A00263146334600F003FD009AD9
:10188000334600F0FFFD002815D006460D48C0691C
:1018900044437D20C5002046294600F0E1FB601A44
:1018A000314600F0DDFBA84200D3284678432946A4
:1018B00000F0D6FB3F1AB8B2F8BDC0465F09000081
:1018C00018010020180200206C07000094F8FFFFA8
:1018D00080F0FA0290D00300E093040040420F0031
:1018E00070B5204C012635021F4820490160204870
:1018F0000268324302601F4801601F4800F004FE86
:1019000020680020C04320601C480168314301600A
:101910004168294341601A49084621461839096837
:10192000294202D1411C0028F6D1002818D01548C0
:10193000006881B222682A4322600004800E00D031
:10194000890811484843114900F08AFB1049486052
:1019500088688A68D208801A4A68D2088018886025
:1019600070BDC046485000400008034001000026FA
:101970000011034000480040C0D401000051004065
:10198000B03CFFFF80A2554040164000189C0F005D
:1019900018010020F0B58B4200D1824204D90B001F
:1019A00002000021002040E0002B00D1002A0CD1D1
:1019B0000B00020000210020002B00D1002A01D0E2
:1019C000C943C04300F0A9FB2FE01C0015000B0029
:1019D00002000CB4002126002F00FF19764102D22C
:1019E000491C4029F9D100201E001700FF1976413B
:1019F00002D2401C4028F9D10E1A210028003200E2
:101A000000F0A8FC0C0005000CBC00200021A34243
:101A100000D1AA4201D3521BA341404149416D0864
:101A2000E7073D436408761EF1D5059F002F01D0DE
:101A30003A607B60F0BDFEE7F0B585B00190204CC8
:101A400001200704C00202902764002004900820AF
:101A5000029E002815D078250390284600F054FDFA
:101A60002664284600F050FD049840001549096896
:101A7000C903C90F08180490039826602663401E06
:101A8000E7E70198002803D027602046303001E0C6
:101A900020464030264607600B497825284688476F
:101AA000029C3464284608498847346034632846D9
:101AB0000549884737640498C0B205B0F0BDC046F8
:101AC000A0120A4080130A4009250000FEB50290CA
:101AD0001A4F0120020400920826C0020190019CC6
:101AE000002E19D0029A50B20028009B03D43B600C
:101AF0003846303001E038464030036052000292F0
:101B00007825284600F000FD3C64284600F0FCFCE7
:101B10003C603C63761EE3E700983864084D782407
:101B200020463E46A847019F37642046A8470548FF
:101B30000068376037632046A847FEBDA0120A4000
:101B40000925000080130A40F8B5451C00780023E1
:101B5000082B32D02F78C2070CD16A780F2414409A
:101B6000E41C122C0BD102242E57F4B2002E08D400
:101B7000EE1C0EE06D1C4A1C0F7011461AE0AE1CE4
:101B800008E02E1DED7800957F252C40009DED018D
:101B90002C1912343D0112095219094DAA420ED0D6
:101BA000D243002C05D08D5C4F1C0D70641E39464D
:101BB000F7E7354640085B1CCAE72846C5E7F8BD8D
:101BC000FF0F000070B50025EC4300F0E5F9154E5D
:101BD0008820B0472846B04700F0BCFA00F0DCF996
:101BE0008920B0470120FFF727FF06462846FFF768
:101BF00023FF054600F0AEFA300240190A49884238
:101C00000DD0B10902290AD83109084A104088408C
:101C10000749884200D30846064908600446204622
:101C200070BDC046CD1A0000FFFF0000FF0F00008E
:101C3000C4F77F00A801002010B51249124800F037
:101C4000EFF912484168124A0A4042608168114A1D
:101C50000A40911C81601049104A0A600268012103
:101C60000B04134303600E4A42610E4A136A0C02CE
:101C70002343136213682343136002680A4302601C
:101C800010BDC046C8250000004000400051004083
:101C9000FEFFECFFF8FFE0E0805100400F02000083
:101CA000C05D000028500040BCB51349134C2046CD
:101CB00000F06EFB12492046FFF708FB114801684F
:101CC000114A0A40026000250095204629462A460E
:101CD0002B4600F085FB204629462A4600F04AFBA9
:101CE0004B20410120462A4600F0F2FB0748012123
:101CF00081600160BCBDC046E625000000000940CF
:101D0000D0250000041809407F00FFFF00110940A2
:101D1000FCB512480021BF22019232220092124CDF
:101D200025466435AF273F011E222346C8330F4E98
:101D30000662064624361CC60D4A0263416381636F
:101D4000C1630C4A064B0360416082600199C16027
:101D50000099016103491430A2C0FCBD18020020A3
:101D60005CAA55AA407E0500340800002823000024
:101D700004050608040002001CB5002922D04C0806
:101D8000002900D5494242105440002800D5404265
:101D900000230A00904201D95200FBE790425B41C8
:101DA000904200D3801A914201D25208F6E71900FE
:101DB000002C00D54042640000D5494202000800D2
:101DC00011001CBD0100002000F001F81CBD70478F
:101DD000F8B502240E4D0F4E002C17D069200101DA
:101DE0000D488180002728463A4600F071FB3046B6
:101DF00000F08AFB09490848818028463A4600F0ED
:101E000067FB304600F080FB641EE5E7F8BDC04686
:101E100000000940009F2400880100205F090000A5
:101E20000D48842101600D4901220A630C4A0260B9
:101E3000812282610B4AC266C36EC3668260826879
:101E40008260094A0264036C0364C262C26AC262AD
:101E5000402008600863704704804240A0120A4096
:101E60008400000481000E0081000C00B0B50B4816
:101E70000B4941600B4A51600B4B59608C1E0B4D56
:101E80006C600B4C61600B49016011601960296046
:101E90002160102000F038FBB0BDC04600080A40A9
:101EA000030000B10008094000480040000803405A
:101EB0000008084001000026F8B5044605460C3528
:101EC00000260F4F6088864217D2284608380168DE
:101ED000281F03682A68002A03D0184600F01AFB5E
:101EE00008E00648874205D0481C097889007A58DE
:101EF00019469047761C0C35E4E7F8BD3C260000F7
:101F00003026000070B50D48401C02D00B48FFF78A
:101F1000D3FF0B480B4C84420CD00B4D0B4EB542FB
:101F200008D02A686968501C12789200A25890471D
:101F30000835F4E700BF00BF70BDC046682600004A
:101F40003C260000302600004C26000064260000DD
:101F500080B50D484178012915D10C49097801292E
:101F600011D18178002905D004290CD808490968C5
:101F7000006902E006490968C068081A05498842F4
:101F800001D9FEF7A7FF80BD7401002045010020A4
:101F90004C0100203075000070B50E4D0120040486
:101FA000C6022C642E64782000F0AEFA0A4800685D
:101FB000C00302D400F0CEF870BD2C602C637824EE
:101FC000204600F0A1FA2E602E63204600F09CFA15
:101FD00070BDC046A0120A4080130A4010B50C48DC
:101FE000407A0002FF21C94341184A424A41094C44
:101FF000227001210902884209D100F067F90648E0
:1020000000680021C9436060A1600448608010BD81
:1020100018020020940100204C010020FFFF000066
:10202000F0B511221302C2180C780B4D46590B4F14
:10203000374003262640BC19A9263606A419445168
:102040004C68C55807263606B54334402C19C45091
:1020500048781061F0BDC04608080000FCFFFF0092
:102060001CB50A0017D000230124E407A04200D2C7
:102070000400944201D95200FBE790425B41904238
:1020800000D3801A914201D25208F6E719000200EB
:10209000080011001CBD01000020FFF798FE1CBDC8
:1020A000B0B504460C480178A14213D00470FFF784
:1020B00073FF0A4D8820A8470120A847002C01D1B2
:1020C000204600E0C220A847601E84412001A847A6
:1020D00000F040F8B0BDC046B0010020CD1A0000AD
:1020E000FCB4020C0B0CFF242402FF3420402140DE
:1020F0000C00444315005D4306005E430F00574348
:10210000320C3B0CA818C01832043B040025A1185F
:102110006841C9186841FCBC70477047B0B50B48AE
:10212000012251040A4B1C689502AC431C605C6898
:10213000120594435C6002680A4205D002680A42B4
:1021400002D002680A42F6D1B0BDC04604020B407C
:1021500000010B40F8B501252E04084F3E603E6398
:102160007824204606498847E80238642046044D12
:10217000A8473E642046A847F8BDC046A0120A40C2
:102180000925000080B50848203000F0D3F8002869
:1021900005D0064900228A70054A1268CA60411EAD
:1021A00088410249487080BDB800002074010020B9
:1021B0004C01002010B50649064C204600F06CF991
:1021C0000549204600F094F8F02000F09DF910BD7C
:1021D000E925000000000340D825000007480268F8
:1021E00001680020120108D5490706D504490A7A7A
:1021F000002A02D1497A48424841704780130A4078
:102200005C010020084880F3088800BF00BF00F090
:1022100090F9002801D0FFF775FE0020FDF750FF70
:10222000012000F07BF9C04600040020B0B5074B48
:10223000C4180125C550FF232362E1611168E162E2
:102240005168216300F004F8B0BDC04604110000DD
:1022500082B00094014C019410BD00BFB901002070
:10226000064800210160064801680322914301608D
:1022700041680F22914341607047C04608030B40FC
:1022800000010B4030B514004C4325001C004443B2
:102290006419050010002900FFF722FF001904004F
:1022A0000D002100280030BD10B500220549064B65
:1022B0003C2A04D0845C61405943521CF8E708462C
:1022C00010BDC046C59D1C819301000110B5FFF7EC
:1022D00063FE064C8820A0470120A047C220A047EB
:1022E0001020A047FFF736FF10BDC046CD1A0000F2
:1022F000B0B51122120283180C784D7825434C8812
:102300002C43A4B284508888C988090408189860AE
:10231000B0BD80B5FFF7AAFDFFF782FDFFF7A0FF74
:10232000FFF7C2FCFFF788FCFFF744FF00F064F8FA
:1023300080BD704710B50021054B425C5C5CA24239
:1023400003D1491C4029F8D11446101B10BDC046CA
:102350001802002018B520239B1A04D80100002081
:102360005B42994004E004009140DC4021439040EE
:1023700018BD000010B592008018044A8358072445
:10238000A404A34321405918815010BD3018000007
:1023900010B50122120383180C789C604B7883508F
:1023A0008978014A815010BD0C110000BFF34F8F96
:1023B000034804490160BFF34F8F00BFFDE7C046EB
:1023C0000CED00E00400FA05B0B5044BC41802257A
:1023D0001543C550E161FFF73BFFB0BD041100009C
:1023E00010B5029CA400001911431943014A815001
:1023F00010BDC046501800000348044901605F2129
:10240000490641607047C04600110840430002C9B8
:1024100003480121016003488168491C81607047BD
:10242000485008404401002080B504484078012805
:1024300002D1FEF74FFD80BD012080BD7401002058
:102440002120C00203490860012002040A64C0027E
:1024500008647047A0120A4003228058002805D063
:10246000401E4A1C00230B701146F7E7704700001E
:1024700002480168024A0A430260704748100A4055
:102480000400000840B584B002AE0096FFF782FA5F
:10249000029A039B04B040BD10B5012212038318B9
:1024A0000C789C604978815010BD10B500239A4289
:1024B00003D0CC5CC4545B1CF9E710BD80B50B465F
:1024C00003214258C11D184600F024F880BD0000C9
:1024D00092008018014A81507047C04610180000D1
:1024E00000239A4202D0C1545B1CFAE770470000F7
:1024F0000A46002180B5FFF7F3FF80BD014AD08076
:102500001170704788010020811E091F00BFFCD296
:102510007047000080B5FFF7C8FF80BD00F001F8EC
:10252000FEE700BF70473146E8E72346AAE669E6C2
:08253000704701207047000014
:1025380081B01649411811221202012383500A68FA
:10254800072002400092009AD2B2032A19D0009ABA
:10255800D2B2012A15D00A6802400092009AD2B27B
:10256800032A0ED0009AD2B2012A0AD00A68024081
:1025780000920098C0B2032803D00098C0B2012886
:10258800DDD10098C0B201B07047C046D01300003A
:1025980022000000BF5D00000000000000000200F3
:1025A8000000000005001400320096002C01C20152
:1025B80058022003E803CEFFE2FF00001E003200AD
:1025C8000104000000000000600900000000000095
:1025D800018000000000000000040400040008005E
:0825E8000002000000000000E9
:1025F00000E5000001010052004F830156342EFF18
:10260000332E335F45434F5F8D440A5F5E1C0C00E1
:102610003311DF14144F00FFB5FF157F0938173F42
:10262000005F09039BFF040000064D01FFF000005E
:10263000491B0000BD2400005924000002000000D6
:10264000400000000001000004FFF000F025000041
:10265000000000203C260000180200204426000054
:082660005802002000000000F8
:102668000C00010038250000B801002060000000BF
:1037F00056342E332E335F45434F5F4400000000A4
:10380000FFFFFFFFFFFFFFFFFFFFFFFFFFFFFFFFC8
:10381000FFFFFFFFFFFFFFFFFFFFFFFFFFFFFFFFB8
:10382000FFFFFFFFFFFFFFFFFFFFFFFFFFFFFFFFA8
:10383000FFFFFFFFFFFFFFFFFFFFFFFFFFFFFFFF98
:0400000300002205D2
:00000001FF
