:100000000004002047290000031D0000031D00001C
:1000100000000000000000000000000000000000E0
:10002000000000000000000000000000031D0000B0
:100030000000000000000000031D0000031D000080
:10004000031D000051280000031D000000000000F7
:10005000031D000000000000000000000000000080
:1000600000000000031D0000000000000000000070
:10007000000000000000000000000000031D000060
:10008000DD27000000000000031D0000000000004C
:100090000000000000000000000000000000000060
:1000A000031D000000000000000000000000000030
:1000B000000000000000000000000000031D000020
:1000C0008CB0012402F0FDFA62B6DE4800681F2100
:1000D0000140DD4FF960F868012820460FD0F8682C
:1000E000022820460BD0F8680328204607D0F8687D
:1000F0000428204603D0F868411F48424841D34AAB
:10010000D34949689142039400D1044604940BAC4E
:100110000026A67008202080CE4906AD142228466D
:1001200002F000FCCC48CD490160102002F0F4FB45
:10013000CB48214602F004FBC948294601F028FBC0
:10014000C8480168039A114301601004C649086059
:10015000C649086810430860BD484068BB498842EA
:1001600002D0BB4841600680C14C01F0FFF902F0AB
:100170004DFB402000902060BE480168012205929E
:10018000114301607E700498002807D0BA48007BB4
:10019000000610D4B948BC21032223E0AC484078C3
:1001A000002804D1B4483421405C5A28EED1B34829
:1001B000BC21022216E001F03DFC00280FD00120F6
:1001C000787000243C613C70A1484470204602F0E5
:1001D00043FAAA48BC21445002F0D2F803E0A748F1
:1001E000BC21012242500496A34DA548461C30462E
:1001F00002F092FB7878052809D8059981403620CD
:10020000014204D078790028039821D103E078795D
:10021000002804981CD07871944A1168059B994372
:100220001160984909680028954A00D1964A03232D
:100230009943059D68400818924908608B4C62609C
:100240007D20C00002F068FB2068284320608A4DB2
:10025000A7208E49086000F003FF044601F048FC27
:1002600000F0D0FAB868642102F0CCF800295FD120
:100270000498B8617878052817D8800001A109583A
:1002800083488F46B90200009D020000AB020000C7
:10029000AF020000B3020000B70200007D48007802
:1002A00000287D4808D07D4806E07D4804E07D4870
:1002B00002E07D4800E07D4802967D4EB0477D48D3
:1002C000B047287A0194012421467B4FB8477B48E8
:1002D000B047A87A2146B8477948B04779480068BE
:1002E00004252946B8477848B0477D20C00000F073
:1002F0009DFD2146019CB8477448B047744800886A
:100300002946B8473D467348B047029E4E4FF868AD
:100310000221A847B8693E2806D8411CB96138189F
:10032000202202770846F6E75B2004993954524DA3
:100330006948006800097C2801D802F05BFAB868B7
:100340007D21C90002F05EF87878002919D0FB21E0
:1003500008426CD05B480068E96A884239D2B878B4
:10036000401CC1B2B870052935D30498B8707870B4
:10037000374805994170039802F06EF902F03AFA95
:1003800029E0042801D00128E1D1297B0907DED525
:100390003969491C39613978002906D139694F4AD0
:1003A000521C914201D90121397039694C4A91425C
:1003B000CDD3042801D102F063F8049878700120AD
:1003C00023494870039802F047F902F013FA78784D
:1003D000BDE70498B8703B480068A96A88420FD20C
:1003E000F878401CC2B2F8707878052A0BD3049ACA
:1003F000FA7004220243052A05D10220787004E035
:100400000498F8707878022811D1F44800686431B3
:10041000884267D305987870049939613970E54846
:100420004170084602F018F901F0AAFF7878052813
:1004300000D9A9E178440079400087448453536D82
:10044000C59CC04620020B40200100203CC3A55A99
:10045000A8020020B0290000004808400100002642
:10046000004008402850084000E100E004580840DF
:1004700090120A4004180940680200200000002081
:10048000BF5D000000010B409F0F000008110840F5
:10049000152A0000E0010020002A00001C2A0000AC
:1004A0000E2A00002A2A0000232A0000072A000042
:1004B00011260000432A0000751F00003D2A00009D
:1004C000482A000084010020F82900004C2A00007E
:1004D000D8010020372A0000800100205F090000B9
:1004E000B90B0000042C11D104997970B148059A18
:1004F0004270039C3C71084602F0F0F901F032FAB8
:10050000204602F0A9F802F075F93DE1204600F01E
:100510009BFF00F065FB37E1042C71D101F08AFAF2
:100520000028059900D19BE07970049C3C613C70E7
:10053000A0484470204602F08FF8BC20A0490C501F
:1005400001F01EFF20E1029600263046314602F0FF
:10055000C5F92146012C5BD196480078002857D177
:100560009E480068E96A884200D38DE0BC200121E2
:10057000934A115008E1B8689D490968401A9D499D
:1005800088425DD3059E7E70049C93480470A868E1
:100590008C490840A86001F0A7FF02F02BF9974AA8
:1005A0001078401CC1B21070032903D39348047023
:1005B00093480670287A40008B49085A00F036FCB0
:1005C000002102F08BF9DFE07D4800688549884210
:1005D00000D0D9E068207A4E315C012964D10194C1
:1005E0006E24305B7A49091A0022774802F060F9DC
:1005F000305B019C7749081A773079490880B9E067
:10060000B8687969401A7949884200D2BCE0CEE0E6
:10061000062979D005295DD0042900D0B4E001F085
:1006200009FA00287FD0059878703E613E706148D5
:100630004670304602F010F8BC2061490E507FE74A
:1006400080B26D4901F0DEFEC8084B28614900D335
:1006500077316348018000225B4802F029F993E07A
:10066000BC20574A115064200024214602F036F97C
:1006700001F078F9554802F04FF92046214602F082
:100680002DF901F06FF97FE001204A490870B86840
:1006900078610320787001F06DFD47480099016092
:1006A000029802F039F96FE0315C02292ED10194F1
:1006B0006C20305A01F07AFA04464548844200D34F
:1006C000434C00224048214602F0F2F8444804809E
:1006D000019C4FE03D793E7101F04CFD01F0AAF91B
:1006E00000281AD0059C7C703E613E7031484670EF
:1006F000304601F0B1FFBC2031490E50002D26D10B
:1007000020462E4D344926E03E713DE0305C032802
:1007100031460BD16C20085A15E0BC200599284AB7
:100720001150264D30E0BC2005999AE76B20085CFB
:1007300029490978014308061AD1287A40002A4934
:10074000085A00F073FB002102F0C8F812E02249B9
:1007500008786040194D0870A9681A4A1140C0B263
:1007600000020843A86001F0BFFE02F043F8E7E68C
:1007700000F036FA052C07D80598A0402E21084233
:1007800002D0204600F060FE787805280CD00428BE
:1007900008D168200A49095C012905D00849085C8C
:1007A000022801D001F0DEF801F0A4FD1DE501F002
:1007B000D5FFC046A802002090120A40680200201F
:1007C00000000020FFFEFFFF00000940009F240002
:1007D0005F090000E8080000E0010020840100201B
:1007E000D801002054534554C4290000E19304006B
:1007F000F401002010270000DC05000002020020A8
:1008000001020020F0B587B0DA4C2078002803D12F
:100810000120207001F034FED74E3068D74988425D
:1008200006D1F088B188401A41424141069101E069
:1008300000200690716F6268D1488068914202D1B1
:100840007067716F6160CF4909687161CE4909684D
:10085000B022B150CD4909784E22B154CC49096833
:100860005722B154CB4909687D22890701D0510133
:1008700000E01102B823F1507067C0B2B085C648DD
:100880000088F085C54801883186C54C2168B16172
:100890000088C449081AD700784301F0B3FD2268E4
:1008A000002402F046F802F041F8F061B44DAA6964
:1008B0003262F06902F03DF802F038F87062B24836
:1008C0000268F06902F035F8049702F02FF8B421BD
:1008D0007050B5480068B062B44800687086B4488B
:1008E00000687063B3480068B063B3480068F063A1
:1008F000B24800683064B24800687064B14800686B
:10090000B064B14800784C217054B04800784D2153
:100910007054AF48016801220592D2060A40514244
:1009200051414F22B15400680425284041424141C1
:1009300050203154A748007851217054A6480078BF
:10094000522170548E4F387B4006C00F5321705493
:1009500001F0DCFF5421705401F0C6FF55217054A2
:100960009E480068B0657868F06501F0C3FF3066A6
:1009700001F0C6FF7066854800780699C90700D166
:10098000ADE00146294304294BD07A4805994170CE
:100990007E4806950570914804608E48047001F009
:1009A00035FF774D2F4608378FCF0197EF690297B4
:1009B0002F6A03976F6A7067B167F26780203350C0
:1009C0008420019931508820029931508C2003995C
:1009D000315090203750A86AE96A9422B05098208C
:1009E00031503120285C9C2170543220285C9D219C
:1009F00070543320285C9E2170543461F460682068
:100A0000305C00280AD16C20315A002906D1624995
:100A10000988002902D06049098831525B48007872
:100A2000069D042800D091E0B068002800D188E03D
:100A30006A48046067480470B16805983061B46022
:100A4000881E052800D991E00391C04678440079BA
:100A5000400087444602486457500695706F0590E1
:100A6000B16FC8B20290F06F01908023F0580090EF
:100A700084257559882030588C2171589022B2589D
:100A80003F4F059BBB60029BFB60019B3B61009B52
:100A90007B61BD613B461C3307C3942030589821CD
:100AA0007158B862F9629C21725C1420142A0246C3
:100AB00000D8725C3121324B5A549D22B15C14290A
:100AC000014600D8B15C322299549E21725C142AEE
:100AD000069D00D8705C3321294A505427E0042831
:100AE00034D101F049FE01F0FFFC01F083FE002843
:100AF0001DD104201CE02548047001F0F5FC01F034
:100B000079FE04E021480599017001F039FC19488B
:100B10004470346001F086FE022030610BE001F089
:100B2000FBFC01F067FE002801D1284600E002200E
:100B3000306101F055FA0399F160144800780428F7
:100B400004D1049800F072F910480078094A5178ED
:100B5000012909D12843042806D0547003200B49E9
:100B6000087001F05FFEF46007B0F0BD0520306151
:100B7000E2E7C046EC010020000000205453455439
:100B80006802002084010020800100202101002053
:100B90002C01002000010B40D6010020D8010020CC
:100BA000880100205F0900008C010020A0010020C6
:100BB0009001002094010020980100209C01002059
:100BC000FC010020F80100200002002003020020A8
:100BD00080130A4020010020E101002030010020A4
:100BE000F0B585B081480078002800D0FBE0804C4B
:100BF000804D287800230428194608D17E4A1168C0
:100C0000A142194603D16B21515C4A1E91417A4A97
:100C10001668A64204D1D38894881C1B63426341A2
:100C200000290CD1754C2478002C17D0441E022CBE
:100C300005D3041F664266411E40012E0ED1724E3E
:100C400030686E4B5B68C01A782800D2CBE0002970
:100C500016D0146F6D480021017016E0042800D9E9
:100C6000C1E0012181401620014200D1BBE064486F
:100C7000007A40006349085A00F0D8F80021B0E03B
:100C800001F006F9044601F0F9FC5C4B306858604D
:100C9000601C3ED05E48002505705C4805705D48CC
:100CA00004609868411C03D0C108E2088018441A07
:100CB0009C605948046064212046039101F0A2FB26
:100CC0004F4A3121565C3221515C01913321515CF4
:100CD00004910121029189070B4689088342FBD8C0
:100CE0000AE05919421A074600D317466D08884290
:100CF00000D3ED189B083846002BF2D1002E00D10E
:100D0000052603994B20C7000498002816D04843B5
:100D100016E03E48022101703D480178491CCAB2E4
:100D20000170032A5FD300210170287804285AD06B
:100D30000520287030683C49086054E03846C830C7
:100D400004900198002801D0484307466E432C4D7B
:100D5000A868FF2213040340029A9204934202D827
:100D6000000CC0B200E0022040002C4A105E70432C
:100D700001F0D4F98019696A884200DC08462849E4
:100D80008C421E4B00D3049F874200DB07467D2028
:100D9000C000874200DB0746F8178743588821497F
:100DA000884219D000B2391A09B2012905DB19228B
:100DB0001201904208DB142207E01322D243914231
:100DC0000ADA1438074607E0052289B2962800DAC5
:100DD00002228A4200D287185F80B8B200F026F85B
:100DE000012101F07BFD05B0F0BDC04620010020CF
:100DF000545345542101002000000020E001002050
:100E000068020020C42900002801002003020020FD
:100E100000020020FC010020F8010020D62900007B
:100E2000A4420F00FFFF0000F4010020F0B589B0DC
:100E300006467E4A107BC00700D1F4E07C498F68EB
:100E4000D06A874207D9059614697A48874205D83F
:100E50007C4822180CE000264E62E4E076483918FF
:100E6000764801F0CFFA7649884200D30846021945
:100E70006E4D6869A969079284180697781A724AB4
:100E800000263146334601F0B1FB2246334601F0DD
:100E9000E9FC0746ED6985422C4600D33C46644890
:100EA000079B0361C760002F00D1BCE07D20C2001A
:100EB000002D1046089206D010466843214601F0E6
:100EC000A1FA079B089A019503944B21904200D305
:100ED00010460290480104901E2630465843642173
:100EE00001F090FA024600243846214601F029FD1F
:100EF000554A234601F0B6FC054638462146079A76
:100F000001F01FFD07900091059A01F01AFD4F4A6C
:100F1000234601F0A7FC089A401906990B1A1046BF
:100F20001CD904998B42104618D20498431C1E20E9
:100F30000699994212D32F46454BC918A9420DD99B
:100F4000C81B424A00210B4601F050FB079A009B48
:100F500001F088FC1E2800D81E20089A07900198EE
:100F60000028174605D03B48039901F04BFA089A30
:100F700007469742069D00D31746039821462A4606
:100F800001F0DFFC4A07C3089A18CB087D3A089A9B
:100F9000A341144615D30024089A234601F062FCAD
:100FA000054603970F462148006A2146089A01F03A
:100FB000C8FC2A463B46039F069D01F053FC089A55
:100FC0000446944200D314460498401C8542079B73
:100FD0000FD3214885420BD81E3A6A431F48101888
:100FE000E121890001F00EFA079B06461E3600E05B
:100FF0001646029A9342184600D310468742394655
:1010000000D301468C42204600D30846864200D3D6
:101010000646074842618361C761046246620598DB
:10102000864200D30646B0B209B0F0BD6802002087
:101030007C0100206C07000094F8FFFF80F0FA02AA
:1010400090D00300E093040040420F0000CA9A3B96
:10105000A0F6FFFF00093D00E30C0000407ADCFF32
:10106000F0B585B001200290C4067D48016821409A
:101070000268042002407B4B1D687B4EB542019004
:1010800016D1DD889E88B54212D156255D5D002DB2
:1010900000D00422002D00D0214669241D5D0024CB
:1010A000002D00D021466A255B5D002B00D0224632
:1010B0004B424B41544254416C490A785200D21879
:1010C000D6B20A703246FF3A554255414A7852002C
:1010D000121933461340D7B208464A700097FF3FB3
:1010E0007C427C41FF3B594259410495039425437E
:1010F00001D1002343800C46002916D0029D0146F1
:1011000085700020C8600861CA78002A2FD0584A2C
:1011100012684B69D21A574B14339A4200D88BE0AD
:101120000879002843D0002043E00146C379002B12
:1011300024D04F4B1B684E699B1B4E4E1436B34256
:1011400005D94B79002B02D10B79002B44D000201C
:10115000002D71D10A79012A6ED14A79002A6BD10A
:101160008A79002A029A67D18A71062064E0CD70DC
:101170003F4A12684A61888088715DE0887800285B
:1011800001D0002058E00A7AFF2E1BD0002A19D087
:10119000CA68002A28D03A48354B1B689A1A134669
:1011A000153B06465136B34221D201201DE00D7198
:1011B0000420354B9A423FD34A79002A3CD14D71E5
:1011C000052039E00020FF2E0FD1002A029D17D103
:1011D000274A1268CA6013E0274A1278062A019843
:1011E0002AD22648805C27E00020029D08E0254B9B
:1011F000D2188242029D01D3002000E0012040006D
:101200007B427B414A7A002A00D01D46002D08D03F
:10121000002A11D1009AFF2A0ED1154A12680A61DC
:101220000AE00A69002A07D0114B1B689A1A153A7E
:10123000104B9A4200D20320049A0A72039A4A720F
:10124000CC71002809D0114A00211160104A13788E
:10125000002B03D01170084600E0002005B0F0BD5F
:1012600080130A400000002054534554A801002078
:1012700028010020C705000021010020312A0000BC
:10128000BB020000DFFCFFFF8813000030010020DC
:1012900020010020F0B591B00124644E304620308A
:1012A000029001F01FFA002800D1A8E003940F205B
:1012B00080020B900720C002069001200790400298
:1012C0000C905E4C6068401C6060204601F0B2F9F2
:1012D000E0635B4845688468002209920998022807
:1012E00000D981E01F2A00D97EE0641C102C29D38C
:1012F0000A9253484068069A811A4C424C419042E7
:101300000B9D00D0069D4A4807990160A7204A49D5
:10131000086072B6474F384629460C9A00F0B6FA74
:1013200040223846294601F035FA62B64549086838
:101330002030086020013118002434504C608C604B
:10134000CC600A9A0B98281A414241410801301892
:10135000015D521C0029C1D1001901900998401C5F
:101360000990A00128180D90002105950A92049477
:10137000032932D008912E4807990160A7242E48EE
:1013800004600027402F1CD22C49C8194068C95955
:101390000E910F902848046072B60D98C619254D1D
:1013A000284631460C9A00F071FA0EAA28463146BA
:1013B00001F0F0F862B623490868801C086008371D
:1013C000E0E70D9801F08EF90899491C0028174EA6
:1013D000059D0A9A049CCBD115E0079801990870E5
:1013E00017484560846079E715498878401C887003
:1013F00014480068086103984870002412E01048FF
:10140000002141700EE00D494022029801F08AFA55
:101410000B494D608C600020487088700948006856
:101420000861039C204611B0F0BDC046C0000020FA
:1014300048E00C4000D00C40081108406802002031
:10144000C001002028010020F8B50446414800787A
:1014500004286DD80127394681401620014267D003
:10146000FF2005043C488668300C00907D20C000B9
:10147000FFF7DCFC611E02290DD3052C14D0032CD0
:101480001FD137490A78002A2CD03002800E53D160
:10149000009A521C51E032490A78002A13D02E4299
:1014A0004AD0009AFF3248E02C4801782C4C207832
:1014B000002926D0002801D00020207000F05AFE1C
:1014C0003AE0009A32E0F3B25F00274AD75B8742E6
:1014D00024D9330626D0F3B25B00D35A834222D9F3
:1014E000761EF6E7F2B2072A26D852001E4BD21813
:1014F000528882421DD9101A761C32281ADD4F708C
:101500001AE07840207000F035FE2078002813D0D3
:1015100001F0B4F81348006860600DE0002B02D0C1
:10152000761E00E00026009A00204870002C04D1AE
:10153000F8BD761C00204870009A10042840084925
:10154000097809020818F1B240180349886000F0D0
:10155000CBFFF8BD2101002068020020010200201D
:10156000E001002028010020C4290000F0B587B068
:101570000720C002019000214048049001200690FD
:101580000E460591022935D002910029019D01D016
:101590000F20850200270395102F25D02868384991
:1015A00088421ED1284601F045F8E96B884205D1F2
:1015B0006C680598844205D3002004E0012004995A
:1015C000C8550EE001200642069E0AD140222D4851
:1015D000294601F0A7F92C48039941608760069ECF
:1015E00005947F1C4035D7E70299491C04981030B8
:1015F0000490C7E7F00702D10698234901E0224989
:101600000878204AC50706D01020019A4A608860F1
:1016100000F050FD1AE09068C1B2082901D93020CD
:10162000105C1072107BD0603120115C002901D158
:10163000052111543220115C002901D106211154D9
:101640003320115C002901D10821115400260E4FCE
:101650003E700A4C20340B494022204601F062F9CA
:101660007E70002D08D03E464021204601F030F922
:101670000698787001F0BEF807B0F0BDC0000020F9
:101680005CAA55AA68020020C0010020F0B5394AC2
:101690008218394BC0183A4D4C790B79002C22D066
:1016A000466F202B02D00524E70100E0354F2E4085
:1016B000002B00D188273E434667846F2C403C4373
:1016C0008467446B2D4E34404463846B34408463A0
:1016D00000244465846554688F26F6433440546082
:1016E0009468344094600C688979202B09D00646B0
:1016F0007036002B15D1641E4460C46E2C408827C0
:1017000015E0641E4460C46E2C401E4E3443C46613
:10171000046F2C40344304671B4D012467070646C1
:1017200007E00527FF0164084460C46E2C403C4379
:10173000C46634682C403C433460C46A0F4D2C406E
:10174000C462046B2C4004630024C4640465C46F49
:101750008F25ED432C40C46714682C401460194356
:1017600002680A4B1340BD220A40D118891C01604F
:10177000F0BDC04684180000041800008888FDFFF2
:1017800024493E0001040000FFFFFFCF4000FFCFCF
:10179000B0B53A4A80184A6842600A78222A56D878
:1017A000930001A4E3589F46451800004F1800001D
:1017B000451800004F1800004F1800004F18000097
:1017C0004F1800004F1800004F1800004F1800007D
:1017D0004F1800004F1800004F1800004F1800006D
:1017E0004F1800004F180000351800004F18000077
:1017F000351800004F1800004F1800004F18000067
:101800004F1800004F1800004F1800004F1800003C
:101810004F1800004F1800004F1800004F1800002C
:101820004F1800004F180000351800004F18000036
:1018300035180000036803242407A3430124640728
:101840001B1903E0036803242407A34303600B6907
:10185000C360CB68C46A0A4D25400A4C1C402B1952
:10186000C3620368084C1C400460097A1143026893
:101870003F239A43194051180160B0BD041800007D
:101880008888FDFF777702007F00FFFFF0B583B007
:1018900002920190304B314D00918C0A2868072745
:1018A000384005262E60196889048A0F2860296847
:1018B00039402E6018682960002A214608D028493E
:1018C0000840511C00F09EFD0146204600F09AFDA4
:1018D0000198204A801801902A683A402E601E48DC
:1018E00003682A602A683A402E6003682A60012251
:1018F00093020298984207D0530298420CD1009864
:10190000C30B0BD1019803E01F210C40019840301C
:10191000A24001689143016003B0F0BDFF290DD8DA
:101920002B683B402E600C4C24682B60A3049B0F5B
:10193000019800D12039CC08001DE9E71302FF33DC
:101940009942E9D2FF23DB43C918CC08019808303B
:10195000DEE7C046D01100001800C441001340402B
:10196000FF0F000070B52C480678002E07D02B48DA
:101970000078002807D02A490520C88005E02848BB
:101980002A49818043E02648C088254D29780029CE
:1019900027D06988814224D022490A68AB68D21ACC
:1019A0000C2A1FD30968A9606988401A04B2012C67
:1019B00009DBA0B20A2100F025FD0A2C00D8012085
:1019C000698808180DE0604280B20A2100F01AFD13
:1019D00069880922D243944201DB093200E0424285
:1019E000881868806C88022E0CD10F48007B800616
:1019F00008D50C4800687D21090100F003FD32295B
:101A000000D2A408204600F0D1F80146A88008487A
:101A1000002200F04DFF70BD2101002020010020B8
:101A2000D401002028010020680200205F09000086
:101A30000000094070B5214D0124260220482149AB
:101A4000016021480268224302602048016020486A
:101A500000F062FF28680020C14329601D490A6820
:101A600022430A604A6832434A601B49491C2A469D
:101A7000183A1268324201D10029F7D100291BD04F
:101A80001648006881B22A6832432A600004800E3A
:101A900000D0890812484843124900F0B3FC1249AB
:101AA0004860486888604C7088681049C96A643129
:101AB000884200D80024204670BDC04648500040EF
:101AC00000080340010000260011034000480040C8
:101AD000C0D4010000510040AF3CFFFF80A2554040
:101AE00040164000189C0F007C0100206802002076
:101AF000B0B5274C2078002811D0274801252902AD
:101B00000246183A1268D20521D4224A1268A36A02
:101B1000D21A0B2A3AD302680A43026034E01D4805
:101B20000168A26A891A642930D31B490A68002215
:101B3000D2430A6019490A6801231A430A604A68B5
:101B40001D0215434D6023700068A062B0BD02689D
:101B50000A4302601248006881B20004800E00D07F
:101B6000890810484843104900F04CFC60606178D7
:101B7000002907D0A168A268D208C0080818801AF6
:101B8000A06001E0A060657000202070B0BDC0467C
:101B90007C010020280100204850004000510040F6
:101BA00080A2554040164000189C0F00F8B5234F06
:101BB000002840D004462248866822498D69AE42FA
:101BC00039D90A692048864202D8234810180CE007
:101BD00000921E4831181E4800F014FC1D4988422E
:101BE00000D3084600994018164949690818009022
:101BF000701B1A4A00263146334600F0F7FC009A63
:101C0000334600F02FFE002815D006460D48C06967
:101C100044437D20C5002046294600F0F3FB601AAE
:101C2000314600F0EFFBA84200D32846784329460E
:101C300000F0E8FB3F1AB8B2F8BDC0465F090000EB
:101C40007C010020680200206C07000094F8FFFF70
:101C500080F0FA0290D00300E093040040420F00AD
:101C6000F0B58B4200D1824204D90B000200002162
:101C7000002040E0002B00D1002A0CD10B00020014
:101C800000210020002B00D1002A01D0C943C0430D
:101C900000F0F5FB2FE01C0015000B0002000CB457
:101CA000002126002F00FF19764102D2491C40294D
:101CB000F9D100201E001700FF19764102D2401C06
:101CC0004028F9D10E1A21002800320000F01AFD38
:101CD0000C0005000CBC00200021A34200D1AA4248
:101CE00001D3521BA341404149416D08E7073D43E1
:101CF0006408761EF1D5059F002F01D03A607B6005
:101D0000F0BDFEE7F0B585B00190204C012007043E
:101D1000C00202902764002004900820029E002840
:101D200015D078250390284600F0F6FD2664284655
:101D300000F0F2FD0498400015490968C903C90F75
:101D400008180490039826602663401EE7E7019870
:101D5000002803D027602046303001E02046403084
:101D6000264607600B49782528468847029C34643C
:101D7000284608498847346034632846054988471F
:101D800037640498C0B205B0F0BDC046A0120A4046
:101D900080130A4019290000FEB502901A4F012055
:101DA000020400920826C0020190019C002E19D066
:101DB000029A50B20028009B03D43B603846303072
:101DC00001E03846403003605200029278252846F0
:101DD00000F0A2FD3C64284600F09EFD3C603C63A0
:101DE000761EE3E700983864084D782420463E4686
:101DF000A847019F37642046A84705480068376018
:101E000037632046A847FEBDA0120A4019290000EA
:101E100080130A40F8B5451C00780023082B32D007
:101E20002F78C2070CD16A780F241440E41C122CBE
:101E30000BD102242E57F4B2002E08D4EE1C0EE073
:101E40006D1C4A1C0F7011461AE0AE1C08E02E1DD6
:101E5000ED7800957F252C40009DED012C19123462
:101E60003D0112095219094DAA420ED0D243002C4D
:101E700005D08D5C4F1C0D70641E3946F7E7354662
:101E800040085B1CCAE72846C5E7F8BDFF0F000005
:101E900070B50025EC4300F051FA154E8820B0478C
:101EA0002846B04700F008FB00F048FA8920B04708
:101EB0000120FFF727FF06462846FFF723FF0546C8
:101EC00000F0FAFA300240190A4988420DD0B109EF
:101ED00002290AD83109084A104088400749884237
:101EE00000D30846064908600446204670BDC04637
:101EF000991D0000FFFF0000FF0F0000C4F77F00E6
:101F0000FC01002010B51249124800F05BFA12489B
:101F10004168124A0A4042608168114A0A40911C95
:101F200081601049104A0A60026801210B041343C2
:101F300003600E4A42610E4A136A0C022343136285
:101F400013682343136002680A43026010BDC04651
:101F5000E02900000040004000510040FEFFECFF7F
:101F6000F8FFE0E0805100400F020000C05D00007B
:101F700028500040FEB50C46002812D00546002728
:101F8000002D18D00A262846314600F03BFA464379
:101F9000A91B30220A43791C6B46DA5505460F46C9
:101FA000EEE7684630210170012704E0781C69469D
:101FB0003022CA550746A742F8D308488169012F45
:101FC0000ADB3E2908D87F1E6A46BA5C4B1C836137
:101FD00041180A771946F2E7FEBDC04620010020ED
:101FE000FCB5174807460837FCCF016A0091416AE3
:101FF000019114494A678B67CC6780228D508422F7
:102000008E5088228F508C22009B8B509022019BF7
:102010008B50826AC36A94240A5198228B503122D1
:10202000825C9C23CA543222825C9D23CA54332290
:10203000805C9E228854486F03494860FCBDC046BE
:102040006802002000000020EC010020BCB513490C
:10205000134C204600F074FB12492046FFF716FB94
:1020600011480168114A0A40026000250095204687
:1020700029462A462B4600F099FB204629462A4647
:1020800000F050FB4B20410120462A4600F010FC96
:102090000748012181600160BCBDC046502A000094
:1020A00000000940E8290000041809407F00FFFFF4
:1020B00000110940FCB512480021FF220192322292
:1020C0000092124C25466435AF273F011E2223465D
:1020D000C8330F4E0662064624361CC60D4A0263FC
:1020E00041638163C1630C4A064B036041608260B7
:1020F0000199C1600099016103491430A2C0FCBD7F
:10210000680200205CAA55AA407E05003408000041
:102110002823000004050608040002001CB500295D
:1021200022D04C08002900D54942421054400028D2
:1021300000D5404200230A00904201D95200FBE73B
:1021400090425B41904200D3801A914201D25208E2
:10215000F6E71900002C00D54042640000D5494242
:102160000200080011001CBD0100002000F001F871
:102170001CBD7047F8B502240E4D0F4E002C17D031
:10218000692001010D488180002728463A4600F069
:102190008FFB304600F0C0FB094908488180284683
:1021A0003A4600F085FB304600F0B6FB641EE5E7DA
:1021B000F8BDC04600000940009F2400D401002063
:1021C0005F0900000D48842101600D4901220A6366
:1021D0000C4A0260812282610B4AC266C36EC366EA
:1021E000826082688260094A0264036C0364C2628E
:1021F000C26AC2624020086008637047048042409F
:10220000A0120A408400000481000E0081000C002E
:10221000B0B50B480B4941600B4A51600B4B5960FC
:102220008C1E0B4D6C600B4C61600B4901601160A2
:10223000196029602160102000F06EFBB0BDC0461F
:1022400000080A40030000B10008094000480040AF
:10225000000803400008084001000026F8B50446C5
:1022600005460C3500260F4F6088864217D2284657
:1022700008380168281F03682A68002A03D0184616
:1022800000F050FB08E00648874205D0481C09785A
:1022900089007A5819469047761C0C35E4E7F8BD5A
:1022A000B42A0000A82A000070B50D48401C02D0D6
:1022B0000B48FFF7D3FF0B480B4C84420CD00B4D5F
:1022C0000B4EB54208D02A686968501C12789200FB
:1022D000A25890470835F4E700BF00BF70BDC04664
:1022E000E02A0000B42A0000A82A0000C42A000046
:1022F000DC2A000080B50D484178012915D10C4930
:102300000978012911D18178002905D004290CD838
:1023100008490968006902E006490968C068081AA6
:102320000549884201D9FEF7B5FF80BDC0010020F4
:1023300021010020280100203075000070B50E4DED
:1023400001200404C6022C642E64782000F0E4FA14
:102350000A480068C00302D400F0AEF870BD2C60DB
:102360002C637824204600F0D7FA2E602E63204696
:1023700000F0D2FA70BDC046A0120A4080130A4095
:1023800010B50C48407A0002FF21C94341184A4267
:102390004A41094C227001210902884209D100F00A
:1023A0006DF9064800680021C9436060A1600448D7
:1023B000608010BD68020020E0010020280100209C
:1023C000FFFF0000F0B511221302C2180C780B4D6C
:1023D00046590B4F374003262640BC19A92636061E
:1023E000A41944514C68C55807263606B5433440F5
:1023F0002C19C45048781061F0BDC0460808000090
:10240000FCFFFF001CB50A0017D000230124E407DD
:10241000A04200D20400944201D95200FBE790424E
:102420005B41904200D3801A914201D25208F6E7F4
:1024300019000200080011001CBD01000020FFF778
:1024400098FE1CBDFCB4020C0B0CFF242402FF34CC
:10245000204021400C00444315005D4306005E43CC
:102460000F005743320C3B0CA818C01832043B0431
:102470000025A1186841C9186841FCBC7047704725
:102480000B49002048700B490860C8808860C8600C
:1024900068228854692288546A2288546B2288549E
:1024A000562288546C2288526E22885208677047E0
:1024B000EC01002000000020F8B501252E04084F93
:1024C0003E603E637824204606498847E802386427
:1024D0002046044DA8473E642046A847F8BDC046A4
:1024E000A0120A401929000080B50848203000F0E9
:1024F000F9F8002805D0064900228A70054A1268BA
:10250000CA60411E88410249487080BDC000002059
:10251000C00100202801002080B507480068074955
:10252000884204D1FFF7C6FDFFF7DEFF80BD0448F7
:102530000121017080BDC046680200205CAA55AA36
:10254000C001002010B50649064C204600F094F961
:102550000549204600F0A4F8F02000F0DDF910BD98
:10256000532A000000000340F0290000084880F3CF
:10257000088800BF00BF00F0E8F9002801D0FFF78D
:1025800093FE0020FDF79CFD012000F0D5F9C04628
:1025900000040020B0B5074BC4180125C550FF2327
:1025A0002362E1611168E1625168216300F004F87F
:1025B000B0BDC0460411000082B00094014C0194EB
:1025C00010BD00BF09020020064800210160064836
:1025D000016803229143016041680F2291434160E9
:1025E0007047C04608030B4000010B4030B5140093
:1025F0004C4325001C0044436419050010002900C9
:10260000FFF720FF001904000D002100280030BD55
:1026100010B507498A690378002B08D03E2A06D8EE
:10262000401C541C8C618A1813772246F3E710BDB6
:102630002001002010B500220549064B3C2A04D099
:10264000845C61405943521CF8E7084610BDC046FF
:10265000C59D1C819301000180B5002800D05A203F
:10266000054934228B5C834204D08854FFF73CFF39
:1026700000F0C0F880BDC0466802002010B5FFF72A
:102680005DFE064C8820A0470120A047C220A0473D
:102690001020A047FFF710FF10BDC046991D000095
:1026A000B0B51122120283180C784D7825434C885E
:1026B0002C43A4B284508888C988090408189860FB
:1026C000B0BD80B5FFF7A4FDFFF77CFDFFF77CFFF1
:1026D000FFF7BCFCFFF716FCFFF734FF00F072F8C1
:1026E00080BD000010B50021054B425C5C5CA2423D
:1026F00003D1491C4029F8D11446101B10BDC04617
:102700006802002018B520239B1A04D8010000207D
:102710005B42994004E004009140DC40214390403A
:1027200018BD000010B592008018044A8358072491
:10273000A404A34321405918815010BD3018000053
:1027400010B50122120383180C789C604B788350DB
:102750008978014A815010BD0C110000BFF34F8FE2
:10276000034804490160BFF34F8F00BFFDE7C04637
:102770000CED00E00400FA05BFF34F8F0348044955
:102780000160BFF34F8F00BFFDE7C0460CED00E0D6
:102790000400FA05B0B5044BC41802251543C55012
:1027A000E161FFF709FFB0BD0411000010B5029C04
:1027B000A400001911431943014A815010BDC046BD
:1027C000501800000348044901605F214906416038
:1027D0007047C04600110840430002C90348012168
:1027E000016003488168491C816070474850084077
:1027F0002001002080B504484078012802D1FEF76E
:1028000049FD80BD012080BDC00100202120C00203
:1028100003490860012002040A64C002086470478A
:10282000A0120A4068203454692034546A20345479
:102830006B203454562034547047032280580028AB
:1028400005D0401E4A1C00230B701146F7E7704765
:1028500002480168024A0A430260704748100A4071
:102860000400000840B584B002AE0096FFF7F8F906
:10287000029A039B04B040BD10B5012212038318D5
:102880000C789C604978815010BD10B500239A42A5
:1028900003D0CC5CC4545B1CF9E710BD80B50B467B
:1028A00003214258C11D184600F03CF880BD0000CD
:1028B00092008018014A81507047C04610180000ED
:1028C00000239A4202D0C1545B1CFAE77047000013
:1028D0000A46002180B5FFF7F3FF80BD014AD08092
:1028E00011707047D4010020014880787047C046BD
:1028F000C0010020014840687047C046C001002068
:10290000014880687047C046C001002001484078F7
:102910007047C046C0010020811E091F00BFFCD2C5
:102920007047000080B5FFF7B0FF80BD3A462346F0
:1029300098E72146234659E600F001F8FEE700BF7C
:102940007047234652E611E67047012070470000A9
:1029500081B01649411811221202012383500A68DE
:10296000072002400092009AD2B2032A19D0009A9E
:10297000D2B2012A15D00A6802400092009AD2B25F
:10298000032A0ED0009AD2B2012A0AD00A68024065
:1029900000920098C0B2032803D00098C0B201286A
:1029A000DDD10098C0B201B07047C046D01300001E
:1029B00022000000BF5D00000000000000000200D7
:1029C0000000000005001400320096002C01C20136
:1029D00058022003E803CEFFE2FF00001E00320091
:1029E0000104000000000000600900000000000079
:1029F00001800000000000006D56204D61783A0013
:102A00005B4D414E5D20005B4552525D20005B4CAA
:102A100056505D20005B4F46465D20005B414C53A5
:102A20005D20005B5453545D20005B464C535D2099
:102A300000000404000400205273743A00204F6622
:102A4000733A004C766C3A0020563A0020503A0017
:082A5000080000020000000074
:102A580000E5000001010052004F830156342E7F2B
:102A6800332E345F4442470A3F69FE11FF05496E21
:102A7800697469616CFF697A696E672E2E2E661417
:102A88004F231C0C0033181F0EFFFF1A3F092D3867
:102A98001BFF005F09039BFF00000DDF0600FFF02E
:102AA800151E00009D2800003B28000002000000C1
:102AB800400000000001000004FFF000582A000058
:102AC80000000020B42A000068020020BC2A000090
:082AD800A8020020000000002C
:102AE0000C000100502900000802002060000000D6
:1037F00056342E332E345F44424700000000000050
:10380000FFFFFFFFFFFFFFFFFFFFFFFFFFFFFFFFC8
:10381000FFFFFFFFFFFFFFFFFFFFFFFFFFFFFFFFB8
:10382000FFFFFFFFFFFFFFFFFFFFFFFFFFFFFFFFA8
:10383000FFFFFFFFFFFFFFFFFFFFFFFFFFFFFFFF98
:040000030000256D67
:00000001FF
