:100000000004002077290000231D0000231D0000AC
:1000100000000000000000000000000000000000E0
:10002000000000000000000000000000231D000090
:100030000000000000000000231D0000231D000040
:10004000231D000069280000231D0000000000009F
:10005000231D000000000000000000000000000060
:1000600000000000231D0000000000000000000050
:10007000000000000000000000000000231D000040
:10008000F527000000000000231D00000000000014
:100090000000000000000000000000000000000060
:1000A000231D000000000000000000000000000010
:1000B000000000000000000000000000231D000000
:1000C0008EB0012402F009FB62B6AC4800681F2123
:1000D0000140AB4EF160F068012820460FD0F06877
:1000E000022820460BD0F0680328204607D0F0688D
:1000F0000428204603D0F068411F48424841A14BE4
:10010000132149060291079421040191F1689E4A46
:100110005268D31A5A1E9341002900D00346069311
:100120000DAC0027A77008202080984908AD142244
:10013000284602F00FFC0298401C954908601020E8
:1001400002F0F6FB934821463C4602F005FB91483D
:10015000294601F0D3FA90480168079A11430160DB
:100160008E48019901608E480168114301608648FC
:1001700040688449884202D0834841600470894DB8
:10018000894F01F01BF902F04DFB402003902860DD
:10019000386801210591084338607470069800287A
:1001A00009D08248007B000605D501F0F9FB002844
:1001B00001D002F0C2FB7D4F04947D4802F0B8FBF1
:1001C000A7217C480791016000F02CFF054601F053
:1001D00045FC00F01BFBB068642102F01DF900290A
:1001E00060D1B4617078052817D8800001A1095842
:1001F00071488F46290200000D0200001B0200001A
:100200001F02000023020000270200006B48007854
:1002100000286B4808D06B4806E06B4804E06B4848
:1002200002E06B4800E06B486B4FB8476B48B8473B
:100230005E48007A069501252946694CA047694821
:10024000B8475A48807A2946A0476748B847674860
:10025000006804242146624A90476548B8477D20DB
:10026000C00000F0C5FD29465D4A90476148B84787
:10027000614800882146049D594CA0475F48B84713
:10028000F0680221A047B0693E2806D8411CB16140
:100290003018202202770846F6E75B202C463554BA
:1002A000424F069D5648006800097C2806D8B07861
:1002B000401CC1B2B070032901D345E2B470B068EC
:1002C0007D21C90002F0A8F87078002918D1012812
:1002D00016D1387B000716D53069401C3061307864
:1002E000002805D130694749884201D3059830700C
:1002F00030694549884206D3747002F087FA7078F5
:10030000FB21084230D039480068F96A88420AD295
:10031000F078401CC1B2F070052905D3F4707470F8
:1003200002F074FA00E0F47030480068B96A88425C
:100330000ED23079401CC2B230717078052A09D3D0
:10034000347104220243052A04D10220707003E0B4
:1003500034717078022807D12448006864318842DB
:1003600054D302F0EAFA707805285AD87844007914
:1003700040008744734B4B69BE95C04620020B403A
:10038000180100203CC3A55A98020020E029000073
:1003900000480840004008402850084000E100E0C4
:1003A0000458084090120A400418094058020020DE
:1003B000C05D000008110840452A0000D40100205B
:1003C000302A00004C2A00003E2A00005A2A000071
:1003D000532A0000372A00004D2600006D2A000035
:1003E000951F0000672A0000722A00007C0100208F
:1003F000282A0000762A0000CC010020612A000093
:1004000078010020110E000069100000042D03D1B6
:10041000747002F0FBF904E0284601F05FF800F088
:10042000C1FB707805280CD0042808D16820E34966
:10043000095C012905D0E149085C022801D001F0DE
:1004400047FA01F061FFB8E6042D6DD101F0A8FA7A
:10045000002800D18EE002F070FAE2E7002006905A
:10046000014602F047FA2946012D65D1C5480078BA
:10047000002861D1CF480068F96A884200D2C4E000
:10048000C04805990170B06870610320707001F078
:100490007BFEBD4803990160C34802F049FAB4E00D
:1004A000B068CB490968401ACA49884252D30599B5
:1004B0007170BF480470B86809028843B86002F0E0
:1004C0001DF802F0A3F9C54A1078401CC1B21070A3
:1004D000032904D3C14804700598C1490870387ACB
:1004E0004000B849085A00F083FC002102F002FAEB
:1004F00097E7B2480068B249884292D106956820D1
:10050000AE4D295C012941D16E24285BAE49091A00
:100510000022A24802F0D8F9285B049CA349081ADB
:100520007730A549088002E1B0687169401AA7498F
:10053000884200D275E721E105293CD0042964D125
:1005400001F02EFA002855D0059870700698306199
:10055000307045E080B2A04901F05EFFC8084B282A
:10056000924900D377319448018000228B4802F0F1
:10057000ABF956E702F0EAF901F0AAF9894802F06E
:10058000D7F902F0DFF901F0A3F94AE7295C022963
:1005900029D16C20285A01F0BFFA04468A488442C7
:1005A00000D3894C00227D48214602F08DF9824813
:1005B0000480049CBBE001F0E7FD01F0F1F90028A4
:1005C00023D00599717006983061307078480170B9
:1005D000B86809020143B96001F090FF02F016F912
:1005E00001F0D8FE11E0285C032800D08CE06C20DC
:1005F000285A96E002F0AAF901F06AF9694802F077
:1006000097F902F09FF901F063F97078002800D0A3
:1006100008E701F0B5FF002800D102E7387B40066B
:1006200000D5FEE602987149086071490860714A78
:100630001069059BD9050143116110682021014310
:100640001160694D2A6AD906081D02432A62654B6A
:100650005A6E694C22405A661A6822401A605A6ED5
:100660000A435A661A680A431A60296801432960D6
:10067000022462490C6042480460019808604849BD
:10068000084608385E4A026007980860387BC00652
:100690000CD5059A404FFA633E4B1868042101437C
:1006A00019603868510588433860394F72B630BFD9
:1006B00062B601F0EFFE374A1068042188431060EB
:1006C000484A506E4F4B191D08405066106808404C
:1006D000106045490868184008604B480460BFF343
:1006E0004F8FBFF36F8F02F079F82D4807990160A3
:1006F00001F06CFA2F480068F96A8842049C00D81F
:100700008FE6069830618CE66B20285C28490978D2
:100710000143080609D1387A40002A49085A00F0F6
:1007200067FB002102F0E6F801E000F03BFA0698D2
:10073000052800D975E6059A82402E210A4200D18B
:100740006FE600F0CBFE6CE60020014602F0D2F826
:1007500001F0BEF80D490868059A904308600A4800
:100760000399016102F052F802200B49C863094A5B
:10077000106804210143116030BFFDE701F0FAFF6A
:1007800000E100E09802002090120A40041809409D
:100790005802002010ED00E004010B400000094069
:1007A00008110840009F2400C05D0000E808000018
:1007B000D40100207C010020CC010020000000209A
:1007C00054534554F42900005F090000E1930400EC
:1007D000E001002010270000DC050000EE010020F1
:1007E000ED0100200C80424028100A4000480040E3
:1007F0000008034090130A40FFFFFFEF80E200E093
:10080000070002C9FBFFFFF780E100E0F0B587B009
:10081000CA4E3068CA49884206D1F088B188401A69
:1008200041424141069101E000200690C548006820
:100830007061C5480068B0217050C44800784E21EE
:100840007054C348006857217054C24988680D46E7
:100850007067C0B2B085C0480088F085BF48018885
:100860003186BF4C2168B1610088BE49081A7D22DB
:10087000D700784301F0D0FD2268002402F071F81F
:1008800002F06CF8F061AA693262F06902F069F86E
:1008900002F064F87062AC480268F06902F061F836
:1008A000049702F05BF8B4217050AF480068B06262
:1008B000AE4800687086AE4800687063AD48006856
:1008C000B063AD480068F063AC4800683064AC4881
:1008D00000687064AB480068B064AB4800784C2195
:1008E0007054AA4800784D217054A948016801222B
:1008F0000592D2060A40514251414F22B15400683C
:10090000042528404142414150203154A1480078FB
:1009100051217054A0480078522170548D4F387B7B
:100920004006C00F5321705401F0FCFF5421705455
:1009300001F0E6FF5521705498480068B06578686A
:10094000F06501F0E3FF306601F0E6FF70667F4876
:1009500000780699C90700D1A5E00146294304297A
:1009600047D08F480599017078480695057001F0C9
:1009700059FF784D2F4608378FCF0197EF690297BF
:100980002F6A03976F6A7067B167F26780203350F0
:100990008420019931508820029931508C2003998C
:1009A000315090203750A86AE96A9422B0509820BC
:1009B00031503120285C9C2170543220285C9D21CC
:1009C00070543320285C9E2170543461F460682098
:1009D000305C00280AD16C20315A002906D15E49CA
:1009E0000988002902D05C490988315257480078AB
:1009F000069D042800D08DE0B068002800D184E076
:100A0000B16805983061B460881E052800D991E06E
:100A10000391C04678440079400087444602486408
:100A200057500695706F0590B16FC8B20290F06F85
:100A300001908023F0580090842575598820305803
:100A40008C2171589022B258424F059BBB60029B8B
:100A5000FB60019B3B61009B7B61BD613B461C339E
:100A600007C39420305898217158B862F9629C21CC
:100A7000725C1420142A024600D8725C3121354B76
:100A80005A549D22B15C1429014600D8B15C32222F
:100A900099549E21725C142A069D00D8705C332103
:100AA0002C4A505427E0042834D101F071FE01F0A3
:100AB00025FD01F0ABFE00281DD104201CE02348D9
:100AC000047001F01BFD01F0A1FE04E01F48059930
:100AD000017001F05FFC32480470346001F0AEFE3A
:100AE000022030610BE001F021FD01F08FFE0028B3
:100AF00001D1284600E00220306101F0E9FA0399B3
:100B0000F16012480078042804D1049800F070F9CC
:100B10000E48007822490A78012A09D1284304287E
:100B200006D00C7003200949087001F087FEF460BC
:100B300007B0F0BD05203061E2E7C04600000020AC
:100B4000545345547C0100207801002019010020F5
:100B50002401002058020020CA010020CC010020FE
:100B6000800100205F09000084010020980100201E
:100B7000880100208C0100209001002094010020B9
:100B8000E8010020E4010020EC010020EF0100203A
:100B900080130A4018010020D50100202801002000
:100BA000F0010020F0B585B081480078002800D021
:100BB000FBE0804C804D287800230428194608D19A
:100BC0007E4A1168A142194603D16B21515C4A1E2D
:100BD00091417A4A1668A64204D1D38894881C1B96
:100BE0006342634100290CD1754C2478002C17D046
:100BF000441E022C05D3041F664266411E40012E8E
:100C00000ED1724E30686E4B5B68C01A782800D2E5
:100C1000CBE0002916D0146F6D480021017016E05A
:100C2000042800D9C1E0012181401620014200D1F1
:100C3000BBE06448007A40006349085A00F0D8F8E5
:100C40000021B0E001F034F9044601F023FD5C4BD3
:100C500030685860601C3ED05E48002505705C48D6
:100C600005705D4804609868411C03D0C108E20823
:100C70008018441A9C6059480460642120460391FE
:100C800001F0CAFB4F4A3121565C3221515C01917F
:100C90003321515C04910121029189070B46890897
:100CA0008342FBD80AE05919421A074600D3174677
:100CB0006D08884200D3ED189B083846002BF2D10E
:100CC000002E00D1052603994B20C7000498002868
:100CD00016D0484316E03E48022101703D48017895
:100CE000491CCAB20170032A5FD300210170287821
:100CF00004285AD00520287030683C49086054E028
:100D00003846C83004900198002801D0484307466F
:100D10006E432C4DA868FF2213040340029A9204EC
:100D2000934202D8000CC0B200E0022040002C4ADE
:100D3000105E704301F0FCF98019696A884200DC9A
:100D4000084628498C421E4B00D3049F874200DB93
:100D500007467D20C000874200DB0746F81787431F
:100D600058882149884219D000B2391A09B201299C
:100D700005DB19221201904208DB142207E013223E
:100D8000D24391420ADA1438074607E0052289B2B5
:100D9000962800DA02228A4200D287185F80B8B211
:100DA00000F026F8012101F0A5FD05B0F0BDC04618
:100DB0001801002054534554190100200000002060
:100DC000D401002058020020F42900002001002056
:100DD000EF010020EC010020E8010020E4010020E8
:100DE000062A0000A4420F00FFFF0000E0010020DF
:100DF000F0B589B006467E4A107BC00700D1F4E00A
:100E00007C498F68D06A874207D9059614697A4869
:100E1000874205D87C4822180CE000264E62E4E0A8
:100E200076483918764801F0F7FA7649884200D3B7
:100E3000084602196E4D6869A969079284180697D9
:100E4000781A724A00263146334601F0EDFB2246FD
:100E5000334601F013FD0746ED6985422C4600D369
:100E60003C466448079B0361C760002F00D1BCE08B
:100E70007D20C200002D1046089206D0104668431F
:100E8000214601F0C9FA079B089A019503944B216A
:100E9000904200D310460290480104901E2630462E
:100EA0005843642101F0B8FA02460024384621462E
:100EB00001F05FFD554A234601F0E0FC0546384647
:100EC0002146079A01F055FD07900091059A01F01F
:100ED00050FD4F4A234601F0D1FC089A401906996B
:100EE0000B1A10461CD904998B42104618D204984C
:100EF000431C1E200699994212D32F46454BC91810
:100F0000A9420DD9C81B424A00210B4601F08CFBB7
:100F1000079A009B01F0B2FC1E2800D81E20089AF8
:100F2000079001980028174605D03B48039901F027
:100F300073FA089A07469742069D00D3174603980E
:100F400021462A4601F015FD4A07C3089A18CB0826
:100F50007D3A089AA341144615D30024089A2346E3
:100F600001F08CFC054603970F462148006A214694
:100F7000089A01F0FEFC2A463B46039F069D01F0BD
:100F80007DFC089A0446944200D314460498401C01
:100F90008542079B0FD3214885420BD81E3A6A43EE
:100FA0001F481018E121890001F036FA079B064618
:100FB0001E3600E01646029A9342184600D31046A9
:100FC0008742394600D301468C42204600D308466A
:100FD000864200D30646074842618361C7610462C6
:100FE00046620598864200D30646B0B209B0F0BD0D
:100FF00058020020740100206C07000094F8FFFFE5
:1010000080F0FA0290D00300E093040040420F0009
:1010100000CA9A3BA0F6FFFF00093D00E30C000068
:10102000407ADCFFFEB50126F3066C4908681840DB
:101030000968042201921140694A1468694DAC4262
:10104000029616D1D4889588AC4212D15624145DEC
:10105000002C00D00421002C00D018466923D45C59
:101060000023002C00D018466A24125D002A00D00C
:10107000194642424241484248415B490B785B0075
:101080009A18D5B20A702B46FF3B5A425A414B7808
:101090005B0018182E460640C7B248700097FF3F05
:1010A0007B427B41FF3E744274411046184301D19C
:1010B00000208870002C14D0029F8F700020886060
:1010C000C860CE78494D2D68002E1ED00E69AD1B2C
:1010D000474E1436B54270D90879002831D0002027
:1010E00031E0C878002814D0404800680D69451BDD
:1010F0003F4E14360020B5425FD94D79002D5CD1AA
:101100000879002808D1019857E00D6100208880F7
:1011100053E08878002801D000204EE08E79FF2D22
:101120001AD0002E18D08E68002E1ED031482F4DB8
:101130002D68AE1B3546153D5130854217D2012032
:101140001EE00F7104202D4EB54236D34D79002D8F
:1011500033D14F71052030E00020FF2D10D1002E3B
:101160000ED1224D2D688D600AE0002008E0224853
:101170003018204DA84201D3002000E0012040009B
:101180007E427E41CF79002F00D00296029D002D35
:1011900008D0002F11D1009DFF2D0ED1134D2D68C9
:1011A000CD600AE0CD68002D07D0104E3668751B63
:1011B000153D0F4EB54200D203208A71CB71CC7021
:1011C000002809D00E4A002111600E4A1378002B26
:1011D00001D011700846FEBD0020FEBD80130A40FC
:1011E0000000002054534554A0010020200100209D
:1011F000C7050000BB020000DFFCFFFF88130000F2
:101200002801002018010020F0B591B00124644E9F
:1012100030462030029001F071FA002800D1A8E099
:1012200003940F2080020B900720C002069001203B
:10123000079040020C905E4C6068401C6060204645
:1012400001F016FAE0635B48456884680022099261
:101250000998022800D981E01F2A00D97EE0641C89
:10126000102C29D30A9253484068069A811A4C429E
:101270004C4190420B9D00D0069D4A480799016061
:10128000A7204A49086072B6474F384629460C9A4B
:1012900000F0B2FA40223846294601F087FA62B6D9
:1012A0004549086820300860200131180024345076
:1012B0004C608C60CC600A9A0B98281A41424141DC
:1012C00008013018015D521C0029C1D1001901909C
:1012D0000998401C0990A00128180D90002105953F
:1012E0000A920494032932D008912E48079901608C
:1012F000A7242E4804600027402F1CD22C49C8196F
:101300004068C9590E910F902848046072B60D9834
:10131000C619254D284631460C9A00F06DFA0EAAE2
:101320002846314601F054F962B623490868801C0A
:1013300008600837E0E70D9801F0E0F90899491CCA
:101340000028174E059D0A9A049CCBD115E00798FA
:101350000199087017484560846079E715498878D5
:10136000401C887014480068086103984870002485
:1013700012E01048002141700EE00D494022029811
:1013800001F0E8FA0B494D608C60002048708870CD
:10139000094800680861039C204611B0F0BDC046B2
:1013A000B800002048E00C4000D00C400811084074
:1013B00058020020B401002020010020F0B587B0C1
:1013C0000720C002019000214048049001200690AF
:1013D0000E460591022935D002910029019D01D0C8
:1013E0000F20850200270395102F25D02868384943
:1013F00088421ED1284601F03BF9E96B884205D1AD
:101400006C680598844205D3002004E0012004990B
:10141000C8550EE001200642069E0AD140222D4802
:10142000294601F097FA2C48039941608760069E8F
:1014300005947F1C4035D7E70299491C0498103069
:101440000490C7E7F00702D10698234901E022493A
:101450000878204AC50706D01020019A4A608860A3
:1014600000F002FE1AE09068C1B2082901D93020CC
:10147000105C1072107BD0603120115C002901D10A
:10148000052111543220115C002901D1062111548B
:101490003320115C002901D10821115400260E4F80
:1014A0003E700A4C20340B494022204601F052FA8B
:1014B0007E70002D08D03E464021204601F014FAEF
:1014C0000698787001F0A2F907B0F0BDB8000020CE
:1014D0005CAA55AA58020020B4010020F8B50446C1
:1014E0003F480078042869D80127394681401620F2
:1014F000014263D0FF2005043A488668300C009012
:101500007D20C000FFF774FC611E02290DD3052C5D
:1015100014D0032C19D135490A78002A26D030027C
:10152000800E4FD1009A521C4DE030490A78002AB3
:101530000DD02E4246D0009AFF3244E02A4800786F
:10154000002822D000F020FE3CE0009A34E0F3B204
:101550005F00284AD75B874226D9330628D0F3B2EA
:101560005B00D35A834224D9761EF6E7F2B2072AEB
:1015700028D852001F4BD218528882421FD9101A05
:10158000761C32281CDD4F701CE0184C2078784007
:10159000207000F0F9FD2078002813D001F07AF8CF
:1015A0001348006860600DE0002B02D0761E00E05A
:1015B0000026009A00204870002C04D1F8BD761C4B
:1015C00000204870009A1004284008490978090250
:1015D0000818F1B240180349886000F08FFFF8BD89
:1015E0001901002058020020ED010020D401002044
:1015F00020010020F4290000F0B5394A8218394B47
:10160000C0183A4D4C790B79002C22D0466F202B14
:1016100002D00524E70100E0354F2E40002B00D119
:1016200088273E434667846F2C403C438467446B65
:101630002D4E34404463846B3440846300244465FD
:10164000846554688F26F64334405460946834406F
:1016500094600C688979202B09D006467036002BDF
:1016600015D1641E4460C46E2C40882715E0641EAA
:101670004460C46E2C401E4E3443C466046F2C403C
:10168000344304671B4D01246707064607E005271E
:10169000FF0164084460C46E2C403C43C466346857
:1016A0002C403C433460C46A0F4D2C40C462046B30
:1016B0002C4004630024C4640465C46F8F25ED438B
:1016C0002C40C46714682C401460194302680A4B0C
:1016D0001340BD220A40D118891C0160F0BDC046EC
:1016E00084180000041800008888FDFF24493E008B
:1016F00001040000FFFFFFCF4000FFCFB0B53A4A22
:1017000080184A6842600A78222A56D8930001A4B9
:10171000E3589F46B1170000BB170000B117000047
:10172000BB170000BB170000BB170000BB17000071
:10173000BB170000BB170000BB170000BB17000061
:10174000BB170000BB170000BB170000BB17000051
:10175000BB170000A1170000BB170000A117000075
:10176000BB170000BB170000BB170000BB17000031
:10177000BB170000BB170000BB170000BB17000021
:10178000BB170000BB170000BB170000BB17000011
:10179000BB170000A1170000BB170000A117000035
:1017A000036803242407A343012464071B1903E0EF
:1017B000036803242407A34303600B69C360CB6859
:1017C000C46A0A4D25400A4C1C402B19C3620368A9
:1017D000084C1C400460097A114302683F239A4375
:1017E000194051180160B0BD041800008888FDFF41
:1017F000777702007F00FFFFF0B583B0029201907F
:10180000304B314D00918C0A286807273840052657
:101810002E60196889048A0F2860296839402E6073
:1018200018682960002A214608D028490840511C20
:1018300000F0F2FD0146204600F0EEFD0198204A3E
:10184000801801902A683A402E601E4803682A607A
:101850002A683A402E6003682A60012293020298A7
:10186000984207D0530298420CD10098C30B0BD179
:10187000019803E01F210C4001984030A24001680C
:101880009143016003B0F0BDFF290DD82B683B40A8
:101890002E600C4C24682B60A3049B0F019800D190
:1018A0002039CC08001DE9E71302FF339942E9D241
:1018B000FF23DB43C918CC0801980830DEE7C04697
:1018C000D01100001800C44100134040FF0F000079
:1018D00070B52C480678002E07D02B4800780028D9
:1018E00007D02A490520C88005E028482A49818078
:1018F00043E02648C088254D2978002927D06988EB
:10190000814224D022490A68AB68D21A0C2A1FD31C
:101910000968A9606988401A04B2012C09DBA0B2E9
:101920000A2100F079FD0A2C00D8012069880818E6
:101930000DE0604280B20A2100F06EFD6988092244
:10194000D243944201DB093200E0424288186880A9
:101950006C88022E0CD10F48007B800608D50C48FD
:1019600000687D21090100F057FD322900D2A4084A
:10197000204600F0D1F80146A8800848002200F077
:10198000A3FF70BD1901002018010020C80100202C
:1019900020010020580200205F09000000000940DB
:1019A00070B5214D012426022048214901602148BB
:1019B00002682243026020480160204800F0B8FF1E
:1019C00028680020C14329601D490A6822430A6033
:1019D0004A6832434A601B49491C2A46183A126831
:1019E000324201D10029F7D100291BD016480068E6
:1019F00081B22A6832432A600004800E00D0890830
:101A000012484843124900F007FD124948604868EF
:101A100088604C7088681049C96A6431884200D86F
:101A20000024204670BDC0464850004000080340D6
:101A3000010000260011034000480040C0D401000E
:101A400000510040AF3CFFFF80A2554040164000CF
:101A5000189C0F007401002058020020B0B5274CDC
:101A60002078002811D02748012529020246183A7B
:101A70001268D20521D4224A1268A36AD21A0B2A0C
:101A80003AD302680A43026034E01D480168A26A42
:101A9000891A642930D31B490A680022D2430A609C
:101AA00019490A6801231A430A604A681D0215434E
:101AB0004D6023700068A062B0BD02680A430260F6
:101AC0001248006881B20004800E00D089081048D6
:101AD0004843104900F0A0FC60606178002907D0FD
:101AE000A168A268D208C0080818801AA06001E0A6
:101AF000A060657000202070B0BDC0467401002059
:101B000020010020485000400051004080A2554074
:101B100040164000189C0F00F8B5234F002840D015
:101B200004462248866822498D69AE4239D90A693D
:101B30002048864202D8234810180CE000921E4824
:101B400031181E4800F068FC1D49884200D3084641
:101B5000009940181649496908180090701B1A4AE4
:101B600000263146334600F05FFD009A334600F010
:101B700085FE002815D006460D48C06944437D20E7
:101B8000C5002046294600F047FC601A314600F0A7
:101B900043FCA84200D328467843294600F03CFC89
:101BA0003F1AB8B2F8BDC0465F09000074010020BA
:101BB000580200206C07000094F8FFFF80F0FA0242
:101BC00090D00300E093040040420F0070B5204C19
:101BD000012635021F48204901602048026832432F
:101BE00002601F4801601F4800F0A2FE206800202C
:101BF000C04320601C4801683143016041682943AB
:101C000041601A490846214618390968294202D11B
:101C1000411C0028F6D1002818D01548006881B270
:101C200022682A4322600004800E00D089081148EF
:101C30004843114900F0F0FB1049486088688A6801
:101C4000D208801A4A68D2088018886070BDC046E1
:101C500048500040000803400100002600110340E6
:101C600000480040C0D4010000510040B03CFFFFDC
:101C700080A2554040164000189C0F0074010020BF
:101C8000F0B58B4200D1824204D90B000200002142
:101C9000002040E0002B00D1002A0CD10B000200F4
:101CA00000210020002B00D1002A01D0C943C043ED
:101CB00000F0EFFB2FE01C0015000B0002000CB43D
:101CC000002126002F00FF19764102D2491C40292D
:101CD000F9D100201E001700FF19764102D2401CE6
:101CE0004028F9D10E1A21002800320000F016FD1C
:101CF0000C0005000CBC00200021A34200D1AA4228
:101D000001D3521BA341404149416D08E7073D43C0
:101D10006408761EF1D5059F002F01D03A607B60E4
:101D2000F0BDFEE7F0B585B00190204C012007041E
:101D3000C00202902764002004900820029E002820
:101D400015D078250390284600F0F2FD2664284639
:101D500000F0EEFD0498400015490968C903C90F59
:101D600008180490039826602663401EE7E7019850
:101D7000002803D027602046303001E02046403064
:101D8000264607600B49782528468847029C34641C
:101D900028460849884734603463284605498847FF
:101DA00037640498C0B205B0F0BDC046A0120A4026
:101DB00080130A4031290000FEB502901A4F01201D
:101DC000020400920826C0020190019C002E19D046
:101DD000029A50B20028009B03D43B603846303052
:101DE00001E03846403003605200029278252846D0
:101DF00000F09EFD3C64284600F09AFD3C603C6388
:101E0000761EE3E700983864084D782420463E4665
:101E1000A847019F37642046A847054800683760F7
:101E200037632046A847FEBDA0120A4031290000B2
:101E300080130A40F8B5451C00780023082B32D0E7
:101E40002F78C2070CD16A780F241440E41C122C9E
:101E50000BD102242E57F4B2002E08D4EE1C0EE053
:101E60006D1C4A1C0F7011461AE0AE1C08E02E1DB6
:101E7000ED7800957F252C40009DED012C19123442
:101E80003D0112095219094DAA420ED0D243002C2D
:101E900005D08D5C4F1C0D70641E3946F7E7354642
:101EA00040085B1CCAE72846C5E7F8BDFF0F0000E5
:101EB00070B50025EC4300F04BFA154E8820B04772
:101EC0002846B04700F002FB00F042FA8920B047F4
:101ED0000120FFF727FF06462846FFF723FF0546A8
:101EE00000F0F4FA300240190A4988420DD0B109D5
:101EF00002290AD83109084A104088400749884217
:101F000000D30846064908600446204670BDC04616
:101F1000B91D0000FFFF0000FF0F0000C4F77F00A5
:101F2000E801002010B51249124800F055FA124895
:101F30004168124A0A4042608168114A0A40911C75
:101F400081601049104A0A60026801210B041343A2
:101F500003600E4A42610E4A136A0C022343136265
:101F600013682343136002680A43026010BDC04631
:101F7000102A00000040004000510040FEFFECFF2E
:101F8000F8FFE0E0805100400F020000C05D00005B
:101F900028500040FEB50C46002812D00546002708
:101FA000002D18D00A262846314600F035FA46435F
:101FB000A91B30220A43791C6B46DA5505460F46A9
:101FC000EEE7684630210170012704E0781C69467D
:101FD0003022CA550746A742F8D308488169012F25
:101FE0000ADB3E2908D87F1E6A46BA5C4B1C836117
:101FF00041180A771946F2E7FEBDC04618010020D5
:10200000BCB51349134C204600F0A6FB12492046EC
:10201000FFF7F2FA11480168114A0A4002600025F0
:102020000095204629462A462B4600F0CBFB204649
:1020300029462A4600F082FB4B20410120462A46D1
:1020400000F042FC0748012181600160BCBDC04630
:102050007A2A000000000940182A000004180940EC
:102060007F00FFFF00110940FCB512480021FF224C
:10207000019232220092124C25466435AF273F016F
:102080001E222346C8330F4E0662064624361CC65F
:102090000D4A026341638163C1630C4A064B0360CE
:1020A000416082600199C160009901610349143067
:1020B000A2C0FCBD580200205CAA55AA407E0500C3
:1020C000340800002823000004050608040002006C
:1020D000FCB5154807460837FCCF016A0091416AF4
:1020E000019112494A678B67CC6780228D50842208
:1020F0008E5088228F508C22009B8B509022019B07
:102100008B50826AC36A94240A5198228B503122E0
:10211000825C9C23CA543222825C9D23CA5433229F
:10212000805C9E228854FCBD5802002000000020E4
:102130001CB5002922D04C08002900D54942421084
:102140005440002800D5404200230A00904201D9A3
:102150005200FBE790425B41904200D3801A9142CB
:1021600001D25208F6E71900002C00D54042640065
:1021700000D549420200080011001CBD01000020EA
:1021800000F001F81CBD7047F8B502240E4D0F4E4B
:10219000002C17D0692001010D48818000272846B6
:1021A0003A4600F091FB304600F0C2FB094908486E
:1021B000818028463A4600F087FB304600F0B8FBA5
:1021C000641EE5E7F8BDC04600000940009F2400FA
:1021D000C80100205F0900000D48842101600D49FD
:1021E00001220A630C4A0260812282610B4AC266A4
:1021F000C36EC366826082688260094A0264036CAF
:102200000364C262C26AC262402008600863704709
:1022100004804240A0120A408400000481000E00A5
:1022200081000C00B0B50B480B4941600B4A51606E
:102230000B4B59608C1E0B4D6C600B4C61600B4955
:1022400001601160196029602160102000F070FBAE
:10225000B0BDC04600080A40030000B100080940B4
:102260000048004000080340000808400100002624
:10227000F8B5044605460C3500260F4F60888642A7
:1022800017D2284608380168281F03682A68002AE0
:1022900003D0184600F05EFB08E00648874205D0F0
:1022A000481C097889007A5819469047761C0C35E5
:1022B000E4E7F8BDE02A0000D42A000070B50D481C
:1022C000401C02D00B48FFF7D3FF0B480B4C844255
:1022D0000CD00B4D0B4EB54208D02A686968501CD3
:1022E00012789200A25890470835F4E700BF00BF6B
:1022F00070BDC046082B0000E02A0000D42A000070
:10230000F02A0000082B000080B50D484178012913
:1023100015D10C490978012911D18178002905D0FE
:1023200004290CD808490968006902E006490968CF
:10233000C068081A0549884201D9FEF765FF80BDCB
:10234000B401002019010020200100203075000098
:1023500070B50E4D01200404C6022C642E64782052
:1023600000F0E6FA0A480068C00302D400F0AEF8B4
:1023700070BD2C602C637824204600F0D9FA2E60C2
:102380002E63204600F0D4FA70BDC046A0120A4069
:1023900080130A4010B50C48407A0002FF21C9435F
:1023A00041184A424A41094C2270012109028842DF
:1023B00009D100F06FF9064800680021C943606048
:1023C000A1600448608010BD58020020D4010020A4
:1023D00020010020FFFF0000F0B511221302C218F7
:1023E0000C780B4D46590B4F374003262640BC193D
:1023F000A9263606A41944514C68C5580726360646
:10240000B54334402C19C45048781061F0BDC04623
:1024100008080000FCFFFF001CB50A0017D00023CD
:102420000124E407A04200D20400944201D95200E2
:10243000FBE790425B41904200D3801A914201D267
:102440005208F6E719000200080011001CBD010047
:102450000020FFF798FE1CBDFCB4020C0B0CFF24FF
:102460002402FF34204021400C00444315005D430A
:1024700006005E430F005743320C3B0CA818C018EF
:1024800032043B040025A1186841C9186841FCBC0E
:1024900070477047B0B50B48012251040A4B1C68C5
:1024A0009502AC431C605C68120594435C60026852
:1024B0000A4205D002680A4202D002680A42F6D1F6
:1024C000B0BDC04604020B4000010B40F8B5012529
:1024D0002E04084F3E603E63782420460649884714
:1024E000E80238642046044DA8473E642046A847C9
:1024F000F8BDC046A0120A403129000080B5084846
:10250000203000F0FBF8002805D0064900228A7030
:10251000054A1268CA60411E88410249487080BD60
:10252000B8000020B40100202001002080B5074839
:1025300000680749884204D1FFF796FDFFF7DEFFE8
:1025400080BD04480121017080BDC04658020020B2
:102550005CAA55AAB401002010B50649064C2046D5
:1025600000F096F90549204600F0A6F8F02000F0AA
:10257000DFF910BD7D2A000000000340202A000082
:102580000748026801680020120108D5490706D5EE
:1025900004498A79002A02D1C979484248417047E2
:1025A00080130A40A0010020084880F3088800BF7B
:1025B00000BF00F0E2F9002801D0FFF77FFE002005
:1025C000FDF77EFD012000F0CFF9C0460004002099
:1025D000B0B5074BC4180125C550FF232362E16144
:1025E0001168E1625168216300F004F8B0BDC04693
:1025F0000411000082B00094014C019410BD00BF92
:10260000F901002006480021016006480168032204
:102610009143016041680F22914341607047C04679
:1026200008030B4000010B4030B514004C4325005B
:102630001C0044436419050010002900FFF70CFF3B
:10264000001904000D002100280030BD10B5074915
:102650008A690378002B08D03E2A06D8401C541CF7
:102660008C618A1813772246F3E710BD1801002009
:1026700010B500220549064B3C2A04D0845C614019
:102680005943521CF8E7084610BDC046C59D1C8141
:102690009301000110B5FFF75BFE064C8820A047B0
:1026A0000120A047C220A0471020A047FFF70EFF3F
:1026B00010BDC046B91D0000B0B51122120283182A
:1026C0000C784D7825434C882C43A4B284508888DC
:1026D000C988090408189860B0BD80B5FFF7A2FD4D
:1026E000FFF77AFDFFF78EFFFFF78AFCFFF71AFC72
:1026F000FFF732FF00F072F880BD000010B5002136
:10270000054B425C5C5CA24203D1491C4029F8D1D4
:102710001446101B10BDC0465802002018B52023D7
:102720009B1A04D8010000205B42994004E0040099
:102730009140DC402143904018BD000010B592004C
:102740008018044A83580724A404A343214059183D
:10275000815010BD3018000010B5012212038318FB
:102760000C789C604B7883508978014A815010BD69
:102770000C110000BFF34F8F034804490160BFF301
:102780004F8F00BFFDE7C0460CED00E00400FA05E6
:10279000BFF34F8F034804490160BFF34F8F00BF61
:1027A000FDE7C0460CED00E00400FA05B0B5044BAF
:1027B000C41802251543C550E161FFF71BFFB0BDEA
:1027C0000411000010B5029CA40000191143194324
:1027D000014A815010BDC04650180000034804490A
:1027E00001605F21490641607047C0460011084002
:1027F000430002C903480121016003488168491C64
:1028000081607047485008401801002080B5044896
:102810004078012802D1FEF7F7FC80BD012080BD81
:10282000B40100202120C0020349086001200204F5
:102830000A64C00208647047A0120A406820345439
:10284000692034546A2034546B2034545620345454
:10285000704703228058002805D0401E4A1C0023E0
:102860000B701146F7E7704702480168024A0A43B5
:102870000260704748100A400400000840B584B068
:1028800002AE0096FFF7FCF9029A039B04B040BD2C
:1028900010B50122120383180C789C60497881508E
:1028A00010BD10B500239A4203D0CC5CC4545B1C0D
:1028B000F9E710BD80B50B4603214258C11D1846EB
:1028C00000F048F880BD000092008018014A815055
:1028D0007047C0461018000000239A4202D0C1542D
:1028E0005B1CFAE7704700000A46002180B5FFF73D
:1028F000F3FF80BD014AD08011707047C8010020ED
:10290000014880787047C046B40100200148406803
:102910007047C046B4010020014880687047C04637
:10292000B4010020014840787047C046B40100203F
:10293000811E091F00BFFCD270470598707034617A
:10294000347027E520462146049CD3E76420002408
:102950002146CFE780B5FFF7A4FF80BD3A46234666
:102960008CE7214623465FE600F001F8FEE700BF52
:102970007047234658E617E670470120704700006D
:1029800081B01649411811221202012383500A68AE
:10299000072002400092009AD2B2032A19D0009A6E
:1029A000D2B2012A15D00A6802400092009AD2B22F
:1029B000032A0ED0009AD2B2012A0AD00A68024035
:1029C00000920098C0B2032803D00098C0B201283A
:1029D000DDD10098C0B201B07047C046D0130000EE
:1029E00022000000BF5D00000000000000000200A7
:1029F0000000000005001400320096002C01C20106
:102A000058022003E803CEFFE2FF00001E00320060
:102A10000104000000000000600900000000000048
:102A200001800000000000006D56204D61783A00E2
:102A30005B4D414E5D20005B4552525D20005B4C7A
:102A400056505D20005B4F46465D20005B414C5375
:102A50005D20005B5453545D20005B464C535D2069
:102A600000205273743A00204F66733A004C766C23
:102A70003A0020563A0020503A00080000020000B8
:102A800000E5000001010052004F830156342EFF83
:102A9000332E335F44495245FB43540A6F75496EE8
:102AA000697469FF616C697A696E672E9B2E2E13BB
:102AB000CF231C0C0033179F0EFFB5FF19BF05383D
:102AC0001B3F005F09035BFF0C00001D9C0100FF22
:102AD000F0000000351E0000B5280000532800005B
:102AE00002000000400000000001000004FFF000B0
:102AF000802A000000000020E02A00005802002088
:082B0000E82A00009802002001
:102B08000C00010080290000F8010020600000008E
:1037F00056342E332E335F44495245435400000063
:10380000FFFFFFFFFFFFFFFFFFFFFFFFFFFFFFFFC8
:10381000FFFFFFFFFFFFFFFFFFFFFFFFFFFFFFFFB8
:10382000FFFFFFFFFFFFFFFFFFFFFFFFFFFFFFFFA8
:10383000FFFFFFFFFFFFFFFFFFFFFFFFFFFFFFFF98
:04000003000025A92B
:00000001FF
