:10000000000400201D2D0000AB1F0000AB1F0000EE
:1000100000000000000000000000000000000000E0
:10002000000000000000000000000000AB1F000006
:100030000000000000000000AB1F0000AB1F00002C
:10004000AB1F0000152C0000AB1F000000000000DB
:10005000AB1F0000000000000000000000000000D6
:1000600000000000AB1F00000000000000000000C6
:10007000000000000000000000000000AB1F0000B6
:10008000A12B000000000000AB1F000000000000DA
:100090000000000000000000000000000000000060
:1000A000AB1F000000000000000000000000000086
:1000B000000000000000000000000000AB1F000076
:1000C00000B591B0012402F0DEFC62B6DD480068A4
:1000D0001F210140DC4DE960E868012820460FD06F
:1000E000E868022820460BD0E8680328204607D09D
:1000F000E8680428204603D0E868411F4842484188
:10010000D24A13214F0621040591D14949689142F1
:10011000089400D104460A9410AC00200690A07008
:1001200008202080CB490BAE1422304602F0E0FDBF
:100130000397781CC8490860102002F0CFFDC74F14
:100140003846214602F0DEFC38463146069E01F074
:1001500019FCC3480168089A11430160C148059918
:100160000160C149086810430860B9484068B74950
:10017000884202D0B64841600680BC4CBC4F01F0BA
:10018000EFFA02F025FD4022226038680121099132
:10019000084338606E700A980028049207D0B5486A
:1001A000007B000610D4B448BC21032223E0A848F9
:1001B0004078002804D1AF483421405C5A28EED161
:1001C000AD48BC21022216E001F02EFD00280FD020
:1001D0000120687000242C612C709D4844702046DA
:1001E00002F01CFCA448BC21445002F04FFA03E08A
:1001F000A148BC21012242509E4FA04802F06EFD52
:100200006878052857D8099981403620014252D094
:10021000A8790028089802D1A87102F087FBA721CD
:1002200097480791016000F0F7FE044601F05AFD7F
:1002300000F0D8FBA8689349491C88420A940BD265
:10024000012C16D182480078002812D16878032842
:100250000FD002F0B7F80CE0E879002809D16878EF
:10026000032806D00898E87187488849886088483C
:100270000860A868642102F04BFA002962D1EE619F
:10028000687805281CD8800001A1095881488F464C
:10029000CF020000A9020000C1020000C502000058
:1002A000C9020000CD0200007B48007800287B488E
:1002B0000DD07B480BE0A87900283046ACD1AEE7E2
:1002C000784804E0784802E0784800E07848794FC0
:1002D000B8477948B8476748007A01263146774CD5
:1002E000A0477748B8476348807A3146A0477548A9
:1002F000B8477548006804242146704A90477348FF
:10030000B8477D20C00000F0A5FF3146069E6B4A2D
:1003100090476F48B8476F4800882146674CA04710
:100320006D48B847E8680221A047E8693E2806D82A
:10033000411CE9612818202282540846F6E75F2014
:100340002E544C4F6548006800097C2800D8E6E22E
:10035000A8686969411A6878C9087D2927D3A968FE
:100360006961042801D0012821D1397B09071ED5F4
:100370002969491C29612978002906D12969584A27
:10038000521C914201D9012129702969554A914293
:100390000DD3042801D102F015FA6E7001202C490A
:1003A0004870089802F03AFB02F006FC6878FB21DE
:1003B00008423BD044480068F96A884210D2A878C5
:1003C000401CC1B2A87005290BD3AE706E702048D6
:1003D00009994170089802F021FB02F0EDFB00E062
:1003E000AE7039480068B96A88420ED2E878401C7D
:1003F000C2B2E8706878052A09D3EE70042202437D
:10040000052A04D10220687003E0EE7068780228A3
:100410000CD12D4800686431884265D302F063FC3A
:100420000B4802F069FC02F031F96878052800D920
:1004300062E2C04678440079400087448355557095
:10044000C299C04620020B40280100203CC3A55A97
:10045000B0020020882D00000048084000400840FD
:100460002850084000E100E00458084090120A407B
:10047000041809407002002000000020C05D000048
:1004800008110840871300000100006220030B40A0
:100490000100001EED2D0000EC010020D82D000011
:1004A000F42D0000E62D0000022E0000FB2D0000C0
:1004B000DF2D0000DD2800001B2E00001D220000A3
:1004C000152E0000202E000090010020D02D0000ED
:1004D000242E0000E40100200F2E00008C010020DB
:1004E0005F090000191500006E710A98042811D1E7
:1004F0006E70F04809994170089C2C713046314665
:1005000002F0CEFB01F028FB204602F087FA02F051
:1005100053FBF1E101F092F800F058FCECE10A988D
:10052000042869D101F080FB002800D1DCE002F052
:10053000DAFBE04802F0E0FBBC20DF490E5002F09D
:10054000A5F8D9E100263046314602F0A9FB0A9908
:10055000012959D1D7480078002855D101F032FF40
:10056000287901286FD102F0CDF900286BD069E01D
:10057000A868D2490968401AD149884259D30998D4
:100580006870D0480670B868D2490840B86002F078
:100590004DF902F011FBCC4A1078401CC1B210702A
:1005A000032904D3C84806700998C8490870387AE6
:1005B0004000C749085A00F04DFE002102F070FBD0
:1005C0009AE1ED480068C449884200D094E168206F
:1005D000E94A115C012900D0A3E06E24105BF149C7
:1005E000091A0022EA4802F045FBE348005BED49A6
:1005F000081AEF49088073E1A868A969401AEE4912
:10060000884200D278E1A9E106291BD0052900D152
:100610009BE00429A4D101F007FB002800D1B8E039
:1006200002F061FBD04802F067FBBC20D2490E50BB
:100630003DE180B2E14902F06BF8C8084B2866D36F
:10064000D84866E02E7168780028069E00D054E1F4
:100650002879002800D05DE102F054F9002800D18B
:100660004AE10398D9490860D9490860D94A106914
:100670000123D90501431161106820210143116054
:10068000D14C226A0293D906081D02432262CD4B47
:100690005A6ED14C22405A661A6822401A605A6E2D
:1006A0000A435A661A680A431A60C74A1168014326
:1006B00011600222C2490A60A9480A9202600598A4
:1006C0000860B448079C0460B649B948018000221C
:1006D000AF48019202F0CEFA387BC00600D57DE02B
:1006E00072B630BF62B6ADE0BC200999A24A115083
:1006F0006420002402F010FB01F02EFAA74802F05B
:10070000EDFA204602F008FB01F026FAF4E0A548D5
:100710007738A749088081B200229D4802F0AAFAE2
:10072000EAE0115C022928D16C20105A01F038FB54
:1007300004469C48844200D39A4C002294482146A7
:1007400002F098FA9A480480CAE02C792E7101F0E0
:1007500097FE01F069FA002816D0099F6F702E618C
:100760002E70814802F0C8FABC2083490E50002C3C
:1007700000D08CE038468C498CE0105C0328114690
:100780001AD16C20085A25E0BC2009997A4A1150E8
:10079000E6E6BC200999784A11506420002402F052
:1007A000BBFA01F0D9F97D4802F098FA204602F030
:1007B000B3FA01F0D1F9D3E66B20085C7A490978E5
:1007C0000143080600D089E0387A40007949085A88
:1007D00000F040FD002102F063FA81E06879002812
:1007E00006D108986871C020634A1158491C1150FD
:1007F000E87900280AD1A8686949884206D908988A
:10080000E871604860498860634808605549086835
:10081000029B984308600598694908605B4AD36366
:10082000574F386804263043386010685905014333
:10083000116030BF01F0AAFF3868B043386002F0A1
:1008400075F8069E5F4A506E644B191D084050664D
:100850001068084010605C490868184008606048EB
:100860000A990160BFF34F8FBFF36F8F494804604F
:1008700002F048F800283F4F3ED101F0EBFA4B4818
:100880000068F96A884237D90198286134E04649FE
:10089000087878400870374FB968384A1140C0B2BC
:1008A00000020843B86001F0C1FF02F085F901F0D1
:1008B000EDFE55E6B002002000000020C40000203C
:1008C00010270000EC0100200A020020090200208D
:1008D0009C2D0000FFFEFFFF5453455400F076FAB4
:1008E0000A98052808D809980A9988402E210842B4
:1008F00002D00A9800F0A2FE687805280CD00428DF
:1009000008D168201C49095C012905D01A49085CF6
:10091000022801D001F020F901F072FE6DE40024FC
:10092000204602F0F9F901F017F919481D4922464D
:1009300002F0A0F90E4A10680121884310600B48AC
:100940000499016102F038F902201049C8630C4A89
:10095000106804210143116030BFFDE702F0E0F8A8
:1009600000E100E004580840B002002090120A4064
:10097000041809407002002000000020FFFEFFFF65
:1009800010ED00E00100006220030B4004010B4069
:1009900000000940081108400100001E009F2400CB
:1009A000871300005F090000EC0100209001002087
:1009B000E40100209C2D0000E1930400DC05000010
:1009C00080E200E00C80424028100A4000480040CD
:1009D0000008034090130A40FFFFFFEFFBFFFFF703
:1009E00080E100E0F0B587B0DD4C2078002803D12D
:1009F0000120207001F0E6FEDA4E3068DA498842C4
:100A000006D1F088B188401A41424141069101E087
:100A100000200690716F6268D4488068914202D1CC
:100A20007067716F6160D24909687161D14D296841
:100A3000B022B150D04909784E22B154CF4909684B
:100A40005722B154B821CE4A72507067C0B2B085F7
:100A5000CC480088F085CC4801883186CB4C216891
:100A6000B1610088CA49081A7D22D700784301F095
:100A70004FFE2268002402F045F902F040F9F061CF
:100A8000BA4882693262F06902F03CF902F037F943
:100A900070622A68F06902F035F9049702F02FF9C4
:100AA000B4217050BB480068B062BB4800687086D3
:100AB000BA4800687063BA480068B063B948006813
:100AC000F063B94800683064B84800687064B8489A
:100AD0000068B064B74800784C217054B64800787C
:100AE0004D217054B548016801220592D2060A4092
:100AF000514251414F22B1540068042738404142CD
:100B0000414150203154AE48007851217054AD48D5
:100B1000007852217054954D287B4006C00F532118
:100B2000705402F0D5F85421705402F0BFF85521EA
:100B30007054A5480068B0656868F06502F0BCF8BC
:100B4000306602F0BFF870668B4800780699C907D6
:100B500000D1AEE00146394304294CD080480599C4
:100B60004170854806970770974804609448047060
:100B700002F02EF87D4B1F46083787CF9D690195FF
:100B8000DD6902951D6A03955D6A7067B167F2675A
:100B900080203750842001993150882002993150AB
:100BA0008C200399315090203550986AD96A94224C
:100BB000B050982031503120185C9C217054322064
:100BC000185C9D2170543320185C9E217054346150
:100BD000F4606820305C00280AD16C20315A00296A
:100BE00006D168490988002902D06649098831522E
:100BF00061480078069F042800D0A1E0B068002872
:100C000000D198E00697704804606D480470B7689A
:100C100005983061B460B81E062800D983E0C0464C
:100C2000784400794000874446036360544870006C
:100C3000706F0590B16FC8B20390F06F029080237F
:100C4000F0580190842570590090882030588C21EC
:100C500071589022B258454B059D9D60039DDD6003
:100C6000029D1D61019D5D61009D9D611D461C35BC
:100C700007C594203058982171589862D9629C21F8
:100C8000725C1420142A024600D8725C31215A5436
:100C90009D22B15C1429014600D8B15C32229954DE
:100CA0009E21725C142A00D8705C33212F4A505464
:100CB00026E0042844D101F041FF2F48047001F0E0
:100CC000B5FD01F079FF26484470346001F08CFFD7
:100CD0002BE029480599017001F0D8FC20484470A8
:100CE000346001F081FF02201EE001F0B7FD01E059
:100CF00001F09CFD01F060FF002801D1042000E01C
:100D00000220306101F0C0FA0FE001F0BDFD01F0FA
:100D100053FF02250028284600D10698306101F0D3
:100D2000B3FA356101E005203061F76012480078C0
:100D30000428069F04D1049800F08CFA0E4800782D
:100D4000074A5178012909D13843042806D0547044
:100D500003200949087001F047FFF46007B0F0BDB7
:100D6000F801002000000020545345547002002078
:100D7000900100208C010020290100203401002076
:100D8000C05D0000E2010020E40100209401002089
:100D90005F09000098010020AC0100209C010020A8
:100DA000A0010020A4010020A801002004020020CE
:100DB00000020020080200200B02002080130A40DD
:100DC00028010020ED01002038010020F0B585B099
:100DD00081480078002800D0FBE0804C804D2878C6
:100DE00000230428194608D17E4A1168A1421946F9
:100DF00003D16B21515C4A1E91417A4A1668A64282
:100E000004D1D38894881C1B6342634100290CD110
:100E1000754C2478002C17D0441E022C05D3041FD7
:100E2000664266411E40012E0ED1724E30686E4BF6
:100E30005B68C01A782800D2CBE0002916D0146F66
:100E40006D480021017016E0042800D9C1E001219D
:100E500081401620014200D1BBE06448007A400086
:100E60006349085A00F0F6F90021B0E001F064F996
:100E7000044601F0E5FD5C4B30685860601C3ED0D4
:100E80005E48002505705C4805705D480460986800
:100E9000411C03D0C108E2088018441A9C605948DC
:100EA000046064212046039101F032FC4F4A312155
:100EB000565C3221515C01913321515C0491012136
:100EC000029189070B4689088342FBD80AE0591929
:100ED000421A074600D317466D08884200D3ED1822
:100EE0009B083846002BF2D1002E00D1052603992D
:100EF0004B20C7000498002816D0484316E03E480F
:100F0000022101703D480178491CCAB20170032AD0
:100F10005FD300210170287804285AD0052028705A
:100F200030683C49086054E03846C8300490019865
:100F3000002801D0484307466E432C4DA868FF2285
:100F400013040340029A9204934202D8000CC0B2E8
:100F500000E0022040002C4A105E704301F064FA69
:100F60008019696A884200DC084628498C421E4B79
:100F700000D3049F874200DB07467D20C0008742E4
:100F800000DB0746F817874358882149884219D063
:100F900000B2391A09B2012905DB19221201904267
:100FA00008DB142207E01322D24391420ADA1438F4
:100FB000074607E0052289B2962800DA02228A4213
:100FC00000D287185F80B8B200F044F9012101F027
:100FD00067FE05B0F0BDC0462801002054534554BB
:100FE0002901002000000020EC01002070020020F8
:100FF0009C2D0000300100200B0200200802002080
:101000000402002000020020AE2D0000A4420F00C8
:10101000FFFF0000C4000020FEB50127FC06804849
:10102000016821400268042002407E4B1D687E4E0C
:10103000B542019716D1DD889E88B54212D156255A
:101040005D5D002D00D00422002D00D021466924D2
:101050001D5D0024002D00D021466A255B5D002B1C
:1010600000D022464B424B41554255416F490A78C8
:101070005200D218D4B20A702346FF3B5A425A415A
:101080004B785B005B1926461E40DFB24B70009721
:10109000FF3F7B427B41FF3E7542754116461E4332
:1010A000029601D100264E80002D15D0019F8F7031
:1010B0000020C8600861CC78002C25D05C4C2468E6
:1010C0004E69A41B5B4E1436B44200D88FE00879F9
:1010D000002849D0002049E0CE79002E1BD0544C86
:1010E00024684E69A41B534E1436B44205D94C797A
:1010F000002C02D10C79002C4AD0029800280FD085
:101100000A724B72CD7189E0CF70494C24684C61F2
:10111000888088716BE08878002812D0002066E013
:101120000C790020012C08D14C79002C05D18C7948
:10113000002C02D10198887106200A724B72CD7181
:101140005BE00E7AFF2C1AD0002E18D0CC68002C51
:1011500025D03B48364E3668341B2646153E513066
:1011600086421ED2012025E00F710420364EB44283
:101170003DD34C79002C3AD14F71052037E0002047
:10118000FF2C17D1002E15D1294C2468CC6011E01A
:10119000294C2478062C2AD22848005D27E000201C
:1011A00008E028482018264CA04201D3002000E087
:1011B000012040007C427C414F7A002F00D00194F6
:1011C000019C002C08D0002F11D1009CFF2C0ED1C7
:1011D000174C24680C610AE00C69002C07D0144EEF
:1011E0003668341B153C134EB44200D203200A72F9
:1011F0004B72CD71029A002A04D10022CA708A80F3
:101200008A714A61002809D0104A00211160104AF1
:101210001378002B01D011700846FEBD0020FEBDE2
:1012200080130A400000002054534554B4010020AC
:1012300030010020C705000029010020092E000010
:10124000BB020000DFFCFFFF881300003801002014
:1012500028010020F0B589B006467E4A107BC00701
:1012600000D1F4E07C498F68D06A874207D905969F
:1012700014697A48874205D87C4822180CE0002679
:101280004E62E4E076483918764801F041FA764932
:10129000884200D3084602196E4D6869A969079211
:1012A00084180697781A724A00263146334601F0B0
:1012B00091FB2246334601F0B7FC0746ED698542B3
:1012C0002C4600D33C466448079B0361C760002F4F
:1012D00000D1BCE07D20C200002D1046089206D04F
:1012E00010466843214601F013FA079B089A0195BE
:1012F00003944B21904200D3104602904801049081
:101300001E2630465843642101F002FA02460024AA
:101310003846214601F0FEFC554A234601F084FC84
:10132000054638462146079A01F0F4FC07900091E3
:10133000059A01F0EFFC4F4A234601F075FC089A2C
:10134000401906990B1A10461CD904998B42104675
:1013500018D20498431C1E200699994212D32F4696
:10136000454BC918A9420DD9C81B424A00210B465A
:1013700001F030FB079A009B01F056FC1E2800D8B4
:101380001E20089A079001980028174605D03B4870
:10139000039901F0BDF9089A07469742069D00D3CC
:1013A0001746039821462A4601F0B4FC4A07C308B1
:1013B0009A18CB087D3A089AA341144615D3002405
:1013C000089A234601F030FC054603970F46214852
:1013D000006A2146089A01F09DFC2A463B46039F7D
:1013E000069D01F021FC089A0446944200D314465D
:1013F0000498401C8542079B0FD3214885420BD897
:101400001E3A6A431F481018E121890001F080F953
:10141000079B06461E3600E01646029A934218467F
:1014200000D310468742394600D301468C422046FD
:1014300000D30846864200D30646074842618361CE
:10144000C761046246620598864200D30646B0B280
:1014500009B0F0BD70020020880100206C07000078
:1014600094F8FFFF80F0FA0290D00300E0930400AC
:1014700040420F0000CA9A3BA0F6FFFF00093D0062
:10148000E30C0000407ADCFFF0B591B00124644E1B
:1014900030462030029001F007FB002800D1A8E080
:1014A00003940F2080020B900720C00206900120B9
:1014B000079040020C905E4C6068401C60602046C3
:1014C00001F09AFAE0635B4845688468002209925B
:1014D0000998022800D981E01F2A00D97EE0641C07
:1014E000102C29D30A9253484068069A811A4C421C
:1014F0004C4190420B9D00D0069D4A4807990160DF
:10150000A7204A49086072B6474F384629460C9AC8
:1015100000F0B6FA40223846294601F01DFB62B6BB
:1015200045490868203008602001311800243450F3
:101530004C608C60CC600A9A0B98281A4142414159
:1015400008013018015D521C0029C1D10019019019
:101550000998401C0990A00128180D9000210595BC
:101560000A920494032932D008912E480799016009
:10157000A7242E4804600027402F1CD22C49C819EC
:101580004068C9590E910F902848046072B60D98B2
:10159000C619254D284631460C9A00F071FA0EAA5C
:1015A0002846314601F0EAF962B623490868801CF2
:1015B00008600837E0E70D9801F076FA0899491CB1
:1015C0000028174E059D0A9A049CCBD115E0079878
:1015D0000199087017484560846079E71549887853
:1015E000401C887014480068086103984870002403
:1015F00012E01048002141700EE00D49402202988F
:1016000001F076FB0B494D608C60002048708870BB
:10161000094800680861039C204611B0F0BDC0462F
:10162000C800002048E00C4000D00C4008110840E1
:1016300070020020CC01002030010020F8B50446E3
:101640004148007804286DD801273946814016208A
:10165000014267D0FF2005043C488668300C0090AA
:101660007D20C000FFF7F6FD611E02290DD3052C79
:1016700014D0032C1FD137490A78002A2CD030020D
:10168000800E53D1009A521C51E032490A78002A48
:1016900013D02E424AD0009AFF3248E02C480178FD
:1016A0002C4C2078002926D0002801D00020207062
:1016B00000F0E6FE3AE0009A32E0F3B25F00274A1B
:1016C000D75B874224D9330626D0F3B25B00D35AC6
:1016D000834222D9761EF6E7F2B2072A26D85200B4
:1016E0001E4BD218528882421DD9101A761C3228FD
:1016F0001ADD4F701AE07840207000F0C1FE2078AB
:10170000002813D001F09CF91348006860600DE0D8
:10171000002B02D0761E00E00026009A00204870C0
:10172000002C04D1F8BD761C00204870009A1004EB
:1017300028400849097809020818F1B240180349FD
:10174000886001F073F8F8BD2901002070020020C4
:1017500009020020EC010020300100209C2D000037
:10176000F0B587B00720C0020190002140480490E6
:10177000012006900E460591022935D002910029DC
:10178000019D01D00F20850200270395102F25D041
:101790002868384988421ED1284601F02DF9E96BA6
:1017A000884205D16C680598844205D3002004E086
:1017B00001200499C8550EE001200642069E0AD178
:1017C00040222D48294601F093FA2C4803994160A4
:1017D0008760069E05947F1C4035D7E70299491C17
:1017E000049810300490C7E7F00702D10698234907
:1017F00001E022490878204AC50706D01020019A46
:101800004A60886000F0AAFD1AE09068C1B2082919
:1018100001D93020105C1072107BD0603120115C37
:10182000002901D1052111543220115C002901D178
:10183000062111543320115C002901D108211154D3
:1018400000260E4F3E700A4C20340B4940222046A1
:1018500001F04EFA7E70002D08D03E464021204611
:1018600001F018FA0698787001F0A6F907B0F0BDFB
:10187000C80000205CAA55AA70020020CC010020FC
:10188000F0B5394A8218394BC0183A4D4C790B796A
:10189000002C22D0466F202B02D00524E70100E067
:1018A000354F2E40002B00D188273E434667846F7A
:1018B0002C403C438467446B2D4E34404463846B1E
:1018C0003440846300244465846554688F26F6435D
:1018D000344054609468344094600C688979202BBB
:1018E00009D006467036002B15D1641E4460C46EC4
:1018F0002C40882715E0641E4460C46E2C401E4EA8
:101900003443C466046F2C40344304671B4D0124E8
:101910006707064607E00527FF0164084460C46EB8
:101920002C403C43C46634682C403C433460C46A59
:101930000F4D2C40C462046B2C4004630024C4642B
:101940000465C46F8F25ED432C40C46714682C4098
:101950001460194302680A4B1340BD220A40D11893
:10196000891C0160F0BDC046841800000418000006
:101970008888FDFF24493E0001040000FFFFFFCFDF
:101980004000FFCFB0B53A4A80184A6842600A78F2
:10199000222A56D8930001A4E3589F46391A000022
:1019A000431A0000391A0000431A0000431A0000CD
:1019B000431A0000431A0000431A0000431A0000B3
:1019C000431A0000431A0000431A0000431A0000A3
:1019D000431A0000431A0000431A0000291A0000AD
:1019E000431A0000291A0000431A0000431A00009D
:1019F000431A0000431A0000431A0000431A000073
:101A0000431A0000431A0000431A0000431A000062
:101A1000431A0000431A0000431A0000291A00006C
:101A2000431A0000291A0000036803242407A34373
:101A3000012464071B1903E0036803242407A3435C
:101A400003600B69C360CB68C46A0A4D25400A4C29
:101A50001C402B19C3620368084C1C400460097ABF
:101A6000114302683F239A43194051180160B0BDE9
:101A7000041800008888FDFF777702007F00FFFFD1
:101A8000F0B583B002920190304B314D00918C0A39
:101A900028680727384005262E60196889048A0FB0
:101AA0002860296839402E6018682960002A21467C
:101AB00008D028490840511C00F02AFE0146204663
:101AC00000F026FE0198204A801801902A683A40CA
:101AD0002E601E4803682A602A683A402E60036818
:101AE0002A60012293020298984207D0530298423A
:101AF0000CD10098C30B0BD1019803E01F210C40BF
:101B000001984030A24001689143016003B0F0BDEC
:101B1000FF290DD82B683B402E600C4C24682B60AD
:101B2000A3049B0F019800D12039CC08001DE9E7E0
:101B30001302FF339942E9D2FF23DB43C918CC08D3
:101B400001980830DEE7C046D01100001800C441FB
:101B500000134040FF0F000070B52C480678002E9F
:101B600007D02B480078002807D02A490520C880D4
:101B700005E028482A49818043E02648C088254D51
:101B80002978002927D06988814224D022490A680F
:101B9000AB68D21A0C2A1FD30968A9606988401A59
:101BA00004B2012C09DBA0B20A2100F0B1FD0A2C1D
:101BB00000D80120698808180DE0604280B20A212F
:101BC00000F0A6FD69880922D243944201DB093264
:101BD00000E04242881868806C88022E0CD10F48C1
:101BE000007B800608D50C4800687D21090100F0C3
:101BF0008FFD322900D2A408204600F0D1F801461A
:101C0000A8800848002201F035F870BD29010020A5
:101C100028010020E0010020300100207002002097
:101C20005F0900000000094070B5214D0124260223
:101C3000204821490160214802682243026020486F
:101C40000160204801F04AF828680020C14329605B
:101C50001D490A6822430A604A6832434A601B49A8
:101C6000491C2A46183A1268324201D10029F7D19C
:101C700000291BD01648006881B22A6832432A60C6
:101C80000004800E00D0890812484843124900F031
:101C90003FFD12494860486888604C708868104968
:101CA000C96A6431884200D80024204670BDC0460D
:101CB0004850004000080340010000260011034086
:101CC00000480040C0D4010000510040AF3CFFFF7D
:101CD00080A2554040164000189C0F00880100204B
:101CE00070020020B0B5274C2078002811D027487A
:101CF000012529020246183A1268D20521D4224A47
:101D00001268A36AD21A0B2A3AD302680A43026005
:101D100034E01D480168A26A891A642930D31B493E
:101D20000A680022D2430A6019490A6801231A434B
:101D30000A604A681D0215434D6023700068A06266
:101D4000B0BD02680A4302601248006881B2000414
:101D5000800E00D0890810484843104900F0D8FC94
:101D600060606178002907D0A168A268D208C00825
:101D70000818801AA06001E0A06065700020207043
:101D8000B0BDC0468801002030010020485000400E
:101D90000051004080A2554040164000189C0F00A2
:101DA000F8B5234F002840D00446224886682249CF
:101DB0008D69AE4239D90A692048864202D8234843
:101DC00010180CE000921E4831181E4800F0A0FCCC
:101DD0001D49884200D308460099401816494969B0
:101DE00008180090701B1A4A00263146334600F04E
:101DF000F1FD009A334600F017FF002815D0064683
:101E00000D48C06944437D20C5002046294600F0A6
:101E10007FFC601A314600F07BFCA84200D32846C4
:101E20007843294600F074FC3F1AB8B2F8BDC046AA
:101E30005F09000088010020700200206C0700008C
:101E400094F8FFFF80F0FA0290D00300E0930400C2
:101E500040420F0070B5204C012635021F48204932
:101E6000016020480268324302601F4801601F4839
:101E700000F034FF20680020C04320601C48016847
:101E8000314301604168294341601A4908462146AF
:101E900018390968294202D1411C0028F6D10028CE
:101EA00018D01548006881B222682A4322600004D5
:101EB000800E00D0890811484843114900F028FCE1
:101EC0001049486088688A68D208801A4A68D2082F
:101ED0008018886070BDC04648500040000803402C
:101EE000010000260011034000480040C0D401005A
:101EF00000510040B03CFFFF80A25540401640001A
:101F0000189C0F0088010020F0B58B4200D182425E
:101F100004D90B0002000021002040E0002B00D17A
:101F2000002A0CD10B00020000210020002B00D160
:101F3000002A01D0C943C04300F027FC2FE01C0059
:101F400015000B0002000CB4002126002F00FF1921
:101F5000764102D2491C4029F9D100201E00170009
:101F6000FF19764102D2401C4028F9D10E1A2100F7
:101F70002800320000F0A8FD0C0005000CBC002079
:101F80000021A34200D1AA4201D3521BA3414041E8
:101F900049416D08E7073D436408761EF1D5059F6A
:101FA000002F01D03A607B60F0BDFEE7F0B585B050
:101FB0000190204C01200704C002029027640020F9
:101FC00004900820029E002815D07825039028460A
:101FD00000F084FE2664284600F080FE049840004D
:101FE00015490968C903C90F0818049003982660A9
:101FF0002663401EE7E70198002803D027602046AB
:10200000303001E020464030264607600B497825F5
:1020100028468847029C346428460849884734602B
:10202000346328460549884737640498C0B205B030
:10203000F0BDC046A0120A4080130A40DD2C00000B
:10204000FEB502901A4F0120020400920826C00239
:102050000190019C002E19D0029A50B20028009BDA
:1020600003D43B603846303001E0384640300360EE
:10207000520002927825284600F030FE3C64284643
:1020800000F02CFE3C603C63761EE3E70098386469
:10209000084D782420463E46A847019F37642046D5
:1020A000A84705480068376037632046A847FEBD4B
:1020B000A0120A40DD2C000080130A40F8B5451C30
:1020C00000780023082B32D02F78C2070CD16A7811
:1020D0000F241440E41C122C0BD102242E57F4B20E
:1020E000002E08D4EE1C0EE06D1C4A1C0F70114629
:1020F0001AE0AE1C08E02E1DED7800957F252C40DF
:10210000009DED012C1912343D0112095219094D9F
:10211000AA420ED0D243002C05D08D5C4F1C0D700E
:10212000641E3946F7E7354640085B1CCAE7284677
:10213000C5E7F8BDFF0F000070B50025EC4300F0C7
:1021400083FA154E8820B0472846B04700F056FB6A
:1021500000F07AFA8920B0470120FFF727FF0646F2
:102160002846FFF723FF054600F048FB30024019E0
:102170000A4988420DD0B10902290AD83109084A12
:10218000104088400749884200D308460649086045
:102190000446204670BDC04641200000FFFF0000FD
:1021A000FF0F0000C4F77F000402002010B51249A1
:1021B000124800F08DFA12484168124A0A40426003
:1021C0008168114A0A40911C81601049104A0A60D6
:1021D000026801210B04134303600E4A42610E4A58
:1021E000136A0C02234313621368234313600268CB
:1021F0000A43026010BDC046B82D000000400040F8
:1022000000510040FEFFECFFF8FFE0E0805100408D
:102210000F020000C05D000028500040FEB50C46D3
:10222000002812D005460027002D18D00A2628467F
:10223000314600F06DFA4643A91B30220A43791C4F
:102240006B46DA5505460F46EEE7684630210170C9
:10225000012704E0781C69463022CA550746A74288
:10226000F8D30848C169012F0BDB3E2909D87F1E2E
:102270006A46BA5C4B1CC361411820240A551946B2
:10228000F1E7FEBD28010020FCB5174807460837D6
:10229000FCCF016A0091416A019114494A678B673A
:1022A000CC6780228D5084228E5088228F508C22C1
:1022B000009B8B509022019B8B50826AC36A9424AE
:1022C0000A5198228B503122825C9C23CA543222BC
:1022D000825C9D23CA543322805C9E228854486FBE
:1022E00003494860FCBDC046700200200000002089
:1022F000F8010020BCB51349134C204600F002FC45
:1023000012492046FFF7BCFA11480168114A0A40F9
:10231000026000250095204629462A462B4600F0FB
:1023200027FC204629462A4600F0DEFB4B204101CF
:1023300020462A4600F09EFC07480121816001608A
:10234000BCBDC046282E000000000940C02D000082
:10235000041809407F00FFFF00110940FCB5124836
:102360000021BF22019232220092124C2546643590
:10237000AF273F011E222346C8330F4E0662064692
:1023800024361CC60D4A026341638163C1630C4A53
:10239000064B0360416082600199C1600099016150
:1023A00003491430A2C0FCBD700200205CAA55AAEB
:1023B00090410600340800002823000004050608A8
:1023C0000400020080B510488168104A914209D883
:1023D0000F4909680F4AD26A914204D21148BC21C0
:1023E0000122425080BD0C4901220A70816881613E
:1023F0000321417000F044F808484021016008487A
:1024000000F06CFC80BDC04628010020871300004E
:102410009001002070020020B002002090120A40BB
:10242000C05D0000000000201CB5002922D04C082F
:10243000002900D5494242105440002800D54042AE
:1024400000230A00904201D95200FBE790425B4111
:10245000904200D3801A914201D25208F6E7190047
:10246000002C00D54042640000D54942020008001B
:1024700011001CBD0100002000F001F81CBD7047D8
:10248000F8B502240E4D0F4E002C17D06920010123
:102490000D488180002728463A4600F0EBFB304685
:1024A00000F01CFC09490848818028463A4600F0A3
:1024B000E1FB304600F012FC641EE5E7F8BDC046C3
:1024C00000000940009F2400E00100205F09000097
:1024D0000D48842101600D4901220A630C4A026003
:1024E000812282610B4AC266C36EC36682608268C3
:1024F0008260094A0264036C0364C262C26AC262F7
:10250000402008600863704704804240A0120A40DF
:102510008400000481000E0081000C00B0B50B485F
:102520000B4941600B4A51600B4B59608C1E0B4D9F
:102530006C600B4C61600B4901601160196029608F
:102540002160102000F0CAFBB0BDC04600080A4060
:10255000030000B1000809400048004000080340A3
:102560000008084001000026F8B5044605460C3571
:1025700000260F4F6088864217D228460838016827
:10258000281F03682A68002A03D0184600F0B0FB11
:1025900008E00648874205D0481C097889007A5827
:1025A00019469047761C0C35E4E7F8BD902E0000E4
:1025B000842E000070B50D48401C02D00B48FFF778
:1025C000D3FF0B480B4C84420CD00B4D0B4EB54245
:1025D00008D02A686968501C12789200A258904767
:1025E0000835F4E700BF00BF70BDC046B82E00003C
:1025F000902E0000842E0000A02E0000B82E0000B7
:1026000080B50D484178012915D10C490978012977
:1026100011D18178002905D004290CD8084909680E
:10262000006902E006490968C068081A054988423D
:1026300001D9FEF729FF80BDCC010020290100202F
:10264000300100203075000070B50E4D01200404EB
:10265000C6022C642E64782000F040FB0A48006813
:10266000C00302D400F0CAF870BD2C602C6378243B
:10267000204600F033FB2E602E63204600F02EFB38
:1026800070BDC046A0120A4080130A4010B50C4825
:10269000407A0002FF21C94341184A424A41094C8D
:1026A000227001210902884209D100F0C9F90648C7
:1026B00000680021C9436060A1600448608010BDCB
:1026C00070020020EC01002030010020FFFF00001C
:1026D000F0B511221302C2180C780B4D46590B4F5E
:1026E000374003262640BC19A9263606A4194451B2
:1026F0004C68C55807263606B54334402C19C450DB
:1027000048781061F0BDC04608080000FCFFFF00DB
:102710001CB50A0017D000230124E407A04200D210
:102720000400944201D95200FBE790425B41904281
:1027300000D3801A914201D25208F6E71900020034
:10274000080011001CBD01000020FFF798FE1CBD11
:10275000FCB4020C0B0CFF242402FF342040214067
:102760000C00444315005D4306005E430F005743D1
:10277000320C3B0CA818C01832043B040025A118E9
:102780006841C9186841FCBC70477047B0B50B4838
:10279000012251040A4B1C689502AC431C605C6822
:1027A000120594435C6002680A4205D002680A423E
:1027B00002D002680A42F6D1B0BDC04604020B4006
:1027C00000010B400B49002048700B490860C8808D
:1027D0008860C86068228854692288546A228854B4
:1027E0006B228854562288546C2288526E2288525A
:1027F00008677047F801002000000020F8B50125A7
:102800002E04084F3E603E637824204606498847E0
:10281000E80238642046044DA8473E642046A84795
:10282000F8BDC046A0120A40DD2C000080B5084863
:10283000203000F039F9002805D0064900228A70BE
:10284000054A1268CA60411E88410249487080BD2D
:10285000C8000020CC0100203001002080B50748CE
:1028600000680749884204D1FFF778FDFFF7DEFFD3
:1028700080BD04480121017080BDC0467002002067
:102880005CAA55AACC01002080B507480168074A18
:10289000914208D10649BF228160C26030210422E2
:1028A0004254FFF7C3FF80BD700200205CAA55AA06
:1028B0000400020010B50649064C204600F0BEF99F
:1028C0000549204600F0CEF8F02000F007FA10BDD0
:1028D0002B2E000000000340C82D0000B0B50849B1
:1028E000CA690378002B09D03E2A07D8401C541C23
:1028F000CC618A18202553552246F2E7B0BDC04668
:10290000280100200748026801680020120108D54C
:10291000490706D504490A7A002A02D1497A484271
:102920004841704780130A40B4010020B0B5074CFD
:1029300020680125A8432060054860607D20C00014
:1029400000F0CCF9206828432060B0BD045808404E
:10295000BF5D0000084880F3088800BF00BF00F09A
:10296000DFF9002801D0FFF725FE0020FDF7A8FBC6
:10297000012000F0CAF9C04600040020B0B5074BA2
:10298000C4180125C550FF232362E1611168E1628B
:102990005168216300F004F8B0BDC0460411000086
:1029A00082B00094014C019410BD00BF11020020C0
:1029B0000648002101600648016803229143016036
:1029C00041680F22914341607047C04608030B40A5
:1029D00000010B4030B514004C4325001C0044435B
:1029E0006419050010002900FFF7B2FE0019040069
:1029F0000D002100280030BD10B500220549064B0E
:102A00003C2A04D0845C61405943521CF8E70846D4
:102A100010BDC046C59D1C819301000180B50028F2
:102A200000D05A20054934228B5C834204D088545C
:102A3000FFF7FCFE00F0C0F880BDC0467002002029
:102A400010B5FFF701FE064C8820A0470120A047E3
:102A5000C220A0471020A047FFF7D0FE10BDC046FF
:102A600041200000B0B51122120283180C784D7875
:102A700025434C882C43A4B284508888C988090413
:102A800008189860B0BD80B5FFF748FDFFF720FD3E
:102A9000FFF78EFFFFF72EFCFFF788FBFFF70AFF1B
:102AA00000F072F880BD000010B50021054B425CBB
:102AB0005C5CA24203D1491C4029F8D11446101B8A
:102AC00010BDC0467002002018B520239B1A04D800
:102AD000010000205B42994004E004009140DC408A
:102AE0002143904018BD000010B592008018044AA0
:102AF00083580724A404A34321405918815010BDD2
:102B00003018000010B50122120383180C789C6065
:102B10004B7883508978014A815010BD0C11000018
:102B2000BFF34F8F034804490160BFF34F8F00BFCD
:102B3000FDE7C0460CED00E00400FA05BFF34F8F3F
:102B4000034804490160BFF34F8F00BFFDE7C04653
:102B50000CED00E00400FA05B0B5044BC4180225E2
:102B60001543C550E161FFF71BFFB0BD0411000024
:102B700010B5029CA400001911431943014A815069
:102B800010BDC046501800000348044901605F2191
:102B9000490641607047C04600110840430002C921
:102BA00003480121016003488168491C8160704726
:102BB000485008402801002080B50448407801288A
:102BC00002D1FEF761FC80BD012080BDCC01002058
:102BD0002120C00203490860012002040A64C002E7
:102BE00008647047A0120A406820345469203454A5
:102BF0006A2034546B2034545620345470470322D6
:102C00008058002805D0401E4A1C00230B70114636
:102C1000F7E7704702480168024A0A4302607047BA
:102C200048100A400400000840B584B002AE009687
:102C3000FFF76AF9029A039B04B040BD10B5012268
:102C4000120383180C789C604978815010BD10B530
:102C500000239A4203D0CC5CC4545B1CF9E710BD3E
:102C600080B50B4603214258C11D184600F040F8BC
:102C700080BD000092008018014A81507047C04614
:102C80001018000000239A4202D0C1545B1CFAE7DE
:102C9000704700000A46002180B5FFF7F3FF80BDB2
:102CA000014AD08011707047E0010020014880780F
:102CB0007047C046CC010020014840687047C046BC
:102CC000CC010020014880687047C046CC0100203C
:102CD000014840787047C046CC010020811E091F82
:102CE00000BFFCD27047099868702E612E70704743
:102CF00080B5FFF7ACFF80BD467030468EE63A46A1
:102D0000234691E72146234664E600F001F8FEE7FA
:102D100000BF704723465DE62146C1E71AE67047CB
:082D20000120704700000000D3
:102D280081B01649411811221202012383500A6802
:102D3800072002400092009AD2B2032A19D0009AC2
:102D4800D2B2012A15D00A6802400092009AD2B283
:102D5800032A0ED0009AD2B2012A0AD00A68024089
:102D680000920098C0B2032803D00098C0B201288E
:102D7800DDD10098C0B201B07047C046D013000042
:102D880022000000BF5D00000000000000000200FB
:102D98000000000005001400320096002C01C2015A
:102DA80058022003E803CEFFE2FF00001E003200B5
:102DB800010400000000000060090000000000009D
:102DC80001800000000000006D56204D61783A0037
:102DD8005B4D414E5D20005B4552525D20005B4CCF
:102DE80056505D20005B4F46465D20005B414C53CA
:102DF8005D20005B5453545D20005B464C535D20BE
:102E080000000404000400205273743A00204F6646
:102E1800733A004C766C3A0020563A0020503A003B
:082E2800080000020000000098
:102E300000E5000001010052004F830156342EFFCF
:102E4000332E365F42415454FC0A4F71128F0849A9
:102E50006E69746961FF6C697A696E672E2ECD2E7A
:102E6000150F231C0C003318DF0EFFFF5A1AFF0941
:102E7000381CBF005F09039BFF0000000DCF02FF5D
:102E8000F0000000BD200000612C0000FF2B0000BE
:102E900002000000400000000001000004FFF000FC
:102EA000302E000000000020902E00007002002054
:082EB000982E0000B002002082
:102EB8000C000100282D0000100200206000000016
:1037F00056342E332E365F424154540000000000F0
:10380000FFFFFFFFFFFFFFFFFFFFFFFFFFFFFFFFC8
:10381000FFFFFFFFFFFFFFFFFFFFFFFFFFFFFFFFB8
:10382000FFFFFFFFFFFFFFFFFFFFFFFFFFFFFFFFA8
:10383000FFFFFFFFFFFFFFFFFFFFFFFFFFFFFFFF98
:04000003000029557B
:00000001FF
