:100000000004002037260000F31A0000F31A000055
:1000100000000000000000000000000000000000E0
:10002000000000000000000000000000F31A0000C3
:100030000000000000000000F31A0000F31A0000A6
:10004000F31A000079250000F31A000000000000F8
:10005000F31A000000000000000000000000000093
:1000600000000000F31A0000000000000000000083
:10007000000000000000000000000000F31A000073
:100080001925000000000000F31A00000000000025
:100090000000000000000000000000000000000060
:1000A000F31A000000000000000000000000000043
:1000B000000000000000000000000000F31A000033
:1000C00000B58FB0012402F0A8F962B6A04800681C
:1000D0001F2101409F4DE960E868012820460FD0AC
:1000E000E868022820460BD0E8680328204607D09D
:1000F000E8680428204603D0E868411F4842484188
:10010000954E964A964B132149060491210403917A
:1001100094494968B142069400D104460294049C73
:100120001C6014600EAE00200890B0700820308073
:100130008D4909AF1422384602F070FA601C8B49D1
:100140000860102002F064FA894C2046314602F023
:10015000A3F92046394601F08BF986480168069FCD
:100160003943016084480399016084490868384331
:1001700008607C4840687849884203D079484160EB
:10018000089901807E4C7F4E01F060F802F0DCF9A6
:1001900040200590206030680121079108433060BD
:1001A000089868700298002807D07748007B0006FE
:1001B00010D47648BC21032223E06A484078002806
:1001C00004D171483421405C5A28EED16F48BC21DB
:1001D000022216E001F02AFB00280FD001206870EF
:1001E00000242C612C705F484470204602F0E0F837
:1001F0006648BC21445001F04FFF03E06348BC2136
:100200000122425030BF6878052800D9E2E0079902
:1002100081403620014200D1DCE068790028384670
:1002200002D1687102F04CF8A7245948046000F02C
:1002300069FC064601F09AF902F01FF9554800687A
:1002400000097C2800D8C9E2A8687D21C90001F016
:1002500065FF6878002919D0FB2108426DD04E480F
:1002600000684949C96A884238D2A878401CC1B29E
:10027000A870052934D30898A87068703948079980
:10028000417002F0D4F902F053F929E0042801D0BA
:100290000128E1D13C49097B0907DDD52969491CC1
:1002A00029612978002906D129693C4A521C9142CA
:1002B00001D9012129702969394A9142CCD30428F6
:1002C00001D102F0BAF808986870012025494870F9
:1002D00002F0ADF902F02CF96878BDE70898A87033
:1002E0002D4800682849896A88420FD2E878401C66
:1002F000C2B2E8706878052A0BD3089AEA70042223
:100300000243052A05D10220687004E00898E870CD
:100310006878022811D1204800686431884241D3AE
:10032000079868700899296129700E48417008463D
:1003300002F03EF801F0B0FE6878052800D9F2E13D
:100340007844007940008744622D2D4BA97CC0463B
:1003500020020B404C0100203CC3A55A000803407A
:100360000048004060020020A0260000004808402D
:10037000004008402850084000E100E004580840D0
:1003800090120A40041809402002002000000020BA
:100390000811084024010020280100205F09000006
:1003A000B90B0000042E0FD108996970E748079A2D
:1003B00042702F71084602F025F901F055F902F05C
:1003C00036F902F0B5F8AEE1304600F0ADFE00F0CF
:1003D00073FAA8E168790028089800D021E723E79C
:1003E000042E74D101F022FA002800D198E0079879
:1003F0006870089C2C612C70D4484470204601F031
:10040000D7FFBC20D2490C5001F046FE8BE10027FB
:100410003846394602F0F6F8384601F09FFE012EC4
:100420005DD1CA480078002859D1CA480068CA4935
:10043000C96A884200D388E0BC200121C44A115017
:100440000DE1A868F6490968401AF64988425ED36A
:10045000079868700898F4490870BF4A9068F34993
:100460000840906001F0ECFE02F062F8F04A10786B
:10047000401CC1B21070032905D30898EC490870DC
:100480000798EC490870F448007A4000EA49085A95
:1004900000F056FC002102F0B5F844E1EF48006896
:1004A000F749884200D03EE16820EC4F395C0129D1
:1004B00065D16E24385BF049091A0022EB4802F03E
:1004C0008BF8385BEC49081AF049088020E1A868ED
:1004D0006969401AEE49884200D224E19EE1062E65
:1004E00000D1C3E0052E5ED0042E00D0B7E001F0AD
:1004F0009DF900287AD0079868702F612F70D34833
:10050000477002F094F8BC20D4490F50A5E080B2A7
:10051000E04901F003FEC8084B2826D3D64826E060
:10052000BC200799CD4A115064200024214602F0D6
:1005300069F801F099F8CF4802F06AF820462146A0
:1005400002F060F801F090F8EDE00120BF4908707A
:10055000A86868610320687001F098FCBC480599A0
:100560000160CD4802F054F879E0C3487738C749B4
:10057000088081B20022BD4802F02EF8D3E0395C39
:1005800002292AD16C20385A01F0AEF90746BA4840
:10059000874200D3B84F0022B448394602F01CF815
:1005A000BA480780B4E02E792F7101F06FFC01F09A
:1005B0003DF9002817D00296079E6E702F612F70AC
:1005C000A248477002F033F8BC20A4490F500298AB
:1005D000002832D13046AB4932E0385C03281AD1CA
:1005E0006C20385A25E0BC20079927E7BC200799E2
:1005F0009A4A115064200026314602F003F801F0B7
:1006000033F89C4802F004F83046314601F0FAFF16
:1006100001F02AF823E06B20385C9A4909780143FD
:10062000080673D18C48007A40009749085A00F0B8
:1006300087FB002101F0E6FF6AE0924908787040EC
:100640000870854B9968864A1140C0B20002084381
:10065000986001F0F5FD01F06BFF01F01DFD2879B8
:10066000012804D101F018FE002800D02F7168780D
:100670000028069F58D12879002862D101F00CFE8D
:10068000002850D07448007B40064CD46E48049932
:1006900001606C480160834A10690123D905014358
:1006A000116110682021014311607D4E326A02936E
:1006B000D906081D02433262784B5A6E7A4F3A408F
:1006C0005A661A683A401A605A6E0A435A661A689D
:1006D0000A431A60316801433160022673490E6093
:1006E00056480660039F0F6061480460624967488E
:1006F000018000225D48019201F06EFF5648007BA8
:10070000C0062BD472B630BF62B642E000F0D4F817
:10071000069F052E07D80798B0402E21084202D028
:10072000304600F001FD687805280CD0042808D177
:1007300068204A49095C012905D04849085C02281B
:1007400001D000F091FF01F061FC5BE56002002048
:100750000000002028010020200200203748076008
:1007600037484D494160404A0299D1633D4F38684E
:100770000423009318433860106849050143116051
:1007800030BF01F029FD386800998843386001F0D6
:1007900097FD424A506E464B191D0840506610683E
:1007A000084010603E4908681840086041480660EB
:1007B000BFF34F8FBFF36F8F2D48046001F06CFDC6
:1007C0000028069FAFD101F0E9F82C4800682249C3
:1007D000C96A8842A7D901982861A4E70024204665
:1007E000214601F00FFF00F03FFF2048224922463A
:1007F00001F0F2FE174A1068012188431060144886
:100800000599016101F094FE02201749C863154A59
:10081000106804210143116030BFFDE701F04AFE7A
:10082000AC01002010270000A0010020FFFEFFFF08
:10083000BA010020B9010020B426000000E100E068
:1008400004580840000803400048004060020020AF
:1008500090120A40041809402002002000000020E5
:10086000FFFEFFFF10ED00E004010B400000094017
:1008700008110840009F24005F09000028010020A3
:1008800054534554A0010020B426000096010020D6
:10089000E1930400DC050000C05D00000C804240D4
:1008A00028100A4090130A40FFFFFFEF80E200E0AB
:1008B000FBFFFFF780E100E0F0B585B081480078EC
:1008C000002800D0FCE0804C804D287800230428CC
:1008D000194608D17E4A1168A142194603D16B21FD
:1008E000515C4A1E91417A4A1668A64204D1D388C7
:1008F00094881C1B6342634100290CD1754C2478F9
:10090000002C18D0441E022C05D3041F66426641F9
:100910001E40012E0FD1724E30686E4B5B68C01ABC
:10092000C0087D2800D2CBE0002916D0146F6D4896
:100930000021017016E0042800D9C1E001218140A6
:100940001620014200D1BBE06348007A40006349B1
:10095000085A00F0F5F90021B0E001F091F90446E1
:1009600001F038FD5B4B30685860601C3ED05E483B
:10097000002505705B4805705C4804609868411C60
:1009800003D0C108E2088018441A9C6058480460EB
:1009900064212046039101F0C1FB4F4A3121565C8E
:1009A0003221515C01913321515C0491012102916A
:1009B00089070B4689088342FBD80AE05919421A75
:1009C000074600D317466D08884200D3ED189B08F0
:1009D0003846002BF2D1002E00D1052603994B207A
:1009E000C7000498002816D0484316E03D4802216D
:1009F00001703D480178491CCAB20170032A5FD3D7
:100A000000210170287804285AD005202870306809
:100A10003B49086054E03846C830049001980028EB
:100A200001D0484307466E432B4DA868FF221304AC
:100A30000340029A9204934202D8000CC0B200E034
:100A4000022040002B4A105E704301F0F3F9801938
:100A5000696A884200DC084627498C421D4B00D356
:100A6000049F874200DB07467D20C000874200DBF1
:100A70000746F817874358882049884219D000B2A2
:100A8000391A09B2012905DB19221201904208DB4B
:100A9000142207E01322D24391420ADA143807469F
:100AA00007E0052289B2962800DA02228A4200D2A3
:100AB00087185F80B8B200F043F9012101F0A2FD70
:100AC00005B0F0BD4C010020545345544D010020A9
:100AD00000000020A001002020020020B426000019
:100AE00054010020BB010020B8010020B401002007
:100AF000B0010020C6260000A4420F00FFFF000046
:100B0000AC010020FEB50127FC06804801682140A9
:100B10000268042002407E4B1D687E4EB54201975C
:100B200016D1DD889E88B54212D156255D5D002D17
:100B300000D00422002D00D0214669241D5D002430
:100B4000002D00D021466A255B5D002B00D0224697
:100B50004B424B41554255416F490A785200D218D9
:100B6000D4B20A702346FF3B5A425A414B785B008D
:100B70005B1926461E40DFB24B700097FF3F7B4259
:100B80007B41FF3E7542754116461E43029601D1D8
:100B900000264E80002D15D0019F8F700020C86068
:100BA0000861CC78002C25D05C4C24684E69A41BCD
:100BB0005B4E1436B44200D88FE00879002849D043
:100BC000002049E0CE79002E1BD0544C24684E6999
:100BD000A41B534E1436B44205D94C79002C02D1D3
:100BE0000C79002C4AD0029800280FD00A724B7260
:100BF000CD7189E0CF70494C24684C618880887140
:100C00006BE08878002812D0002066E00C79002084
:100C1000012C08D14C79002C05D18C79002C02D103
:100C20000198887106200A724B72CD715BE00E7AD2
:100C3000FF2C1AD0002E18D0CC68002C25D03B48B1
:100C4000364E3668341B2646153E513086421ED23B
:100C5000012025E00F710420364EB4423DD34C797B
:100C6000002C3AD14F71052037E00020FF2C17D11E
:100C7000002E15D1294C2468CC6011E0294C247831
:100C8000062C2AD22848005D27E0002008E02848EA
:100C90002018264CA04201D3002000E00120400093
:100CA0007C427C414F7A002F00D00194019C002CA3
:100CB00008D0002F11D1009CFF2C0ED1174C2468B6
:100CC0000C610AE00C69002C07D0144E3668341B06
:100CD000153C134EB44200D203200A724B72CD7100
:100CE000029A002A04D10022CA708A808A714A615D
:100CF000002809D0104A00211160104A1378002BF7
:100D000001D011700846FEBD0020FEBD80130A40D0
:100D10000000002054534554640100205401002079
:100D2000C70500004D010020E8260000BB020000BE
:100D3000DFFCFFFF881300005C0100204C01002055
:100D4000F0B589B006467E4A107BC00700D1F4E0BA
:100D50007C498F68D06A874207D9059614697A481A
:100D6000874205D87C4822180CE000264E62E4E059
:100D700076483918764801F0D1F97649884200D38F
:100D8000084602196E4D6869A9690792841806978A
:100D9000781A724A00263146334601F0E5FA2246B7
:100DA000334601F0F3FB0746ED6985422C4600D33C
:100DB0003C466448079B0361C760002F00D1BCE03C
:100DC0007D20C200002D1046089206D010466843D0
:100DD000214601F0A3F9079B089A019503944B2142
:100DE000904200D310460290480104901E263046DF
:100DF0005843642101F092F9024600243846214606
:100E000001F017FC554A234601F0C0FB0546384661
:100E10002146079A01F00DFC07900091059A01F018
:100E200008FC4F4A234601F0B1FB089A4019069985
:100E30000B1A10461CD904998B42104618D20498FC
:100E4000431C1E200699994212D32F46454BC918C0
:100E5000A9420DD9C81B424A00210B4601F084FA71
:100E6000079A009B01F092FB1E2800D81E20089ACA
:100E7000079001980028174605D03B48039901F0D8
:100E80004DF9089A07469742069D00D317460398E6
:100E900021462A4601F0CDFB4A07C3089A18CB0821
:100EA0007D3A089AA341144615D30024089A234694
:100EB00001F06CFB054603970F462148006A214666
:100EC000089A01F0B6FB2A463B46039F069D01F0B7
:100ED0005DFB089A0446944200D314460498401CD3
:100EE0008542079B0FD3214885420BD81E3A6A439F
:100EF0001F481018E121890001F010F9079B0646F0
:100F00001E3600E01646029A9342184600D3104659
:100F10008742394600D301468C42204600D308461A
:100F2000864200D30646074842618361C761046276
:100F300046620598864200D30646B0B209B0F0BDBD
:100F400020020020200100206C07000094F8FFFF21
:100F500080F0FA0290D00300E093040040420F00BA
:100F600000CA9A3BA0F6FFFF00093D00E30C000019
:100F7000407ADCFFF0B591B00124644E3046203059
:100F8000029001F05BFA002800D1A8E003940F2042
:100F900080020B900720C0020690012007904002BB
:100FA0000C905E4C6068401C6060204601F0EEF9D9
:100FB000E0635B484568846800220992099802282A
:100FC00000D981E01F2A00D97EE0641C102C29D3AF
:100FD0000A9253484068069A811A4C424C4190420A
:100FE0000B9D00D0069D4A4807990160A7204A49F9
:100FF000086072B6474F384629460C9A00F0AAFBA3
:1010000040223846294601F063FA62B6454908682D
:101010002030086020013118002434504C608C606E
:10102000CC600A9A0B98281A4142414108013018B5
:10103000015D521C0029C1D1001901900998401C82
:101040000990A00128180D90002105950A9204949A
:10105000032932D008912E4807990160A7242E4811
:1010600004600027402F1CD22C49C8194068C95978
:101070000E910F902848046072B60D98C619254D40
:10108000284631460C9A00F065FB0EAA28463146E8
:1010900001F03EF962B623490868801C08600837F1
:1010A000E0E70D9801F0CAF90899491C0028174E8D
:1010B000059D0A9A049CCBD115E007980199087008
:1010C00017484560846079E715498878401C887026
:1010D00014480068086103984870002412E0104822
:1010E000002141700EE00D494022029801F096FA6D
:1010F0000B494D608C60002048708870094800687A
:101100000861039C204611B0F0BDC046C00000201D
:1011100048E00C4000D00C4008110840200200209C
:101120007C01002054010020F8B5044641480078B5
:1011300004286DD80127394681401620014267D026
:10114000FF2005043C488668300C00907D20C000DC
:10115000FFF7F6FD611E02290DD3052C14D0032CD8
:101160001FD137490A78002A2CD03002800E53D183
:10117000009A521C51E032490A78002A13D02E42BC
:101180004AD0009AFF3248E02C4801782C4C207855
:10119000002926D0002801D00020207000F076FE23
:1011A0003AE0009A32E0F3B25F00274AD75B874209
:1011B00024D9330626D0F3B25B00D35A834222D916
:1011C000761EF6E7F2B2072A26D852001E4BD21836
:1011D000528882421DD9101A761C32281ADD4F70AF
:1011E0001AE07840207000F051FE2078002813D0DB
:1011F00001F0F0F81348006860600DE0002B02D0A9
:10120000761E00E00026009A00204870002C04D1D1
:10121000F8BD761C00204870009A10042840084948
:10122000097809020818F1B240180349886001F0F2
:1012300007F8F8BD4D01002020020020B901002070
:10124000A001002054010020B4260000F0B587B0B2
:101250000720C00201900021404804900120069020
:101260000E460591022935D002910029019D01D039
:101270000F20850200270395102F25D028683849B4
:1012800088421ED1284601F081F8E96B884205D1D9
:101290006C680598844205D3002004E0012004997D
:1012A000C8550EE001200642069E0AD140222D4874
:1012B000294601F0B3F92C48039941608760069EE6
:1012C00005947F1C4035D7E70299491C04981030DB
:1012D0000490C7E7F00702D10698234901E02249AC
:1012E0000878204AC50706D01020019A4A60886015
:1012F00000F06CFD1AE09068C1B2082901D93020D5
:10130000105C1072107BD0603120115C002901D17B
:10131000052111543220115C002901D106211154FC
:101320003320115C002901D10821115400260E4FF1
:101330003E700A4C20340B494022204601F06EF9E1
:101340007E70002D08D03E464021204601F054F921
:101350000698787001F0ECF807B0F0BDC0000020EE
:101360005CAA55AA200200207C010020F0B5394A71
:101370008218394BC0183A4D4C790B79002C22D089
:10138000466F202B02D00524E70100E0354F2E40A8
:10139000002B00D188273E434667846F2C403C4396
:1013A0008467446B2D4E34404463846B34408463C3
:1013B00000244465846554688F26F64334405460A5
:1013C0009468344094600C688979202B09D00646D3
:1013D0007036002B15D1641E4460C46E2C408827E3
:1013E00015E0641E4460C46E2C401E4E3443C46637
:1013F000046F2C40344304671B4D012467070646E5
:1014000007E00527FF0164084460C46E2C403C439C
:10141000C46634682C403C433460C46A0F4D2C4091
:10142000C462046B2C4004630024C4640465C46F6C
:101430008F25ED432C40C46714682C401460194379
:1014400002680A4B1340BD220A40D118891C016072
:10145000F0BDC04684180000041800008888FDFF15
:1014600024493E0001040000FFFFFFCF4000FFCFF2
:10147000B0B53A4A80184A6842600A78222A56D89B
:10148000930001A4E3589F46251500002F15000086
:10149000251500002F1500002F1500002F15000046
:1014A0002F1500002F1500002F1500002F1500002C
:1014B0002F1500002F1500002F1500002F1500001C
:1014C0002F1500002F150000151500002F15000026
:1014D000151500002F1500002F1500002F15000016
:1014E0002F1500002F1500002F1500002F150000EC
:1014F0002F1500002F1500002F1500002F150000DC
:101500002F1500002F150000151500002F150000E5
:1015100015150000036803242407A343012464076E
:101520001B1903E0036803242407A34303600B692A
:10153000C360CB68C46A0A4D25400A4C1C402B1975
:10154000C3620368084C1C400460097A11430268B6
:101550003F239A43194051180160B0BD04180000A0
:101560008888FDFF777702007F00FFFFF8B5012430
:101570002602324D287800280FD036480146183907
:10158000096831422FD12E490968AA6A891A0B29A4
:1015900052D301683143016042E0294F3868A96A9B
:1015A000401A3146F331884246D913204006401C88
:1015B0002449086024490A6822430A6023490860D4
:1015C000234801F025F8234801680021C943016040
:1015D00021480168214301604168314341602C701A
:1015E0003868A862F8BD0168314301601B48006893
:1015F00081B20004800E00D0890819484843194977
:1016000000F08CFD68606978002907D0A968AA6895
:10161000D208C0080818801AA86001E0A8606C70A1
:101620000020287008480168A1430160132040068B
:101630000649086003490860F8BDC0462001002043
:1016400054010020000803400011034000480040FE
:10165000C0D40100485000400051004080A25540D5
:1016600040164000189C0F00F8B533480578002D4F
:1016700007D032480078002807D03149052008817A
:1016800005E02F483149C18051E02D4800892C4E9A
:101690003178002927D0B188814224D029490A68AD
:1016A000F368D21A0C2A1FD30968F160B188401A76
:1016B00004B2012C09DBA0B20A2100F02FFD0A2C94
:1016C00000D80120B18808180DE0604280B20A21DC
:1016D00000F024FDB1880922D243944201DB093293
:1016E00000E042428818B080B4880027022D0DD156
:1016F0001548007B800609D5124800687D21090144
:1017000000F00CFD312901D8A4080127708984421A
:1017100005D17078854202D1B078B8420BD074817F
:101720007570B770204600F0DFF80146F080084879
:10173000002200F051FFF8BD4D0100204C010020B7
:101740009001002054010020200200205F090000C9
:1017500000000940F0B583B002920190304B314D4A
:1017600000918C0A28680727384005262E601968E2
:1017700089048A0F2860296839402E60186829601A
:10178000002A214608D028490840511C00F0C6FC18
:101790000146204600F0C2FC0198204A80180190C2
:1017A0002A683A402E601E4803682A602A683A4038
:1017B0002E6003682A60012293020298984207D0A3
:1017C000530298420CD10098C30B0BD1019803E04F
:1017D0001F210C4001984030A240016891430160F4
:1017E00003B0F0BDFF290DD82B683B402E600C4C98
:1017F00024682B60A3049B0F019800D12039CC08EA
:10180000001DE9E71302FF339942E9D2FF23DB43CE
:10181000C918CC0801980830DEE7C046D011000096
:101820001800C44100134040FF0F000070B5214D67
:1018300001242602204821490160214802682243F0
:10184000026020480160204800F0E2FE2868002085
:10185000C14329601D490A6822430A604A6832432D
:101860004A601B49491C2A46183A1268324201D183
:101870000029F7D100291BD01648006881B22A68D8
:1018800032432A600004800E00D089081248484381
:10189000124900F043FC12494860486888604C7067
:1018A00088681049C96A6431884200D800242046FB
:1018B00070BDC046485000400008034001000026AB
:1018C0000011034000480040C0D401000051004016
:1018D000AF3CFFFF80A2554040164000189C0F000F
:1018E0002001002020020020F8B5234F002840D01E
:1018F00004462248866822498D69AE4239D90A6970
:101900002048864202D8234810180CE000921E4856
:1019100031181E4800F002FC1D49884200D30846D9
:10192000009940181649496908180090701B1A4A16
:1019300000263146334600F017FD009A334600F08A
:1019400025FE002815D006460D48C06944437D2079
:10195000C5002046294600F0E1FB601A314600F040
:10196000DDFBA84200D328467843294600F0D6FB89
:101970003F1AB8B2F8BDC0465F0900002001002040
:10198000200200206C07000094F8FFFF80F0FA02AC
:1019900090D00300E093040040420F0070B5204C4B
:1019A000012635021F482049016020480268324361
:1019B00002601F4801601F4800F02AFE20680020D6
:1019C000C04320601C4801683143016041682943DD
:1019D00041601A490846214618390968294202D14E
:1019E000411C0028F6D1002818D01548006881B2A3
:1019F00022682A4322600004800E00D08908114822
:101A00004843114900F08AFB1049486088688A6899
:101A1000D208801A4A68D2088018886070BDC04613
:101A20004850004000080340010000260011034018
:101A300000480040C0D4010000510040B03CFFFF0E
:101A400080A2554040164000189C0F002001002045
:101A5000F0B58B4200D1824204D90B000200002174
:101A6000002040E0002B00D1002A0CD10B00020026
:101A700000210020002B00D1002A01D0C943C0431F
:101A800000F0A9FB2FE01C0015000B0002000CB4B5
:101A9000002126002F00FF19764102D2491C40295F
:101AA000F9D100201E001700FF19764102D2401C18
:101AB0004028F9D10E1A21002800320000F0CEFC97
:101AC0000C0005000CBC00200021A34200D1AA425A
:101AD00001D3521BA341404149416D08E7073D43F3
:101AE0006408761EF1D5059F002F01D03A607B6017
:101AF000F0BDFEE7F0B585B00190204C0120070451
:101B0000C00202902764002004900820029E002852
:101B100015D078250390284600F07AFD26642846E3
:101B200000F076FD0498400015490968C903C90F03
:101B300008180490039826602663401EE7E7019882
:101B4000002803D027602046303001E02046403096
:101B5000264607600B49782528468847029C34644E
:101B60002846084988473460346328460549884731
:101B700037640498C0B205B0F0BDC046A0120A4058
:101B800080130A4011260000FEB502901A4F012072
:101B9000020400920826C0020190019C002E19D078
:101BA000029A50B20028009B03D43B603846303084
:101BB00001E0384640300360520002927825284602
:101BC00000F026FD3C64284600F022FD3C603C63AA
:101BD000761EE3E700983864084D782420463E4698
:101BE000A847019F37642046A8470548006837602A
:101BF00037632046A847FEBDA0120A401126000008
:101C000080130A40F8B5451C00780023082B32D019
:101C10002F78C2070CD16A780F241440E41C122CD0
:101C20000BD102242E57F4B2002E08D4EE1C0EE085
:101C30006D1C4A1C0F7011461AE0AE1C08E02E1DE8
:101C4000ED7800957F252C40009DED012C19123474
:101C50003D0112095219094DAA420ED0D243002C5F
:101C600005D08D5C4F1C0D70641E3946F7E7354674
:101C700040085B1CCAE72846C5E7F8BDFF0F000017
:101C800070B50025EC4300F0E5F9154E8820B0470B
:101C90002846B04700F0BCFA00F0DCF98920B047D4
:101CA0000120FFF727FF06462846FFF723FF0546DA
:101CB00000F0AEFA300240190A4988420DD0B1094D
:101CC00002290AD83109084A104088400749884249
:101CD00000D30846064908600446204670BDC04649
:101CE000891B0000FFFF0000FF0F0000C4F77F000A
:101CF000B401002010B51249124800F0EFF9124863
:101D00004168124A0A4042608168114A0A40911CA7
:101D100081601049104A0A60026801210B041343D4
:101D200003600E4A42610E4A136A0C022343136297
:101D300013682343136002680A43026010BDC04663
:101D4000D02600000040004000510040FEFFECFFA4
:101D5000F8FFE0E0805100400F020000C05D00008D
:101D600028500040BCB51349134C204600F094FBAA
:101D700012492046FFF7FAFA11480168114A0A4051
:101D8000026000250095204629462A462B4600F091
:101D9000ABFB204629462A4600F070FB4B20410150
:101DA00020462A4600F018FC0748012181600160A6
:101DB000BCBDC046EE26000000000940D826000049
:101DC000041809407F00FFFF00110940FCB51248CC
:101DD0000021BF22019232220092124C2546643526
:101DE000AF273F011E222346C8330F4E0662064628
:101DF00024361CC60D4A026341638163C1630C4AE9
:101E0000064B0360416082600199C16000990161E5
:101E100003491430A2C0FCBD200200205CAA55AAD0
:101E2000407E050034080000282300000405060851
:101E3000040002001CB5002922D04C08002900D55E
:101E4000494242105440002800D5404200230A0075
:101E5000904201D95200FBE790425B41904200D38F
:101E6000801A914201D25208F6E71900002C00D5E1
:101E70004042640000D549420200080011001CBD28
:101E80000100002000F001F81CBD7047F8B50224E5
:101E90000E4D0F4E002C17D0692001010D48C18056
:101EA000002728463A4600F097FB304600F0B0FB8A
:101EB00009490848C18028463A4600F08DFB304663
:101EC00000F0A6FB641EE5E7F8BDC046000009402F
:101ED000009F2400900100205F0900000D4884212C
:101EE00001600D4901220A630C4A0260812282616D
:101EF0000B4AC266C36EC366826082688260094A0A
:101F00000264036C0364C262C26AC2624020086059
:101F10000863704704804240A0120A408400000415
:101F200081000E0081000C00B0B50B480B494160E8
:101F30000B4A51600B4B59608C1E0B4D6C600B4C67
:101F400061600B49016011601960296021601020F7
:101F500000F05EFBB0BDC04600080A40030000B1BF
:101F600000080940004800400008034000080840FD
:101F700001000026F8B5044605460C3500260F4F33
:101F80006088864217D2284608380168281F0368EF
:101F90002A68002A03D0184600F040FB08E00648F3
:101FA000874205D0481C097889007A58194690471D
:101FB000761C0C35E4E7F8BD482700003C270000FC
:101FC00070B50D48401C02D00B48FFF7D3FF0B48FB
:101FD0000B4C84420CD00B4D0B4EB54208D02A68F6
:101FE0006968501C12789200A25890470835F4E7AF
:101FF00000BF00BF70BDC04670270000482700002A
:102000003C270000582700007027000080B50D48CD
:102010004178012915D10C490978012911D181781C
:10202000002905D004290CD808490968006902E094
:1020300006490968C068081A0549884201D9FEF7AF
:1020400099FF80BD7C0100204D010020540100203B
:102050003075000070B50E4D01200404C6022C64DA
:102060002E64782000F0D4FA0A480068C00302D435
:1020700000F0CEF870BD2C602C637824204600F070
:10208000C7FA2E602E63204600F0C2FA70BDC0462B
:10209000A0120A4080130A4010B50C48407A000292
:1020A000FF21C94341184A424A41094C227001218B
:1020B0000902884209D100F08DF906480068002124
:1020C000C9436060A1600448608010BD2002002008
:1020D000A001002054010020FFFF0000F0B51122F4
:1020E0001302C2180C780B4D46590B4F374003268C
:1020F0002640BC19A9263606A41944514C68C55877
:1021000007263606B54334402C19C4504878106170
:10211000F0BDC04608080000FCFFFF001CB50A0027
:1021200017D000230124E407A04200D20400944207
:1021300001D95200FBE790425B41904200D3801AE4
:10214000914201D25208F6E719000200080011007E
:102150001CBD01000020FFF798FE1CBDB0B5044671
:102160000C480178A14213D00470FFF773FF0A4DA9
:102170008820A8470120A847002C01D1204600E074
:10218000C220A847601E84412001A84700F040F803
:10219000B0BDC046BC010020891B0000FCB4020C8D
:1021A0000B0CFF242402FF34204021400C00444348
:1021B00015005D4306005E430F005743320C3B0C95
:1021C000A818C01832043B040025A1186841C9189A
:1021D0006841FCBC70477047B0B50B480122510400
:1021E0000A4B1C689502AC431C605C681205944362
:1021F0005C6002680A4205D002680A4202D00268A6
:102200000A42F6D1B0BDC04604020B4000010B40AB
:10221000F8B501252E04084F3E603E637824204621
:1022200006498847E80238642046044DA8473E64C2
:102230002046A847F8BDC046A0120A40112600005B
:1022400080B50848203000F0F9F8002805D006498C
:1022500000228A70054A1268CA60411E88410249FC
:10226000487080BDC00000207C0100205401002087
:1022700010B50649064C204600F092F90549204663
:1022800000F0BAF8F02000F0C3F910BDF12600000C
:1022900000000340E02600000748026801680020B3
:1022A000120108D5490706D504490A7A002A02D145
:1022B000497A48424841704780130A40640100202F
:1022C000B0B5074C20680125A84320600548606030
:1022D0007D20C00000F09CF9206828432060B0BD3C
:1022E00004580840BF5D0000084880F3088800BF1C
:1022F00000BF00F0A2F9002801D0FFF761FE002026
:10230000FDF7DEFE012000F08DF9C046000400203C
:10231000B0B5074BC4180125C550FF232362E16106
:102320001168E1625168216300F004F8B0BDC04655
:102330000411000082B00094014C019410BD00BF54
:10234000C1010020064800210160064801680322FF
:102350009143016041680F22914341607047C0463C
:1023600008030B4000010B4030B514004C4325001E
:102370001C0044436419050010002900FFF70EFFFC
:10238000001904000D002100280030BD10B5002206
:102390000549064B3C2A04D0845C61405943521CD9
:1023A000F8E7084610BDC046C59D1C819301000199
:1023B00080B5002800D05A20054934228B5C834226
:1023C00004D08854FFF73CFF00F0B2F880BDC0464F
:1023D0002002002010B5FFF73DFE064C8820A047E4
:1023E0000120A047C220A0471020A047FFF710FF00
:1023F00010BDC046891B0000B0B51122120283181F
:102400000C784D7825434C882C43A4B2845088889E
:10241000C988090408189860B0BD80B5FFF784FD2D
:10242000FFF75CFDFFF78EFFFFF79CFCFFF762FCF8
:10243000FFF71EFF00F064F880BD704710B5002163
:10244000054B425C5C5CA24203D1491C4029F8D197
:102450001446101B10BDC0462002002018B52023D2
:102460009B1A04D8010000205B42994004E004005C
:102470009140DC402143904018BD704710B5920058
:102480008018044A83580724A404A3432140591800
:10249000815010BD3018000010B5012212038318BE
:1024A0000C789C604B7883508978014A815010BD2C
:1024B0000C110000BFF34F8F034804490160BFF3C4
:1024C0004F8F00BFFDE7C0460CED00E00400FA05A9
:1024D000B0B5044BC41802251543C550E161FFF7A0
:1024E00029FFB0BD0411000010B5029CA400001922
:1024F00011431943014A815010BDC04650180000D5
:102500000348044901605F21490641607047C046A5
:1025100000110840430002C903480121016003483B
:102520008168491C81607047485008404C01002078
:1025300080B504484078012802D1FEF71BFD80BD1C
:10254000012080BD7C0100202120C00203490860D9
:10255000012002040A64C00208647047A0120A4005
:1025600003228058002805D0401E4A1C00230B700F
:102570001146F7E77047000002480168024A0A4323
:102580000260704748100A400400000840B584B05B
:1025900002AE0096FFF75CFA029A039B04B040BDBE
:1025A00010B50122120383180C789C604978815081
:1025B00010BD10B500239A4203D0CC5CC4545B1C00
:1025C000F9E710BD80B50B4603214258C11D1846DE
:1025D00000F024F880BD000092008018014A81506C
:1025E0007047C0461018000000239A4202D0C15420
:1025F0005B1CFAE7704700000A46002180B5FFF730
:10260000F3FF80BD014A10811170704790010020D6
:10261000811E091F00BFFCD27047000080B5FFF784
:10262000C8FF80BD00F001F8FEE700BF70473846E4
:10263000BEE6234698E657E6704701207047000043
:1026400081B01649411811221202012383500A68F1
:10265000072002400092009AD2B2032A19D0009AB1
:10266000D2B2012A15D00A6802400092009AD2B272
:10267000032A0ED0009AD2B2012A0AD00A68024078
:1026800000920098C0B2032803D00098C0B201287D
:10269000DDD10098C0B201B07047C046D013000031
:1026A00022000000BF5D00000000000000000200EA
:1026B0000000000005001400320096002C01C20149
:1026C00058022003E803CEFFE2FF00001E003200A4
:1026D000010400000000000060090000000000008C
:1026E0000180000000000000000404000400080055
:0826F0000002000000000000E0
:1026F80000E5000001010052004F830156342EFF0F
:10270800332E345F45434F5F8D440A5F661C0C00CF
:1027180033125F1314BF01FF65FF15FF093802CD9F
:1027280019115F0903571203D3FF0000069D01FF2B
:10273800F0000000051C0000C52500006125000010
:1027480002000000400000000001000004FFF0004B
:10275800F826000000000020482700002002002082
:08276800502700006002002070
:102770000C00010040260000C001002060000000A5
:1037F00056342E332E345F45434F5F4400000000A3
:10380000FFFFFFFFFFFFFFFFFFFFFFFFFFFFFFFFC8
:10381000FFFFFFFFFFFFFFFFFFFFFFFFFFFFFFFFB8
:10382000FFFFFFFFFFFFFFFFFFFFFFFFFFFFFFFFA8
:10383000FFFFFFFFFFFFFFFFFFFFFFFFFFFFFFFF98
:04000003000022E9EE
:00000001FF
