:1000000000040020DB260000F71A0000F71A0000A9
:1000100000000000000000000000000000000000E0
:10002000000000000000000000000000F71A0000BF
:100030000000000000000000F71A0000F71A00009E
:10004000F71A0000DD250000F71A0000000000008C
:10005000F71A00000000000000000000000000008F
:1000600000000000F71A000000000000000000007F
:10007000000000000000000000000000F71A00006F
:100080006925000000000000F71A000000000000D1
:100090000000000000000000000000000000000060
:1000A000F71A00000000000000000000000000003F
:1000B000000000000000000000000000F71A00002F
:1000C0008AB0012402F0C3F962B6A74800681F2174
:1000D0000140A64EF160F06801280CD0F0680228BB
:1000E00009D0F068032806D0F068042803D0F0682F
:1000F000401F444244419E4AF0689E4949688A1A1A
:10010000511E8A41002800D02246039209AC0027E4
:10011000A77008202080984904AD1422284602F0D8
:10012000CBFA964896490160102002F0BBFA954838
:1001300021463C4602F0CAF99248294601F022FACB
:100140009148016801221143016010048F49086041
:100150008F480168029211430160864840688449D3
:10016000884202D08348416004708A4D01F06AF8E9
:1001700002F012FA40200090286087480168029A35
:100180001143016074700398002809D08348007BF4
:10019000000605D501F048FB002801D002F087FADF
:1001A00001947F4802F07EFAA7207E49086000F0A3
:1001B0007DFE054601F096FB00F06CFAB068642104
:1001C00002F014F800295CD1B4617078052818D8C1
:1001D000800002A1095874488F46C04611020000F1
:1001E000F501000003020000070200000B020000FE
:1001F0000F0200006D48007800286D4808D06D4857
:1002000006E06D4804E06D4802E06D4800E06D488E
:100210006D4EB0476D48B047604C207A039501257C
:1002200029466B4FB8476B48B047A07A2946B84774
:10023000FA48B047FA48006804242146B847F9480C
:10024000B0477D20C00000F017FD2946039DB84748
:10025000F548B047F54800882146019CB847F44866
:10026000B047F44EF0680221B847B0693E2806D87E
:10027000411CB1613018202202770846F6E75B2066
:100280003454F748006800097C2809D8B078401C2D
:10029000C1B2B070032904D3B47002F071F900E068
:1002A000B470B0687D21C90001F0A0FF707800290A
:1002B00019D1012817D1E248007B000716D5306913
:1002C000401C30613078002805D13069E54988420A
:1002D00001D3029830703069E349884206D37470C4
:1002E00002F04EF97078FB21084232D0DA480068FB
:1002F000D349C96A88420AD2F078401CC1B2F07072
:10030000052905D3F470747002F03AF900E0F47036
:10031000D1480068CA49896A88420ED23079401CA7
:10032000C2B230717078052A09D3347104220243B5
:10033000052A04D10220707003E03471707802281D
:1003400007D1C54800686431884245D302F0AFF94F
:10035000707805284BD8C04678440079400087441F
:10036000653B3B59B287C04620020B401801002074
:100370003CC3A55A980200204827000000480840C6
:1003800001000026004008402850084000E100E03D
:100390000458084090120A400418094058020020EE
:1003A000C05D000008110840AD270000D401002006
:1003B00098270000B4270000A6270000C2270000ED
:1003C000BB2700009F270000C1230000D5270000A5
:1003D000691D0000CF270000042D03D1747002F0C6
:1003E000CFF804E0284600F0BDFF00F01FFB707856
:1003F00005280CD0042808D168209C49095C0129F3
:1004000005D09A49085C022801D001F0A5F901F055
:1004100065FEC6E6042D71D101F006FA002800D170
:1004200092E00298707034613470CAE00027384658
:10043000394602F019F92946012D67D17E48007826
:10044000002863D1844800687D49C96A8842CED3B8
:10045000794802990170B06870610320707001F0F2
:100460007DFD764800990160784802F01BF9BEE7EF
:10047000B06883490968401A8249884254D3029976
:100480007170744804706E4A9068090288439060E5
:1004900001F002FF02F074F87C4A1078401CC1B2EF
:1004A0001070032904D379480470029878490870C1
:1004B0006348007A40006F49085A00F0DDFB0021D4
:1004C00002F0D2F893E769480068694988428ED102
:1004D00003956820654D295C012947D16E24285B6E
:1004E0006549091A0022574802F0A8F8285B019CC8
:1004F0005749081A7730594908807FE0B068716918
:10050000401A5E49884200D271E784E0052942D052
:10051000042900D06BE701F087F9002814D0029875
:100520007070376137704CE080B2574901F05EFE61
:10053000C8084B28464900D377314848018000223B
:10054000404802F07BF852E764200024214602F084
:100550008BF801F001F93C4802F0A4F8204621464E
:10056000019C02F081F801F0F7F840E7295C0229CC
:100570002AD16C20285A01F013FA04463E488442DE
:1005800000D33D4C00222F48214602F057F8334853
:100590000480019C32E001F0E1FC01F045F9002803
:1005A00000D124E7029971703761377029480170D2
:1005B000234A906809020143916001F06DFE01F049
:1005C000DFFF01F0D1FD12E7285C032802D16C2087
:1005D000285A0DE06B20285C1E4909780143080663
:1005E0000AD11748007A40002249085A00F044FB1B
:1005F000002102F039F801E000F018FA039805280C
:1006000000D9F4E6029A82402E210A4200D1EEE699
:1006100000F0A8FEEBE601F067FFC046DA27000015
:100620007C01002090270000DE270000CC01002084
:10063000C9270000180100209802002090120A40EB
:100640005802002000000940009F2400C05D000007
:10065000E8080000D40100207C010020CC0100202B
:1006600078010020110E0000691000000000002039
:10067000545345545C2700005F090000E1930400D7
:10068000E001002010270000DC050000EE01002042
:10069000ED010020F0B587B0CA4E3068CA498842E3
:1006A00006D1F088B188401A41424141069101E0EB
:1006B00000200690C54800687061C5480068B021F8
:1006C0007050C44800784E217054C34800685721C8
:1006D0007054C24988680D467067C0B2B085C04882
:1006E0000088F085BF4801883186BF4C2168B16120
:1006F0000088BE49081A7D22D700784301F076FDB4
:100700002268002401F0DFFF01F0DAFFF061AA693E
:100710003262F06901F0D7FF01F0D2FF7062AC489D
:100720000268F06901F0CFFF049701F0C9FFB4211E
:100730007050AF480068B062AE4800687086AE483E
:1007400000687063AD480068B063AD480068F0634E
:10075000AC4800683064AC4800687064AB4800681E
:10076000B064AB4800784C217054AA4800784D2101
:100770007054A948016801220592D2060A405142EC
:1007800051414F22B1540068042528404142414163
:1007900050203154A148007851217054A04800786D
:1007A000522170548D4F387B4006C00F5321705436
:1007B00001F072FF5421705401F05CFF5521705418
:1007C00098480068B0657868F06501F059FF3066B8
:1007D00001F05CFF70667F4800780699C90700D178
:1007E000A5E001462943042947D08F4805990170A7
:1007F00078480695057001F0CFFE784D2F460837F2
:100800008FCF0197EF6902972F6A03976F6A70671E
:10081000B167F267802033508420019931508820DD
:10082000029931508C200399315090203750A86A9A
:10083000E96A9422B050982031503120285C9C21E4
:1008400070543220285C9D2170543320285C9E21F6
:1008500070543461F4606820305C00280AD16C2048
:10086000315A002906D15E490988002902D05C4925
:100870000988315257480078069D042800D08DE041
:10088000B068002800D184E0B16805983061B46098
:10089000881E052800D991E00391C046784400796C
:1008A000400087444602486457500695706F059093
:1008B000B16FC8B20290F06F01908023F0580090A1
:1008C00084257559882030588C2171589022B2584F
:1008D000424F059BBB60029BFB60019B3B61009B01
:1008E0007B61BD613B461C3307C39420305898217F
:1008F0007158B862F9629C21725C1420142A024675
:1009000000D8725C3121354B5A549D22B15C1429B8
:10091000014600D8B15C322299549E21725C142A9F
:10092000069D00D8705C33212C4A505427E00428DF
:1009300034D101F0E7FD01F0AFFC01F021FE002809
:100940001DD104201CE02348047001F0A5FC01F037
:1009500017FE04E01F480599017001F005FC3248BC
:100960000470346001F024FE022030610BE001F0DD
:10097000ABFC01F005FE002801D1284600E0022072
:10098000306101F08FFA0399F16012480078042871
:1009900004D1049800F070F90E48007822490A78D2
:1009A000012A09D12843042806D00C7003200949E4
:1009B000087001F0FDFDF46007B0F0BD0520306166
:1009C000E2E7C04600000020545345547C0100205B
:1009D0007801002019010020240100205802002085
:1009E000CA010020CC010020800100205F09000026
:1009F0008401002098010020880100208C01002043
:100A00009001002094010020E8010020E401002072
:100A1000EC010020EF01002080130A4018010020A3
:100A2000D501002028010020F0010020F0B585B09C
:100A300081480078002800D0FBE0804C804D287869
:100A400000230428194608D17E4A1168A14219469C
:100A500003D16B21515C4A1E91417A4A1668A64225
:100A600004D1D38894881C1B6342634100290CD1B4
:100A7000754C2478002C17D0441E022C05D3041F7B
:100A8000664266411E40012E0ED1724E30686E4B9A
:100A90005B68C01A782800D2CBE0002916D0146F0A
:100AA0006D480021017016E0042800D9C1E0012141
:100AB00081401620014200D1BBE06448007A40002A
:100AC0006349085A00F0D8F80021B0E001F0DAF8E4
:100AD000044601F099FC5C4B30685860601C3ED0C5
:100AE0005E48002505705C4805705D4804609868A4
:100AF000411C03D0C108E2088018441A9C60594880
:100B0000046064212046039101F070FB4F4A3121BB
:100B1000565C3221515C01913321515C04910121D9
:100B2000029189070B4689088342FBD80AE05919CC
:100B3000421A074600D317466D08884200D3ED18C5
:100B40009B083846002BF2D1002E00D105260399D0
:100B50004B20C7000498002816D0484316E03E48B2
:100B6000022101703D480178491CCAB20170032A74
:100B70005FD300210170287804285AD005202870FE
:100B800030683C49086054E03846C8300490019809
:100B9000002801D0484307466E432C4DA868FF2229
:100BA00013040340029A9204934202D8000CC0B28C
:100BB00000E0022040002C4A105E704301F0A2F9D0
:100BC0008019696A884200DC084628498C421E4B1D
:100BD00000D3049F874200DB07467D20C000874288
:100BE00000DB0746F817874358882149884219D007
:100BF00000B2391A09B2012905DB1922120190420B
:100C000008DB142207E01322D24391420ADA143897
:100C1000074607E0052289B2962800DA02228A42B6
:100C200000D287185F80B8B200F026F8012101F0E9
:100C30001BFD05B0F0BDC0461801002054534554BB
:100C40001901002000000020D401002058020020DB
:100C50005C27000020010020EF010020EC010020B3
:100C6000E8010020E40100206E270000A4420F00EC
:100C7000FFFF0000E0010020F0B589B006467E4A83
:100C8000107BC00700D1F4E07C498F68D06A8742AE
:100C900007D9059614697A48874205D87C482218F6
:100CA0000CE000264E62E4E076483918764801F000
:100CB0009DFA7649884200D3084602196E4D68694C
:100CC000A969079284180697781A724A0026314655
:100CD000334601F063FB2246334601F089FC0746A8
:100CE000ED6985422C4600D33C466448079B03616E
:100CF000C760002F00D1BCE07D20C200002D10464F
:100D0000089206D010466843214601F06FFA079B0F
:100D1000089A019503944B21904200D3104602900B
:100D2000480104901E2630465843642101F05EFAC3
:100D3000024600243846214601F0CDFC554A2346A0
:100D400001F056FC054638462146079A01F0C3FCDF
:100D500007900091059A01F0BEFC4F4A234601F02E
:100D600047FC089A401906990B1A10461CD9049999
:100D70008B42104618D20498431C1E2006999942B3
:100D800012D32F46454BC918A9420DD9C81B424A58
:100D900000210B4601F002FB079A009B01F028FCA2
:100DA0001E2800D81E20089A079001980028174690
:100DB00005D03B48039901F019FA089A0746974273
:100DC000069D00D31746039821462A4601F083FC6E
:100DD0004A07C3089A18CB087D3A089AA3411446DB
:100DE00015D30024089A234601F002FC0546039718
:100DF0000F462148006A2146089A01F06CFC2A46F9
:100E00003B46039F069D01F0F3FB089A044694427B
:100E100000D314460498401C8542079B0FD32148F9
:100E200085420BD81E3A6A431F481018E1218900F9
:100E300001F0DCF9079B06461E3600E01646029AD2
:100E40009342184600D310468742394600D30146E4
:100E50008C42204600D30846864200D30646074807
:100E600042618361C761046246620598864200D38D
:100E70000646B0B209B0F0BD58020020740100204F
:100E80006C07000094F8FFFF80F0FA0290D0030096
:100E9000E093040040420F0000CA9A3BA0F6FFFF17
:100EA00000093D00E30C0000407ADCFFFEB501269E
:100EB000F3066C4908681840096804220192114041
:100EC000694A1468694DAC42029616D1D488958857
:100ED000AC4212D15624145D002C00D00421002C09
:100EE00000D018466923D45C0023002C00D018469B
:100EF0006A24125D002A00D019464242424148420B
:100F000048415B490B785B009A18D5B20A702B46B2
:100F1000FF3B5A425A414B785B0018182E46064058
:100F2000C7B248700097FF3F7B427B41FF3E74424F
:100F300074411046184301D100208870002C14D051
:100F4000029F8F7000208860C860CE78494D2D6860
:100F5000002E1ED00E69AD1B474E1436B54270D917
:100F60000879002831D0002031E0C878002814D05A
:100F7000404800680D69451B3F4E14360020B542BD
:100F80005FD94D79002D5CD10879002808D10198EE
:100F900057E00D610020888053E08878002801D058
:100FA00000204EE08E79FF2D1AD0002E18D08E68CA
:100FB000002E1ED031482F4D2D68AE1B3546153DF5
:100FC0005130854217D201201EE00F7104202D4EB2
:100FD000B54236D34D79002D33D14F71052030E025
:100FE0000020FF2D10D1002E0ED1224D2D688D60D6
:100FF0000AE0002008E022483018204DA84201D322
:10100000002000E0012040007E427E41CF79002F89
:1010100000D00296029D002D08D0002F11D1009D16
:10102000FF2D0ED1134D2D68CD600AE0CD68002D47
:1010300007D0104E3668751B153D0F4EB54200D2D5
:1010400003208A71CB71CC70002809D00E4A002190
:1010500011600E4A1378002B01D011700846FEBDB6
:101060000020FEBD80130A40000000205453455468
:10107000A001002020010020C7050000BB020000E5
:10108000DFFCFFFF8813000028010020180100206A
:10109000F0B591B00124644E30462030029001F04A
:1010A000E7F9002800D1A8E003940F2080020B90FC
:1010B0000720C00206900120079040020C905E4C71
:1010C0006068401C6060204601F08CF9E0635B487A
:1010D00045688468002209920998022800D981E0B5
:1010E0001F2A00D97EE0641C102C29D30A92534891
:1010F0004068069A811A4C424C4190420B9D00D0A8
:10110000069D4A4807990160A7204A49086072B6BF
:10111000474F384629460C9A00F0B2FA402238462A
:10112000294601F0FDF962B645490868203008609B
:1011300020013118002434504C608C60CC600A9A35
:101140000B98281A4142414108013018015D521C98
:101150000029C1D1001901900998401C0990A001F3
:1011600028180D90002105950A920494032932D085
:1011700008912E4807990160A7242E480460002793
:10118000402F1CD22C49C8194068C9590E910F90A4
:101190002848046072B60D98C619254D2846314678
:1011A0000C9A00F06DFA0EAA2846314601F0CAF8F2
:1011B00062B623490868801C08600837E0E70D988C
:1011C00001F056F90899491C0028174E059D0A9A06
:1011D000049CCBD115E00798019908701748456029
:1011E000846079E715498878401C88701448006845
:1011F000086103984870002412E0104800214170F3
:101200000EE00D494022029801F056FA0B494D605C
:101210008C60002048708870094800680861039C51
:10122000204611B0F0BDC046B800002048E00C4098
:1012300000D00C400811084058020020B4010020E2
:1012400020010020F0B587B00720C00201900021E6
:1012500040480490012006900E460591022935D0A1
:1012600002910029019D01D00F20850200270395DE
:10127000102F25D02868384988421ED1284601F011
:10128000B1F8E96B884205D16C680598844205D3B2
:10129000002004E001200499C8550EE00120064218
:1012A000069E0AD140222D48294601F005FA2C4815
:1012B000039941608760069E05947F1C4035D7E7FF
:1012C0000299491C049810300490C7E7F00702D136
:1012D0000698234901E022490878204AC50706D02C
:1012E0001020019A4A60886000F0A8FD1AE090681A
:1012F000C1B2082901D93020105C1072107BD06077
:101300003120115C002901D1052111543220115CDA
:10131000002901D1062111543320115C002901D18B
:101320000821115400260E4F3E700A4C20340B4900
:101330004022204601F0C0F97E70002D08D03E46C4
:101340004021204601F08AF90698787001F018F9DA
:1013500007B0F0BDB80000205CAA55AA58020020D2
:10136000B4010020F8B504463F480078042869D845
:101370000127394681401620014263D0FF20050431
:101380003A488668300C00907D20C000FFF774FC5E
:10139000611E02290DD3052C14D0032C19D1354917
:1013A0000A78002A26D03002800E4FD1009A521CB3
:1013B0004DE030490A78002A0DD02E4246D0009ADE
:1013C000FF3244E02A480078002822D000F0C6FD11
:1013D0003CE0009A34E0F3B25F00284AD75B8742D2
:1013E00026D9330628D0F3B25B00D35A834224D9DE
:1013F000761EF6E7F2B2072A28D852001F4BD21801
:10140000528882421FD9101A761C32281CDD4F7078
:101410001CE0184C20787840207000F09FFD207868
:10142000002813D000F0F0FF1348006860600DE062
:10143000002B02D0761E00E00026009A00204870A3
:10144000002C04D1F8BD761C00204870009A1004CE
:1014500028400849097809020818F1B240180349E0
:10146000886000F019FFF8BD190100205802002023
:10147000ED010020D4010020200100205C270000A5
:10148000F0B5394A8218394BC0183A4D4C790B796E
:10149000002C22D0466F202B02D00524E70100E06B
:1014A000354F2E40002B00D188273E434667846F7E
:1014B0002C403C438467446B2D4E34404463846B22
:1014C0003440846300244465846554688F26F64361
:1014D000344054609468344094600C688979202BBF
:1014E00009D006467036002B15D1641E4460C46EC8
:1014F0002C40882715E0641E4460C46E2C401E4EAC
:101500003443C466046F2C40344304671B4D0124EC
:101510006707064607E00527FF0164084460C46EBC
:101520002C403C43C46634682C403C433460C46A5D
:101530000F4D2C40C462046B2C4004630024C4642F
:101540000465C46F8F25ED432C40C46714682C409C
:101550001460194302680A4B1340BD220A40D11897
:10156000891C0160F0BDC04684180000041800000A
:101570008888FDFF24493E0001040000FFFFFFCFE3
:101580004000FFCFB0B53A4A80184A6842600A78F6
:10159000222A56D8930001A4E3589F46391600002A
:1015A00043160000391600004316000043160000E1
:1015B00043160000431600004316000043160000C7
:1015C00043160000431600004316000043160000B7
:1015D00043160000431600004316000029160000C1
:1015E00043160000291600004316000043160000B1
:1015F0004316000043160000431600004316000087
:101600004316000043160000431600004316000076
:101610004316000043160000431600002916000080
:101620004316000029160000036803242407A3437F
:10163000012464071B1903E0036803242407A34360
:1016400003600B69C360CB68C46A0A4D25400A4C2D
:101650001C402B19C3620368084C1C400460097AC3
:10166000114302683F239A43194051180160B0BDED
:10167000041800008888FDFF777702007F00FFFFD5
:10168000F0B583B002920190304B314D00918C0A3D
:1016900028680727384005262E60196889048A0FB4
:1016A0002860296839402E6018682960002A214680
:1016B00008D028490840511C00F098FD01462046FA
:1016C00000F094FD0198204A801801902A683A4061
:1016D0002E601E4803682A602A683A402E6003681C
:1016E0002A60012293020298984207D0530298423E
:1016F0000CD10098C30B0BD1019803E01F210C40C3
:1017000001984030A24001689143016003B0F0BDF0
:10171000FF290DD82B683B402E600C4C24682B60B1
:10172000A3049B0F019800D12039CC08001DE9E7E4
:101730001302FF339942E9D2FF23DB43C918CC08D7
:1017400001980830DEE7C046D01100001800C441FF
:1017500000134040FF0F000070B52C480678002EA3
:1017600007D02B480078002807D02A490520C880D8
:1017700005E028482A49818043E02648C088254D55
:101780002978002927D06988814224D022490A6813
:10179000AB68D21A0C2A1FD30968A9606988401A5D
:1017A00004B2012C09DBA0B20A2100F01FFD0A2CB3
:1017B00000D80120698808180DE0604280B20A2133
:1017C00000F014FD69880922D243944201DB0932FA
:1017D00000E04242881868806C88022E0CD10F48C5
:1017E000007B800608D50C4800687D21090100F0C7
:1017F000FDFC322900D2A408204600F0D1F80146B1
:10180000A8800848002200F019FF70BD19010020CF
:1018100018010020C80100202001002058020020EB
:101820005F0900000000094070B5214D0124260227
:101830002048214901602148026822430260204873
:101840000160204800F02EFF28680020C143296075
:101850001D490A6822430A604A6832434A601B49AC
:10186000491C2A46183A1268324201D10029F7D1A0
:1018700000291BD01648006881B22A6832432A60CA
:101880000004800E00D0890812484843124900F035
:10189000ADFC12494860486888604C7088681049FF
:1018A000C96A6431884200D80024204670BDC04611
:1018B000485000400008034001000026001103408A
:1018C00000480040C0D4010000510040AF3CFFFF81
:1018D00080A2554040164000189C0F007401002063
:1018E00058020020B0B5274C2078002811D0274896
:1018F000012529020246183A1268D20521D4224A4B
:101900001268A36AD21A0B2A3AD302680A43026009
:1019100034E01D480168A26A891A642930D31B4942
:101920000A680022D2430A6019490A6801231A434F
:101930000A604A681D0215434D6023700068A0626A
:10194000B0BD02680A4302601248006881B2000418
:10195000800E00D0890810484843104900F046FC2A
:1019600060606178002907D0A168A268D208C00829
:101970000818801AA06001E0A06065700020207047
:10198000B0BDC04674010020200100204850004036
:101990000051004080A2554040164000189C0F00A6
:1019A000F8B5234F002840D00446224886682249D3
:1019B0008D69AE4239D90A692048864202D8234847
:1019C00010180CE000921E4831181E4800F00EFC62
:1019D0001D49884200D308460099401816494969B4
:1019E00008180090701B1A4A00263146334600F052
:1019F000D5FC009A334600F0FBFD002815D00646C2
:101A00000D48C06944437D20C5002046294600F0AA
:101A1000EDFB601A314600F0E9FBA84200D32846EE
:101A20007843294600F0E2FB3F1AB8B2F8BDC04641
:101A30005F09000074010020580200206C070000BC
:101A400094F8FFFF80F0FA0290D00300E0930400C6
:101A500040420F00F0B58B4200D1824204D90B0006
:101A600002000021002040E0002B00D1002A0CD110
:101A70000B00020000210020002B00D1002A01D021
:101A8000C943C04300F0EFFB2FE01C0015000B0022
:101A900002000CB4002126002F00FF19764102D26B
:101AA000491C4029F9D100201E001700FF1976417A
:101AB00002D2401C4028F9D10E1A21002800320021
:101AC00000F0E6FC0C0005000CBC00200021A34245
:101AD00000D1AA4201D3521BA341404149416D08A4
:101AE000E7073D436408761EF1D5059F002F01D01E
:101AF0003A607B60F0BDFEE7F0B585B00190204C08
:101B000001200704C00202902764002004900820EE
:101B1000029E002815D078250390284600F0C2FDCB
:101B20002664284600F0BEFD049840001549096867
:101B3000C903C90F08180490039826602663401E45
:101B4000E7E70198002803D027602046303001E005
:101B500020464030264607600B49782528468847AE
:101B6000029C346428460849884734603463284618
:101B70000549884737640498C0B205B0F0BDC04637
:101B8000A0120A4080130A40A5260000FEB502906C
:101B90001A4F0120020400920826C0020190019C05
:101BA000002E19D0029A50B20028009B03D43B604B
:101BB0003846303001E0384640300360520002922F
:101BC0007825284600F06EFD3C64284600F06AFD4A
:101BD0003C603C63761EE3E700983864084D782447
:101BE00020463E46A847019F37642046A84705483F
:101BF0000068376037632046A847FEBDA0120A4040
:101C0000A526000080130A40F8B5451C0078002383
:101C1000082B32D02F78C2070CD16A780F241440D9
:101C2000E41C122C0BD102242E57F4B2002E08D43F
:101C3000EE1C0EE06D1C4A1C0F7011461AE0AE1C23
:101C400008E02E1DED7800957F252C40009DED01CC
:101C50002C1912343D0112095219094DAA420ED015
:101C6000D243002C05D08D5C4F1C0D70641E39468C
:101C7000F7E7354640085B1CCAE72846C5E7F8BDCC
:101C8000FF0F000070B50025EC4300F04BFA154E35
:101C90008820B0472846B04700F0E6FA00F042FA44
:101CA0008920B0470120FFF727FF06462846FFF7A7
:101CB00023FF054600F0D8FA300240190A4988424D
:101CC0000DD0B10902290AD83109084A10408840CC
:101CD0000749884200D30846064908600446204662
:101CE00070BDC0468D1B0000FFFF0000FF0F00000D
:101CF000C4F77F00E801002010B51249124800F037
:101D000055FA12484168124A0A4042608168114AF5
:101D10000A40911C81601049104A0A600268012142
:101D20000B04134303600E4A42610E4A136A0C020D
:101D30002343136213682343136002680A4302605B
:101D400010BDC04678270000004000400051004010
:101D5000FEFFECFFF8FFE0E0805100400F020000C2
:101D6000C05D000028500040FEB50C46002812D08F
:101D700005460027002D18D00A262846314600F0D7
:101D800035FA4643A91B30220A43791C6B46DA55C3
:101D900005460F46EEE7684630210170012704E052
:101DA000781C69463022CA550746A742F8D308482E
:101DB0008169012F0ADB3E2908D87F1E6A46BA5C7A
:101DC0004B1C836141180A771946F2E7FEBDC046F5
:101DD00018010020BCB51349134C204600F076FBD7
:101DE00012492046FFF74CFB11480168114A0A408E
:101DF000026000250095204629462A462B4600F021
:101E00009BFB204629462A4600F052FB4B2041010D
:101E100020462A4600F012FC07480121816001603B
:101E2000BCBDC046E227000000000940802700003A
:101E3000041809407F00FFFF00110940FCB512485B
:101E40000021FF22019232220092124C2546643575
:101E5000AF273F011E222346C8330F4E06620646B7
:101E600024361CC60D4A026341638163C1630C4A78
:101E7000064B0360416082600199C1600099016175
:101E800003491430A2C0FCBD580200205CAA55AA28
:101E9000407E0500340800002823000004050608E1
:101EA00004000200FCB5154807460837FCCF016A5C
:101EB0000091416A019112494A678B67CC67802281
:101EC0008D5084228E5088228F508C22009B8B5004
:101ED0009022019B8B50826AC36A94240A519822F3
:101EE0008B503122825C9C23CA543222825C9D2317
:101EF000CA543322805C9E228854FCBD58020020C4
:101F0000000000201CB5002922D04C08002900D573
:101F1000494242105440002800D5404200230A00A4
:101F2000904201D95200FBE790425B41904200D3BE
:101F3000801A914201D25208F6E71900002C00D510
:101F40004042640000D549420200080011001CBD57
:101F50000100002000F001F81CBD7047F8B5022414
:101F60000E4D0F4E002C17D0692001010D488180C5
:101F7000002728463A4600F061FB304600F092FB0D
:101F800009490848818028463A4600F057FB304608
:101F900000F088FB641EE5E7F8BDC046000009407C
:101FA000009F2400C80100205F0900000D48842123
:101FB00001600D4901220A630C4A0260812282619C
:101FC0000B4AC266C36EC366826082688260094A39
:101FD0000264036C0364C262C26AC2624020086089
:101FE0000863704704804240A0120A408400000445
:101FF00081000E0081000C00B0B50B480B49416018
:102000000B4A51600B4B59608C1E0B4D6C600B4C96
:1020100061600B4901601160196029602160102026
:1020200000F040FBB0BDC04600080A40030000B10C
:10203000000809400048004000080340000808402C
:1020400001000026F8B5044605460C3500260F4F62
:102050006088864217D2284608380168281F03681E
:102060002A68002A03D0184600F026FB08E006483C
:10207000874205D0481C097889007A58194690474C
:10208000761C0C35E4E7F8BD442800003828000031
:1020900070B50D48401C02D00B48FFF7D3FF0B482A
:1020A0000B4C84420CD00B4D0B4EB54208D02A6825
:1020B0006968501C12789200A25890470835F4E7DE
:1020C00000BF00BF70BDC04670280000442800005B
:1020D00038280000542800006C28000080B50D4806
:1020E0004178012915D10C490978012911D181784C
:1020F000002905D004290CD808490968006902E0C4
:1021000006490968C068081A0549884201D9FEF7DE
:10211000BFFF80BDB4010020190100202001002074
:102120003075000070B50E4D01200404C6022C6409
:102130002E64782000F0B6FA0A480068C00302D482
:1021400000F092F870BD2C602C637824204600F0DB
:10215000A9FA2E602E63204600F0A4FA70BDC04696
:10216000A0120A4080130A4010B50C48407A0002C1
:10217000FF21C94341184A424A41094C22700121BA
:102180000902884209D100F03FF9064800680021A1
:10219000C9436060A1600448608010BD58020020FF
:1021A000D401002020010020FFFF0000F0B5112223
:1021B0001302C2180C780B4D46590B4F37400326BB
:1021C0002640BC19A9263606A41944514C68C558A6
:1021D00007263606B54334402C19C45048781061A0
:1021E000F0BDC04608080000FCFFFF001CB50A0057
:1021F00017D000230124E407A04200D20400944237
:1022000001D95200FBE790425B41904200D3801A13
:10221000914201D25208F6E71900020008001100AD
:102220001CBD01000020FFF798FE1CBDFCB4020C91
:102230000B0CFF242402FF34204021400C004443B7
:1022400015005D4306005E430F005743320C3B0C04
:10225000A818C01832043B040025A1186841C91809
:102260006841FCBC70477047F8B501252E04084F43
:102270003E603E637824204606498847E802386479
:102280002046044DA8473E642046A847F8BDC046F6
:10229000A0120A40A526000080B50848203000F0B2
:1022A000E7F8002805D0064900228A70054A12681E
:1022B000CA60411E88410249487080BDB8000020B4
:1022C000B40100202001002080B5074800680749BC
:1022D000884204D1FFF7B2FDFFF7DEFF80BD04485E
:1022E0000121017080BDC046580200205CAA55AA99
:1022F000B401002010B50649064C204600F082F9D2
:102300000549204600F092F8F02000F0CBF910BD0E
:10231000E52700000000034088270000084880F3FC
:10232000088800BF00BF00F0DAF9002801D0FFF7ED
:10233000AFFE0020FDF7C4FE012000F0C7F9C04643
:1023400000040020B0B5074BC4180125C550FF2379
:102350002362E1611168E1625168216300F004F8D1
:10236000B0BDC0460411000082B00094014C01943D
:1023700010BD00BFF9010020064800210160064899
:10238000016803229143016041680F22914341603B
:102390007047C04608030B4000010B4030B51400E5
:1023A0004C4325001C00444364190500100029001B
:1023B000FFF73CFF001904000D002100280030BD8C
:1023C00010B507498A690378002B08D03E2A06D841
:1023D000401C541C8C618A1813772246F3E710BD09
:1023E0001801002010B500220549064B3C2A04D0F4
:1023F000845C61405943521CF8E7084610BDC04652
:10240000C59D1C819301000110B5FFF78BFE064CA2
:102410008820A0470120A047C220A0471020A04745
:10242000FFF722FF10BDC0468D1B0000B0B5112282
:10243000120283180C784D7825434C882C43A4B2A3
:1024400084508888C988090408189860B0BD80B590
:10245000FFF7D2FDFFF7AAFDFFF78EFFFFF7BAFCEB
:10246000FFF74AFCFFF746FF00F072F880BD00005E
:1024700010B50021054B425C5C5CA24203D1491CB3
:102480004029F8D11446101B10BDC0465802002048
:1024900018B520239B1A04D8010000205B42994004
:1024A00004E004009140DC402143904018BD00004E
:1024B00010B592008018044A83580724A404A3434B
:1024C00021405918815010BD3018000010B501226C
:1024D000120383180C789C604B7883508978014AEA
:1024E000815010BD0C110000BFF34F8F0348044909
:1024F0000160BFF34F8F00BFFDE7C0460CED00E069
:102500000400FA05BFF34F8F034804490160BFF38D
:102510004F8F00BFFDE7C0460CED00E00400FA0558
:10252000B0B5044BC41802251543C550E161FFF74F
:102530001BFFB0BD0411000010B5029CA4000019DF
:1025400011431943014A815010BDC0465018000084
:102550000348044901605F21490641607047C04655
:1025600000110840430002C90348012101600348EB
:102570008168491C8160704748500840180100205C
:1025800080B504484078012802D1FEF781FD80BD66
:10259000012080BDB40100202120C0020349086051
:1025A000012002040A64C00208647047A0120A40B5
:1025B00068203454692034546A2034546B203454D5
:1025C00056203454704703228058002805D0401EFE
:1025D0004A1C00230B701146F7E770470248016858
:1025E000024A0A430260704748100A40040000088B
:1025F00040B584B002AE0096FFF72CFA029A039B16
:1026000004B040BD10B50122120383180C789C6001
:102610004978815010BD10B500239A4203D0CC5C9C
:10262000C4545B1CF9E710BD80B50B46032142582A
:10263000C11D184600F040F880BD000092008018CF
:10264000014A81507047C0461018000000239A428A
:1026500002D0C1545B1CFAE7704700000A46002113
:1026600080B5FFF7F3FF80BD014AD080117070473D
:10267000C8010020014880787047C046B40100209E
:10268000014840687047C046B40100200148806896
:102690007047C046B4010020014840787047C046EA
:1026A000B4010020811E091F00BFFCD270470298B0
:1026B00070703461347057E580B5FFF7ACFF80BDB2
:1026C0003A46234694E72146234667E600F001F8A0
:1026D000FEE700BF7047234660E61FE67047012013
:0826E00070470000000000003B
:1026E80081B01649411811221202012383500A6849
:1026F800072002400092009AD2B2032A19D0009A09
:10270800D2B2012A15D00A6802400092009AD2B2C9
:10271800032A0ED0009AD2B2012A0AD00A680240CF
:1027280000920098C0B2032803D00098C0B20128D4
:10273800DDD10098C0B201B07047C046D013000088
:1027480022000000BF5D0000000000000000020041
:102758000000000005001400320096002C01C201A0
:1027680058022003E803CEFFE2FF00001E003200FB
:1027780001040000000000006009000000000000E3
:1027880001800000000000006D56204D61783A007D
:102798005B4D414E5D20005B4552525D20005B4C15
:1027A80056505D20005B4F46465D20005B414C5310
:1027B8005D20005B5453545D20005B464C535D2004
:1027C80000205273743A00204F66733A004C766CBE
:1027D8003A0020563A0020503A0008000002000053
:1027E80000E5000001010052004F830156342E7F9E
:1027F800332E335F4442470A3F78FF496E69746954
:10280800616C697F7A696E672E2E2E13CF23B31CF5
:102818000C0033179F0EFFFF19BF0538961B3F00AA
:102828005F09035BFF00001D9C010100FFF0000031
:10283800091C000029260000C7250000020000002E
:10284800400000000001000004FFF000E82700003D
:102858000000002044280000580200204C280000F6
:082868009802002000000000AE
:102870000C000100E8260000F801002060000000C4
:1037F00056342E332E335F44424700000000000051
:10380000FFFFFFFFFFFFFFFFFFFFFFFFFFFFFFFFC8
:10381000FFFFFFFFFFFFFFFFFFFFFFFFFFFFFFFFB8
:10382000FFFFFFFFFFFFFFFFFFFFFFFFFFFFFFFFA8
:10383000FFFFFFFFFFFFFFFFFFFFFFFFFFFFFFFF98
:040000030000231DB9
:00000001FF
