:1000000000040020D7250000C3190000C319000018
:1000100000000000000000000000000000000000E0
:10002000000000000000000000000000C3190000F4
:100030000000000000000000C3190000C319000008
:10004000C3190000ED240000C319000000000000E7
:10005000C3190000000000000000000000000000C4
:1000600000000000C31900000000000000000000B4
:10007000000000000000000000000000C3190000A4
:10008000C319000000000000C319000000000000B8
:100090000000000000000000000000000000000060
:1000A000C319000000000000000000000000000074
:1000B000000000000000000000000000C319000064
:1000C00084B0814C02F057F962B680484068A04283
:1000D00003D07E494C60002008707D4C7D4D01F0BE
:1000E0004DF802F0E1F940200090206028680121DD
:1000F000019108432860784C002666707748007BA1
:10010000000609D501F060FB002805D00198607059
:10011000E660267001F08CFF714D0296714802F086
:1001200049FAA068401CA060A7206F49086000F051
:1001300063FD074601F090FA00F08CFAA068642194
:1001400001F0B8FF00295BD166616078052818D8F6
:10015000800002A1095865488F46C0469101000001
:100160007501000083010000870100008B01000081
:100170008F0100005E48007800285E4808D05E4885
:1001800006E05E4804E05E4802E05E4800E05E484B
:100190005E4DA8475E48A8475048007A039701275C
:1001A00039465C4EB0475C48A8474C48807A39468F
:1001B000B0475A48A8474A48006804263146554A7D
:1001C00090475748A8477D20C00000F00DFE3946F3
:1001D000039F504A90475348A847534800883146E8
:1001E000029E4C4A904760693E2806D8411C6161D6
:1001F0002018202202760846F6E757202654384D6C
:100200004A48006800097C2806D8A078401CC1B282
:10021000A070032901D3C2E1A670A0687D21C900A6
:1002200001F048FF6078002919D1012817D1ED4865
:10023000007B000716D5E068401CE06020780028AD
:1002400005D1E068F049884201D301982070E06848
:10025000EE49884206D3667002F01AF96078FB21F5
:10026000084226D02868DF49C96A88420AD2E07865
:10027000401CC1B2E070052905D3E670667002F03B
:1002800007F900E0E6702868D649896A88420ED2EC
:100290002079401CC1B220716078052909D32671EC
:1002A00004210143052904D10220607040E0267139
:1002B0006078052800D95FE17844007940008744E0
:1002C0004B3737438C6DC0463CC3A55A9002002083
:1002D00090120A4004180940180100205002002022
:1002E0007C010020C05D000008110840912600003C
:1002F000D80100207C260000982600008A260000F5
:10030000A62600009F26000083260000E9220000A8
:10031000B3260000351C0000AD260000B826000002
:1003200074260000BC260000D001002078010020C7
:10033000042F03D1667002F0ABF81DE1384600F0DF
:10034000ADFF00F03DFB17E12069401C2061B3497F
:10035000884200D210E13CE100200390014602F007
:100360000BF93946012F54D19B480078002850D111
:1003700028689C49C96A884200D28EE09648019953
:100380000170039820610320607001F04BFD9348D9
:1003900000990160974802F00DF97EE0A068A0493D
:1003A0000968401A9F49884241D301996170934876
:1003B00006708C4DA86809028843A86001F0ECFE25
:1003C00002F066F8287A8E4D40009849085A00F0ED
:1003D0000BFD314602F0D0F8CEE08D4800688D4923
:1003E000884200D0C8E003976820894F395C012912
:1003F0002DD16E26B85B8849091A00227C4802F08C
:10040000A5F8B85B029E7C49081A77307D490880C0
:10041000ABE0042941D101F0D7F900282CD0019894
:1004200060700398E060207001F002FE35E080B259
:100430007D4901F03FFEC8084B286F4900D3773152
:100440007048018000226A4802F080F894E0395C2C
:10045000022976D16C20385A01F05CF906466E48C4
:10046000864200D36C4E00226148314602F06EF89D
:1004700064480680029E78E064200025294602F048
:100480007BF801F081F86A4802F094F82846294682
:100490005B4D02F071F801F077F8607800286CD1BC
:1004A00001F0BCFE002867D04E48007B400663D4B4
:1004B000132040066049086060490860604A10697E
:1004C0000199C905014311611068202101431160A0
:1004D0005849086A5B4A104308620868104308607C
:1004E0000225594805603F48007BC0060BD5019A9C
:1004F0003E4BDA633C4F3868042101433960186889
:1005000051058843186030BF01F012FE364A10686A
:10051000042188431060474908684C4A104008602D
:100520004B480560BFF34F8FBFF36F8F01F0A4F905
:10053000334D28682B49C96A88421DD90398E06069
:100540001AE0385C032802D16C20385A0AE06B208C
:10055000385C002802D000F033FA06E06C20385AEC
:1005600000F042FC002102F007F80398411EC9B2D6
:10057000022901D800F092FE607805280CD00428EA
:1005800008D168202249095C012905D02049085C6E
:10059000022801D000F0F8FF01F004FDBEE50020C4
:1005A000014601F0E9FF00F0EFFF0D490868019AEC
:1005B0009043086009480099016101F069FF022039
:1005C0000A49C863084A106804210143116030BF1A
:1005D000FDE701F01DFFC0469002002090120A4086
:1005E000041809405002002010ED00E004010B4007
:1005F00000000940C05D0000E8080000D8010020AC
:100600007C010020D0010020110E000069100000C4
:1006100000000020545345545F090000E19304009A
:10062000B400002010270000DC0500004026000078
:10063000009F240028100A400048004000080340A2
:1006400090130A400400000800E100E0FBFFFFF700
:1006500080E100E0F0B589B0C04E3068C049884202
:1006600006D1F088B188401A41424141079101E02A
:10067000002007900127BB4800687061BA480068F5
:10068000B0217050B94800784E217054B848007AB3
:10069000B085B8480088F085B74801883186B74CE6
:1006A0002168B1610088B649081A7D22D5006843E7
:1006B00001F000FD226800242146234601F002FEDD
:1006C0002A46234601F01CFFF061A9488269326284
:1006D000F0692146234601F0F5FD06952A4623469A
:1006E00001F00EFF7062A7480068B062A64800687B
:1006F0007086A64800687063A5480068B063A54886
:100700000068F063A44800683064A448006870641E
:10071000A3480068B064A34800784C217054A248F4
:1007200000784D217054A14801680897FA060A40E4
:10073000514251414F22B1540068042528404142A2
:100740004141502031549A480078512170549948C1
:10075000007852217054864F387B4006C00F5321D9
:10076000705401F021FF5421705401F00BFF55210A
:10077000705491480068B0657868F06501F008FF32
:10078000306601F00BFF7066784800780799002901
:100790003FD004283DD00195884808990170042075
:1007A0007249087001F080FE714B1F460837A7CFD1
:1007B0000297DF69039707941C6A04945C6A0594A6
:1007C0007067B167F26780203550842002993150FC
:1007D000882003993150654F8C2004993150079C33
:1007E000902005993150986AD96A9422B050982087
:1007F00031503120185C9C2170543220185C9D21AE
:1008000070543320185C9E2170543461F460387841
:1008100002E0002957D00195042800D08EE0B0688E
:10082000002800D181E0B56801203061B460A91EC4
:10083000052973D87944097949008F4446024862F2
:1008400057500794706F0590B16FC8B20490F06F65
:1008500003908023F0580290842434598827F75954
:100860008C20305890217158414A059B9360049B1D
:10087000D360039B1361029B53619461D761106243
:10088000516294203058982171589062D1629C2115
:10089000725C1420142A024600D8725C3121344B59
:1008A0005A549D22B15C1429014600D8B15C322211
:1008B00099549E21725C142A079C00D8705C3321E5
:1008C0002B4A505425E0042838D101F0AFFD01F047
:1008D00063FC01F0DDFD00281BD104201AE0234851
:1008E000047001F059FC01F0D3FD03E01F490870CA
:1008F00001F09EFB31480470346001F0E1FD0220FC
:100900000DE001F061FC01F0C3FD002801D1019868
:1009100000E00220306101F029FA01E00520306199
:10092000F56012480078042808D1069800F05CFAB7
:100930000E480078011F481E814108911F48017828
:10094000012909D10899002906D00470032007491C
:10095000087001F0B5FDF46009B0F0BD00000020A2
:10096000545345547C0100207801002019010020D7
:1009700050020020CE010020D00100208001002084
:100980005F090000840100209801002088010020F8
:100990008C0100209001002094010020E80100203B
:1009A000E4010020EC010020ED01002080130A404A
:1009B00018010020D901002024010020EE010020B0
:1009C000F0B585B07C48007800283FD17B4D287871
:1009D00000220428114609D1794B1968794CA142AB
:1009E000114603D16B21595C4B1E99410124431ED2
:1009F000022B234600D313460B43012B15D1724B18
:100A00001A78002A224600D10A46012A0DD1714ED9
:100A100030685A68801A782818D3002918D0684896
:100A2000006F6D4A0021117019E004280ED80121D1
:100A300081401620014209D06448007A4000644990
:100A4000085A00F0D1F9002101F096FD05B0F0BD83
:100A500001F07EF8074601F06BFC38465A4B3168CE
:100A60005960411C3ED05D4900270F705A490F70F4
:100A70005B4908609D68691C03D0E908C208A81892
:100A8000401A98605749086064210390029101F070
:100A900011FB4E4A3121555C3221515C00913321CA
:100AA000515C04910121019189070B468908834219
:100AB000FBD80AE0D919421A064600D316467F0829
:100AC000884200D3FF189B083046002BF2D1002D3E
:100AD00000D1052502994B20C6000498002816D0A5
:100AE000484316E03C48022101703C480178491C0B
:100AF000CAB20170032AA9D3002101702878042802
:100B0000A4D00520287030683A4908609EE7304636
:100B1000C83004900098002801D0484306467D4321
:100B20002A4FB868FF2213040340019A92049342AB
:100B300002D8000CC0B200E0022040002A4A105E39
:100B4000684301F043F94019796A884200DC08469D
:100B50002649039A8A421C4B00D3049E864200DB3E
:100B600006467D20C000864200DB0646F01786431D
:100B700058881F49884219D000B2311A09B2012998
:100B800005DB19221201904208DB142207E0132230
:100B9000D24391420ADA1438064607E0052289B2A8
:100BA000962800DA02228A4200D286185E80B0B20D
:100BB00000F01AF9214647E718010020190100202A
:100BC0000000002054534554D8010020500200205A
:100BD0004026000020010020ED010020EC01002053
:100BE000E8010020E401002052260000A4420F008A
:100BF000FFFF0000B4000020FFB50125EA066E49A2
:100C00000868104009680423019319406B4B1B7856
:100C10000293042B039517D1694B1C68694EB442AB
:100C200012D156241C5D002C00D00421002C00D0D1
:100C3000104669229C5C0022002C00D010466A24D9
:100C40001B5D002B00D011464242424148424841C0
:100C50005D490B785B009A18D5B20A702B46FF3BB2
:100C60005A425A414B785B0018182E460640C7B2CC
:100C700048700097FF3F7B427B41FF3E74427441C6
:100C80001046184301D100208870002C20D0039F0B
:100C90008F7000208860C860CD784C4E3668002D7B
:100CA0002AD00D69761B029D002D08D1484D1435C0
:100CB000AE4204D90D79002D01D10F710420474DAA
:100CC000AE4221D34D79002D1ED14F7105201BE07E
:100CD000C878002814D03D4800680D69451B3C4E7B
:100CE00014360020B5420FD94D79002D0CD108796A
:100CF000002808D1019807E00E610020888003E0F9
:100D00008878002812D000208A71CB71CC7000281E
:100D100009D0334A00211160324A1378002B03D0E6
:100D20001170084600E0002004B0F0BD8E79FF2D60
:100D30000FD0002E0DD08D68002D13D02548234EE6
:100D40003668751B2E46153E513086420CD2012066
:100D500013E00020FF2D10D1002E0ED11B4D2D6869
:100D60008D600AE0002008E01B482818194DA842B1
:100D700001D3002000E0012040007E427E41CD7979
:100D8000002D039F00D03746002F08D0002DBBD187
:100D9000009DFF2DB8D10D4D2D68CD60B4E7CD6815
:100DA000002DB1D0094E3668751B153D084EB54271
:100DB000AAD20320A8E7C04680130A4019010020E8
:100DC0000000002054534554A401002020010020BD
:100DD000C7050000BB020000DFFCFFFF8813000016
:100DE0002401002018010020F0B589B004466B4FA3
:100DF000387BC00701D12646CCE0694AD568F86A3D
:100E000085420AD9116B481B00D2681A1E2806D8E1
:100E10005088A04203D19688BCE00026BAE03E6923
:100E20006048854202D86348321809E05E482918B4
:100E30005E4801F03FF95E49884200D308468219B6
:100E400008927869B9698718681A5B4A00263146A2
:100E500001F0BFFB3A46334601F052FB089A0746C1
:100E60004F4842610761002F00D193E07D2005903B
:100E7000C6004A48C069B842314605D27043394677
:100E800001F018F9089A014604911E20039050437E
:100E9000642101F00FF902460696002638463146D5
:100EA00001F097FB444A334601F02AFB079038468D
:100EB0003146089A01F08DFB02900191224601F023
:100EC00088FB3E4A334601F01BFB079A8018281A1C
:100ED0000699089118D940094A28089114D8384829
:100EE00028189042039908910ED9801A334A00219C
:100EF0000B4601F0E7F9029A019B01F001FB089013
:100F00001E2801D81E2008902E48394601F0D2F83C
:100F10000790384631462A4601F05BFB4A07C30872
:100F20009A18CB087D3AB34102D21D49069A13E0C4
:100F30000026069F3A46334601F0E2FA03900291FA
:100F40001648006A31463A4601F043FB039A029B79
:100F500001F0D6FA02461249049B089FBB421E4686
:100F600000D33E460798864200D3079E964200D3A0
:100F700016460598C000864200D306468B61CF61B5
:100F8000079808624A628E62A64200D326468E8087
:100F90000D634C80B0B209B0F0BDC04650020020D5
:100FA000700100206C07000094F8FFFF80F0FA0247
:100FB00090D00300E093040040420F0000CA9A3B27
:100FC000A0F6FFFF00093D00F0B591B00124644E8A
:100FD00030462030029001F0DFF9002800D1A8E06F
:100FE00003940F2080020B900720C002069001207E
:100FF000079040020C905E4C6068401C6060204688
:1010000001F084F9E0635B48456884680022099236
:101010000998022800D981E01F2A00D97EE0641CCB
:10102000102C29D30A9253484068069A811A4C42E0
:101030004C4190420B9D00D0069D4A4807990160A3
:10104000A7204A49086072B6474F384629460C9A8D
:1010500000F02EFA40223846294601F0F5F962B632
:1010600045490868203008602001311800243450B8
:101070004C608C60CC600A9A0B98281A414241411E
:1010800008013018015D521C0029C1D100190190DE
:101090000998401C0990A00128180D900021059581
:1010A0000A920494032932D008912E4807990160CE
:1010B000A7242E4804600027402F1CD22C49C819B1
:1010C0004068C9590E910F902848046072B60D9877
:1010D000C619254D284631460C9A00F0E9F90EAAAA
:1010E0002846314601F0C2F862B623490868801CE0
:1010F00008600837E0E70D9801F04EF90899491C9F
:101100000028174E059D0A9A049CCBD115E007983C
:101110000199087017484560846079E71549887817
:10112000401C8870144800680861039848700024C7
:1011300012E01048002141700EE00D494022029853
:1011400001F03EFA0B494D608C60002048708870B9
:10115000094800680861039C204611B0F0BDC046F4
:10116000B800002048E00C4000D00C4008110840B6
:1011700050020020B801002020010020F0B587B007
:101180000720C002019000214048049001200690F1
:101190000E460591022935D002910029019D01D00A
:1011A0000F20850200270395102F25D02868384985
:1011B00088421ED1284601F0A9F8E96B884205D182
:1011C0006C680598844205D3002004E0012004994E
:1011D000C8550EE001200642069E0AD140222D4845
:1011E000294601F0EDF92C48039941608760069E7D
:1011F00005947F1C4035D7E70299491C04981030AC
:101200000490C7E7F00702D10698234901E022497C
:101210000878204AC50706D01020019A4A608860E5
:1012200000F072FD1AE09068C1B2082901D930209F
:10123000105C1072107BD0603120115C002901D14C
:10124000052111543220115C002901D106211154CD
:101250003320115C002901D10821115400260E4FC2
:101260003E700A4C20340B494022204601F0A8F978
:101270007E70002D08D03E464021204601F076F9D0
:101280000698787001F004F907B0F0BDB8000020AE
:101290005CAA55AA50020020B8010020F8B5044607
:1012A0003D480078042862D801273946814016203D
:1012B00001425CD0FF20050438488668300C00905D
:1012C0007D20C000FFF790FD611E02290DD3052C83
:1012D00014D0032C21D132490A78002A2ED03002B2
:1012E000800E48D1009A521C46E02D490A78002A07
:1012F00015D02E423FD0009AFF323DE0284C207896
:101300007840207000F08EFD2078002833D001F066
:101310000FF82448006860602DE0009A25E0F3B2E1
:101320005F00214AD75B874217D9330619D0F3B241
:101330005B00D35A834215D9761EF6E7F2B2072A2C
:1013400019D85200184BD2185288824210D9101A5C
:10135000761C32280DDD4F700DE0002B02D0761E7A
:1013600000E00026009A00204870002C04D1F8BD4F
:10137000761C00204870009A10042840084909781B
:1013800009020818F1B240180449886000F004FF0F
:1013900001F07EF8F8BDC04619010020500200207F
:1013A000D80100202001002040260000F0B5394A75
:1013B0008218394BC0183A4D4C790B79002C22D049
:1013C000466F202B02D00524E70100E0354F2E4068
:1013D000002B00D188273E434667846F2C403C4356
:1013E0008467446B2D4E34404463846B3440846383
:1013F00000244465846554688F26F6433440546065
:101400009468344094600C688979202B09D0064692
:101410007036002B15D1641E4460C46E2C408827A2
:1014200015E0641E4460C46E2C401E4E3443C466F6
:10143000046F2C40344304671B4D012467070646A4
:1014400007E00527FF0164084460C46E2C403C435C
:10145000C46634682C403C433460C46A0F4D2C4051
:10146000C462046B2C4004630024C4640465C46F2C
:101470008F25ED432C40C46714682C401460194339
:1014800002680A4B1340BD220A40D118891C016032
:10149000F0BDC04684180000041800008888FDFFD5
:1014A00024493E0001040000FFFFFFCF4000FFCFB2
:1014B000F0B583B002920190304B314D00918C0A0F
:1014C00028680727384005262E60196889048A0F86
:1014D0002860296839402E6018682960002A214652
:1014E00008D028490840511C00F0E4FD0146204680
:1014F00000F0E0FD0198204A801801902A683A40E7
:101500002E601E4803682A602A683A402E600368ED
:101510002A60012293020298984207D0530298420F
:101520000CD10098C30B0BD1019803E01F210C4094
:1015300001984030A24001689143016003B0F0BDC2
:10154000FF290DD82B683B402E600C4C24682B6083
:10155000A3049B0F019800D12039CC08001DE9E7B6
:101560001302FF339942E9D2FF23DB43C918CC08A9
:1015700001980830DEE7C046D01100001800C441D1
:1015800000134040FF0F000070B52C480678002E75
:1015900007D02B480078002807D02A490520C880AA
:1015A00005E028482A49818043E02648C088254D27
:1015B0002978002927D06988814224D022490A68E5
:1015C000AB68D21A0C2A1FD30968A9606988401A2F
:1015D00004B2012C09DBA0B20A2100F06BFD0A2C39
:1015E00000D80120698808180DE0604280B20A2105
:1015F00000F060FD69880922D243944201DB093280
:1016000000E04242881868806C88022E0CD10F4896
:10161000007B800608D50C4800687D21090100F098
:1016200049FD322900D2A408204600F073F8014693
:10163000A8800848002200F089FF70BD1901002031
:1016400018010020CC0100202001002050020020C1
:101650005F09000000000940B0B5274C2078002841
:1016600011D02748012529020246183A1268D205EE
:1016700021D4224A1268E36AD21A0B2A3AD30268AA
:101680000A43026034E01D480168E26A891A64294D
:1016900030D31B490A680022D2430A6019490A68FC
:1016A00001231A430A604A681D0215434D602370E6
:1016B0000068E062B0BD02680A4302601248006838
:1016C00081B20004800E00D08908104848431049B8
:1016D00000F0F0FCA0606178002907D0E168E268C2
:1016E000D208C0080818801AE06001E0E060657068
:1016F00000202070B0BDC0467001002020010020F5
:10170000485000400051004080A255404016400023
:10171000189C0F00F8B5234F002840D004462248FB
:10172000C66822498D69AE4239D90A692048864285
:1017300002D8234810180CE000921E4831181E48A9
:1017400000F0B8FC1D49884200D3084600994018B3
:101750001649496908180090701B1A4A002631463C
:10176000334600F0AFFD009A334600F0C9FE002872
:1017700015D006460D48C06944437D20C50020466B
:10178000294600F097FC601A314600F093FCA8420D
:1017900000D328467843294600F08CFC3F1AB8B2A3
:1017A000F8BDC0465F090000700100205002002013
:1017B0006C07000094F8FFFF80F0FA0290D003005D
:1017C000E093040040420F0070B51F4D0124260233
:1017D0001E481F4901601F4801601F4800F0EAFED3
:1017E00028680020C14329601C490A6822430A6016
:1017F0004A6832434A601A49491C2A46183A126814
:10180000324201D10029F7D100291BD015480068C8
:1018100081B22A6832432A600004800E00D0890811
:1018200011484843114900F045FC11498860886817
:10183000C8604C70C8680F49C96A6431884200D8D2
:101840000024204670BDC0464850004000080340B8
:101850000100002600480040C0D4010000510040B3
:10186000AF3CFFFF80A2554040164000189C0F007F
:10187000700100205002002070B51E4C0126350278
:101880001D481E4901601E4801601E4800F092FE7E
:1018900020680020C04320601B480168314301607C
:1018A00041682943416019490846214618390968A9
:1018B000294202D1411C0028F6D1002818D0144832
:1018C000006881B222682A4322600004800E00D0A2
:1018D000890810484843104900F0ECFB0F49886024
:1018E000C868CA68D208801A8A68D2088018C86096
:1018F00070BDC0464850004000080340010000266B
:1019000000480040C0D4010000510040B03CFFFF3F
:1019100080A2554040164000189C0F007001002026
:10192000F0B58B4200D1824204D90B0002000021A5
:10193000002040E0002B00D1002A0CD10B00020057
:1019400000210020002B00D1002A01D0C943C04350
:1019500000F0EDFB2FE01C0015000B0002000CB4A2
:10196000002126002F00FF19764102D2491C402990
:10197000F9D100201E001700FF19764102D2401C49
:101980004028F9D10E1A21002800320000F014FD81
:101990000C0005000CBC00200021A34200D1AA428B
:1019A00001D3521BA341404149416D08E7073D4324
:1019B0006408761EF1D5059F002F01D03A607B6048
:1019C000F0BDFEE7F0B585B00190204C0120070482
:1019D000C00202902764002004900820029E002884
:1019E00015D078250390284600F0E4FD26642846AB
:1019F00000F0E0FD0498400015490968C903C90FCB
:101A000008180490039826602663401EE7E70198B3
:101A1000002803D027602046303001E020464030C7
:101A2000264607600B49782528468847029C34647F
:101A30002846084988473460346328460549884762
:101A400037640498C0B205B0F0BDC046A0120A4089
:101A500080130A40B5250000FEB502901A4F012000
:101A6000020400920826C0020190019C002E19D0A9
:101A7000029A50B20028009B03D43B6038463030B5
:101A800001E0384640300360520002927825284633
:101A900000F090FD3C64284600F08CFD3C603C6307
:101AA000761EE3E700983864084D782420463E46C9
:101AB000A847019F37642046A8470548006837605B
:101AC00037632046A847FEBDA0120A40B525000096
:101AD00080130A40F8B5451C00780023082B32D04B
:101AE0002F78C2070CD16A780F241440E41C122C02
:101AF0000BD102242E57F4B2002E08D4EE1C0EE0B7
:101B00006D1C4A1C0F7011461AE0AE1C08E02E1D19
:101B1000ED7800957F252C40009DED012C191234A5
:101B20003D0112095219094DAA420ED0D243002C90
:101B300005D08D5C4F1C0D70641E3946F7E73546A5
:101B400040085B1CCAE72846C5E7F8BDFF0F000048
:101B500070B50025EC4300F049FA154E8820B047D7
:101B60002846B04700F000FB00F040FA8920B0475B
:101B70000120FFF727FF06462846FFF723FF05460B
:101B800000F0F2FA300240190A4988420DD0B1093A
:101B900002290AD83109084A10408840074988427A
:101BA00000D30846064908600446204670BDC0467A
:101BB000591A0000FFFF0000FF0F0000C4F77F006C
:101BC000E801002010B51249124800F053FA1248FB
:101BD0004168124A0A4042608168114A0A40911CD9
:101BE00081601049104A0A60026801210B04134306
:101BF00003600E4A42610E4A136A0C0223431362C9
:101C000013682343136002680A43026010BDC04694
:101C10005C2600000040004000510040FEFFECFF49
:101C2000F8FFE0E0805100400F020000C05D0000BE
:101C300028500040FEB50C46002812D0054600276B
:101C4000002D18D00A262846314600F033FA4643C4
:101C5000A91B30220A43791C6B46DA5505460F460C
:101C6000EEE7684630210170012704E0781C6946E0
:101C70003022CA550746A742F8D308484169012FC8
:101C80000ADB3E2908D87F1E6A46BA5C4B1C4361BA
:101C900041180A761946F2E7FEBDC0461801002039
:101CA000BCB51349134C204600F0A4FB1249204652
:101CB000FFF77CFB11480168114A0A4002600025C9
:101CC0000095204629462A462B4600F0C9FB2046AF
:101CD00029462A4600F080FB4B20410120462A4637
:101CE00000F034FC0748012181600160BCBDC046A2
:101CF000C0260000000009406426000004180940C6
:101D00007F00FFFF00110940F8B511480021FF22B4
:101D100000923223114C25466435AF273F012246FD
:101D2000C8320F4E066243628262C4620D4A026389
:101D300041638163C1630C4A064C04604160826068
:101D40000099C160036104491430A2C0F8BDC046C7
:101D5000500200205CAA55AA407E0500340800000D
:101D6000282300000405060804000200FCB51548FD
:101D700007460837FCCF016A0091416A0191124978
:101D80004A678B67CC6780228D5084228E508822D0
:101D90008F508C22009B8B509022019B8B50826A2B
:101DA000C36A94240A5198228B503122825C9C236E
:101DB000CA543222825C9D23CA543322805C9E2204
:101DC0008854FCBD50020020000000201CB50029F2
:101DD00022D04C08002900D5494242105440002826
:101DE00000D5404200230A00904201D95200FBE78F
:101DF00090425B41904200D3801A914201D2520836
:101E0000F6E71900002C00D54042640000D5494295
:101E10000200080011001CBD0100002000F001F8C4
:101E20001CBD7047F8B502240E4D0F4E002C17D084
:101E3000692001010D488180002728463A4600F0BC
:101E400085FB304600F0B6FB0949084881802846EA
:101E50003A4600F07BFB304600F0ACFB641EE5E741
:101E6000F8BDC04600000940009F2400CC010020BE
:101E70005F0900000D48842101600D4901220A63B9
:101E80000C4A0260812282610B4AC266C36EC3663D
:101E9000826082688260094A0264036C0364C262E1
:101EA000C26AC262402008600863704704804240F2
:101EB000A0120A408400000481000E0081000C0082
:101EC000B0B50B480B4941600B4A51600B4B596050
:101ED0008C1E0B4D6C600B4C61600B4901601160F6
:101EE000196029602160102000F064FBB0BDC0467D
:101EF00000080A40030000B1000809400048004003
:101F0000000803400008084001000026F8B5044618
:101F100005460C3500260F4F6088864217D22846AA
:101F200008380168281F03682A68002A03D0184669
:101F300000F046FB08E00648874205D0481C0978B7
:101F400089007A5819469047761C0C35E4E7F8BDAD
:101F5000282700001C27000070B50D48401C02D047
:101F60000B48FFF7D3FF0B480B4C84420CD00B4DB2
:101F70000B4EB54208D02A686968501C127892004E
:101F8000A25890470835F4E700BF00BF70BDC046B7
:101F900050270000282700001C27000038270000D9
:101FA0005027000080B50D484178012915D10C4912
:101FB0000978012911D18178002905D004290CD88C
:101FC00008490968006902E006490968C068081AFA
:101FD0000549884201D9FEF7F7FF80BDB80100200E
:101FE00019010020200100203075000070B50E4D51
:101FF00001200404C6022C642E64782000F0DAFA72
:102000000A480068C00302D400F0AEF870BD2C602E
:102010002C637824204600F0CDFA2E602E632046F3
:1020200000F0C8FA70BDC046A0120A4080130A40F2
:1020300010B50C48407A0002FF21C94341184A42BA
:102040004A41094C227001210902884209D100F05D
:102050006FF9064800680021C9436060A160044828
:10206000608010BD50020020D80100202001002017
:10207000FFFF0000F0B511221302C2180C780B4DBF
:1020800046590B4F374003262640BC19A926360671
:10209000A41944514C68C55807263606B543344048
:1020A0002C19C45048781061F0BDC04608080000E3
:1020B000FCFFFF001CB50A0017D000230124E40731
:1020C000A04200D20400944201D95200FBE79042A2
:1020D0005B41904200D3801A914201D25208F6E748
:1020E00019000200080011001CBD01000020FFF7CC
:1020F00098FE1CBDFCB4020C0B0CFF242402FF3420
:10210000204021400C00444315005D4306005E431F
:102110000F005743320C3B0CA818C01832043B0484
:102120000025A1186841C9186841FCBC7047704778
:10213000B0B50B48012251040A4B1C689502AC4310
:102140001C605C68120594435C6002680A4205D01A
:1021500002680A4202D002680A42F6D1B0BDC04607
:1021600004020B4000010B40F8B501252E04084F76
:102170003E603E637824204606498847E80238647A
:102180002046044DA8473E642046A847F8BDC046F7
:10219000A0120A40B525000080B50848203000F0A4
:1021A000FBF8002805D0064900228A70054A12680B
:1021B000CA60411E88410249487080BDB8000020B5
:1021C000B80100202001002080B5074800680749B9
:1021D000884204D1FFF798FDFFF7DEFF80BD044879
:1021E0000121017080BDC046500200205CAA55AAA2
:1021F000B801002010B50649064C204600F08AF9C7
:102200000549204600F0A6F8F02000F0D3F910BDF3
:10221000C3260000000003406C2600000748026847
:1022200001680020120108D5490706D504498A79BA
:10223000002A02D1C97948424841704780130A40B8
:10224000A4010020084880F3088800BF00BF00F008
:10225000C4F9002801D0FFF77FFE0020FDF730FF12
:10226000012000F0B1F9C04600040020B0B5074BD2
:10227000C4180125C550FF232362E1611168E162A2
:102280005168216300F004F8B0BDC046041100009D
:1022900082B00094014C019410BD00BFF1010020F8
:1022A000064800210160064801680322914301604D
:1022B00041680F22914341607047C04608030B40BC
:1022C00000010B4030B514004C4325001C00444372
:1022D0006419050010002900FFF70CFF0019040025
:1022E0000D002100280030BD10B507494A69037868
:1022F000002B08D03E2A06D8401C541C4C618A187A
:1023000013762246F3E710BD1801002010B5002215
:102310000549064B3C2A04D0845C61405943521C59
:10232000F8E7084610BDC046C59D1C819301000119
:1023300010B5FFF75BFE064C8820A0470120A047A0
:10234000C220A0471020A047FFF70EFF10BDC046D7
:10235000591A0000B0B51122120283180C784D787A
:1023600025434C882C43A4B284508888C98809042A
:1023700008189860B0BD80B5FFF7A2FDFFF77AFDA1
:10238000FFF78EFFFFF78CFCFFF71CFCFFF732FF17
:1023900000F072F880BD000010B50021054B425CD2
:1023A0005C5CA24203D1491C4029F8D11446101BA1
:1023B00010BDC0465002002018B520239B1A04D837
:1023C000010000205B42994004E004009140DC40A1
:1023D0002143904018BD000010B592008018044AB7
:1023E00083580724A404A34321405918815010BDE9
:1023F0003018000010B50122120383180C789C607D
:102400004B7883508978014A815010BD0C1100002F
:10241000BFF34F8F034804490160BFF34F8F00BFE4
:10242000FDE7C0460CED00E00400FA05BFF34F8F56
:10243000034804490160BFF34F8F00BFFDE7C0466A
:102440000CED00E00400FA05B0B5044BC4180225F9
:102450001543C550E161FFF71BFFB0BD041100003B
:1024600010B5029CA400001911431943014A815080
:1024700010BDC046501800000348044901605F21A8
:10248000490641607047C04600110840430002C938
:1024900080B504484078012802D1FEF795FD80BD43
:1024A000012080BDB80100202120C002034908603E
:1024B000012002040A64C00208647047A0120A40A6
:1024C00068203454692034546A2034546B203454C6
:1024D00056203454704703228058002805D0401EEF
:1024E0004A1C00230B701146F7E770470248016849
:1024F000024A0A430260704748100A40040000087C
:1025000040B584B002AE0096FFF70AFA029A039B28
:1025100004B040BD10B50122120383180C789C60F2
:102520004978815010BD10B500239A4203D0CC5C8D
:10253000C4545B1CF9E710BD80B50B46032142581B
:10254000C11D184600F03CF880BD000092008018C4
:10255000014A81507047C0461018000000239A427B
:1025600002D0C1545B1CFAE7704700000A46002104
:1025700080B5FFF7F3FF80BD014AD080117070472E
:10258000CC010020014880787047C046B801002087
:10259000014840687047C046B80100200148806883
:1025A0007047C046B8010020014840787047C046D7
:1025B000B8010020811E091F00BFFCD27047000037
:1025C00080B5FFF7B0FF80BD00F001F8FEE700BF67
:1025D0007047334676E635E67047012070470000C5
:1025E00081B01649411811221202012383500A6852
:1025F000072002400092009AD2B2032A19D0009A12
:10260000D2B2012A15D00A6802400092009AD2B2D2
:10261000032A0ED0009AD2B2012A0AD00A680240D8
:1026200000920098C0B2032803D00098C0B20128DD
:10263000DDD10098C0B201B07047C046D013000091
:1026400005001400320096002C01C201580220033C
:10265000E803CEFFE2FF00001E003200010400008C
:102660000000000060090000000000000180000080
:10267000000000006D56204D61783A005B4D414EE0
:102680005D20005B4552525D20005B4C56505D2042
:10269000005B4F46465D20005B414C535D20005B74
:1026A0005453545D20005B464C535D2000204F6620
:1026B000733A004C766C3A0020563A0020503A00AB
:0826C000080000020000000008
:1026C80000E5000001010052004F830156342EFF3F
:1026D800332E315F50524F44FE0A4F73496E69746E
:1026E80069616CFF697A696E672E2E2E36138F2109
:1026F800FFFF17311C0C0033031F185A1A3F01380B
:102708001B7F005F09067BFF0000061DD60100FF46
:10271800F0000000D51A000039250000D724000079
:1027280002000000400000000001000004FFF0006B
:10273800C8260000000000202827000050020020C2
:08274800302700009002002080
:102750000C000100E0250000F001002060000000F6
:1037F00056342E332E315F50524F440000000000EB
:10380000FFFFFFFFFFFFFFFFFFFFFFFFFFFFFFFFC8
:10381000FFFFFFFFFFFFFFFFFFFFFFFFFFFFFFFFB8
:10382000FFFFFFFFFFFFFFFFFFFFFFFFFFFFFFFFA8
:10383000FFFFFFFFFFFFFFFFFFFFFFFFFFFFFFFF98
:040000030000224592
:00000001FF
