:100000000004002003260000D7190000D7190000C3
:1000100000000000000000000000000000000000E0
:10002000000000000000000000000000D7190000E0
:100030000000000000000000D7190000D7190000E0
:10004000D719000005250000D719000000000000A6
:10005000D7190000000000000000000000000000B0
:1000600000000000D71900000000000000000000A0
:10007000000000000000000000000000D719000090
:10008000D719000000000000D71900000000000090
:100090000000000000000000000000000000000060
:1000A000D719000000000000000000000000000060
:1000B000000000000000000000000000D719000050
:1000C00084B0834C02F063F962B682484068A04273
:1000D00003D080494C60002008707F4C7F4D01F0B8
:1000E0004FF802F0EDF940200090206028680121CF
:1000F0000291084328607A4D00246C70794E307B61
:10010000000605D501F06AFB002801D002F063FA71
:100110000194754802F05AFAA868401CA860A7200C
:100120007249086000F05AFE074601F0F9FA00F043
:1001300091FAA868642101F0C9FF00295AD16C61C5
:100140006878052817D8800001A1095868488F46AB
:100150008501000069010000770100007B010000BB
:100160007F01000083010000624800780028624897
:1001700008D0624806E0624804E0624802E0624853
:1001800000E06248624CA0476248A047307A03977B
:1001900001273946604CA04760485D498847B07ADE
:1001A0003946A0475E485A4CA0475E48006804267E
:1001B0003146594A90475C48A0477D20C00000F076
:1001C00015FD3946039F544A90475848A047019C63
:1001D000574800883146504A904768693E2806D8FB
:1001E000411C69612818202202760846F6E757204C
:1001F0002C543C4E4F48006800097C2806D8A8784B
:10020000401CC1B2A870032901D3C9E1AC70A86831
:100210007D21C90001F05AFF6878002918D1012812
:1002200016D1307B000716D5E868401CE8602878B6
:10023000002805D1E868F449884201D30298287063
:10024000E868F249884206D36C7002F02DF96878AC
:10025000FB21084230D0EA480068F16A88420AD29D
:10026000E878401CC1B2E870052905D3EC706C70C9
:1002700002F01AF900E0EC70E1480068B16A8842C7
:100280000ED22879401CC2B228716878052A09D399
:100290002C7104220243052A04D10220687003E075
:1002A0002C716878022807D1D548006864318842EB
:1002B00042D302F090F96878052800D95DE1C04684
:1002C00078440079400087444B3737438A6DC046F5
:1002D0003CC3A55A9802002090120A400418094015
:1002E0001801002058020020C05D000008110840DD
:1002F000C1260000D8010020AC260000C82600005E
:10030000BA260000D6260000CF260000B326000043
:1003100001230000E3260000491C0000DD26000048
:10032000E82600007C010020A4260000EC26000046
:10033000D001002078010020042F03D16C7002F05E
:10034000B3F81AE1384600F0ABFF00F033FB14E1DC
:100350002869401C2861B149884200D20DE139E189
:1003600000200390014602F013F93946012F52D1C3
:100370009948007800284ED1A1480068F16A884267
:1003800000D28CE094480299017003982861032000
:10039000687001F053FD914800990160954802F0A2
:1003A00015F97CE0A8689E490968401A9D49884271
:1003B0003FD30299697091480470B068090288437C
:1003C000B06001F0F5FE02F06FF8307A4000974916
:1003D000085A00F00BFC214602F0DAF8CDE08C4818
:1003E00000688C49884200D0C7E003976820884F96
:1003F000395C01292DD16E26B85B8749091A002284
:100400007B4802F0AFF8B85B764E7B49081A77302C
:100410007C490880AAE0042941D101F0DFF90028D5
:100420002CD0029868700398E860287001F00CFEE8
:1004300035E080B27C4901F049FEC8084B286E497E
:1004400000D377316F4801800022694802F08AF8B2
:1004500093E0395C022975D16C20385A01F0FEF81E
:1004600006466D48864200D36B4E002260483146F6
:1004700002F078F8634806805A4E77E06420002640
:10048000314602F085F801F081F8694802F09EF8E3
:1004900030463146534E02F07BF801F077F8687829
:1004A00000286BD101F0C6FE002866D0307B4006E4
:1004B00063D4132040066049086060490860604AC0
:1004C00010690299C9050143116110682021014397
:1004D00011605849086A5B4A104308620868104373
:1004E00008603046022658490E60007BC0060BD5D6
:1004F000029A3E4BDA633C4F38680421014339606D
:10050000186851058843186030BF01F01DFE364A57
:100510001068042188431060464908684B4A10401F
:1005200008604B480660BFF34F8FBFF36F8F01F039
:10053000ADF9334800682B4EF16A88421DD9039803
:10054000E8601AE0385C032802D16C20385A0AE0CF
:100550006B20385C002802D000F02CFA06E06C20FA
:10056000385A00F043FB002102F012F80398411EB4
:10057000C9B2022901D800F093FE687805280CD092
:10058000042808D168202249095C012905D02049A6
:10059000085C022801D000F0F9FF01F00FFDB8E57A
:1005A0000020014601F0F4FF00F0F0FF0C4908685C
:1005B000029A9043086009480099016101F074FFB4
:1005C00002200A49C863084A1068042101431160E7
:1005D00030BFFDE701F028FF9802002090120A408A
:1005E000041809405802002010ED00E004010B40FF
:1005F00000000940C05D0000E8080000D8010020AC
:100600007C010020D0010020110E000069100000C4
:1006100000000020545345545F090000E19304009A
:10062000E401002010270000DC0500007026000017
:10063000009F240028100A400048004000080340A2
:1006400090130A400400000800E100E0FBFFFFF700
:1006500080E100E0F0B587B0BD4E3068BD4988420A
:1006600006D1F088B188401A41424141059101E02C
:100670000020059001200690B74800687061B748D7
:100680000068B0217050B64800784E217054B54FC4
:10069000387AB085B4480088F085B448018831863E
:1006A000B34C2168B1610088B249081A7D22D50097
:1006B000684301F00BFD2268002401F098FF01F06F
:1006C00093FFF061BA693262F06901F090FF01F0C6
:1006D0008BFF7062A1480268F06901F088FF049501
:1006E00001F082FFB4217050A3480068B062A348B3
:1006F00000687086A24800687063A2480068B06312
:10070000A1480068F063A14800683064A048006810
:100710007064A0480068B0649F4800784C21705411
:100720009E4800784D2170549D480168069AD20673
:100730008B4F0A40514251414F22B154006804216D
:10074000039108404142414150203154954800787E
:10075000512170549448007852217054814D287B67
:100760004006C00F5321705401F02AFF54217054E9
:1007700001F014FF552170548C480068B06568681A
:10078000F06501F011FF306601F014FF70663878F3
:10079000059900293BD0042839D085480699017075
:1007A0000420387001F08CFE6E4B1F460837A7CF2F
:1007B0000097DF6901971F6A02975F6A0597706764
:1007C000B167F2678020355084200099315088202D
:1007D00001993150624F8C20029931509020059937
:1007E0003150986AD96A9422B05098203150312003
:1007F000185C9C2170543220185C9D217054332069
:10080000185C9E2170543461F460387801E000294E
:1008100057D0042800D08BE0B068002800D17FE0DA
:10082000B56801203061B460A91E052972D8C046A0
:100830007944097949008F44460248605650706FE8
:100840000590B16FC8B20390F06F02908023F0580A
:1008500001908427F0590090882030588C217158DD
:100860009022B2583F4B059F9F60039FDF60029F1D
:100870001F61019F5F61009F9F611F461C3707C773
:1008800094203058982171589862D9629C21725CEA
:100890001420142A024600D8725C31215A549D2239
:1008A000B15C1429014600D8B15C322299549E21D2
:1008B000725C142A2A4F00D8705C3321294A5054A4
:1008C00023E0042834D101F0BDFD01F071FC01F0FA
:1008D000EBFD002819D1042018E03C7001F068FC01
:1008E00001F0E2FD02E0387001F0AEFB3048047028
:1008F000346001F0F1FD02200DE001F071FC01F027
:10090000D3FD002801D1039800E00220306101F0FE
:1009100039FA01E005203061F5603878042807D104
:10092000049800F063F93878011F481E8141069150
:100930001F480178012908D10699002905D00470C3
:100940000320387001F0C8FDF46007B0F0BDC04668
:1009500000000020545345547C0100207801002001
:100960001901002058020020CE010020D0010020F3
:10097000800100205F090000840100209801002010
:10098000880100208C0100209001002094010020AB
:10099000EC010020E8010020F0010020F10100201E
:1009A00080130A4018010020D901002024010020F2
:1009B000F2010020F0B585B07C48007800283FD1D6
:1009C0007B4D287800220428114609D1794B1968FB
:1009D000794CA142114603D16B21595C4B1E9941C0
:1009E0000124431E022B234600D313460B43012B45
:1009F00015D1724B1A78002A224600D10A46012AE4
:100A00000DD1714E30685A68801A782818D30029A1
:100A100018D06848006F6D4A0021117019E0042851
:100A20000ED8012181401620014209D06448007A85
:100A300040006449085A00F0D9F8002101F0A8FDEF
:100A400005B0F0BD01F08EF8074601F07DFC384698
:100A50005A4B31685960411C3ED05D4900270F70E8
:100A60005A490F705B4908609D68691C03D0E9080A
:100A7000C208A818401A986057490860642103907A
:100A8000029101F023FB4E4A3121555C3221515C29
:100A900000913321515C04910121019189070B469A
:100AA00089088342FBD80AE0D919421A064600D3C6
:100AB00016467F08884200D3FF189B083046002B5B
:100AC000F2D1002D00D1052502994B20C6000498D3
:100AD000002816D0484316E03C48022101703C48EB
:100AE0000178491CCAB20170032AA9D30021017000
:100AF00028780428A4D00520287030683A49086076
:100B00009EE73046C83004900098002801D0484342
:100B100006467D432A4FB868FF2213040340019A1A
:100B20009204934202D8000CC0B200E002204000C0
:100B30002A4A105E684301F055F94019796A8842E3
:100B400000DC08462649039A8A421C4B00D3049EC7
:100B5000864200DB06467D20C000864200DB06465A
:100B6000F017864358881F49884219D000B2311ABD
:100B700009B2012905DB19221201904208DB142277
:100B800007E01322D24391420ADA1438064607E0FE
:100B9000052289B2962800DA02228A4200D28618FB
:100BA0005E80B0B200F022F8214647E7180100202D
:100BB000190100200000002054534554D8010020A2
:100BC000580200207026000020010020F1010020C2
:100BD000F0010020EC010020E80100208226000046
:100BE000A4420F00FFFF0000E4010020F0B589B02F
:100BF00004466F4F387BC00701D12646D4E06D4ACA
:100C0000D568F86A85420AD9116B481B00D2681A68
:100C10001E2806D85088A04203D19688C4E000263A
:100C2000C2E03E696448854202D86748321809E04C
:100C300062482918624801F049FA6249884200D3A3
:100C40000846821908927869B9698718681A5F4A54
:100C50000026314601F0D3FC3A46334601F05CFCF5
:100C6000089A0746534842610761002F00D19BE074
:100C70007D200590C6004E48C069B842314605D275
:100C80007043394601F022FA089A014604911E2069
:100C900001905043642101F019FA0246069600269D
:100CA0003846314601F0ABFC484A334601F034FC8B
:100CB0000290039738463146089A01F0A0FC08904C
:100CC0000091224601F09BFC414A334601F024FC8E
:100CD000029A8018281A069F07971ED94B214901AE
:100CE0008842079719D2481C854202D20198079082
:100CF00013E0384828189042019907910DD9801ABD
:100D0000334A00210B4601F0E9FA089A009B01F0F2
:100D100003FC1E28EBD81E20E9E72F48039F394625
:100D200001F0D4F90890384631462A4601F067FCB4
:100D30004A07C3089A18CB087D3AB34102D21D492D
:100D4000069A13E00026069F3A46334601F0E4FB7C
:100D5000039002911648006A31463A4601F04FFC72
:100D6000039A029B01F0D8FB02461249049B079F9D
:100D7000BB421E4600D33E460898864200D3089EDA
:100D8000964200D316460598C000864200D3064618
:100D90008B61CF61089808624A628E62A64200D3D6
:100DA00026468E800D634C80B0B209B0F0BDC046BF
:100DB00058020020700100206C07000094F8FFFF2B
:100DC00080F0FA0290D00300E093040040420F004C
:100DD00000CA9A3BA0F6FFFF00093D00FFB50125C0
:100DE000EA066E4908681040096804230193194017
:100DF0006B4B1B780293042B039517D1694B1C682E
:100E0000694EB44212D156241C5D002C00D004213E
:100E1000002C00D0104669229C5C0022002C00D0DF
:100E200010466A241B5D002B00D01146424242410D
:100E3000484248415D490B785B009A18D5B20A7068
:100E40002B46FF3B5A425A414B785B0018182E46FE
:100E50000640C7B248700097FF3F7B427B41FF3E90
:100E6000744274411046184301D100208870002C50
:100E700020D0039F8F7000208860C860CD784C4ED2
:100E80003668002D2AD00D69761B029D002D08D1F1
:100E9000484D1435AE4204D90D79002D01D10F71A2
:100EA0000420474DAE4221D34D79002D1ED14F7104
:100EB00005201BE0C878002814D03D4800680D6963
:100EC000451B3C4E14360020B5420FD94D79002DFC
:100ED0000CD10879002808D1019807E00E610020A4
:100EE000888003E08878002812D000208A71CB71B6
:100EF000CC70002809D0334A00211160324A13789F
:100F0000002B03D01170084600E0002004B0F0BDB3
:100F10008E79FF2D0FD0002E0DD08D68002D13D0AF
:100F20002548234E3668751B2E46153E51308642A5
:100F30000CD2012013E00020FF2D10D1002E0ED185
:100F40001B4D2D688D600AE0002008E01B48281822
:100F5000194DA84201D3002000E0012040007E424C
:100F60007E41CD79002D039F00D03746002F08D059
:100F7000002DBBD1009DFF2DB8D10D4D2D68CD604A
:100F8000B4E7CD68002DB1D0094E3668751B153D0C
:100F9000084EB542AAD20320A8E7C04680130A40F3
:100FA000190100200000002054534554A4010020E2
:100FB00020010020C7050000BB020000DFFCFFFF8E
:100FC000881300002401002018010020F0B591B022
:100FD0000124644E30462030029001F0E9F90028E7
:100FE00000D1A8E003940F2080020B900720C002DC
:100FF00006900120079040020C905E4C6068401CF7
:101000006060204601F08EF9E0635B4845688468C3
:10101000002209920998022800D981E01F2A00D9EC
:101020007EE0641C102C29D30A9253484068069A2B
:10103000811A4C424C4190420B9D00D0069D4A487B
:1010400007990160A7204A49086072B6474F3846A1
:1010500029460C9A00F02EFA40223846294601F023
:10106000FFF962B645490868203008602001311850
:10107000002434504C608C60CC600A9A0B98281A7B
:101080004142414108013018015D521C0029C1D183
:10109000001901900998401C0990A00128180D9092
:1010A000002105950A920494032932D008912E4814
:1010B00007990160A7242E4804600027402F1CD206
:1010C0002C49C8194068C9590E910F9028480460EE
:1010D00072B60D98C619254D284631460C9A00F077
:1010E000E9F90EAA2846314601F0CCF862B6234948
:1010F0000868801C08600837E0E70D9801F058F98F
:101100000899491C0028174E059D0A9A049CCBD1CA
:1011100015E007980199087017484560846079E7E1
:1011200015498878401C8870144800680861039845
:101130004870002412E01048002141700EE00D4973
:101140004022029801F04CFA0B494D608C6000205F
:1011500048708870094800680861039C204611B0F7
:10116000F0BDC046B800002048E00C4000D00C4064
:101170000811084058020020B8010020200100207A
:10118000F0B587B00720C0020190002140480490CC
:10119000012006900E460591022935D002910029C2
:1011A000019D01D00F20850200270395102F25D027
:1011B0002868384988421ED1284601F0B3F8E96B07
:1011C000884205D16C680598844205D3002004E06C
:1011D00001200499C8550EE001200642069E0AD15E
:1011E00040222D48294601F0FBF92C480399416023
:1011F0008760069E05947F1C4035D7E70299491CFD
:10120000049810300490C7E7F00702D106982349EC
:1012100001E022490878204AC50706D01020019A2B
:101220004A60886000F07AFD1AE09068C1B208292F
:1012300001D93020105C1072107BD0603120115C1D
:10124000002901D1052111543220115C002901D15E
:10125000062111543320115C002901D108211154B9
:1012600000260E4F3E700A4C20340B494022204687
:1012700001F0B6F97E70002D08D03E464021204690
:1012800001F080F90698787001F00EF907B0F0BD12
:10129000B80000205CAA55AA58020020B80100201E
:1012A000F8B504463D480078042862D8012739463D
:1012B0008140162001425CD0FF2005043848866832
:1012C000300C00907D20C000FFF790FC611E0229C9
:1012D0000DD3052C14D0032C21D132490A78002AD1
:1012E0002ED03002800E48D1009A521C46E02D4983
:1012F0000A78002A15D02E423FD0009AFF323DE0F6
:10130000284C20787840207000F098FD2078002844
:1013100033D001F019F82448006860602DE0009A8D
:1013200025E0F3B25F00214AD75B874217D9330625
:1013300019D0F3B25B00D35A834215D9761EF6E773
:10134000F2B2072A19D85200184BD218528882429A
:1013500010D9101A761C32280DDD4F700DE0002BCD
:1013600002D0761E00E00026009A00204870002C73
:1013700004D1F8BD761C00204870009A1004284063
:101380000849097809020818F1B240180449886030
:1013900000F00EFF01F088F8F8BDC04619010020EA
:1013A00058020020D80100202001002070260000F3
:1013B000F0B5394A8218394BC0183A4D4C790B793F
:1013C000002C22D0466F202B02D00524E70100E03C
:1013D000354F2E40002B00D188273E434667846F4F
:1013E0002C403C438467446B2D4E34404463846BF3
:1013F0003440846300244465846554688F26F64332
:10140000344054609468344094600C688979202B8F
:1014100009D006467036002B15D1641E4460C46E98
:101420002C40882715E0641E4460C46E2C401E4E7C
:101430003443C466046F2C40344304671B4D0124BD
:101440006707064607E00527FF0164084460C46E8D
:101450002C403C43C46634682C403C433460C46A2E
:101460000F4D2C40C462046B2C4004630024C46400
:101470000465C46F8F25ED432C40C46714682C406D
:101480001460194302680A4B1340BD220A40D11868
:10149000891C0160F0BDC0468418000004180000DB
:1014A0008888FDFF24493E0001040000FFFFFFCFB4
:1014B0004000FFCFF0B583B002920190304B314D28
:1014C00000918C0A28680727384005262E60196885
:1014D00089048A0F2860296839402E6018682960BD
:1014E000002A214608D028490840511C00F0EEFD92
:1014F0000146204600F0EAFD0198204A801801903C
:101500002A683A402E601E4803682A602A683A40DA
:101510002E6003682A60012293020298984207D045
:10152000530298420CD10098C30B0BD1019803E0F1
:101530001F210C4001984030A24001689143016096
:1015400003B0F0BDFF290DD82B683B402E600C4C3A
:1015500024682B60A3049B0F019800D12039CC088C
:10156000001DE9E71302FF339942E9D2FF23DB4371
:10157000C918CC0801980830DEE7C046D011000039
:101580001800C44100134040FF0F000070B52C4804
:101590000678002E07D02B480078002807D02A496B
:1015A0000520C88005E028482A49818043E0264874
:1015B000C088254D2978002927D06988814224D008
:1015C00022490A68AB68D21A0C2A1FD30968A9609D
:1015D0006988401A04B2012C09DBA0B20A2100F08C
:1015E00075FD0A2C00D80120698808180DE06042BA
:1015F00080B20A2100F06AFD69880922D243944230
:1016000001DB093200E04242881868806C88022EB3
:101610000CD10F48007B800608D50C4800687D215E
:10162000090100F053FD322900D2A408204600F041
:1016300015F80146A8800848002200F093FF70BD0D
:101640001901002018010020CC01002020010020F9
:10165000580200205F09000000000940F8B5274942
:10166000002848D004462648C668264FBD69AE42C9
:1016700041D939692448864202D8274808180BE026
:10168000009122483118224800F020FD214988426B
:1016900000D3084600994018796908180090701B1B
:1016A0001E4A00263146334600F018FE009A3346A3
:1016B00000F032FF00281DD00546F86900280F49C8
:1016C00019D0A84200D3284644437D20C6002046B6
:1016D000314600F0FBFC601A294600F0F7FCB042EE
:1016E00000D33046054C6043314600F0EFFC214604
:1016F000211A00E0014988B2F8BDC0465F09000028
:1017000070010020580200206C07000094F8FFFFD1
:1017100080F0FA0290D00300E093040040420F00F2
:10172000B0B5274C2078002811D027480125290280
:101730000246183A1268D20521D4224A1268E36A96
:10174000D21A0B2A3AD302680A43026034E01D48D9
:101750000168E26A891A642930D31B490A680022A9
:10176000D2430A6019490A6801231A430A604A6889
:101770001D0215434D6023700068E062B0BD026831
:101780000A4302601248006881B20004800E00D053
:10179000890810484843104900F098FCA06061781F
:1017A000002907D0E168E268D208C0080818801A4A
:1017B000E06001E0E060657000202070B0BDC046D0
:1017C00070010020200100204850004000510040DE
:1017D00080A2554040164000189C0F0070B51F4D68
:1017E000012426021E481F4901601F4801601F484E
:1017F00000F0ECFE28680020C14329601C490A68FB
:1018000022430A604A6832434A601A49491C2A4600
:10181000183A1268324201D10029F7D100291BD0B1
:101820001548006881B22A6832432A600004800E9D
:1018300000D0890811484843114900F047FC11497C
:1018400088608868C8604C70C8680F49C96A64318C
:10185000884200D80024204670BDC0464850004051
:10186000000803400100002600480040C0D40100E9
:1018700000510040AF3CFFFF80A2554040164000A1
:10188000189C0F00700100205802002070B51E4CFB
:10189000012635021D481E4901601E4801601E4890
:1018A00000F094FE20680020C04320601B480168BF
:1018B0003143016041682943416019490846214686
:1018C00018390968294202D1411C0028F6D10028A4
:1018D00018D01448006881B222682A4322600004AC
:1018E000800E00D0890810484843104900F0EEFBF4
:1018F0000F498860C868CA68D208801A8A68D20806
:101900008018C86070BDC0464850004000080340C1
:101910000100002600480040C0D4010000510040F2
:10192000B03CFFFF80A2554040164000189C0F00BD
:1019300070010020F0B58B4200D1824204D90B0027
:1019400002000021002040E0002B00D1002A0CD131
:101950000B00020000210020002B00D1002A01D042
:10196000C943C04300F0EFFB2FE01C0015000B0043
:1019700002000CB4002126002F00FF19764102D28C
:10198000491C4029F9D100201E001700FF1976419B
:1019900002D2401C4028F9D10E1A21002800320042
:1019A00000F016FD0C0005000CBC00200021A34235
:1019B00000D1AA4201D3521BA341404149416D08C5
:1019C000E7073D436408761EF1D5059F002F01D03F
:1019D0003A607B60F0BDFEE7F0B585B00190204C29
:1019E00001200704C0020290276400200490082010
:1019F000029E002815D078250390284600F0E6FDC9
:101A00002664284600F0E2FD049840001549096864
:101A1000C903C90F08180490039826602663401E66
:101A2000E7E70198002803D027602046303001E026
:101A300020464030264607600B49782528468847CF
:101A4000029C346428460849884734603463284639
:101A50000549884737640498C0B205B0F0BDC04658
:101A6000A0120A4080130A40CD250000FEB5029066
:101A70001A4F0120020400920826C0020190019C26
:101A8000002E19D0029A50B20028009B03D43B606C
:101A90003846303001E03846403003605200029250
:101AA0007825284600F092FD3C64284600F08EFD23
:101AB0003C603C63761EE3E700983864084D782468
:101AC00020463E46A847019F37642046A847054860
:101AD0000068376037632046A847FEBDA0120A4061
:101AE000CD25000080130A40F8B5451C007800237E
:101AF000082B32D02F78C2070CD16A780F241440FB
:101B0000E41C122C0BD102242E57F4B2002E08D460
:101B1000EE1C0EE06D1C4A1C0F7011461AE0AE1C44
:101B200008E02E1DED7800957F252C40009DED01ED
:101B30002C1912343D0112095219094DAA420ED036
:101B4000D243002C05D08D5C4F1C0D70641E3946AD
:101B5000F7E7354640085B1CCAE72846C5E7F8BDED
:101B6000FF0F000070B50025EC4300F04BFA154E56
:101B70008820B0472846B04700F002FB00F042FA48
:101B80008920B0470120FFF727FF06462846FFF7C8
:101B900023FF054600F0F4FA300240190A49884252
:101BA0000DD0B10902290AD83109084A10408840ED
:101BB0000749884200D30846064908600446204683
:101BC00070BDC0466D1A0000FFFF0000FF0F00004F
:101BD000C4F77F00EC01002010B51249124800F054
:101BE00055FA12484168124A0A4042608168114A17
:101BF0000A40911C81601049104A0A600268012164
:101C00000B04134303600E4A42610E4A136A0C022E
:101C10002343136213682343136002680A4302607C
:101C200010BDC0468C26000000400040005100401E
:101C3000FEFFECFFF8FFE0E0805100400F020000E3
:101C4000C05D000028500040FEB50C46002812D0B0
:101C500005460027002D18D00A262846314600F0F8
:101C600035FA4643A91B30220A43791C6B46DA55E4
:101C700005460F46EEE7684630210170012704E073
:101C8000781C69463022CA550746A742F8D308484F
:101C90004169012F0ADB3E2908D87F1E6A46BA5CDB
:101CA0004B1C436141180A761946F2E7FEBDC04657
:101CB00018010020BCB51349134C204600F0A6FBC8
:101CC00012492046FFF774FB11480168114A0A4087
:101CD000026000250095204629462A462B4600F042
:101CE000CBFB204629462A4600F082FB4B204101CF
:101CF00020462A4600F036FC074801218160016039
:101D0000BCBDC046F026000000000940942600003B
:101D1000041809407F00FFFF00110940FCB512487C
:101D20000021FF22019232220092124C2546643596
:101D3000AF273F011E222346C8330F4E06620646D8
:101D400024361CC60D4A026341638163C1630C4A99
:101D5000064B0360416082600199C1600099016196
:101D600003491430A2C0FCBD580200205CAA55AA49
:101D7000407E050034080000282300000405060802
:101D800004000200FCB5154807460837FCCF016A7D
:101D90000091416A019112494A678B67CC678022A2
:101DA0008D5084228E5088228F508C22009B8B5025
:101DB0009022019B8B50826AC36A94240A51982214
:101DC0008B503122825C9C23CA543222825C9D2338
:101DD000CA543322805C9E228854FCBD58020020E5
:101DE000000000201CB5002922D04C08002900D595
:101DF000494242105440002800D5404200230A00C6
:101E0000904201D95200FBE790425B41904200D3DF
:101E1000801A914201D25208F6E71900002C00D531
:101E20004042640000D549420200080011001CBD78
:101E30000100002000F001F81CBD7047F8B5022435
:101E40000E4D0F4E002C17D0692001010D488180E6
:101E5000002728463A4600F085FB304600F0B6FBE6
:101E600009490848818028463A4600F07BFB304605
:101E700000F0ACFB641EE5E7F8BDC0460000094079
:101E8000009F2400CC0100205F0900000D48842140
:101E900001600D4901220A630C4A026081228261BD
:101EA0000B4AC266C36EC366826082688260094A5A
:101EB0000264036C0364C262C26AC26240200860AA
:101EC0000863704704804240A0120A408400000466
:101ED00081000E0081000C00B0B50B480B49416039
:101EE0000B4A51600B4B59608C1E0B4D6C600B4CB8
:101EF00061600B4901601160196029602160102048
:101F000000F064FBB0BDC04600080A40030000B109
:101F1000000809400048004000080340000808404D
:101F200001000026F8B5044605460C3500260F4F83
:101F30006088864217D2284608380168281F03683F
:101F40002A68002A03D0184600F04AFB08E0064839
:101F5000874205D0481C097889007A58194690476D
:101F6000761C0C35E4E7F8BD582700004C2700002C
:101F700070B50D48401C02D00B48FFF7D3FF0B484B
:101F80000B4C84420CD00B4D0B4EB54208D02A6846
:101F90006968501C12789200A25890470835F4E7FF
:101FA00000BF00BF70BDC04680270000582700005A
:101FB0004C270000682700008027000080B50D48EE
:101FC0004178012915D10C490978012911D181786D
:101FD000002905D004290CD808490968006902E0E5
:101FE00006490968C068081A0549884201D9FEF700
:101FF000EDFF80BDB8010020190100202001002064
:102000003075000070B50E4D01200404C6022C642A
:102010002E64782000F0DAFA0A480068C00302D47F
:1020200000F0AEF870BD2C602C637824204600F0E0
:10203000CDFA2E602E63204600F0C8FA70BDC0466F
:10204000A0120A4080130A4010B50C48407A0002E2
:10205000FF21C94341184A424A41094C22700121DB
:102060000902884209D100F06FF906480068002192
:10207000C9436060A1600448608010BD5802002020
:10208000D801002020010020FFFF0000F0B5112240
:102090001302C2180C780B4D46590B4F37400326DC
:1020A0002640BC19A9263606A41944514C68C558C7
:1020B00007263606B54334402C19C45048781061C1
:1020C000F0BDC04608080000FCFFFF001CB50A0078
:1020D00017D000230124E407A04200D20400944258
:1020E00001D95200FBE790425B41904200D3801A35
:1020F000914201D25208F6E71900020008001100CF
:102100001CBD01000020FFF798FE1CBDFCB4020CB2
:102110000B0CFF242402FF34204021400C004443D8
:1021200015005D4306005E430F005743320C3B0C25
:10213000A818C01832043B040025A1186841C9182A
:102140006841FCBC70477047B0B50B480122510490
:102150000A4B1C689502AC431C605C6812059443F2
:102160005C6002680A4205D002680A4202D0026836
:102170000A42F6D1B0BDC04604020B4000010B403C
:10218000F8B501252E04084F3E603E6378242046B2
:1021900006498847E80238642046044DA8473E6453
:1021A0002046A847F8BDC046A0120A40CD25000031
:1021B00080B50848203000F0FBF8002805D006491B
:1021C00000228A70054A1268CA60411E884102498D
:1021D000487080BDB8000020B80100202001002018
:1021E00080B5074800680749884204D1FFF796FD8B
:1021F000FFF7DEFF80BD04480121017080BDC046AD
:10220000580200205CAA55AAB801002010B5064962
:10221000064C204600F08AF90549204600F0A6F851
:10222000F02000F0D3F910BDF326000000000340B9
:102230009C2600000748026801680020120108D5AA
:10224000490706D504498A79002A02D1C97948424A
:102250004841704780130A40A4010020084880F3D9
:10226000088800BF00BF00F0CEF9002801D0FFF7BA
:102270007FFE0020FDF724FF012000F0BBF9C046DF
:1022800000040020B0B5074BC4180125C550FF233A
:102290002362E1611168E1625168216300F004F892
:1022A000B0BDC0460411000082B00094014C0194FE
:1022B00010BD00BFF901002006480021016006485A
:1022C000016803229143016041680F2291434160FC
:1022D0007047C04608030B4000010B4030B51400A6
:1022E0004C4325001C0044436419050010002900DC
:1022F000FFF70CFF001904000D002100280030BD7D
:1023000010B507494A690378002B08D03E2A06D841
:10231000401C541C4C618A1813762246F3E710BD0A
:102320001801002010B500220549064B3C2A04D0B4
:10233000845C61405943521CF8E7084610BDC04612
:10234000C59D1C819301000110B5FFF75BFE064C93
:102350008820A0470120A047C220A0471020A04706
:10236000FFF70EFF10BDC0466D1A0000B0B5112278
:10237000120283180C784D7825434C882C43A4B264
:1023800084508888C988090408189860B0BD80B551
:10239000FFF7A2FDFFF77AFDFFF78EFFFFF78AFC3C
:1023A000FFF71AFCFFF732FF00F072F880BD000063
:1023B00010B50021054B425C5C5CA24203D1491C74
:1023C0004029F8D11446101B10BDC0465802002009
:1023D00018B520239B1A04D8010000205B429940C5
:1023E00004E004009140DC402143904018BD00000F
:1023F00010B592008018044A83580724A404A3430C
:1024000021405918815010BD3018000010B501222C
:10241000120383180C789C604B7883508978014AAA
:10242000815010BD0C110000BFF34F8F03480449C9
:102430000160BFF34F8F00BFFDE7C0460CED00E029
:102440000400FA05BFF34F8F034804490160BFF34E
:102450004F8F00BFFDE7C0460CED00E00400FA0519
:10246000B0B5044BC41802251543C550E161FFF710
:102470001BFFB0BD0411000010B5029CA4000019A0
:1024800011431943014A815010BDC0465018000045
:102490000348044901605F21490641607047C04616
:1024A00000110840430002C980B504484078012863
:1024B00002D1FEF78BFD80BD012080BDB801002058
:1024C0002120C00203490860012002040A64C002FE
:1024D00008647047A0120A406820345469203454BC
:1024E0006A2034546B2034545620345470470322ED
:1024F0008058002805D0401E4A1C00230B7011464E
:10250000F7E7704702480168024A0A4302607047D1
:1025100048100A400400000840B584B002AE00969E
:10252000FFF708FA029A039B04B040BD10B50122E0
:10253000120383180C789C604978815010BD10B547
:1025400000239A4203D0CC5CC4545B1CF9E710BD55
:1025500080B50B4603214258C11D184600F040F8D3
:1025600080BD000092008018014A81507047C0462B
:102570001018000000239A4202D0C1545B1CFAE7F5
:10258000704700000A46002180B5FFF7F3FF80BDC9
:10259000014AD08011707047CC010020014880783A
:1025A0007047C046B8010020014840687047C046E7
:1025B000B8010020014880687047C046B80100207B
:1025C000014840787047C046B8010020811E091FAD
:1025D00000BFFCD2704702986870EC602C7033E545
:1025E00080B5FFF7ACFF80BD2A46234694E721461D
:1025F000234673E600F001F8FEE700BF704733465C
:102600006CE62BE6704701207047000000000000D8
:1026100081B01649411811221202012383500A6821
:10262000072002400092009AD2B2032A19D0009AE1
:10263000D2B2012A15D00A6802400092009AD2B2A2
:10264000032A0ED0009AD2B2012A0AD00A680240A8
:1026500000920098C0B2032803D00098C0B20128AD
:10266000DDD10098C0B201B07047C046D013000061
:1026700005001400320096002C01C201580220030C
:10268000E803CEFFE2FF00001E003200010400005C
:102690000000000060090000000000000180000050
:1026A000000000006D56204D61783A005B4D414EB0
:1026B0005D20005B4552525D20005B4C56505D2012
:1026C000005B4F46465D20005B414C535D20005B44
:1026D0005453545D20005B464C535D2000204F66F0
:1026E000733A004C766C3A0020563A0020503A007B
:0826F0000800000200000000D8
:1026F80000E5000001010052004F830156342EFF0F
:10270800332E315F50524F44FE0A4F73496E69743D
:1027180069616CFF697A696E672E2E2E36138F21D8
:10272800FFFF17311C0C0033031F185A1A3F0138DA
:102738001B7F005F09067BFF0000061DDA0100FF12
:10274800F0000000E91A000051250000EF24000005
:1027580002000000400000000001000004FFF0003B
:10276800F82600000000002058270000580200202A
:08277800602700009802002018
:102780000C00010010260000F8010020600000008D
:1037F00056342E332E315F50524F440000000000EB
:10380000FFFFFFFFFFFFFFFFFFFFFFFFFFFFFFFFC8
:10381000FFFFFFFFFFFFFFFFFFFFFFFFFFFFFFFFB8
:10382000FFFFFFFFFFFFFFFFFFFFFFFFFFFFFFFFA8
:10383000FFFFFFFFFFFFFFFFFFFFFFFFFFFFFFFF98
:040000030000225D7A
:00000001FF
